{
  "abi": [
    {
      "inputs": [
        {
          "internalType": "bytes32",
          "name": "_minimumPriceHash",
          "type": "bytes32"
        },
        {
          "internalType": "address",
          "name": "_nftContract",
          "type": "address"
        },
        {
          "internalType": "uint256",
          "name": "_tokenId",
          "type": "uint256"
        },
        {
          "internalType": "uint256",
          "name": "_revealTime",
          "type": "uint256"
        },
        {
          "internalType": "uint256",
          "name": "_winnerTime",
          "type": "uint256"
        }
      ],
      "stateMutability": "nonpayable",
      "type": "constructor"
    },
    {
      "anonymous": false,
      "inputs": [
        {
          "indexed": true,
          "internalType": "address",
          "name": "previousOwner",
          "type": "address"
        },
        {
          "indexed": true,
          "internalType": "address",
          "name": "newOwner",
          "type": "address"
        }
      ],
      "name": "OwnershipTransferred",
      "type": "event"
    },
    {
      "inputs": [
        {
          "internalType": "address",
          "name": "",
          "type": "address"
        }
      ],
      "name": "accountToAmount",
      "outputs": [
        {
          "internalType": "uint256",
          "name": "",
          "type": "uint256"
        }
      ],
      "stateMutability": "view",
      "type": "function"
    },
    {
      "inputs": [
        {
          "internalType": "address",
          "name": "",
          "type": "address"
        }
      ],
      "name": "accountToHash",
      "outputs": [
        {
          "internalType": "bytes32",
          "name": "",
          "type": "bytes32"
        }
      ],
      "stateMutability": "view",
      "type": "function"
    },
    {
      "inputs": [
        {
          "internalType": "address",
          "name": "",
          "type": "address"
        }
      ],
      "name": "accountToOffer",
      "outputs": [
        {
          "internalType": "uint256",
          "name": "",
          "type": "uint256"
        }
      ],
      "stateMutability": "view",
      "type": "function"
    },
    {
      "inputs": [],
      "name": "amount",
      "outputs": [
        {
          "internalType": "uint256",
          "name": "",
          "type": "uint256"
        }
      ],
      "stateMutability": "view",
      "type": "function"
    },
    {
      "inputs": [],
      "name": "auction_state",
      "outputs": [
        {
          "internalType": "enum SealedBidAuction.AUCTION_STATE",
          "name": "",
          "type": "uint8"
        }
      ],
      "stateMutability": "view",
      "type": "function"
    },
    {
      "inputs": [],
      "name": "closeOffers",
      "outputs": [],
      "stateMutability": "nonpayable",
      "type": "function"
    },
    {
      "inputs": [],
      "name": "closeReveals",
      "outputs": [],
      "stateMutability": "nonpayable",
      "type": "function"
    },
    {
      "inputs": [
        {
          "internalType": "bytes32",
          "name": "_hash",
          "type": "bytes32"
        }
      ],
      "name": "makeOffer",
      "outputs": [],
      "stateMutability": "payable",
      "type": "function"
    },
    {
      "inputs": [],
      "name": "minimumPrice",
      "outputs": [
        {
          "internalType": "uint256",
          "name": "",
          "type": "uint256"
        }
      ],
      "stateMutability": "view",
      "type": "function"
    },
    {
      "inputs": [],
      "name": "minimumPriceHash",
      "outputs": [
        {
          "internalType": "bytes32",
          "name": "",
          "type": "bytes32"
        }
      ],
      "stateMutability": "view",
      "type": "function"
    },
    {
      "inputs": [
        {
          "internalType": "address",
          "name": "operator",
          "type": "address"
        },
        {
          "internalType": "address",
          "name": "from",
          "type": "address"
        },
        {
          "internalType": "uint256",
          "name": "tokenId",
          "type": "uint256"
        },
        {
          "internalType": "bytes",
          "name": "data",
          "type": "bytes"
        }
      ],
      "name": "onERC721Received",
      "outputs": [
        {
          "internalType": "bytes4",
          "name": "",
          "type": "bytes4"
        }
      ],
      "stateMutability": "nonpayable",
      "type": "function"
    },
    {
      "inputs": [],
      "name": "owner",
      "outputs": [
        {
          "internalType": "address",
          "name": "",
          "type": "address"
        }
      ],
      "stateMutability": "view",
      "type": "function"
    },
    {
      "inputs": [],
      "name": "ownerGetsPayed",
      "outputs": [],
      "stateMutability": "nonpayable",
      "type": "function"
    },
    {
      "inputs": [],
      "name": "parentNFT",
      "outputs": [
        {
          "internalType": "contract IERC721",
          "name": "",
          "type": "address"
        }
      ],
      "stateMutability": "view",
      "type": "function"
    },
    {
      "inputs": [
        {
          "internalType": "uint256",
          "name": "",
          "type": "uint256"
        }
      ],
      "name": "players",
      "outputs": [
        {
          "internalType": "address",
          "name": "",
          "type": "address"
        }
      ],
      "stateMutability": "view",
      "type": "function"
    },
    {
      "inputs": [],
      "name": "reimburseParticipant",
      "outputs": [],
      "stateMutability": "nonpayable",
      "type": "function"
    },
    {
      "inputs": [],
      "name": "renounceOwnership",
      "outputs": [],
      "stateMutability": "nonpayable",
      "type": "function"
    },
    {
      "inputs": [
        {
          "internalType": "string",
          "name": "_secret",
          "type": "string"
        },
        {
          "internalType": "uint256",
          "name": "_amount",
          "type": "uint256"
        }
      ],
      "name": "revealOffer",
      "outputs": [],
      "stateMutability": "nonpayable",
      "type": "function"
    },
    {
      "inputs": [],
      "name": "revealTime",
      "outputs": [
        {
          "internalType": "uint256",
          "name": "",
          "type": "uint256"
        }
      ],
      "stateMutability": "view",
      "type": "function"
    },
    {
      "inputs": [],
      "name": "tokenId",
      "outputs": [
        {
          "internalType": "uint256",
          "name": "",
          "type": "uint256"
        }
      ],
      "stateMutability": "view",
      "type": "function"
    },
    {
      "inputs": [],
      "name": "transferAssetToContract",
      "outputs": [],
      "stateMutability": "nonpayable",
      "type": "function"
    },
    {
      "inputs": [
        {
          "internalType": "address",
          "name": "newOwner",
          "type": "address"
        }
      ],
      "name": "transferOwnership",
      "outputs": [],
      "stateMutability": "nonpayable",
      "type": "function"
    },
    {
      "inputs": [],
      "name": "winner",
      "outputs": [
        {
          "internalType": "address",
          "name": "",
          "type": "address"
        }
      ],
      "stateMutability": "view",
      "type": "function"
    },
    {
      "inputs": [
        {
          "internalType": "string",
          "name": "_secret",
          "type": "string"
        },
        {
          "internalType": "uint256",
          "name": "_amount",
          "type": "uint256"
        }
      ],
      "name": "winnerCalculation",
      "outputs": [],
      "stateMutability": "nonpayable",
      "type": "function"
    },
    {
      "inputs": [],
      "name": "winnerRetrivesToken",
      "outputs": [],
      "stateMutability": "nonpayable",
      "type": "function"
    },
    {
      "inputs": [],
      "name": "winnerTime",
      "outputs": [
        {
          "internalType": "uint256",
          "name": "",
          "type": "uint256"
        }
      ],
      "stateMutability": "view",
      "type": "function"
    }
  ],
  "bytecode": "608060405234801561001057600080fd5b5060405161145538038061145583398101604081905261002f916100c7565b61003833610077565b600d805460ff19169055600794909455600980546001600160a01b0319166001600160a01b039490941693909317909255600a55600b55600c5561011d565b600080546001600160a01b038381166001600160a01b0319831681178455604051919092169283917f8be0079c531659141344cd1fd0a4f28419497f9722a3daafe3b4186f6b6457e09190a35050565b600080600080600060a086880312156100df57600080fd5b855160208701519095506001600160a01b03811681146100fe57600080fd5b6040870151606088015160809098015196999198509695945092505050565b6113298061012c6000396000f3fe6080604052600436106101815760003560e01c80638da5cb5b116100d1578063d5b19df51161008a578063e8a5acee11610064578063e8a5acee1461042d578063f2fde38b14610443578063f71d96cb14610463578063f9688bc11461048357600080fd5b8063d5b19df5146103cd578063d7ee3c79146103ed578063dfbf53ae1461040d57600080fd5b80638da5cb5b14610325578063aa8c217c14610357578063b6f1ad5b1461036d578063b8e33fb214610382578063ba829d71146103a2578063d28a2edd146103b857600080fd5b8063715018a61161013e5780637f386b6c116101185780637f386b6c146102b8578063825d6322146102ce57806389a694dd146102e35780638ab9e9111461031057600080fd5b8063715018a61461027857806374328b1c1461028d5780637676d235146102a257600080fd5b8063051e152414610186578063150b7a021461019b57806317d70f7c146101e557806335fe2d7f14610209578063391073811461023657806364b4d4281461024b575b600080fd5b610199610194366004610fb2565b6104aa565b005b3480156101a757600080fd5b506101c76101b6366004610fe7565b630a85bd0160e11b95945050505050565b6040516001600160e01b031990911681526020015b60405180910390f35b3480156101f157600080fd5b506101fb600a5481565b6040519081526020016101dc565b34801561021557600080fd5b506101fb610224366004611082565b60046020526000908152604090205481565b34801561024257600080fd5b50610199610620565b34801561025757600080fd5b506101fb610266366004611082565b60036020526000908152604090205481565b34801561028457600080fd5b5061019961074c565b34801561029957600080fd5b50610199610780565b3480156102ae57600080fd5b506101fb600c5481565b3480156102c457600080fd5b506101fb60085481565b3480156102da57600080fd5b5061019961083a565b3480156102ef57600080fd5b506101fb6102fe366004611082565b60026020526000908152604090205481565b34801561031c57600080fd5b5061019961093e565b34801561033157600080fd5b506000546001600160a01b03165b6040516001600160a01b0390911681526020016101dc565b34801561036357600080fd5b506101fb60065481565b34801561037957600080fd5b506101996109aa565b34801561038e57600080fd5b5060095461033f906001600160a01b031681565b3480156103ae57600080fd5b506101fb600b5481565b3480156103c457600080fd5b506101996109ed565b3480156103d957600080fd5b506101996103e83660046110ba565b610a3f565b3480156103f957600080fd5b506101996104083660046110ba565b610b4a565b34801561041957600080fd5b5060055461033f906001600160a01b031681565b34801561043957600080fd5b506101fb60075481565b34801561044f57600080fd5b5061019961045e366004611082565b610d4f565b34801561046f57600080fd5b5061033f61047e366004610fb2565b610dea565b34801561048f57600080fd5b50600d5461049d9060ff1681565b6040516101dc9190611185565b6001600d5460ff1660048111156104c3576104c361116f565b146104e95760405162461bcd60e51b81526004016104e0906111ad565b60405180910390fd5b6000546001600160a01b03163314156105355760405162461bcd60e51b815260206004820152600e60248201526d13dddb995c8818d85b9d08189a5960921b60448201526064016104e0565b600034116105755760405162461bcd60e51b815260206004820152600d60248201526c09ccacac840e6dedaca408aa89609b1b60448201526064016104e0565b33600090815260026020526040902054156105c35760405162461bcd60e51b815260206004820152600e60248201526d43616e742062696420747769636560901b60448201526064016104e0565b600180548082019091557fb10e2d527612073b26eecdfd717e6a320cf44b4afac2b0732d9fcbe2b7fa0cf60180546001600160a01b0319163390811790915560009081526002602090815260408083203490556003909152902055565b6000546001600160a01b0316331461064a5760405162461bcd60e51b81526004016104e0906111da565b6004600d5460ff1660048111156106635761066361116f565b1461066d57600080fd5b600654156106cc576006805460009091556106906000546001600160a01b031690565b6001600160a01b03166108fc829081150290604051600060405180830381858888f193505050501580156106c8573d6000803e3d6000fd5b5050565b6009546001600160a01b03166342842e0e3033600a546040516001600160e01b031960e086901b1681526001600160a01b0393841660048201529290911660248301526044820152606401600060405180830381600087803b15801561073157600080fd5b505af1158015610745573d6000803e3d6000fd5b505050505b565b6000546001600160a01b031633146107765760405162461bcd60e51b81526004016104e0906111da565b61074a6000610e14565b6000546001600160a01b031633146107aa5760405162461bcd60e51b81526004016104e0906111da565b6009546001600160a01b03166342842e0e33600a546040516001600160e01b031960e085901b1681526001600160a01b0390921660048301523060248301526044820152606401600060405180830381600087803b15801561080b57600080fd5b505af115801561081f573d6000803e3d6000fd5b5050600d80546001935090915060ff191682805b0217905550565b600c54610848906005611225565b4210156108675760405162461bcd60e51b81526004016104e09061123d565b6000546001600160a01b03163314156108cd5760405162461bcd60e51b815260206004820152602260248201527f4f776e6572206d757374207573652077696e6e657243616c63756c6174696f6e604482015261282960f01b60648201526084016104e0565b6002600d5460ff1660048111156108e6576108e661116f565b146109295760405162461bcd60e51b815260206004820152601360248201527277726f6e672061756374696f6e20737461746560681b60448201526064016104e0565b600d805460ff1916600317905561074a610e64565b600b544210156109605760405162461bcd60e51b81526004016104e09061123d565b6001600d5460ff1660048111156109795761097961116f565b146109965760405162461bcd60e51b81526004016104e0906111ad565b600d80546002919060ff1916600183610833565b6004600d5460ff1660048111156109c3576109c361116f565b146109cd57600080fd5b6005546001600160a01b0316336001600160a01b0316146106cc57600080fd5b6004600d5460ff166004811115610a0657610a0661116f565b14610a1057600080fd5b3360009081526002602052604090205480610a2a57600080fd5b33600081815260026020526040812055610690565b6000546001600160a01b03163314610a695760405162461bcd60e51b81526004016104e0906111da565b6002600d5460ff166004811115610a8257610a8261116f565b14610a9f5760405162461bcd60e51b81526004016104e0906111ad565b600c54421015610ac15760405162461bcd60e51b81526004016104e09061123d565b8181604051602001610ad492919061126a565b6040516020818303038152906040528051906020012060075414610b305760405162461bcd60e51b8152602060048201526013602482015272090c2e6d0cae640c8de40dcdee840dac2e8c6d606b1b60448201526064016104e0565b6008819055600d805460ff191660031790556106c8610e64565b6002600d5460ff166004811115610b6357610b6361116f565b14610ba15760405162461bcd60e51b815260206004820152600e60248201526d4e6f742072696768742074696d6560901b60448201526064016104e0565b33600090815260026020526040902054610bfd5760405162461bcd60e51b815260206004820152601960248201527f596f7520617265206e6f742061207061727469636970616e740000000000000060448201526064016104e0565b3360009081526004602052604090205415610c515760405162461bcd60e51b815260206004820152601460248201527343616e206f6e6c792072657665616c206f6e636560601b60448201526064016104e0565b33600090815260026020526040902054811115610ca45760405162461bcd60e51b815260206004820152601160248201527013d999995c881a5b9d985b1a59185d1959607a1b60448201526064016104e0565b8181604051602001610cb792919061126a565b6040516020818303038152906040528051906020012060036000610cd83390565b6001600160a01b03166001600160a01b031681526020019081526020016000205414610d3c5760405162461bcd60e51b8152602060048201526013602482015272090c2e6d0cae640c8de40dcdee840dac2e8c6d606b1b60448201526064016104e0565b3360009081526004602052604090205550565b6000546001600160a01b03163314610d795760405162461bcd60e51b81526004016104e0906111da565b6001600160a01b038116610dde5760405162461bcd60e51b815260206004820152602660248201527f4f776e61626c653a206e6577206f776e657220697320746865207a65726f206160448201526564647265737360d01b60648201526084016104e0565b610de781610e14565b50565b60018181548110610dfa57600080fd5b6000918252602090912001546001600160a01b0316905081565b600080546001600160a01b038381166001600160a01b0319831681178455604051919092169283917f8be0079c531659141344cd1fd0a4f28419497f9722a3daafe3b4186f6b6457e09190a35050565b6001546000908190819015610fa0575060005b600154811015610f1857816004600060018481548110610e9957610e996112ab565b60009182526020808320909101546001600160a01b031683528201929092526040019020541115610f06578092506004600060018381548110610ede57610ede6112ab565b60009182526020808320909101546001600160a01b0316835282019290925260400190205491505b80610f10816112c1565b915050610e77565b6008548210610fa05760018381548110610f3457610f346112ab565b6000918252602080832090910154600580546001600160a01b0319166001600160a01b0390921691821790558252600481526040808320546006819055600290925290912054610f8491906112dc565b6005546001600160a01b03166000908152600260205260409020555b5050600d805460ff1916600417905550565b600060208284031215610fc457600080fd5b5035919050565b80356001600160a01b0381168114610fe257600080fd5b919050565b600080600080600060808688031215610fff57600080fd5b61100886610fcb565b945061101660208701610fcb565b935060408601359250606086013567ffffffffffffffff8082111561103a57600080fd5b818801915088601f83011261104e57600080fd5b81358181111561105d57600080fd5b89602082850101111561106f57600080fd5b9699959850939650602001949392505050565b60006020828403121561109457600080fd5b61109d82610fcb565b9392505050565b634e487b7160e01b600052604160045260246000fd5b600080604083850312156110cd57600080fd5b823567ffffffffffffffff808211156110e557600080fd5b818501915085601f8301126110f957600080fd5b81358181111561110b5761110b6110a4565b604051601f8201601f19908116603f01168101908382118183101715611133576111336110a4565b8160405282815288602084870101111561114c57600080fd5b826020860160208301376000602093820184015298969091013596505050505050565b634e487b7160e01b600052602160045260246000fd5b60208101600583106111a757634e487b7160e01b600052602160045260246000fd5b91905290565b60208082526013908201527257726f6e672061756374696f6e20737461746560681b604082015260600190565b6020808252818101527f4f776e61626c653a2063616c6c6572206973206e6f7420746865206f776e6572604082015260600190565b634e487b7160e01b600052601160045260246000fd5b600082198211156112385761123861120f565b500190565b6020808252601390820152725761697420756e74696c207365742074696d6560681b604082015260600190565b6000835160005b8181101561128b5760208187018101518583015201611271565b8181111561129a576000828501525b509190910191825250602001919050565b634e487b7160e01b600052603260045260246000fd5b60006000198214156112d5576112d561120f565b5060010190565b6000828210156112ee576112ee61120f565b50039056fea26469706673582212209c17ff29b28b220b99d29ef9a5debc88e7c9d0283cc536da411b0f18fb81921b64736f6c634300080c0033",
  "bytecodeSha1": "c3b38e7f73ccd758df1c1316cfe5ee0c950d8788",
  "compiler": {
    "evm_version": "istanbul",
    "optimizer": {
      "enabled": true,
      "runs": 200
    },
    "version": "0.8.12+commit.f00d7308"
  },
  "contractName": "SealedBidAuction",
  "language": "Solidity",
  "natspec": {
    "kind": "dev",
    "methods": {
      "onERC721Received(address,address,uint256,bytes)": {
        "details": "Whenever an {IERC721} `tokenId` token is transferred to this contract via {IERC721-safeTransferFrom} by `operator` from `from`, this function is called. It must return its Solidity selector to confirm the token transfer. If any other value is returned or the interface is not implemented by the recipient, the transfer will be reverted. The selector can be obtained in Solidity with `IERC721.onERC721Received.selector`."
      },
      "owner()": {
        "details": "Returns the address of the current owner."
      },
      "renounceOwnership()": {
        "details": "Leaves the contract without owner. It will not be possible to call `onlyOwner` functions anymore. Can only be called by the current owner. NOTE: Renouncing ownership will leave the contract without an owner, thereby removing any functionality that is only available to the owner."
      },
      "transferOwnership(address)": {
        "details": "Transfers ownership of the contract to a new account (`newOwner`). Can only be called by the current owner."
      }
    },
    "version": 1
  },
  "opcodes": "PUSH1 0x80 PUSH1 0x40 MSTORE PUSH1 0x4 CALLDATASIZE LT PUSH2 0x181 JUMPI PUSH1 0x0 CALLDATALOAD PUSH1 0xE0 SHR DUP1 PUSH4 0x8DA5CB5B GT PUSH2 0xD1 JUMPI DUP1 PUSH4 0xD5B19DF5 GT PUSH2 0x8A JUMPI DUP1 PUSH4 0xE8A5ACEE GT PUSH2 0x64 JUMPI DUP1 PUSH4 0xE8A5ACEE EQ PUSH2 0x42D JUMPI DUP1 PUSH4 0xF2FDE38B EQ PUSH2 0x443 JUMPI DUP1 PUSH4 0xF71D96CB EQ PUSH2 0x463 JUMPI DUP1 PUSH4 0xF9688BC1 EQ PUSH2 0x483 JUMPI PUSH1 0x0 DUP1 REVERT JUMPDEST DUP1 PUSH4 0xD5B19DF5 EQ PUSH2 0x3CD JUMPI DUP1 PUSH4 0xD7EE3C79 EQ PUSH2 0x3ED JUMPI DUP1 PUSH4 0xDFBF53AE EQ PUSH2 0x40D JUMPI PUSH1 0x0 DUP1 REVERT JUMPDEST DUP1 PUSH4 0x8DA5CB5B EQ PUSH2 0x325 JUMPI DUP1 PUSH4 0xAA8C217C EQ PUSH2 0x357 JUMPI DUP1 PUSH4 0xB6F1AD5B EQ PUSH2 0x36D JUMPI DUP1 PUSH4 0xB8E33FB2 EQ PUSH2 0x382 JUMPI DUP1 PUSH4 0xBA829D71 EQ PUSH2 0x3A2 JUMPI DUP1 PUSH4 0xD28A2EDD EQ PUSH2 0x3B8 JUMPI PUSH1 0x0 DUP1 REVERT JUMPDEST DUP1 PUSH4 0x715018A6 GT PUSH2 0x13E JUMPI DUP1 PUSH4 0x7F386B6C GT PUSH2 0x118 JUMPI DUP1 PUSH4 0x7F386B6C EQ PUSH2 0x2B8 JUMPI DUP1 PUSH4 0x825D6322 EQ PUSH2 0x2CE JUMPI DUP1 PUSH4 0x89A694DD EQ PUSH2 0x2E3 JUMPI DUP1 PUSH4 0x8AB9E911 EQ PUSH2 0x310 JUMPI PUSH1 0x0 DUP1 REVERT JUMPDEST DUP1 PUSH4 0x715018A6 EQ PUSH2 0x278 JUMPI DUP1 PUSH4 0x74328B1C EQ PUSH2 0x28D JUMPI DUP1 PUSH4 0x7676D235 EQ PUSH2 0x2A2 JUMPI PUSH1 0x0 DUP1 REVERT JUMPDEST DUP1 PUSH4 0x51E1524 EQ PUSH2 0x186 JUMPI DUP1 PUSH4 0x150B7A02 EQ PUSH2 0x19B JUMPI DUP1 PUSH4 0x17D70F7C EQ PUSH2 0x1E5 JUMPI DUP1 PUSH4 0x35FE2D7F EQ PUSH2 0x209 JUMPI DUP1 PUSH4 0x39107381 EQ PUSH2 0x236 JUMPI DUP1 PUSH4 0x64B4D428 EQ PUSH2 0x24B JUMPI JUMPDEST PUSH1 0x0 DUP1 REVERT JUMPDEST PUSH2 0x199 PUSH2 0x194 CALLDATASIZE PUSH1 0x4 PUSH2 0xFB2 JUMP JUMPDEST PUSH2 0x4AA JUMP JUMPDEST STOP JUMPDEST CALLVALUE DUP1 ISZERO PUSH2 0x1A7 JUMPI PUSH1 0x0 DUP1 REVERT JUMPDEST POP PUSH2 0x1C7 PUSH2 0x1B6 CALLDATASIZE PUSH1 0x4 PUSH2 0xFE7 JUMP JUMPDEST PUSH4 0xA85BD01 PUSH1 0xE1 SHL SWAP6 SWAP5 POP POP POP POP POP JUMP JUMPDEST PUSH1 0x40 MLOAD PUSH1 0x1 PUSH1 0x1 PUSH1 0xE0 SHL SUB NOT SWAP1 SWAP2 AND DUP2 MSTORE PUSH1 0x20 ADD JUMPDEST PUSH1 0x40 MLOAD DUP1 SWAP2 SUB SWAP1 RETURN JUMPDEST CALLVALUE DUP1 ISZERO PUSH2 0x1F1 JUMPI PUSH1 0x0 DUP1 REVERT JUMPDEST POP PUSH2 0x1FB PUSH1 0xA SLOAD DUP2 JUMP JUMPDEST PUSH1 0x40 MLOAD SWAP1 DUP2 MSTORE PUSH1 0x20 ADD PUSH2 0x1DC JUMP JUMPDEST CALLVALUE DUP1 ISZERO PUSH2 0x215 JUMPI PUSH1 0x0 DUP1 REVERT JUMPDEST POP PUSH2 0x1FB PUSH2 0x224 CALLDATASIZE PUSH1 0x4 PUSH2 0x1082 JUMP JUMPDEST PUSH1 0x4 PUSH1 0x20 MSTORE PUSH1 0x0 SWAP1 DUP2 MSTORE PUSH1 0x40 SWAP1 KECCAK256 SLOAD DUP2 JUMP JUMPDEST CALLVALUE DUP1 ISZERO PUSH2 0x242 JUMPI PUSH1 0x0 DUP1 REVERT JUMPDEST POP PUSH2 0x199 PUSH2 0x620 JUMP JUMPDEST CALLVALUE DUP1 ISZERO PUSH2 0x257 JUMPI PUSH1 0x0 DUP1 REVERT JUMPDEST POP PUSH2 0x1FB PUSH2 0x266 CALLDATASIZE PUSH1 0x4 PUSH2 0x1082 JUMP JUMPDEST PUSH1 0x3 PUSH1 0x20 MSTORE PUSH1 0x0 SWAP1 DUP2 MSTORE PUSH1 0x40 SWAP1 KECCAK256 SLOAD DUP2 JUMP JUMPDEST CALLVALUE DUP1 ISZERO PUSH2 0x284 JUMPI PUSH1 0x0 DUP1 REVERT JUMPDEST POP PUSH2 0x199 PUSH2 0x74C JUMP JUMPDEST CALLVALUE DUP1 ISZERO PUSH2 0x299 JUMPI PUSH1 0x0 DUP1 REVERT JUMPDEST POP PUSH2 0x199 PUSH2 0x780 JUMP JUMPDEST CALLVALUE DUP1 ISZERO PUSH2 0x2AE JUMPI PUSH1 0x0 DUP1 REVERT JUMPDEST POP PUSH2 0x1FB PUSH1 0xC SLOAD DUP2 JUMP JUMPDEST CALLVALUE DUP1 ISZERO PUSH2 0x2C4 JUMPI PUSH1 0x0 DUP1 REVERT JUMPDEST POP PUSH2 0x1FB PUSH1 0x8 SLOAD DUP2 JUMP JUMPDEST CALLVALUE DUP1 ISZERO PUSH2 0x2DA JUMPI PUSH1 0x0 DUP1 REVERT JUMPDEST POP PUSH2 0x199 PUSH2 0x83A JUMP JUMPDEST CALLVALUE DUP1 ISZERO PUSH2 0x2EF JUMPI PUSH1 0x0 DUP1 REVERT JUMPDEST POP PUSH2 0x1FB PUSH2 0x2FE CALLDATASIZE PUSH1 0x4 PUSH2 0x1082 JUMP JUMPDEST PUSH1 0x2 PUSH1 0x20 MSTORE PUSH1 0x0 SWAP1 DUP2 MSTORE PUSH1 0x40 SWAP1 KECCAK256 SLOAD DUP2 JUMP JUMPDEST CALLVALUE DUP1 ISZERO PUSH2 0x31C JUMPI PUSH1 0x0 DUP1 REVERT JUMPDEST POP PUSH2 0x199 PUSH2 0x93E JUMP JUMPDEST CALLVALUE DUP1 ISZERO PUSH2 0x331 JUMPI PUSH1 0x0 DUP1 REVERT JUMPDEST POP PUSH1 0x0 SLOAD PUSH1 0x1 PUSH1 0x1 PUSH1 0xA0 SHL SUB AND JUMPDEST PUSH1 0x40 MLOAD PUSH1 0x1 PUSH1 0x1 PUSH1 0xA0 SHL SUB SWAP1 SWAP2 AND DUP2 MSTORE PUSH1 0x20 ADD PUSH2 0x1DC JUMP JUMPDEST CALLVALUE DUP1 ISZERO PUSH2 0x363 JUMPI PUSH1 0x0 DUP1 REVERT JUMPDEST POP PUSH2 0x1FB PUSH1 0x6 SLOAD DUP2 JUMP JUMPDEST CALLVALUE DUP1 ISZERO PUSH2 0x379 JUMPI PUSH1 0x0 DUP1 REVERT JUMPDEST POP PUSH2 0x199 PUSH2 0x9AA JUMP JUMPDEST CALLVALUE DUP1 ISZERO PUSH2 0x38E JUMPI PUSH1 0x0 DUP1 REVERT JUMPDEST POP PUSH1 0x9 SLOAD PUSH2 0x33F SWAP1 PUSH1 0x1 PUSH1 0x1 PUSH1 0xA0 SHL SUB AND DUP2 JUMP JUMPDEST CALLVALUE DUP1 ISZERO PUSH2 0x3AE JUMPI PUSH1 0x0 DUP1 REVERT JUMPDEST POP PUSH2 0x1FB PUSH1 0xB SLOAD DUP2 JUMP JUMPDEST CALLVALUE DUP1 ISZERO PUSH2 0x3C4 JUMPI PUSH1 0x0 DUP1 REVERT JUMPDEST POP PUSH2 0x199 PUSH2 0x9ED JUMP JUMPDEST CALLVALUE DUP1 ISZERO PUSH2 0x3D9 JUMPI PUSH1 0x0 DUP1 REVERT JUMPDEST POP PUSH2 0x199 PUSH2 0x3E8 CALLDATASIZE PUSH1 0x4 PUSH2 0x10BA JUMP JUMPDEST PUSH2 0xA3F JUMP JUMPDEST CALLVALUE DUP1 ISZERO PUSH2 0x3F9 JUMPI PUSH1 0x0 DUP1 REVERT JUMPDEST POP PUSH2 0x199 PUSH2 0x408 CALLDATASIZE PUSH1 0x4 PUSH2 0x10BA JUMP JUMPDEST PUSH2 0xB4A JUMP JUMPDEST CALLVALUE DUP1 ISZERO PUSH2 0x419 JUMPI PUSH1 0x0 DUP1 REVERT JUMPDEST POP PUSH1 0x5 SLOAD PUSH2 0x33F SWAP1 PUSH1 0x1 PUSH1 0x1 PUSH1 0xA0 SHL SUB AND DUP2 JUMP JUMPDEST CALLVALUE DUP1 ISZERO PUSH2 0x439 JUMPI PUSH1 0x0 DUP1 REVERT JUMPDEST POP PUSH2 0x1FB PUSH1 0x7 SLOAD DUP2 JUMP JUMPDEST CALLVALUE DUP1 ISZERO PUSH2 0x44F JUMPI PUSH1 0x0 DUP1 REVERT JUMPDEST POP PUSH2 0x199 PUSH2 0x45E CALLDATASIZE PUSH1 0x4 PUSH2 0x1082 JUMP JUMPDEST PUSH2 0xD4F JUMP JUMPDEST CALLVALUE DUP1 ISZERO PUSH2 0x46F JUMPI PUSH1 0x0 DUP1 REVERT JUMPDEST POP PUSH2 0x33F PUSH2 0x47E CALLDATASIZE PUSH1 0x4 PUSH2 0xFB2 JUMP JUMPDEST PUSH2 0xDEA JUMP JUMPDEST CALLVALUE DUP1 ISZERO PUSH2 0x48F JUMPI PUSH1 0x0 DUP1 REVERT JUMPDEST POP PUSH1 0xD SLOAD PUSH2 0x49D SWAP1 PUSH1 0xFF AND DUP2 JUMP JUMPDEST PUSH1 0x40 MLOAD PUSH2 0x1DC SWAP2 SWAP1 PUSH2 0x1185 JUMP JUMPDEST PUSH1 0x1 PUSH1 0xD SLOAD PUSH1 0xFF AND PUSH1 0x4 DUP2 GT ISZERO PUSH2 0x4C3 JUMPI PUSH2 0x4C3 PUSH2 0x116F JUMP JUMPDEST EQ PUSH2 0x4E9 JUMPI PUSH1 0x40 MLOAD PUSH3 0x461BCD PUSH1 0xE5 SHL DUP2 MSTORE PUSH1 0x4 ADD PUSH2 0x4E0 SWAP1 PUSH2 0x11AD JUMP JUMPDEST PUSH1 0x40 MLOAD DUP1 SWAP2 SUB SWAP1 REVERT JUMPDEST PUSH1 0x0 SLOAD PUSH1 0x1 PUSH1 0x1 PUSH1 0xA0 SHL SUB AND CALLER EQ ISZERO PUSH2 0x535 JUMPI PUSH1 0x40 MLOAD PUSH3 0x461BCD PUSH1 0xE5 SHL DUP2 MSTORE PUSH1 0x20 PUSH1 0x4 DUP3 ADD MSTORE PUSH1 0xE PUSH1 0x24 DUP3 ADD MSTORE PUSH14 0x13DDDB995C8818D85B9D08189A59 PUSH1 0x92 SHL PUSH1 0x44 DUP3 ADD MSTORE PUSH1 0x64 ADD PUSH2 0x4E0 JUMP JUMPDEST PUSH1 0x0 CALLVALUE GT PUSH2 0x575 JUMPI PUSH1 0x40 MLOAD PUSH3 0x461BCD PUSH1 0xE5 SHL DUP2 MSTORE PUSH1 0x20 PUSH1 0x4 DUP3 ADD MSTORE PUSH1 0xD PUSH1 0x24 DUP3 ADD MSTORE PUSH13 0x9CCACAC840E6DEDACA408AA89 PUSH1 0x9B SHL PUSH1 0x44 DUP3 ADD MSTORE PUSH1 0x64 ADD PUSH2 0x4E0 JUMP JUMPDEST CALLER PUSH1 0x0 SWAP1 DUP2 MSTORE PUSH1 0x2 PUSH1 0x20 MSTORE PUSH1 0x40 SWAP1 KECCAK256 SLOAD ISZERO PUSH2 0x5C3 JUMPI PUSH1 0x40 MLOAD PUSH3 0x461BCD PUSH1 0xE5 SHL DUP2 MSTORE PUSH1 0x20 PUSH1 0x4 DUP3 ADD MSTORE PUSH1 0xE PUSH1 0x24 DUP3 ADD MSTORE PUSH14 0x43616E7420626964207477696365 PUSH1 0x90 SHL PUSH1 0x44 DUP3 ADD MSTORE PUSH1 0x64 ADD PUSH2 0x4E0 JUMP JUMPDEST PUSH1 0x1 DUP1 SLOAD DUP1 DUP3 ADD SWAP1 SWAP2 SSTORE PUSH32 0xB10E2D527612073B26EECDFD717E6A320CF44B4AFAC2B0732D9FCBE2B7FA0CF6 ADD DUP1 SLOAD PUSH1 0x1 PUSH1 0x1 PUSH1 0xA0 SHL SUB NOT AND CALLER SWAP1 DUP2 OR SWAP1 SWAP2 SSTORE PUSH1 0x0 SWAP1 DUP2 MSTORE PUSH1 0x2 PUSH1 0x20 SWAP1 DUP2 MSTORE PUSH1 0x40 DUP1 DUP4 KECCAK256 CALLVALUE SWAP1 SSTORE PUSH1 0x3 SWAP1 SWAP2 MSTORE SWAP1 KECCAK256 SSTORE JUMP JUMPDEST PUSH1 0x0 SLOAD PUSH1 0x1 PUSH1 0x1 PUSH1 0xA0 SHL SUB AND CALLER EQ PUSH2 0x64A JUMPI PUSH1 0x40 MLOAD PUSH3 0x461BCD PUSH1 0xE5 SHL DUP2 MSTORE PUSH1 0x4 ADD PUSH2 0x4E0 SWAP1 PUSH2 0x11DA JUMP JUMPDEST PUSH1 0x4 PUSH1 0xD SLOAD PUSH1 0xFF AND PUSH1 0x4 DUP2 GT ISZERO PUSH2 0x663 JUMPI PUSH2 0x663 PUSH2 0x116F JUMP JUMPDEST EQ PUSH2 0x66D JUMPI PUSH1 0x0 DUP1 REVERT JUMPDEST PUSH1 0x6 SLOAD ISZERO PUSH2 0x6CC JUMPI PUSH1 0x6 DUP1 SLOAD PUSH1 0x0 SWAP1 SWAP2 SSTORE PUSH2 0x690 PUSH1 0x0 SLOAD PUSH1 0x1 PUSH1 0x1 PUSH1 0xA0 SHL SUB AND SWAP1 JUMP JUMPDEST PUSH1 0x1 PUSH1 0x1 PUSH1 0xA0 SHL SUB AND PUSH2 0x8FC DUP3 SWAP1 DUP2 ISZERO MUL SWAP1 PUSH1 0x40 MLOAD PUSH1 0x0 PUSH1 0x40 MLOAD DUP1 DUP4 SUB DUP2 DUP6 DUP9 DUP9 CALL SWAP4 POP POP POP POP ISZERO DUP1 ISZERO PUSH2 0x6C8 JUMPI RETURNDATASIZE PUSH1 0x0 DUP1 RETURNDATACOPY RETURNDATASIZE PUSH1 0x0 REVERT JUMPDEST POP POP JUMP JUMPDEST PUSH1 0x9 SLOAD PUSH1 0x1 PUSH1 0x1 PUSH1 0xA0 SHL SUB AND PUSH4 0x42842E0E ADDRESS CALLER PUSH1 0xA SLOAD PUSH1 0x40 MLOAD PUSH1 0x1 PUSH1 0x1 PUSH1 0xE0 SHL SUB NOT PUSH1 0xE0 DUP7 SWAP1 SHL AND DUP2 MSTORE PUSH1 0x1 PUSH1 0x1 PUSH1 0xA0 SHL SUB SWAP4 DUP5 AND PUSH1 0x4 DUP3 ADD MSTORE SWAP3 SWAP1 SWAP2 AND PUSH1 0x24 DUP4 ADD MSTORE PUSH1 0x44 DUP3 ADD MSTORE PUSH1 0x64 ADD PUSH1 0x0 PUSH1 0x40 MLOAD DUP1 DUP4 SUB DUP2 PUSH1 0x0 DUP8 DUP1 EXTCODESIZE ISZERO DUP1 ISZERO PUSH2 0x731 JUMPI PUSH1 0x0 DUP1 REVERT JUMPDEST POP GAS CALL ISZERO DUP1 ISZERO PUSH2 0x745 JUMPI RETURNDATASIZE PUSH1 0x0 DUP1 RETURNDATACOPY RETURNDATASIZE PUSH1 0x0 REVERT JUMPDEST POP POP POP POP JUMPDEST JUMP JUMPDEST PUSH1 0x0 SLOAD PUSH1 0x1 PUSH1 0x1 PUSH1 0xA0 SHL SUB AND CALLER EQ PUSH2 0x776 JUMPI PUSH1 0x40 MLOAD PUSH3 0x461BCD PUSH1 0xE5 SHL DUP2 MSTORE PUSH1 0x4 ADD PUSH2 0x4E0 SWAP1 PUSH2 0x11DA JUMP JUMPDEST PUSH2 0x74A PUSH1 0x0 PUSH2 0xE14 JUMP JUMPDEST PUSH1 0x0 SLOAD PUSH1 0x1 PUSH1 0x1 PUSH1 0xA0 SHL SUB AND CALLER EQ PUSH2 0x7AA JUMPI PUSH1 0x40 MLOAD PUSH3 0x461BCD PUSH1 0xE5 SHL DUP2 MSTORE PUSH1 0x4 ADD PUSH2 0x4E0 SWAP1 PUSH2 0x11DA JUMP JUMPDEST PUSH1 0x9 SLOAD PUSH1 0x1 PUSH1 0x1 PUSH1 0xA0 SHL SUB AND PUSH4 0x42842E0E CALLER PUSH1 0xA SLOAD PUSH1 0x40 MLOAD PUSH1 0x1 PUSH1 0x1 PUSH1 0xE0 SHL SUB NOT PUSH1 0xE0 DUP6 SWAP1 SHL AND DUP2 MSTORE PUSH1 0x1 PUSH1 0x1 PUSH1 0xA0 SHL SUB SWAP1 SWAP3 AND PUSH1 0x4 DUP4 ADD MSTORE ADDRESS PUSH1 0x24 DUP4 ADD MSTORE PUSH1 0x44 DUP3 ADD MSTORE PUSH1 0x64 ADD PUSH1 0x0 PUSH1 0x40 MLOAD DUP1 DUP4 SUB DUP2 PUSH1 0x0 DUP8 DUP1 EXTCODESIZE ISZERO DUP1 ISZERO PUSH2 0x80B JUMPI PUSH1 0x0 DUP1 REVERT JUMPDEST POP GAS CALL ISZERO DUP1 ISZERO PUSH2 0x81F JUMPI RETURNDATASIZE PUSH1 0x0 DUP1 RETURNDATACOPY RETURNDATASIZE PUSH1 0x0 REVERT JUMPDEST POP POP PUSH1 0xD DUP1 SLOAD PUSH1 0x1 SWAP4 POP SWAP1 SWAP2 POP PUSH1 0xFF NOT AND DUP3 DUP1 JUMPDEST MUL OR SWAP1 SSTORE POP JUMP JUMPDEST PUSH1 0xC SLOAD PUSH2 0x848 SWAP1 PUSH1 0x5 PUSH2 0x1225 JUMP JUMPDEST TIMESTAMP LT ISZERO PUSH2 0x867 JUMPI PUSH1 0x40 MLOAD PUSH3 0x461BCD PUSH1 0xE5 SHL DUP2 MSTORE PUSH1 0x4 ADD PUSH2 0x4E0 SWAP1 PUSH2 0x123D JUMP JUMPDEST PUSH1 0x0 SLOAD PUSH1 0x1 PUSH1 0x1 PUSH1 0xA0 SHL SUB AND CALLER EQ ISZERO PUSH2 0x8CD JUMPI PUSH1 0x40 MLOAD PUSH3 0x461BCD PUSH1 0xE5 SHL DUP2 MSTORE PUSH1 0x20 PUSH1 0x4 DUP3 ADD MSTORE PUSH1 0x22 PUSH1 0x24 DUP3 ADD MSTORE PUSH32 0x4F776E6572206D757374207573652077696E6E657243616C63756C6174696F6E PUSH1 0x44 DUP3 ADD MSTORE PUSH2 0x2829 PUSH1 0xF0 SHL PUSH1 0x64 DUP3 ADD MSTORE PUSH1 0x84 ADD PUSH2 0x4E0 JUMP JUMPDEST PUSH1 0x2 PUSH1 0xD SLOAD PUSH1 0xFF AND PUSH1 0x4 DUP2 GT ISZERO PUSH2 0x8E6 JUMPI PUSH2 0x8E6 PUSH2 0x116F JUMP JUMPDEST EQ PUSH2 0x929 JUMPI PUSH1 0x40 MLOAD PUSH3 0x461BCD PUSH1 0xE5 SHL DUP2 MSTORE PUSH1 0x20 PUSH1 0x4 DUP3 ADD MSTORE PUSH1 0x13 PUSH1 0x24 DUP3 ADD MSTORE PUSH19 0x77726F6E672061756374696F6E207374617465 PUSH1 0x68 SHL PUSH1 0x44 DUP3 ADD MSTORE PUSH1 0x64 ADD PUSH2 0x4E0 JUMP JUMPDEST PUSH1 0xD DUP1 SLOAD PUSH1 0xFF NOT AND PUSH1 0x3 OR SWAP1 SSTORE PUSH2 0x74A PUSH2 0xE64 JUMP JUMPDEST PUSH1 0xB SLOAD TIMESTAMP LT ISZERO PUSH2 0x960 JUMPI PUSH1 0x40 MLOAD PUSH3 0x461BCD PUSH1 0xE5 SHL DUP2 MSTORE PUSH1 0x4 ADD PUSH2 0x4E0 SWAP1 PUSH2 0x123D JUMP JUMPDEST PUSH1 0x1 PUSH1 0xD SLOAD PUSH1 0xFF AND PUSH1 0x4 DUP2 GT ISZERO PUSH2 0x979 JUMPI PUSH2 0x979 PUSH2 0x116F JUMP JUMPDEST EQ PUSH2 0x996 JUMPI PUSH1 0x40 MLOAD PUSH3 0x461BCD PUSH1 0xE5 SHL DUP2 MSTORE PUSH1 0x4 ADD PUSH2 0x4E0 SWAP1 PUSH2 0x11AD JUMP JUMPDEST PUSH1 0xD DUP1 SLOAD PUSH1 0x2 SWAP2 SWAP1 PUSH1 0xFF NOT AND PUSH1 0x1 DUP4 PUSH2 0x833 JUMP JUMPDEST PUSH1 0x4 PUSH1 0xD SLOAD PUSH1 0xFF AND PUSH1 0x4 DUP2 GT ISZERO PUSH2 0x9C3 JUMPI PUSH2 0x9C3 PUSH2 0x116F JUMP JUMPDEST EQ PUSH2 0x9CD JUMPI PUSH1 0x0 DUP1 REVERT JUMPDEST PUSH1 0x5 SLOAD PUSH1 0x1 PUSH1 0x1 PUSH1 0xA0 SHL SUB AND CALLER PUSH1 0x1 PUSH1 0x1 PUSH1 0xA0 SHL SUB AND EQ PUSH2 0x6CC JUMPI PUSH1 0x0 DUP1 REVERT JUMPDEST PUSH1 0x4 PUSH1 0xD SLOAD PUSH1 0xFF AND PUSH1 0x4 DUP2 GT ISZERO PUSH2 0xA06 JUMPI PUSH2 0xA06 PUSH2 0x116F JUMP JUMPDEST EQ PUSH2 0xA10 JUMPI PUSH1 0x0 DUP1 REVERT JUMPDEST CALLER PUSH1 0x0 SWAP1 DUP2 MSTORE PUSH1 0x2 PUSH1 0x20 MSTORE PUSH1 0x40 SWAP1 KECCAK256 SLOAD DUP1 PUSH2 0xA2A JUMPI PUSH1 0x0 DUP1 REVERT JUMPDEST CALLER PUSH1 0x0 DUP2 DUP2 MSTORE PUSH1 0x2 PUSH1 0x20 MSTORE PUSH1 0x40 DUP2 KECCAK256 SSTORE PUSH2 0x690 JUMP JUMPDEST PUSH1 0x0 SLOAD PUSH1 0x1 PUSH1 0x1 PUSH1 0xA0 SHL SUB AND CALLER EQ PUSH2 0xA69 JUMPI PUSH1 0x40 MLOAD PUSH3 0x461BCD PUSH1 0xE5 SHL DUP2 MSTORE PUSH1 0x4 ADD PUSH2 0x4E0 SWAP1 PUSH2 0x11DA JUMP JUMPDEST PUSH1 0x2 PUSH1 0xD SLOAD PUSH1 0xFF AND PUSH1 0x4 DUP2 GT ISZERO PUSH2 0xA82 JUMPI PUSH2 0xA82 PUSH2 0x116F JUMP JUMPDEST EQ PUSH2 0xA9F JUMPI PUSH1 0x40 MLOAD PUSH3 0x461BCD PUSH1 0xE5 SHL DUP2 MSTORE PUSH1 0x4 ADD PUSH2 0x4E0 SWAP1 PUSH2 0x11AD JUMP JUMPDEST PUSH1 0xC SLOAD TIMESTAMP LT ISZERO PUSH2 0xAC1 JUMPI PUSH1 0x40 MLOAD PUSH3 0x461BCD PUSH1 0xE5 SHL DUP2 MSTORE PUSH1 0x4 ADD PUSH2 0x4E0 SWAP1 PUSH2 0x123D JUMP JUMPDEST DUP2 DUP2 PUSH1 0x40 MLOAD PUSH1 0x20 ADD PUSH2 0xAD4 SWAP3 SWAP2 SWAP1 PUSH2 0x126A JUMP JUMPDEST PUSH1 0x40 MLOAD PUSH1 0x20 DUP2 DUP4 SUB SUB DUP2 MSTORE SWAP1 PUSH1 0x40 MSTORE DUP1 MLOAD SWAP1 PUSH1 0x20 ADD KECCAK256 PUSH1 0x7 SLOAD EQ PUSH2 0xB30 JUMPI PUSH1 0x40 MLOAD PUSH3 0x461BCD PUSH1 0xE5 SHL DUP2 MSTORE PUSH1 0x20 PUSH1 0x4 DUP3 ADD MSTORE PUSH1 0x13 PUSH1 0x24 DUP3 ADD MSTORE PUSH19 0x90C2E6D0CAE640C8DE40DCDEE840DAC2E8C6D PUSH1 0x6B SHL PUSH1 0x44 DUP3 ADD MSTORE PUSH1 0x64 ADD PUSH2 0x4E0 JUMP JUMPDEST PUSH1 0x8 DUP2 SWAP1 SSTORE PUSH1 0xD DUP1 SLOAD PUSH1 0xFF NOT AND PUSH1 0x3 OR SWAP1 SSTORE PUSH2 0x6C8 PUSH2 0xE64 JUMP JUMPDEST PUSH1 0x2 PUSH1 0xD SLOAD PUSH1 0xFF AND PUSH1 0x4 DUP2 GT ISZERO PUSH2 0xB63 JUMPI PUSH2 0xB63 PUSH2 0x116F JUMP JUMPDEST EQ PUSH2 0xBA1 JUMPI PUSH1 0x40 MLOAD PUSH3 0x461BCD PUSH1 0xE5 SHL DUP2 MSTORE PUSH1 0x20 PUSH1 0x4 DUP3 ADD MSTORE PUSH1 0xE PUSH1 0x24 DUP3 ADD MSTORE PUSH14 0x4E6F742072696768742074696D65 PUSH1 0x90 SHL PUSH1 0x44 DUP3 ADD MSTORE PUSH1 0x64 ADD PUSH2 0x4E0 JUMP JUMPDEST CALLER PUSH1 0x0 SWAP1 DUP2 MSTORE PUSH1 0x2 PUSH1 0x20 MSTORE PUSH1 0x40 SWAP1 KECCAK256 SLOAD PUSH2 0xBFD JUMPI PUSH1 0x40 MLOAD PUSH3 0x461BCD PUSH1 0xE5 SHL DUP2 MSTORE PUSH1 0x20 PUSH1 0x4 DUP3 ADD MSTORE PUSH1 0x19 PUSH1 0x24 DUP3 ADD MSTORE PUSH32 0x596F7520617265206E6F742061207061727469636970616E7400000000000000 PUSH1 0x44 DUP3 ADD MSTORE PUSH1 0x64 ADD PUSH2 0x4E0 JUMP JUMPDEST CALLER PUSH1 0x0 SWAP1 DUP2 MSTORE PUSH1 0x4 PUSH1 0x20 MSTORE PUSH1 0x40 SWAP1 KECCAK256 SLOAD ISZERO PUSH2 0xC51 JUMPI PUSH1 0x40 MLOAD PUSH3 0x461BCD PUSH1 0xE5 SHL DUP2 MSTORE PUSH1 0x20 PUSH1 0x4 DUP3 ADD MSTORE PUSH1 0x14 PUSH1 0x24 DUP3 ADD MSTORE PUSH20 0x43616E206F6E6C792072657665616C206F6E6365 PUSH1 0x60 SHL PUSH1 0x44 DUP3 ADD MSTORE PUSH1 0x64 ADD PUSH2 0x4E0 JUMP JUMPDEST CALLER PUSH1 0x0 SWAP1 DUP2 MSTORE PUSH1 0x2 PUSH1 0x20 MSTORE PUSH1 0x40 SWAP1 KECCAK256 SLOAD DUP2 GT ISZERO PUSH2 0xCA4 JUMPI PUSH1 0x40 MLOAD PUSH3 0x461BCD PUSH1 0xE5 SHL DUP2 MSTORE PUSH1 0x20 PUSH1 0x4 DUP3 ADD MSTORE PUSH1 0x11 PUSH1 0x24 DUP3 ADD MSTORE PUSH17 0x13D999995C881A5B9D985B1A59185D1959 PUSH1 0x7A SHL PUSH1 0x44 DUP3 ADD MSTORE PUSH1 0x64 ADD PUSH2 0x4E0 JUMP JUMPDEST DUP2 DUP2 PUSH1 0x40 MLOAD PUSH1 0x20 ADD PUSH2 0xCB7 SWAP3 SWAP2 SWAP1 PUSH2 0x126A JUMP JUMPDEST PUSH1 0x40 MLOAD PUSH1 0x20 DUP2 DUP4 SUB SUB DUP2 MSTORE SWAP1 PUSH1 0x40 MSTORE DUP1 MLOAD SWAP1 PUSH1 0x20 ADD KECCAK256 PUSH1 0x3 PUSH1 0x0 PUSH2 0xCD8 CALLER SWAP1 JUMP JUMPDEST PUSH1 0x1 PUSH1 0x1 PUSH1 0xA0 SHL SUB AND PUSH1 0x1 PUSH1 0x1 PUSH1 0xA0 SHL SUB AND DUP2 MSTORE PUSH1 0x20 ADD SWAP1 DUP2 MSTORE PUSH1 0x20 ADD PUSH1 0x0 KECCAK256 SLOAD EQ PUSH2 0xD3C JUMPI PUSH1 0x40 MLOAD PUSH3 0x461BCD PUSH1 0xE5 SHL DUP2 MSTORE PUSH1 0x20 PUSH1 0x4 DUP3 ADD MSTORE PUSH1 0x13 PUSH1 0x24 DUP3 ADD MSTORE PUSH19 0x90C2E6D0CAE640C8DE40DCDEE840DAC2E8C6D PUSH1 0x6B SHL PUSH1 0x44 DUP3 ADD MSTORE PUSH1 0x64 ADD PUSH2 0x4E0 JUMP JUMPDEST CALLER PUSH1 0x0 SWAP1 DUP2 MSTORE PUSH1 0x4 PUSH1 0x20 MSTORE PUSH1 0x40 SWAP1 KECCAK256 SSTORE POP JUMP JUMPDEST PUSH1 0x0 SLOAD PUSH1 0x1 PUSH1 0x1 PUSH1 0xA0 SHL SUB AND CALLER EQ PUSH2 0xD79 JUMPI PUSH1 0x40 MLOAD PUSH3 0x461BCD PUSH1 0xE5 SHL DUP2 MSTORE PUSH1 0x4 ADD PUSH2 0x4E0 SWAP1 PUSH2 0x11DA JUMP JUMPDEST PUSH1 0x1 PUSH1 0x1 PUSH1 0xA0 SHL SUB DUP2 AND PUSH2 0xDDE JUMPI PUSH1 0x40 MLOAD PUSH3 0x461BCD PUSH1 0xE5 SHL DUP2 MSTORE PUSH1 0x20 PUSH1 0x4 DUP3 ADD MSTORE PUSH1 0x26 PUSH1 0x24 DUP3 ADD MSTORE PUSH32 0x4F776E61626C653A206E6577206F776E657220697320746865207A65726F2061 PUSH1 0x44 DUP3 ADD MSTORE PUSH6 0x646472657373 PUSH1 0xD0 SHL PUSH1 0x64 DUP3 ADD MSTORE PUSH1 0x84 ADD PUSH2 0x4E0 JUMP JUMPDEST PUSH2 0xDE7 DUP2 PUSH2 0xE14 JUMP JUMPDEST POP JUMP JUMPDEST PUSH1 0x1 DUP2 DUP2 SLOAD DUP2 LT PUSH2 0xDFA JUMPI PUSH1 0x0 DUP1 REVERT JUMPDEST PUSH1 0x0 SWAP2 DUP3 MSTORE PUSH1 0x20 SWAP1 SWAP2 KECCAK256 ADD SLOAD PUSH1 0x1 PUSH1 0x1 PUSH1 0xA0 SHL SUB AND SWAP1 POP DUP2 JUMP JUMPDEST PUSH1 0x0 DUP1 SLOAD PUSH1 0x1 PUSH1 0x1 PUSH1 0xA0 SHL SUB DUP4 DUP2 AND PUSH1 0x1 PUSH1 0x1 PUSH1 0xA0 SHL SUB NOT DUP4 AND DUP2 OR DUP5 SSTORE PUSH1 0x40 MLOAD SWAP2 SWAP1 SWAP3 AND SWAP3 DUP4 SWAP2 PUSH32 0x8BE0079C531659141344CD1FD0A4F28419497F9722A3DAAFE3B4186F6B6457E0 SWAP2 SWAP1 LOG3 POP POP JUMP JUMPDEST PUSH1 0x1 SLOAD PUSH1 0x0 SWAP1 DUP2 SWAP1 DUP2 SWAP1 ISZERO PUSH2 0xFA0 JUMPI POP PUSH1 0x0 JUMPDEST PUSH1 0x1 SLOAD DUP2 LT ISZERO PUSH2 0xF18 JUMPI DUP2 PUSH1 0x4 PUSH1 0x0 PUSH1 0x1 DUP5 DUP2 SLOAD DUP2 LT PUSH2 0xE99 JUMPI PUSH2 0xE99 PUSH2 0x12AB JUMP JUMPDEST PUSH1 0x0 SWAP2 DUP3 MSTORE PUSH1 0x20 DUP1 DUP4 KECCAK256 SWAP1 SWAP2 ADD SLOAD PUSH1 0x1 PUSH1 0x1 PUSH1 0xA0 SHL SUB AND DUP4 MSTORE DUP3 ADD SWAP3 SWAP1 SWAP3 MSTORE PUSH1 0x40 ADD SWAP1 KECCAK256 SLOAD GT ISZERO PUSH2 0xF06 JUMPI DUP1 SWAP3 POP PUSH1 0x4 PUSH1 0x0 PUSH1 0x1 DUP4 DUP2 SLOAD DUP2 LT PUSH2 0xEDE JUMPI PUSH2 0xEDE PUSH2 0x12AB JUMP JUMPDEST PUSH1 0x0 SWAP2 DUP3 MSTORE PUSH1 0x20 DUP1 DUP4 KECCAK256 SWAP1 SWAP2 ADD SLOAD PUSH1 0x1 PUSH1 0x1 PUSH1 0xA0 SHL SUB AND DUP4 MSTORE DUP3 ADD SWAP3 SWAP1 SWAP3 MSTORE PUSH1 0x40 ADD SWAP1 KECCAK256 SLOAD SWAP2 POP JUMPDEST DUP1 PUSH2 0xF10 DUP2 PUSH2 0x12C1 JUMP JUMPDEST SWAP2 POP POP PUSH2 0xE77 JUMP JUMPDEST PUSH1 0x8 SLOAD DUP3 LT PUSH2 0xFA0 JUMPI PUSH1 0x1 DUP4 DUP2 SLOAD DUP2 LT PUSH2 0xF34 JUMPI PUSH2 0xF34 PUSH2 0x12AB JUMP JUMPDEST PUSH1 0x0 SWAP2 DUP3 MSTORE PUSH1 0x20 DUP1 DUP4 KECCAK256 SWAP1 SWAP2 ADD SLOAD PUSH1 0x5 DUP1 SLOAD PUSH1 0x1 PUSH1 0x1 PUSH1 0xA0 SHL SUB NOT AND PUSH1 0x1 PUSH1 0x1 PUSH1 0xA0 SHL SUB SWAP1 SWAP3 AND SWAP2 DUP3 OR SWAP1 SSTORE DUP3 MSTORE PUSH1 0x4 DUP2 MSTORE PUSH1 0x40 DUP1 DUP4 KECCAK256 SLOAD PUSH1 0x6 DUP2 SWAP1 SSTORE PUSH1 0x2 SWAP1 SWAP3 MSTORE SWAP1 SWAP2 KECCAK256 SLOAD PUSH2 0xF84 SWAP2 SWAP1 PUSH2 0x12DC JUMP JUMPDEST PUSH1 0x5 SLOAD PUSH1 0x1 PUSH1 0x1 PUSH1 0xA0 SHL SUB AND PUSH1 0x0 SWAP1 DUP2 MSTORE PUSH1 0x2 PUSH1 0x20 MSTORE PUSH1 0x40 SWAP1 KECCAK256 SSTORE JUMPDEST POP POP PUSH1 0xD DUP1 SLOAD PUSH1 0xFF NOT AND PUSH1 0x4 OR SWAP1 SSTORE POP JUMP JUMPDEST PUSH1 0x0 PUSH1 0x20 DUP3 DUP5 SUB SLT ISZERO PUSH2 0xFC4 JUMPI PUSH1 0x0 DUP1 REVERT JUMPDEST POP CALLDATALOAD SWAP2 SWAP1 POP JUMP JUMPDEST DUP1 CALLDATALOAD PUSH1 0x1 PUSH1 0x1 PUSH1 0xA0 SHL SUB DUP2 AND DUP2 EQ PUSH2 0xFE2 JUMPI PUSH1 0x0 DUP1 REVERT JUMPDEST SWAP2 SWAP1 POP JUMP JUMPDEST PUSH1 0x0 DUP1 PUSH1 0x0 DUP1 PUSH1 0x0 PUSH1 0x80 DUP7 DUP9 SUB SLT ISZERO PUSH2 0xFFF JUMPI PUSH1 0x0 DUP1 REVERT JUMPDEST PUSH2 0x1008 DUP7 PUSH2 0xFCB JUMP JUMPDEST SWAP5 POP PUSH2 0x1016 PUSH1 0x20 DUP8 ADD PUSH2 0xFCB JUMP JUMPDEST SWAP4 POP PUSH1 0x40 DUP7 ADD CALLDATALOAD SWAP3 POP PUSH1 0x60 DUP7 ADD CALLDATALOAD PUSH8 0xFFFFFFFFFFFFFFFF DUP1 DUP3 GT ISZERO PUSH2 0x103A JUMPI PUSH1 0x0 DUP1 REVERT JUMPDEST DUP2 DUP9 ADD SWAP2 POP DUP9 PUSH1 0x1F DUP4 ADD SLT PUSH2 0x104E JUMPI PUSH1 0x0 DUP1 REVERT JUMPDEST DUP2 CALLDATALOAD DUP2 DUP2 GT ISZERO PUSH2 0x105D JUMPI PUSH1 0x0 DUP1 REVERT JUMPDEST DUP10 PUSH1 0x20 DUP3 DUP6 ADD ADD GT ISZERO PUSH2 0x106F JUMPI PUSH1 0x0 DUP1 REVERT JUMPDEST SWAP7 SWAP10 SWAP6 SWAP9 POP SWAP4 SWAP7 POP PUSH1 0x20 ADD SWAP5 SWAP4 SWAP3 POP POP POP JUMP JUMPDEST PUSH1 0x0 PUSH1 0x20 DUP3 DUP5 SUB SLT ISZERO PUSH2 0x1094 JUMPI PUSH1 0x0 DUP1 REVERT JUMPDEST PUSH2 0x109D DUP3 PUSH2 0xFCB JUMP JUMPDEST SWAP4 SWAP3 POP POP POP JUMP JUMPDEST PUSH4 0x4E487B71 PUSH1 0xE0 SHL PUSH1 0x0 MSTORE PUSH1 0x41 PUSH1 0x4 MSTORE PUSH1 0x24 PUSH1 0x0 REVERT JUMPDEST PUSH1 0x0 DUP1 PUSH1 0x40 DUP4 DUP6 SUB SLT ISZERO PUSH2 0x10CD JUMPI PUSH1 0x0 DUP1 REVERT JUMPDEST DUP3 CALLDATALOAD PUSH8 0xFFFFFFFFFFFFFFFF DUP1 DUP3 GT ISZERO PUSH2 0x10E5 JUMPI PUSH1 0x0 DUP1 REVERT JUMPDEST DUP2 DUP6 ADD SWAP2 POP DUP6 PUSH1 0x1F DUP4 ADD SLT PUSH2 0x10F9 JUMPI PUSH1 0x0 DUP1 REVERT JUMPDEST DUP2 CALLDATALOAD DUP2 DUP2 GT ISZERO PUSH2 0x110B JUMPI PUSH2 0x110B PUSH2 0x10A4 JUMP JUMPDEST PUSH1 0x40 MLOAD PUSH1 0x1F DUP3 ADD PUSH1 0x1F NOT SWAP1 DUP2 AND PUSH1 0x3F ADD AND DUP2 ADD SWAP1 DUP4 DUP3 GT DUP2 DUP4 LT OR ISZERO PUSH2 0x1133 JUMPI PUSH2 0x1133 PUSH2 0x10A4 JUMP JUMPDEST DUP2 PUSH1 0x40 MSTORE DUP3 DUP2 MSTORE DUP9 PUSH1 0x20 DUP5 DUP8 ADD ADD GT ISZERO PUSH2 0x114C JUMPI PUSH1 0x0 DUP1 REVERT JUMPDEST DUP3 PUSH1 0x20 DUP7 ADD PUSH1 0x20 DUP4 ADD CALLDATACOPY PUSH1 0x0 PUSH1 0x20 SWAP4 DUP3 ADD DUP5 ADD MSTORE SWAP9 SWAP7 SWAP1 SWAP2 ADD CALLDATALOAD SWAP7 POP POP POP POP POP POP JUMP JUMPDEST PUSH4 0x4E487B71 PUSH1 0xE0 SHL PUSH1 0x0 MSTORE PUSH1 0x21 PUSH1 0x4 MSTORE PUSH1 0x24 PUSH1 0x0 REVERT JUMPDEST PUSH1 0x20 DUP2 ADD PUSH1 0x5 DUP4 LT PUSH2 0x11A7 JUMPI PUSH4 0x4E487B71 PUSH1 0xE0 SHL PUSH1 0x0 MSTORE PUSH1 0x21 PUSH1 0x4 MSTORE PUSH1 0x24 PUSH1 0x0 REVERT JUMPDEST SWAP2 SWAP1 MSTORE SWAP1 JUMP JUMPDEST PUSH1 0x20 DUP1 DUP3 MSTORE PUSH1 0x13 SWAP1 DUP3 ADD MSTORE PUSH19 0x57726F6E672061756374696F6E207374617465 PUSH1 0x68 SHL PUSH1 0x40 DUP3 ADD MSTORE PUSH1 0x60 ADD SWAP1 JUMP JUMPDEST PUSH1 0x20 DUP1 DUP3 MSTORE DUP2 DUP2 ADD MSTORE PUSH32 0x4F776E61626C653A2063616C6C6572206973206E6F7420746865206F776E6572 PUSH1 0x40 DUP3 ADD MSTORE PUSH1 0x60 ADD SWAP1 JUMP JUMPDEST PUSH4 0x4E487B71 PUSH1 0xE0 SHL PUSH1 0x0 MSTORE PUSH1 0x11 PUSH1 0x4 MSTORE PUSH1 0x24 PUSH1 0x0 REVERT JUMPDEST PUSH1 0x0 DUP3 NOT DUP3 GT ISZERO PUSH2 0x1238 JUMPI PUSH2 0x1238 PUSH2 0x120F JUMP JUMPDEST POP ADD SWAP1 JUMP JUMPDEST PUSH1 0x20 DUP1 DUP3 MSTORE PUSH1 0x13 SWAP1 DUP3 ADD MSTORE PUSH19 0x5761697420756E74696C207365742074696D65 PUSH1 0x68 SHL PUSH1 0x40 DUP3 ADD MSTORE PUSH1 0x60 ADD SWAP1 JUMP JUMPDEST PUSH1 0x0 DUP4 MLOAD PUSH1 0x0 JUMPDEST DUP2 DUP2 LT ISZERO PUSH2 0x128B JUMPI PUSH1 0x20 DUP2 DUP8 ADD DUP2 ADD MLOAD DUP6 DUP4 ADD MSTORE ADD PUSH2 0x1271 JUMP JUMPDEST DUP2 DUP2 GT ISZERO PUSH2 0x129A JUMPI PUSH1 0x0 DUP3 DUP6 ADD MSTORE JUMPDEST POP SWAP2 SWAP1 SWAP2 ADD SWAP2 DUP3 MSTORE POP PUSH1 0x20 ADD SWAP2 SWAP1 POP JUMP JUMPDEST PUSH4 0x4E487B71 PUSH1 0xE0 SHL PUSH1 0x0 MSTORE PUSH1 0x32 PUSH1 0x4 MSTORE PUSH1 0x24 PUSH1 0x0 REVERT JUMPDEST PUSH1 0x0 PUSH1 0x0 NOT DUP3 EQ ISZERO PUSH2 0x12D5 JUMPI PUSH2 0x12D5 PUSH2 0x120F JUMP JUMPDEST POP PUSH1 0x1 ADD SWAP1 JUMP JUMPDEST PUSH1 0x0 DUP3 DUP3 LT ISZERO PUSH2 0x12EE JUMPI PUSH2 0x12EE PUSH2 0x120F JUMP JUMPDEST POP SUB SWAP1 JUMP INVALID LOG2 PUSH5 0x6970667358 0x22 SLT KECCAK256 SWAP13 OR SELFDESTRUCT 0x29 0xB2 DUP12 0x22 SIGNEXTEND SWAP10 0xD2 SWAP15 0xF9 0xA5 0xDE 0xBC DUP9 0xE7 0xC9 0xD0 0x28 EXTCODECOPY 0xC5 CALLDATASIZE 0xDA COINBASE SHL 0xF XOR 0xFB DUP2 SWAP3 SHL PUSH5 0x736F6C6343 STOP ADDMOD 0xC STOP CALLER ",
  "sha1": "7d5fb840afa85286bfc5edd2efea588f6a648f46",
  "source": "// SPDX-License-Identifier: MIT\npragma solidity ^0.8.0;\n\nimport \"@openzeppelin/contracts/access/Ownable.sol\";\nimport \"@openzeppelin/contracts/token/ERC721/IERC721.sol\";\nimport \"@openzeppelin/contracts/token/ERC721/IERC721Receiver.sol\";\n\ncontract SealedBidAuction is Ownable, IERC721Receiver {\n\n\n    address[] public players; // Para poder regresar x a los que no ganan\n\n    mapping(address => uint256) public accountToAmount;\n    mapping(address => bytes32) public accountToHash;\n    mapping(address => uint256) public accountToOffer;\n\n    address public winner;\n    uint256 public amount;\n    bytes32 public minimumPriceHash;\n    uint256 public minimumPrice;\n\n    IERC721 public parentNFT;\n    uint256 public tokenId;\n\n    uint public revealTime;\n    uint public winnerTime;\n\n    enum AUCTION_STATE{\n        CONTRACT_CREATION,\n        RECIVEING_OFFERS,\n        OFFER_REVEAL,\n        CALCULATING_WINNER,\n        AUCTION_ENDED\n    }\n\n    AUCTION_STATE public auction_state;\n\n    constructor(bytes32 _minimumPriceHash, address _nftContract, uint256 _tokenId, uint _revealTime, uint _winnerTime) {\n        auction_state = AUCTION_STATE.CONTRACT_CREATION;\n        minimumPriceHash = _minimumPriceHash;\n        parentNFT = IERC721(_nftContract);\n        tokenId = _tokenId;\n        revealTime = _revealTime;\n        winnerTime = _winnerTime;\n    }\n\n    function transferAssetToContract() public onlyOwner{\n        parentNFT.safeTransferFrom(_msgSender(), address(this), tokenId);\n        auction_state = AUCTION_STATE.RECIVEING_OFFERS;\n    }\n\n    \n    function makeOffer(bytes32 _hash) public virtual payable{\n        require(auction_state == AUCTION_STATE.RECIVEING_OFFERS, 'Wrong auction state');\n        require(_msgSender() != owner(), \"Owner cant bid\");\n        require(msg.value > 0, \"Need some ETH\");\n        require(accountToAmount[_msgSender()] == 0, \"Cant bid twice\"); // New participant.\n        //event\n        players.push(payable(_msgSender()));\n        //event\n        accountToAmount[_msgSender()] = msg.value;\n        //event\n        accountToHash[_msgSender()] = _hash;\n    }\n\n    function closeOffers() public{\n        require(block.timestamp >= revealTime, 'Wait until set time');\n        require(auction_state == AUCTION_STATE.RECIVEING_OFFERS, 'Wrong auction state');\n        auction_state = AUCTION_STATE.OFFER_REVEAL;\n    }\n\n    function revealOffer(string memory _secret, uint256 _amount) public virtual{\n    require(auction_state == AUCTION_STATE.OFFER_REVEAL, \"Not right time\");\n    require(accountToAmount[_msgSender()] != 0, \"You are not a participant\"); // Participant\n    require(accountToOffer[_msgSender()] == 0, \"Can only reveal once\"); // No retrys\n    require(_amount <= accountToAmount[_msgSender()], \"Offer invalidated\"); \n    require(\n        accountToHash[_msgSender()] == keccak256(\n            abi.encodePacked(\n                _secret,\n                _amount\n            )\n        ), \"Hashes do not match\"\n    ); // Hash match\n    //event\n    accountToOffer[_msgSender()] = _amount;\n    }\n\n    // ASolo 5 Seg en pruebas, cuando le hagas deploy hazlo con 30min minimo\n    function closeReveals() public{\n        require(block.timestamp >= winnerTime+5, 'Wait until set time'); //5s despues que vence tiempo de owner\n        require(_msgSender() != owner(), \"Owner must use winnerCalculation()\");\n        require(auction_state == AUCTION_STATE.OFFER_REVEAL, 'wrong auction state');\n        auction_state = AUCTION_STATE.CALCULATING_WINNER;\n        _closeReveals();\n    }\n\n    // Cambiale el nombre y pega el close reveals a final del metodo. Te mamas \n    function winnerCalculation(string memory _secret, uint256 _amount) public onlyOwner {\n        require(auction_state == AUCTION_STATE.OFFER_REVEAL, 'Wrong auction state');\n        require(block.timestamp >= winnerTime, 'Wait until set time');\n        // Que el reveal al menos sea de 1 min ??? pon require si acaso\n        require(\n            minimumPriceHash == keccak256(\n                abi.encodePacked(\n                    _secret,\n                    _amount\n                )\n            ), \"Hashes do not match\"\n        );\n        minimumPrice = _amount;\n        auction_state = AUCTION_STATE.CALCULATING_WINNER;\n        _closeReveals();\n    }\n\n    function _closeReveals() internal{ //internal\n    // Verifia que el precio minimo este puesto. \n    uint256 indexOfWinner;\n    uint256 loopAmount;\n    uint256 i;\n    if(players.length > 0){\n        for(i = 0; i < players.length; i++){\n            if(accountToOffer[players[i]] > loopAmount){\n                indexOfWinner = i;\n                loopAmount = accountToOffer[players[i]];\n            }\n        }\n        if(loopAmount >= minimumPrice){\n            winner = players[indexOfWinner];\n            amount = accountToOffer[winner];\n            // Quito lo ofrecido al que gana\n            accountToAmount[winner] = accountToAmount[winner] - accountToOffer[winner];\n        } \n    }\n    auction_state = AUCTION_STATE.AUCTION_ENDED;\n    }\n\n    function ownerGetsPayed() public onlyOwner{\n        require(auction_state == AUCTION_STATE.AUCTION_ENDED);\n        if(amount > 0){\n            uint256 toPay = amount;\n            amount = 0; //No reentrancy\n            payable(owner()).transfer(toPay);\n        }else{\n            // Nadie gana entonces regresa NFT al que crea subasta.\n            parentNFT.safeTransferFrom(address(this), _msgSender(), tokenId);\n        }\n    }\n\n    function reimburseParticipant() public{\n        // Tenga saldo positivo\n        require(auction_state == AUCTION_STATE.AUCTION_ENDED);\n        uint256 reimbursement = accountToAmount[_msgSender()];\n        require(reimbursement > 0);\n        accountToAmount[_msgSender()] = 0; // no reent\n        payable(_msgSender()).transfer(reimbursement);\n    }\n\n    function winnerRetrivesToken() public{\n        require(auction_state == AUCTION_STATE.AUCTION_ENDED);\n        require(_msgSender() == winner);\n        parentNFT.safeTransferFrom(address(this), _msgSender(), tokenId);\n    }\n\n    function onERC721Received(\n        address operator,\n        address from,\n        uint256 tokenId,\n        bytes calldata data\n    ) public virtual override returns (bytes4){\n         return this.onERC721Received.selector;\n    }\n}",
  "sourcePath": "contracts/SealedBidAuction.sol",
  "type": "contract"
}