{"abi":[{"anonymous":false,"inputs":[{"indexed":false,"internalType":"address","name":"newAuction","type":"address"}],"name":"AuctionCreated","type":"event"},{"anonymous":false,"inputs":[{"indexed":false,"internalType":"uint256","name":"amount","type":"uint256"}],"name":"ComissionReceived","type":"event"},{"anonymous":false,"inputs":[],"name":"EtherRetrived","type":"event"},{"anonymous":false,"inputs":[{"indexed":false,"internalType":"uint8","name":"state","type":"uint8"}],"name":"MoveToReveals","type":"event"},{"anonymous":false,"inputs":[{"indexed":false,"internalType":"uint8","name":"state","type":"uint8"}],"name":"MoveToWinnerCalculation","type":"event"},{"anonymous":false,"inputs":[{"indexed":true,"internalType":"address","name":"previousOwner","type":"address"},{"indexed":true,"internalType":"address","name":"newOwner","type":"address"}],"name":"OwnershipTransferred","type":"event"},{"stateMutability":"payable","type":"fallback"},{"inputs":[{"internalType":"bytes","name":"","type":"bytes"}],"name":"checkUpkeep","outputs":[{"internalType":"bool","name":"upkeepNeeded","type":"bool"},{"internalType":"bytes","name":"","type":"bytes"}],"stateMutability":"view","type":"function"},{"inputs":[{"internalType":"bytes32","name":"_minimumPriceHash","type":"bytes32"},{"internalType":"address","name":"_nftContract","type":"address"},{"internalType":"uint256","name":"_tokenId","type":"uint256"},{"internalType":"uint256","name":"_revealTime","type":"uint256"},{"internalType":"uint256","name":"_winnerTime","type":"uint256"}],"name":"createSealedBidAuctionContract","outputs":[{"internalType":"uint256","name":"","type":"uint256"}],"stateMutability":"nonpayable","type":"function"},{"inputs":[],"name":"getLastAddressInArray","outputs":[{"internalType":"address","name":"","type":"address"}],"stateMutability":"view","type":"function"},{"inputs":[{"internalType":"uint256","name":"_i","type":"uint256"}],"name":"getRevealTime","outputs":[{"internalType":"uint256","name":"","type":"uint256"}],"stateMutability":"view","type":"function"},{"inputs":[{"internalType":"uint256","name":"_i","type":"uint256"}],"name":"getState","outputs":[{"internalType":"enum SealedBidAuction.AUCTION_STATE","name":"","type":"uint8"}],"stateMutability":"view","type":"function"},{"inputs":[{"internalType":"uint256","name":"_i","type":"uint256"}],"name":"getWinnerTime","outputs":[{"internalType":"uint256","name":"","type":"uint256"}],"stateMutability":"view","type":"function"},{"inputs":[],"name":"owner","outputs":[{"internalType":"address","name":"","type":"address"}],"stateMutability":"view","type":"function"},{"inputs":[{"internalType":"bytes","name":"","type":"bytes"}],"name":"performUpkeep","outputs":[],"stateMutability":"nonpayable","type":"function"},{"inputs":[],"name":"renounceOwnership","outputs":[],"stateMutability":"nonpayable","type":"function"},{"inputs":[{"internalType":"uint256","name":"","type":"uint256"}],"name":"sealedBidAuctionArrayContracts","outputs":[{"internalType":"contract SealedBidAuction","name":"","type":"address"}],"stateMutability":"view","type":"function"},{"inputs":[],"name":"timeOffset","outputs":[{"internalType":"uint256","name":"","type":"uint256"}],"stateMutability":"view","type":"function"},{"inputs":[{"internalType":"address","name":"_address","type":"address"}],"name":"transferFunds","outputs":[],"stateMutability":"nonpayable","type":"function"},{"inputs":[{"internalType":"address","name":"newOwner","type":"address"}],"name":"transferOwnership","outputs":[],"stateMutability":"nonpayable","type":"function"}],"bytecode":"6080604052607860035534801561001557600080fd5b5061001f33610028565b60018055610078565b600080546001600160a01b038381166001600160a01b0319831681178455604051919092169283917f8be0079c531659141344cd1fd0a4f28419497f9722a3daafe3b4186f6b6457e09190a35050565b6126f4806100876000396000f3fe608060405260043610620000d45760003560e01c80638da5cb5b116200008b578063e0d2fbeb1162000061578063e0d2fbeb1462000277578063e34a5d1c146200029c578063e39ff19f14620002c1578063f2fde38b14620002e657620000d4565b80638da5cb5b146200020b578063a438b0e5146200022b578063b046bee5146200025257620000d4565b806325ce07e9146200010957806344c9af28146200014b5780634585e33b146200017f5780634be351f014620001a65780636e04ff0d14620001be578063715018a614620001f3575b6040513481527f5cb4ae4ff97df3c5b9ada011dab8869e04953e9b1fb48929af5c633e90dbddd39060200160405180910390a1005b3480156200011657600080fd5b506200012e6200012836600462000b18565b6200030b565b6040516001600160a01b0390911681526020015b60405180910390f35b3480156200015857600080fd5b50620001706200016a36600462000b18565b62000336565b60405162000142919062000b48565b3480156200018c57600080fd5b50620001a46200019e36600462000b71565b620003c9565b005b348015620001b357600080fd5b506200012e62000548565b348015620001cb57600080fd5b50620001e3620001dd36600462000b71565b6200058b565b6040516200014292919062000be8565b3480156200020057600080fd5b50620001a46200065b565b3480156200021857600080fd5b506000546001600160a01b03166200012e565b3480156200023857600080fd5b506200024360035481565b60405190815260200162000142565b3480156200025f57600080fd5b50620002436200027136600462000c67565b6200069f565b3480156200028457600080fd5b50620002436200029636600462000b18565b620007e4565b348015620002a957600080fd5b5062000243620002bb36600462000b18565b62000871565b348015620002ce57600080fd5b50620001a4620002e036600462000cb0565b620008d8565b348015620002f357600080fd5b50620001a46200030536600462000cb0565b6200099d565b600281815481106200031c57600080fd5b6000918252602090912001546001600160a01b0316905081565b6000600282815481106200034e576200034e62000cd5565b600091825260209182902001546040805163f9688bc160e01b815290516001600160a01b039092169263f9688bc1926004808401938290030181865afa1580156200039d573d6000803e3d6000fd5b505050506040513d601f19601f82011682018060405250810190620003c3919062000ceb565b92915050565b60005b600254811015620005435742600354620003e683620007e4565b620003f2919062000d24565b108015620004215750620004068162000336565b60048111156200041a576200041a62000b32565b60ff166002145b156200048d577f1bc97b1a9657b9e450fb5d007a847dba13280d3c7c140567705ddd16d431ea52620004538262000336565b600481111562000467576200046762000b32565b60405160ff909116815260200160405180910390a1620004878162000a3f565b6200052e565b42620004998262000871565b108015620004c85750620004ad8162000336565b6004811115620004c157620004c162000b32565b60ff166001145b156200052e577fc39f6cdc3f8990dda69d08749309a726a37d4a59f711293940ef9ecbc70f9443620004fa8262000336565b60048111156200050e576200050e62000b32565b60405160ff909116815260200160405180910390a16200052e8162000a3f565b806200053a8162000d3f565b915050620003cc565b505050565b60028054600091906200055e9060019062000d5d565b8154811062000571576200057162000cd5565b6000918252602090912001546001600160a01b0316919050565b60006060815b60025481108015620005a1575082155b15620006535742600354620005b683620007e4565b620005c2919062000d24565b108015620005f15750620005d68162000336565b6004811115620005ea57620005ea62000b32565b60ff166002145b8062000633575042620006048262000871565b108015620006335750620006188162000336565b60048111156200062c576200062c62000b32565b60ff166001145b156200063e57600192505b806200064a8162000d3f565b91505062000591565b509250929050565b6000546001600160a01b03163314620006915760405162461bcd60e51b8152600401620006889062000d77565b60405180910390fd5b6200069d600062000aba565b565b6000808686868686604051620006b59062000b0a565b9485526001600160a01b03909316602085015260408401919091526060830152608082015260a001604051809103906000f080158015620006fa573d6000803e3d6000fd5b50600280546001810182556000919091527f405787fa12a823e0f2b7631cc41b3ba8828b3321ca811111fa75cd3aa3bb5ace0180546001600160a01b0319166001600160a01b03831690811790915560405163f2fde38b60e01b81523360048201529192509063f2fde38b90602401600060405180830381600087803b1580156200078457600080fd5b505af115801562000799573d6000803e3d6000fd5b50506040516001600160a01b03841681527f8a8cc462d00726e0f8c031dd2d6b9dcdf0794fb27a88579830dadee27d43ea7c9250602001905060405180910390a15095945050505050565b600060028281548110620007fc57620007fc62000cd5565b6000918252602091829020015460408051637676d23560e01b815290516001600160a01b0390921692637676d235926004808401938290030181865afa1580156200084b573d6000803e3d6000fd5b505050506040513d601f19601f82011682018060405250810190620003c3919062000dac565b60006002828154811062000889576200088962000cd5565b600091825260209182902001546040805163ba829d7160e01b815290516001600160a01b039092169263ba829d71926004808401938290030181865afa1580156200084b573d6000803e3d6000fd5b600260015414156200092d5760405162461bcd60e51b815260206004820152601f60248201527f5265656e7472616e637947756172643a207265656e7472616e742063616c6c00604482015260640162000688565b60026001556000546001600160a01b031633146200095f5760405162461bcd60e51b8152600401620006889062000d77565b6040516001600160a01b038216904780156108fc02916000818181858888f1935050505015801562000995573d6000803e3d6000fd5b505060018055565b6000546001600160a01b03163314620009ca5760405162461bcd60e51b8152600401620006889062000d77565b6001600160a01b03811662000a315760405162461bcd60e51b815260206004820152602660248201527f4f776e61626c653a206e6577206f776e657220697320746865207a65726f206160448201526564647265737360d01b606482015260840162000688565b62000a3c8162000aba565b50565b6002818154811062000a555762000a5562000cd5565b600091825260208220015460408051633eadb6db60e01b815290516001600160a01b0390921692633eadb6db9260048084019382900301818387803b15801562000a9e57600080fd5b505af115801562000ab3573d6000803e3d6000fd5b5050505050565b600080546001600160a01b038381166001600160a01b0319831681178455604051919092169283917f8be0079c531659141344cd1fd0a4f28419497f9722a3daafe3b4186f6b6457e09190a35050565b6118f88062000dc783390190565b60006020828403121562000b2b57600080fd5b5035919050565b634e487b7160e01b600052602160045260246000fd5b602081016005831062000b6b57634e487b7160e01b600052602160045260246000fd5b91905290565b6000806020838503121562000b8557600080fd5b823567ffffffffffffffff8082111562000b9e57600080fd5b818501915085601f83011262000bb357600080fd5b81358181111562000bc357600080fd5b86602082850101111562000bd657600080fd5b60209290920196919550909350505050565b821515815260006020604081840152835180604085015260005b8181101562000c205785810183015185820160600152820162000c02565b8181111562000c33576000606083870101525b50601f01601f191692909201606001949350505050565b80356001600160a01b038116811462000c6257600080fd5b919050565b600080600080600060a0868803121562000c8057600080fd5b8535945062000c926020870162000c4a565b94979496505050506040830135926060810135926080909101359150565b60006020828403121562000cc357600080fd5b62000cce8262000c4a565b9392505050565b634e487b7160e01b600052603260045260246000fd5b60006020828403121562000cfe57600080fd5b81516005811062000cce57600080fd5b634e487b7160e01b600052601160045260246000fd5b6000821982111562000d3a5762000d3a62000d0e565b500190565b600060001982141562000d565762000d5662000d0e565b5060010190565b60008282101562000d725762000d7262000d0e565b500390565b6020808252818101527f4f776e61626c653a2063616c6c6572206973206e6f7420746865206f776e6572604082015260600190565b60006020828403121562000dbf57600080fd5b505191905056fe60806040526014600455607860105534801561001a57600080fd5b506040516118f83803806118f883398101604081905261003991610142565b610042336100f2565b600180556001600160a01b0384166100a05760405162461bcd60e51b815260206004820152601a60248201527f4e6f7420612076616c6964204552433732312061646472657373000000000000604482015260640160405180910390fd5b6011805460ff19169055600a94909455600c80546001600160a01b039485166001600160a01b031991821617909155600d92909255600e55600f92909255600054600380549093169116179055610198565b600080546001600160a01b038381166001600160a01b0319831681178455604051919092169283917f8be0079c531659141344cd1fd0a4f28419497f9722a3daafe3b4186f6b6457e09190a35050565b600080600080600060a0868803121561015a57600080fd5b855160208701519095506001600160a01b038116811461017957600080fd5b6040870151606088015160809098015196999198509695945092505050565b611751806101a76000396000f3fe60806040526004361061019c5760003560e01c8063aa8c217c116100ec578063d5b19df51161008a578063e8a5acee11610064578063e8a5acee1461043a578063f2fde38b14610450578063f71d96cb14610470578063f9688bc11461049057600080fd5b8063d5b19df5146103da578063d7ee3c79146103fa578063dfbf53ae1461041a57600080fd5b8063b95edbf9116100c6578063b95edbf914610379578063ba829d711461038f578063c45a0155146103a5578063d28a2edd146103c557600080fd5b8063aa8c217c1461032e578063b6f1ad5b14610344578063b8e33fb21461035957600080fd5b8063715018a6116101595780637f386b6c116101335780637f386b6c146102a357806389a694dd146102b95780638da5cb5b146102e6578063a438b0e51461031857600080fd5b8063715018a61461026357806374328b1c146102785780637676d2351461028d57600080fd5b8063051e1524146101a157806317d70f7c146101b657806335fe2d7f146101df578063391073811461020c5780633eadb6db1461022157806364b4d42814610236575b600080fd5b6101b46101af36600461140a565b6104b7565b005b3480156101c257600080fd5b506101cc600d5481565b6040519081526020015b60405180910390f35b3480156101eb57600080fd5b506101cc6101fa366004611423565b60076020526000908152604090205481565b34801561021857600080fd5b506101b461068a565b34801561022d57600080fd5b506101b46108c0565b34801561024257600080fd5b506101cc610251366004611423565b60066020526000908152604090205481565b34801561026f57600080fd5b506101b4610a5a565b34801561028457600080fd5b506101b4610a8e565b34801561029957600080fd5b506101cc600f5481565b3480156102af57600080fd5b506101cc600b5481565b3480156102c557600080fd5b506101cc6102d4366004611423565b60056020526000908152604090205481565b3480156102f257600080fd5b506000546001600160a01b03165b6040516001600160a01b0390911681526020016101d6565b34801561032457600080fd5b506101cc60105481565b34801561033a57600080fd5b506101cc60095481565b34801561035057600080fd5b506101b4610b8c565b34801561036557600080fd5b50600c54610300906001600160a01b031681565b34801561038557600080fd5b506101cc60045481565b34801561039b57600080fd5b506101cc600e5481565b3480156103b157600080fd5b50600354610300906001600160a01b031681565b3480156103d157600080fd5b506101b4610c9c565b3480156103e657600080fd5b506101b46103f5366004611469565b610d87565b34801561040657600080fd5b506101b4610415366004611469565b610f15565b34801561042657600080fd5b50600854610300906001600160a01b031681565b34801561044657600080fd5b506101cc600a5481565b34801561045c57600080fd5b506101b461046b366004611423565b611157565b34801561047c57600080fd5b5061030061048b36600461140a565b6111f2565b34801561049c57600080fd5b506011546104aa9060ff1681565b6040516101d69190611534565b600160115460ff1660048111156104d0576104d061151e565b146105185760405162461bcd60e51b815260206004820152601360248201527257726f6e672061756374696f6e20737461746560681b60448201526064015b60405180910390fd5b6000546001600160a01b03163314156105645760405162461bcd60e51b815260206004820152600e60248201526d13dddb995c8818d85b9d08189a5960921b604482015260640161050f565b600034116105a45760405162461bcd60e51b815260206004820152600d60248201526c09ccacac840e6dedaca408aa89609b1b604482015260640161050f565b33600090815260056020526040902054156105f25760405162461bcd60e51b815260206004820152600e60248201526d43616e742062696420747769636560901b604482015260640161050f565b60028054600181019091557f405787fa12a823e0f2b7631cc41b3ba8828b3321ca811111fa75cd3aa3bb5ace0180546001600160a01b03191633908117909155600081815260056020908152604080832034905560068252918290208490558151928352820183905280517f2853238c840e1dd18555551dff41e5cd85668d2fde7e4fc2f66a4e379ff4167c9281900390910190a150565b6000546001600160a01b031633146106b45760405162461bcd60e51b815260040161050f9061155c565b600260015414156106d75760405162461bcd60e51b815260040161050f90611591565b6002600155600460115460ff1660048111156106f5576106f561151e565b146106ff57600080fd5b600954156107ee5760006103e860045460095461071c91906115de565b61072691906115fd565b9050600081600954610738919061161f565b600060098190556003546040519293506001600160a01b03169184156108fc0291859190818181858888f19350505050158015610779573d6000803e3d6000fd5b50600080546040516001600160a01b039091169183156108fc02918491818181858888f193505050501580156107b3573d6000803e3d6000fd5b506040518181527fa9bae03c15d23dd001998395b3adf7648085bf2fba01211df19df18be3a51b4d9060200160405180910390a150506108ba565b600c546001600160a01b03166342842e0e3033600d546040516001600160e01b031960e086901b1681526001600160a01b0393841660048201529290911660248301526044820152606401600060405180830381600087803b15801561085357600080fd5b505af1158015610867573d6000803e3d6000fd5b505050507f700a9be0c495bc7c8168d01913054b681c4b7cd5a72376a4fe03f32f5166c28a61089e6000546001600160a01b031690565b6040516001600160a01b03909116815260200160405180910390a15b60018055565b600160115460ff1660048111156108d9576108d961151e565b141561095f57600e544210156109275760405162461bcd60e51b81526020600482015260136024820152725761697420756e74696c207365742074696d6560681b604482015260640161050f565b6011805460ff191660021790556040517f96faedf2fa195434cedbb880cb8b4608bbeb066005dc5ac6c4785935589d7a2090600090a1565b600260115460ff1660048111156109785761097861151e565b1415610a5857601054600f5461098e9190611636565b4210156109dd5760405162461bcd60e51b815260206004820152601c60248201527f5761697420756e74696c207365742074696d65202b206f666673657400000000604482015260640161050f565b6000546001600160a01b0316331415610a435760405162461bcd60e51b815260206004820152602260248201527f4f776e6572206d757374207573652077696e6e657243616c63756c6174696f6e604482015261282960f01b606482015260840161050f565b6011805460ff19166003179055610a5861121c565b565b6000546001600160a01b03163314610a845760405162461bcd60e51b815260040161050f9061155c565b610a5860006113ba565b6000546001600160a01b03163314610ab85760405162461bcd60e51b815260040161050f9061155c565b600060115460ff166004811115610ad157610ad161151e565b14610adb57600080fd5b600c546001600160a01b03166323b872dd33600d546040516001600160e01b031960e085901b1681526001600160a01b0390921660048301523060248301526044820152606401600060405180830381600087803b158015610b3c57600080fd5b505af1158015610b50573d6000803e3d6000fd5b50506011805460ff1916600117905550506040517f2f6f7f97e94f53db5c4466af22dabc3a2e2852bb871a001aaa29799fdb09434190600090a1565b60026001541415610baf5760405162461bcd60e51b815260040161050f90611591565b6002600155600460115460ff166004811115610bcd57610bcd61151e565b14610bd757600080fd5b6008546001600160a01b0316336001600160a01b031614610bf757600080fd5b600c546001600160a01b03166342842e0e3033600d546040516001600160e01b031960e086901b1681526001600160a01b0393841660048201529290911660248301526044820152606401600060405180830381600087803b158015610c5c57600080fd5b505af1158015610c70573d6000803e3d6000fd5b505050507f700a9be0c495bc7c8168d01913054b681c4b7cd5a72376a4fe03f32f5166c28a61089e3390565b60026001541415610cbf5760405162461bcd60e51b815260040161050f90611591565b6002600155600460115460ff166004811115610cdd57610cdd61151e565b14610ce757600080fd5b3360009081526005602052604090205480610d0157600080fd5b336000818152600560205260408082208290555183156108fc0291849190818181858888f19350505050158015610d3c573d6000803e3d6000fd5b507fc9f3c6b79609b860090fffd3a76fc2f0112ff1825f2d99af5ef7e3ab2b6eef3c33604080516001600160a01b039092168252602082018490520160405180910390a15060018055565b6000546001600160a01b03163314610db15760405162461bcd60e51b815260040161050f9061155c565b600260115460ff166004811115610dca57610dca61151e565b14610e0d5760405162461bcd60e51b815260206004820152601360248201527257726f6e672061756374696f6e20737461746560681b604482015260640161050f565b600f54421015610e555760405162461bcd60e51b81526020600482015260136024820152725761697420756e74696c207365742074696d6560681b604482015260640161050f565b8181604051602001610e6892919061167e565b60405160208183030381529060405280519060200120600a5414610ec45760405162461bcd60e51b8152602060048201526013602482015272090c2e6d0cae640c8de40dcdee840dac2e8c6d606b1b604482015260640161050f565b600b8190556011805460ff191660031790556040518181527f0fc8a1af0498179ab028bd9b180740384d8d1625ae26c8e88ddac563006ae5869060200160405180910390a1610f1161121c565b5050565b600260115460ff166004811115610f2e57610f2e61151e565b14610f6c5760405162461bcd60e51b815260206004820152600e60248201526d4e6f742072696768742074696d6560901b604482015260640161050f565b33600090815260056020526040902054610fc85760405162461bcd60e51b815260206004820152601960248201527f596f7520617265206e6f742061207061727469636970616e7400000000000000604482015260640161050f565b336000908152600760205260409020541561101c5760405162461bcd60e51b815260206004820152601460248201527343616e206f6e6c792072657665616c206f6e636560601b604482015260640161050f565b3360009081526005602052604090205481111561106f5760405162461bcd60e51b815260206004820152601160248201527013d999995c881a5b9d985b1a59185d1959607a1b604482015260640161050f565b818160405160200161108292919061167e565b60405160208183030381529060405280519060200120600660006110a33390565b6001600160a01b03166001600160a01b0316815260200190815260200160002054146111075760405162461bcd60e51b8152602060048201526013602482015272090c2e6d0cae640c8de40dcdee840dac2e8c6d606b1b604482015260640161050f565b3360008181526007602052604090819020839055517ff23315b5875c8d1e8e2d1f24e22ef7d94663e61a21f375f129cf311920f999fa9161114b91859085906116a0565b60405180910390a15050565b6000546001600160a01b031633146111815760405162461bcd60e51b815260040161050f9061155c565b6001600160a01b0381166111e65760405162461bcd60e51b815260206004820152602660248201527f4f776e61626c653a206e6577206f776e657220697320746865207a65726f206160448201526564647265737360d01b606482015260840161050f565b6111ef816113ba565b50565b6002818154811061120257600080fd5b6000918252602090912001546001600160a01b0316905081565b600254600090819081901561135e575060005b6002548110156112d057816007600060028481548110611251576112516116ea565b60009182526020808320909101546001600160a01b0316835282019290925260400190205411156112be578092506007600060028381548110611296576112966116ea565b60009182526020808320909101546001600160a01b0316835282019290925260400190205491505b806112c881611700565b91505061122f565b811561135e57600b54821061135e57600283815481106112f2576112f26116ea565b6000918252602080832090910154600880546001600160a01b0319166001600160a01b0390921691821790558252600781526040808320546009819055600590925290912054611342919061161f565b6008546001600160a01b03166000908152600560205260409020555b6011805460ff19166004179055600854600954604080516001600160a01b03909316835260208301919091527fc5d1e2a43e1052756e222065802cb80a029bfaf7045b3df42c5c87b92e48de41910160405180910390a1505050565b600080546001600160a01b038381166001600160a01b0319831681178455604051919092169283917f8be0079c531659141344cd1fd0a4f28419497f9722a3daafe3b4186f6b6457e09190a35050565b60006020828403121561141c57600080fd5b5035919050565b60006020828403121561143557600080fd5b81356001600160a01b038116811461144c57600080fd5b9392505050565b634e487b7160e01b600052604160045260246000fd5b6000806040838503121561147c57600080fd5b823567ffffffffffffffff8082111561149457600080fd5b818501915085601f8301126114a857600080fd5b8135818111156114ba576114ba611453565b604051601f8201601f19908116603f011681019083821181831017156114e2576114e2611453565b816040528281528860208487010111156114fb57600080fd5b826020860160208301376000602093820184015298969091013596505050505050565b634e487b7160e01b600052602160045260246000fd5b602081016005831061155657634e487b7160e01b600052602160045260246000fd5b91905290565b6020808252818101527f4f776e61626c653a2063616c6c6572206973206e6f7420746865206f776e6572604082015260600190565b6020808252601f908201527f5265656e7472616e637947756172643a207265656e7472616e742063616c6c00604082015260600190565b634e487b7160e01b600052601160045260246000fd5b60008160001904831182151516156115f8576115f86115c8565b500290565b60008261161a57634e487b7160e01b600052601260045260246000fd5b500490565b600082821015611631576116316115c8565b500390565b60008219821115611649576116496115c8565b500190565b60005b83811015611669578181015183820152602001611651565b83811115611678576000848401525b50505050565b6000835161169081846020880161164e565b9190910191825250602001919050565b60018060a01b038416815260606020820152600083518060608401526116cd81608085016020880161164e565b604083019390935250601f91909101601f19160160800192915050565b634e487b7160e01b600052603260045260246000fd5b6000600019821415611714576117146115c8565b506001019056fea2646970667358221220a382135bc685a96f3692674b6d10dcddfe1970cf6ec4d1a478d939a85c418ec564736f6c634300080c0033a2646970667358221220f181cfe2f6ea14f306defdb25d0936f083ab5551c70433b6530afeff97652c4964736f6c634300080c0033","bytecodeSha1":"59dabd67034b5cac94618e2700b2d397a55427a6","compiler":{"evm_version":"istanbul","optimizer":{"enabled":true,"runs":200},"version":"0.8.12+commit.f00d7308"},"contractName":"AuctionFactory","language":"Solidity","natspec":{"kind":"dev","methods":{"checkUpkeep(bytes)":{"details":"Chainlink keepers checkUpkeep function. Checks if an upkeep is needed."},"createSealedBidAuctionContract(bytes32,address,uint256,uint256,uint256)":{"details":"Creates auction and gives ownership of it to creator. Emits a {Transfer} and {AuctionCreated} event."},"getLastAddressInArray()":{"details":"Returns last auction address in array"},"getRevealTime(uint256)":{"details":"Return reveal time for auction `_i` in array"},"getState(uint256)":{"details":"Returns the state of auction `_i` in array"},"getWinnerTime(uint256)":{"details":"Returns close reveals/winner calculation time for auction `_i` in array"},"owner()":{"details":"Returns the address of the current owner."},"performUpkeep(bytes)":{"details":"Chainlink keepers performUpkeep function, preforms the upkeep."},"renounceOwnership()":{"details":"Leaves the contract without owner. It will not be possible to call `onlyOwner` functions anymore. Can only be called by the current owner. NOTE: Renouncing ownership will leave the contract without an owner, thereby removing any functionality that is only available to the owner."},"transferFunds(address)":{"details":"Transfers all funds in factory to address given by owner  Requirements:      Caller is owner,"},"transferOwnership(address)":{"details":"Transfers ownership of the contract to a new account (`newOwner`). Can only be called by the current owner."}},"version":1},"opcodes":"PUSH1 0x80 PUSH1 0x40 MSTORE PUSH1 0x4 CALLDATASIZE LT PUSH3 0xD4 JUMPI PUSH1 0x0 CALLDATALOAD PUSH1 0xE0 SHR DUP1 PUSH4 0x8DA5CB5B GT PUSH3 0x8B JUMPI DUP1 PUSH4 0xE0D2FBEB GT PUSH3 0x61 JUMPI DUP1 PUSH4 0xE0D2FBEB EQ PUSH3 0x277 JUMPI DUP1 PUSH4 0xE34A5D1C EQ PUSH3 0x29C JUMPI DUP1 PUSH4 0xE39FF19F EQ PUSH3 0x2C1 JUMPI DUP1 PUSH4 0xF2FDE38B EQ PUSH3 0x2E6 JUMPI PUSH3 0xD4 JUMP JUMPDEST DUP1 PUSH4 0x8DA5CB5B EQ PUSH3 0x20B JUMPI DUP1 PUSH4 0xA438B0E5 EQ PUSH3 0x22B JUMPI DUP1 PUSH4 0xB046BEE5 EQ PUSH3 0x252 JUMPI PUSH3 0xD4 JUMP JUMPDEST DUP1 PUSH4 0x25CE07E9 EQ PUSH3 0x109 JUMPI DUP1 PUSH4 0x44C9AF28 EQ PUSH3 0x14B JUMPI DUP1 PUSH4 0x4585E33B EQ PUSH3 0x17F JUMPI DUP1 PUSH4 0x4BE351F0 EQ PUSH3 0x1A6 JUMPI DUP1 PUSH4 0x6E04FF0D EQ PUSH3 0x1BE JUMPI DUP1 PUSH4 0x715018A6 EQ PUSH3 0x1F3 JUMPI JUMPDEST PUSH1 0x40 MLOAD CALLVALUE DUP2 MSTORE PUSH32 0x5CB4AE4FF97DF3C5B9ADA011DAB8869E04953E9B1FB48929AF5C633E90DBDDD3 SWAP1 PUSH1 0x20 ADD PUSH1 0x40 MLOAD DUP1 SWAP2 SUB SWAP1 LOG1 STOP JUMPDEST CALLVALUE DUP1 ISZERO PUSH3 0x116 JUMPI PUSH1 0x0 DUP1 REVERT JUMPDEST POP PUSH3 0x12E PUSH3 0x128 CALLDATASIZE PUSH1 0x4 PUSH3 0xB18 JUMP JUMPDEST PUSH3 0x30B JUMP JUMPDEST PUSH1 0x40 MLOAD PUSH1 0x1 PUSH1 0x1 PUSH1 0xA0 SHL SUB SWAP1 SWAP2 AND DUP2 MSTORE PUSH1 0x20 ADD JUMPDEST PUSH1 0x40 MLOAD DUP1 SWAP2 SUB SWAP1 RETURN JUMPDEST CALLVALUE DUP1 ISZERO PUSH3 0x158 JUMPI PUSH1 0x0 DUP1 REVERT JUMPDEST POP PUSH3 0x170 PUSH3 0x16A CALLDATASIZE PUSH1 0x4 PUSH3 0xB18 JUMP JUMPDEST PUSH3 0x336 JUMP JUMPDEST PUSH1 0x40 MLOAD PUSH3 0x142 SWAP2 SWAP1 PUSH3 0xB48 JUMP JUMPDEST CALLVALUE DUP1 ISZERO PUSH3 0x18C JUMPI PUSH1 0x0 DUP1 REVERT JUMPDEST POP PUSH3 0x1A4 PUSH3 0x19E CALLDATASIZE PUSH1 0x4 PUSH3 0xB71 JUMP JUMPDEST PUSH3 0x3C9 JUMP JUMPDEST STOP JUMPDEST CALLVALUE DUP1 ISZERO PUSH3 0x1B3 JUMPI PUSH1 0x0 DUP1 REVERT JUMPDEST POP PUSH3 0x12E PUSH3 0x548 JUMP JUMPDEST CALLVALUE DUP1 ISZERO PUSH3 0x1CB JUMPI PUSH1 0x0 DUP1 REVERT JUMPDEST POP PUSH3 0x1E3 PUSH3 0x1DD CALLDATASIZE PUSH1 0x4 PUSH3 0xB71 JUMP JUMPDEST PUSH3 0x58B JUMP JUMPDEST PUSH1 0x40 MLOAD PUSH3 0x142 SWAP3 SWAP2 SWAP1 PUSH3 0xBE8 JUMP JUMPDEST CALLVALUE DUP1 ISZERO PUSH3 0x200 JUMPI PUSH1 0x0 DUP1 REVERT JUMPDEST POP PUSH3 0x1A4 PUSH3 0x65B JUMP JUMPDEST CALLVALUE DUP1 ISZERO PUSH3 0x218 JUMPI PUSH1 0x0 DUP1 REVERT JUMPDEST POP PUSH1 0x0 SLOAD PUSH1 0x1 PUSH1 0x1 PUSH1 0xA0 SHL SUB AND PUSH3 0x12E JUMP JUMPDEST CALLVALUE DUP1 ISZERO PUSH3 0x238 JUMPI PUSH1 0x0 DUP1 REVERT JUMPDEST POP PUSH3 0x243 PUSH1 0x3 SLOAD DUP2 JUMP JUMPDEST PUSH1 0x40 MLOAD SWAP1 DUP2 MSTORE PUSH1 0x20 ADD PUSH3 0x142 JUMP JUMPDEST CALLVALUE DUP1 ISZERO PUSH3 0x25F JUMPI PUSH1 0x0 DUP1 REVERT JUMPDEST POP PUSH3 0x243 PUSH3 0x271 CALLDATASIZE PUSH1 0x4 PUSH3 0xC67 JUMP JUMPDEST PUSH3 0x69F JUMP JUMPDEST CALLVALUE DUP1 ISZERO PUSH3 0x284 JUMPI PUSH1 0x0 DUP1 REVERT JUMPDEST POP PUSH3 0x243 PUSH3 0x296 CALLDATASIZE PUSH1 0x4 PUSH3 0xB18 JUMP JUMPDEST PUSH3 0x7E4 JUMP JUMPDEST CALLVALUE DUP1 ISZERO PUSH3 0x2A9 JUMPI PUSH1 0x0 DUP1 REVERT JUMPDEST POP PUSH3 0x243 PUSH3 0x2BB CALLDATASIZE PUSH1 0x4 PUSH3 0xB18 JUMP JUMPDEST PUSH3 0x871 JUMP JUMPDEST CALLVALUE DUP1 ISZERO PUSH3 0x2CE JUMPI PUSH1 0x0 DUP1 REVERT JUMPDEST POP PUSH3 0x1A4 PUSH3 0x2E0 CALLDATASIZE PUSH1 0x4 PUSH3 0xCB0 JUMP JUMPDEST PUSH3 0x8D8 JUMP JUMPDEST CALLVALUE DUP1 ISZERO PUSH3 0x2F3 JUMPI PUSH1 0x0 DUP1 REVERT JUMPDEST POP PUSH3 0x1A4 PUSH3 0x305 CALLDATASIZE PUSH1 0x4 PUSH3 0xCB0 JUMP JUMPDEST PUSH3 0x99D JUMP JUMPDEST PUSH1 0x2 DUP2 DUP2 SLOAD DUP2 LT PUSH3 0x31C JUMPI PUSH1 0x0 DUP1 REVERT JUMPDEST PUSH1 0x0 SWAP2 DUP3 MSTORE PUSH1 0x20 SWAP1 SWAP2 KECCAK256 ADD SLOAD PUSH1 0x1 PUSH1 0x1 PUSH1 0xA0 SHL SUB AND SWAP1 POP DUP2 JUMP JUMPDEST PUSH1 0x0 PUSH1 0x2 DUP3 DUP2 SLOAD DUP2 LT PUSH3 0x34E JUMPI PUSH3 0x34E PUSH3 0xCD5 JUMP JUMPDEST PUSH1 0x0 SWAP2 DUP3 MSTORE PUSH1 0x20 SWAP2 DUP3 SWAP1 KECCAK256 ADD SLOAD PUSH1 0x40 DUP1 MLOAD PUSH4 0xF9688BC1 PUSH1 0xE0 SHL DUP2 MSTORE SWAP1 MLOAD PUSH1 0x1 PUSH1 0x1 PUSH1 0xA0 SHL SUB SWAP1 SWAP3 AND SWAP3 PUSH4 0xF9688BC1 SWAP3 PUSH1 0x4 DUP1 DUP5 ADD SWAP4 DUP3 SWAP1 SUB ADD DUP2 DUP7 GAS STATICCALL ISZERO DUP1 ISZERO PUSH3 0x39D JUMPI RETURNDATASIZE PUSH1 0x0 DUP1 RETURNDATACOPY RETURNDATASIZE PUSH1 0x0 REVERT JUMPDEST POP POP POP POP PUSH1 0x40 MLOAD RETURNDATASIZE PUSH1 0x1F NOT PUSH1 0x1F DUP3 ADD AND DUP3 ADD DUP1 PUSH1 0x40 MSTORE POP DUP2 ADD SWAP1 PUSH3 0x3C3 SWAP2 SWAP1 PUSH3 0xCEB JUMP JUMPDEST SWAP3 SWAP2 POP POP JUMP JUMPDEST PUSH1 0x0 JUMPDEST PUSH1 0x2 SLOAD DUP2 LT ISZERO PUSH3 0x543 JUMPI TIMESTAMP PUSH1 0x3 SLOAD PUSH3 0x3E6 DUP4 PUSH3 0x7E4 JUMP JUMPDEST PUSH3 0x3F2 SWAP2 SWAP1 PUSH3 0xD24 JUMP JUMPDEST LT DUP1 ISZERO PUSH3 0x421 JUMPI POP PUSH3 0x406 DUP2 PUSH3 0x336 JUMP JUMPDEST PUSH1 0x4 DUP2 GT ISZERO PUSH3 0x41A JUMPI PUSH3 0x41A PUSH3 0xB32 JUMP JUMPDEST PUSH1 0xFF AND PUSH1 0x2 EQ JUMPDEST ISZERO PUSH3 0x48D JUMPI PUSH32 0x1BC97B1A9657B9E450FB5D007A847DBA13280D3C7C140567705DDD16D431EA52 PUSH3 0x453 DUP3 PUSH3 0x336 JUMP JUMPDEST PUSH1 0x4 DUP2 GT ISZERO PUSH3 0x467 JUMPI PUSH3 0x467 PUSH3 0xB32 JUMP JUMPDEST PUSH1 0x40 MLOAD PUSH1 0xFF SWAP1 SWAP2 AND DUP2 MSTORE PUSH1 0x20 ADD PUSH1 0x40 MLOAD DUP1 SWAP2 SUB SWAP1 LOG1 PUSH3 0x487 DUP2 PUSH3 0xA3F JUMP JUMPDEST PUSH3 0x52E JUMP JUMPDEST TIMESTAMP PUSH3 0x499 DUP3 PUSH3 0x871 JUMP JUMPDEST LT DUP1 ISZERO PUSH3 0x4C8 JUMPI POP PUSH3 0x4AD DUP2 PUSH3 0x336 JUMP JUMPDEST PUSH1 0x4 DUP2 GT ISZERO PUSH3 0x4C1 JUMPI PUSH3 0x4C1 PUSH3 0xB32 JUMP JUMPDEST PUSH1 0xFF AND PUSH1 0x1 EQ JUMPDEST ISZERO PUSH3 0x52E JUMPI PUSH32 0xC39F6CDC3F8990DDA69D08749309A726A37D4A59F711293940EF9ECBC70F9443 PUSH3 0x4FA DUP3 PUSH3 0x336 JUMP JUMPDEST PUSH1 0x4 DUP2 GT ISZERO PUSH3 0x50E JUMPI PUSH3 0x50E PUSH3 0xB32 JUMP JUMPDEST PUSH1 0x40 MLOAD PUSH1 0xFF SWAP1 SWAP2 AND DUP2 MSTORE PUSH1 0x20 ADD PUSH1 0x40 MLOAD DUP1 SWAP2 SUB SWAP1 LOG1 PUSH3 0x52E DUP2 PUSH3 0xA3F JUMP JUMPDEST DUP1 PUSH3 0x53A DUP2 PUSH3 0xD3F JUMP JUMPDEST SWAP2 POP POP PUSH3 0x3CC JUMP JUMPDEST POP POP POP JUMP JUMPDEST PUSH1 0x2 DUP1 SLOAD PUSH1 0x0 SWAP2 SWAP1 PUSH3 0x55E SWAP1 PUSH1 0x1 SWAP1 PUSH3 0xD5D JUMP JUMPDEST DUP2 SLOAD DUP2 LT PUSH3 0x571 JUMPI PUSH3 0x571 PUSH3 0xCD5 JUMP JUMPDEST PUSH1 0x0 SWAP2 DUP3 MSTORE PUSH1 0x20 SWAP1 SWAP2 KECCAK256 ADD SLOAD PUSH1 0x1 PUSH1 0x1 PUSH1 0xA0 SHL SUB AND SWAP2 SWAP1 POP JUMP JUMPDEST PUSH1 0x0 PUSH1 0x60 DUP2 JUMPDEST PUSH1 0x2 SLOAD DUP2 LT DUP1 ISZERO PUSH3 0x5A1 JUMPI POP DUP3 ISZERO JUMPDEST ISZERO PUSH3 0x653 JUMPI TIMESTAMP PUSH1 0x3 SLOAD PUSH3 0x5B6 DUP4 PUSH3 0x7E4 JUMP JUMPDEST PUSH3 0x5C2 SWAP2 SWAP1 PUSH3 0xD24 JUMP JUMPDEST LT DUP1 ISZERO PUSH3 0x5F1 JUMPI POP PUSH3 0x5D6 DUP2 PUSH3 0x336 JUMP JUMPDEST PUSH1 0x4 DUP2 GT ISZERO PUSH3 0x5EA JUMPI PUSH3 0x5EA PUSH3 0xB32 JUMP JUMPDEST PUSH1 0xFF AND PUSH1 0x2 EQ JUMPDEST DUP1 PUSH3 0x633 JUMPI POP TIMESTAMP PUSH3 0x604 DUP3 PUSH3 0x871 JUMP JUMPDEST LT DUP1 ISZERO PUSH3 0x633 JUMPI POP PUSH3 0x618 DUP2 PUSH3 0x336 JUMP JUMPDEST PUSH1 0x4 DUP2 GT ISZERO PUSH3 0x62C JUMPI PUSH3 0x62C PUSH3 0xB32 JUMP JUMPDEST PUSH1 0xFF AND PUSH1 0x1 EQ JUMPDEST ISZERO PUSH3 0x63E JUMPI PUSH1 0x1 SWAP3 POP JUMPDEST DUP1 PUSH3 0x64A DUP2 PUSH3 0xD3F JUMP JUMPDEST SWAP2 POP POP PUSH3 0x591 JUMP JUMPDEST POP SWAP3 POP SWAP3 SWAP1 POP JUMP JUMPDEST PUSH1 0x0 SLOAD PUSH1 0x1 PUSH1 0x1 PUSH1 0xA0 SHL SUB AND CALLER EQ PUSH3 0x691 JUMPI PUSH1 0x40 MLOAD PUSH3 0x461BCD PUSH1 0xE5 SHL DUP2 MSTORE PUSH1 0x4 ADD PUSH3 0x688 SWAP1 PUSH3 0xD77 JUMP JUMPDEST PUSH1 0x40 MLOAD DUP1 SWAP2 SUB SWAP1 REVERT JUMPDEST PUSH3 0x69D PUSH1 0x0 PUSH3 0xABA JUMP JUMPDEST JUMP JUMPDEST PUSH1 0x0 DUP1 DUP7 DUP7 DUP7 DUP7 DUP7 PUSH1 0x40 MLOAD PUSH3 0x6B5 SWAP1 PUSH3 0xB0A JUMP JUMPDEST SWAP5 DUP6 MSTORE PUSH1 0x1 PUSH1 0x1 PUSH1 0xA0 SHL SUB SWAP1 SWAP4 AND PUSH1 0x20 DUP6 ADD MSTORE PUSH1 0x40 DUP5 ADD SWAP2 SWAP1 SWAP2 MSTORE PUSH1 0x60 DUP4 ADD MSTORE PUSH1 0x80 DUP3 ADD MSTORE PUSH1 0xA0 ADD PUSH1 0x40 MLOAD DUP1 SWAP2 SUB SWAP1 PUSH1 0x0 CREATE DUP1 ISZERO DUP1 ISZERO PUSH3 0x6FA JUMPI RETURNDATASIZE PUSH1 0x0 DUP1 RETURNDATACOPY RETURNDATASIZE PUSH1 0x0 REVERT JUMPDEST POP PUSH1 0x2 DUP1 SLOAD PUSH1 0x1 DUP2 ADD DUP3 SSTORE PUSH1 0x0 SWAP2 SWAP1 SWAP2 MSTORE PUSH32 0x405787FA12A823E0F2B7631CC41B3BA8828B3321CA811111FA75CD3AA3BB5ACE ADD DUP1 SLOAD PUSH1 0x1 PUSH1 0x1 PUSH1 0xA0 SHL SUB NOT AND PUSH1 0x1 PUSH1 0x1 PUSH1 0xA0 SHL SUB DUP4 AND SWAP1 DUP2 OR SWAP1 SWAP2 SSTORE PUSH1 0x40 MLOAD PUSH4 0xF2FDE38B PUSH1 0xE0 SHL DUP2 MSTORE CALLER PUSH1 0x4 DUP3 ADD MSTORE SWAP2 SWAP3 POP SWAP1 PUSH4 0xF2FDE38B SWAP1 PUSH1 0x24 ADD PUSH1 0x0 PUSH1 0x40 MLOAD DUP1 DUP4 SUB DUP2 PUSH1 0x0 DUP8 DUP1 EXTCODESIZE ISZERO DUP1 ISZERO PUSH3 0x784 JUMPI PUSH1 0x0 DUP1 REVERT JUMPDEST POP GAS CALL ISZERO DUP1 ISZERO PUSH3 0x799 JUMPI RETURNDATASIZE PUSH1 0x0 DUP1 RETURNDATACOPY RETURNDATASIZE PUSH1 0x0 REVERT JUMPDEST POP POP PUSH1 0x40 MLOAD PUSH1 0x1 PUSH1 0x1 PUSH1 0xA0 SHL SUB DUP5 AND DUP2 MSTORE PUSH32 0x8A8CC462D00726E0F8C031DD2D6B9DCDF0794FB27A88579830DADEE27D43EA7C SWAP3 POP PUSH1 0x20 ADD SWAP1 POP PUSH1 0x40 MLOAD DUP1 SWAP2 SUB SWAP1 LOG1 POP SWAP6 SWAP5 POP POP POP POP POP JUMP JUMPDEST PUSH1 0x0 PUSH1 0x2 DUP3 DUP2 SLOAD DUP2 LT PUSH3 0x7FC JUMPI PUSH3 0x7FC PUSH3 0xCD5 JUMP JUMPDEST PUSH1 0x0 SWAP2 DUP3 MSTORE PUSH1 0x20 SWAP2 DUP3 SWAP1 KECCAK256 ADD SLOAD PUSH1 0x40 DUP1 MLOAD PUSH4 0x7676D235 PUSH1 0xE0 SHL DUP2 MSTORE SWAP1 MLOAD PUSH1 0x1 PUSH1 0x1 PUSH1 0xA0 SHL SUB SWAP1 SWAP3 AND SWAP3 PUSH4 0x7676D235 SWAP3 PUSH1 0x4 DUP1 DUP5 ADD SWAP4 DUP3 SWAP1 SUB ADD DUP2 DUP7 GAS STATICCALL ISZERO DUP1 ISZERO PUSH3 0x84B JUMPI RETURNDATASIZE PUSH1 0x0 DUP1 RETURNDATACOPY RETURNDATASIZE PUSH1 0x0 REVERT JUMPDEST POP POP POP POP PUSH1 0x40 MLOAD RETURNDATASIZE PUSH1 0x1F NOT PUSH1 0x1F DUP3 ADD AND DUP3 ADD DUP1 PUSH1 0x40 MSTORE POP DUP2 ADD SWAP1 PUSH3 0x3C3 SWAP2 SWAP1 PUSH3 0xDAC JUMP JUMPDEST PUSH1 0x0 PUSH1 0x2 DUP3 DUP2 SLOAD DUP2 LT PUSH3 0x889 JUMPI PUSH3 0x889 PUSH3 0xCD5 JUMP JUMPDEST PUSH1 0x0 SWAP2 DUP3 MSTORE PUSH1 0x20 SWAP2 DUP3 SWAP1 KECCAK256 ADD SLOAD PUSH1 0x40 DUP1 MLOAD PUSH4 0xBA829D71 PUSH1 0xE0 SHL DUP2 MSTORE SWAP1 MLOAD PUSH1 0x1 PUSH1 0x1 PUSH1 0xA0 SHL SUB SWAP1 SWAP3 AND SWAP3 PUSH4 0xBA829D71 SWAP3 PUSH1 0x4 DUP1 DUP5 ADD SWAP4 DUP3 SWAP1 SUB ADD DUP2 DUP7 GAS STATICCALL ISZERO DUP1 ISZERO PUSH3 0x84B JUMPI RETURNDATASIZE PUSH1 0x0 DUP1 RETURNDATACOPY RETURNDATASIZE PUSH1 0x0 REVERT JUMPDEST PUSH1 0x2 PUSH1 0x1 SLOAD EQ ISZERO PUSH3 0x92D JUMPI PUSH1 0x40 MLOAD PUSH3 0x461BCD PUSH1 0xE5 SHL DUP2 MSTORE PUSH1 0x20 PUSH1 0x4 DUP3 ADD MSTORE PUSH1 0x1F PUSH1 0x24 DUP3 ADD MSTORE PUSH32 0x5265656E7472616E637947756172643A207265656E7472616E742063616C6C00 PUSH1 0x44 DUP3 ADD MSTORE PUSH1 0x64 ADD PUSH3 0x688 JUMP JUMPDEST PUSH1 0x2 PUSH1 0x1 SSTORE PUSH1 0x0 SLOAD PUSH1 0x1 PUSH1 0x1 PUSH1 0xA0 SHL SUB AND CALLER EQ PUSH3 0x95F JUMPI PUSH1 0x40 MLOAD PUSH3 0x461BCD PUSH1 0xE5 SHL DUP2 MSTORE PUSH1 0x4 ADD PUSH3 0x688 SWAP1 PUSH3 0xD77 JUMP JUMPDEST PUSH1 0x40 MLOAD PUSH1 0x1 PUSH1 0x1 PUSH1 0xA0 SHL SUB DUP3 AND SWAP1 SELFBALANCE DUP1 ISZERO PUSH2 0x8FC MUL SWAP2 PUSH1 0x0 DUP2 DUP2 DUP2 DUP6 DUP9 DUP9 CALL SWAP4 POP POP POP POP ISZERO DUP1 ISZERO PUSH3 0x995 JUMPI RETURNDATASIZE PUSH1 0x0 DUP1 RETURNDATACOPY RETURNDATASIZE PUSH1 0x0 REVERT JUMPDEST POP POP PUSH1 0x1 DUP1 SSTORE JUMP JUMPDEST PUSH1 0x0 SLOAD PUSH1 0x1 PUSH1 0x1 PUSH1 0xA0 SHL SUB AND CALLER EQ PUSH3 0x9CA JUMPI PUSH1 0x40 MLOAD PUSH3 0x461BCD PUSH1 0xE5 SHL DUP2 MSTORE PUSH1 0x4 ADD PUSH3 0x688 SWAP1 PUSH3 0xD77 JUMP JUMPDEST PUSH1 0x1 PUSH1 0x1 PUSH1 0xA0 SHL SUB DUP2 AND PUSH3 0xA31 JUMPI PUSH1 0x40 MLOAD PUSH3 0x461BCD PUSH1 0xE5 SHL DUP2 MSTORE PUSH1 0x20 PUSH1 0x4 DUP3 ADD MSTORE PUSH1 0x26 PUSH1 0x24 DUP3 ADD MSTORE PUSH32 0x4F776E61626C653A206E6577206F776E657220697320746865207A65726F2061 PUSH1 0x44 DUP3 ADD MSTORE PUSH6 0x646472657373 PUSH1 0xD0 SHL PUSH1 0x64 DUP3 ADD MSTORE PUSH1 0x84 ADD PUSH3 0x688 JUMP JUMPDEST PUSH3 0xA3C DUP2 PUSH3 0xABA JUMP JUMPDEST POP JUMP JUMPDEST PUSH1 0x2 DUP2 DUP2 SLOAD DUP2 LT PUSH3 0xA55 JUMPI PUSH3 0xA55 PUSH3 0xCD5 JUMP JUMPDEST PUSH1 0x0 SWAP2 DUP3 MSTORE PUSH1 0x20 DUP3 KECCAK256 ADD SLOAD PUSH1 0x40 DUP1 MLOAD PUSH4 0x3EADB6DB PUSH1 0xE0 SHL DUP2 MSTORE SWAP1 MLOAD PUSH1 0x1 PUSH1 0x1 PUSH1 0xA0 SHL SUB SWAP1 SWAP3 AND SWAP3 PUSH4 0x3EADB6DB SWAP3 PUSH1 0x4 DUP1 DUP5 ADD SWAP4 DUP3 SWAP1 SUB ADD DUP2 DUP4 DUP8 DUP1 EXTCODESIZE ISZERO DUP1 ISZERO PUSH3 0xA9E JUMPI PUSH1 0x0 DUP1 REVERT JUMPDEST POP GAS CALL ISZERO DUP1 ISZERO PUSH3 0xAB3 JUMPI RETURNDATASIZE PUSH1 0x0 DUP1 RETURNDATACOPY RETURNDATASIZE PUSH1 0x0 REVERT JUMPDEST POP POP POP POP POP JUMP JUMPDEST PUSH1 0x0 DUP1 SLOAD PUSH1 0x1 PUSH1 0x1 PUSH1 0xA0 SHL SUB DUP4 DUP2 AND PUSH1 0x1 PUSH1 0x1 PUSH1 0xA0 SHL SUB NOT DUP4 AND DUP2 OR DUP5 SSTORE PUSH1 0x40 MLOAD SWAP2 SWAP1 SWAP3 AND SWAP3 DUP4 SWAP2 PUSH32 0x8BE0079C531659141344CD1FD0A4F28419497F9722A3DAAFE3B4186F6B6457E0 SWAP2 SWAP1 LOG3 POP POP JUMP JUMPDEST PUSH2 0x18F8 DUP1 PUSH3 0xDC7 DUP4 CODECOPY ADD SWAP1 JUMP JUMPDEST PUSH1 0x0 PUSH1 0x20 DUP3 DUP5 SUB SLT ISZERO PUSH3 0xB2B JUMPI PUSH1 0x0 DUP1 REVERT JUMPDEST POP CALLDATALOAD SWAP2 SWAP1 POP JUMP JUMPDEST PUSH4 0x4E487B71 PUSH1 0xE0 SHL PUSH1 0x0 MSTORE PUSH1 0x21 PUSH1 0x4 MSTORE PUSH1 0x24 PUSH1 0x0 REVERT JUMPDEST PUSH1 0x20 DUP2 ADD PUSH1 0x5 DUP4 LT PUSH3 0xB6B JUMPI PUSH4 0x4E487B71 PUSH1 0xE0 SHL PUSH1 0x0 MSTORE PUSH1 0x21 PUSH1 0x4 MSTORE PUSH1 0x24 PUSH1 0x0 REVERT JUMPDEST SWAP2 SWAP1 MSTORE SWAP1 JUMP JUMPDEST PUSH1 0x0 DUP1 PUSH1 0x20 DUP4 DUP6 SUB SLT ISZERO PUSH3 0xB85 JUMPI PUSH1 0x0 DUP1 REVERT JUMPDEST DUP3 CALLDATALOAD PUSH8 0xFFFFFFFFFFFFFFFF DUP1 DUP3 GT ISZERO PUSH3 0xB9E JUMPI PUSH1 0x0 DUP1 REVERT JUMPDEST DUP2 DUP6 ADD SWAP2 POP DUP6 PUSH1 0x1F DUP4 ADD SLT PUSH3 0xBB3 JUMPI PUSH1 0x0 DUP1 REVERT JUMPDEST DUP2 CALLDATALOAD DUP2 DUP2 GT ISZERO PUSH3 0xBC3 JUMPI PUSH1 0x0 DUP1 REVERT JUMPDEST DUP7 PUSH1 0x20 DUP3 DUP6 ADD ADD GT ISZERO PUSH3 0xBD6 JUMPI PUSH1 0x0 DUP1 REVERT JUMPDEST PUSH1 0x20 SWAP3 SWAP1 SWAP3 ADD SWAP7 SWAP2 SWAP6 POP SWAP1 SWAP4 POP POP POP POP JUMP JUMPDEST DUP3 ISZERO ISZERO DUP2 MSTORE PUSH1 0x0 PUSH1 0x20 PUSH1 0x40 DUP2 DUP5 ADD MSTORE DUP4 MLOAD DUP1 PUSH1 0x40 DUP6 ADD MSTORE PUSH1 0x0 JUMPDEST DUP2 DUP2 LT ISZERO PUSH3 0xC20 JUMPI DUP6 DUP2 ADD DUP4 ADD MLOAD DUP6 DUP3 ADD PUSH1 0x60 ADD MSTORE DUP3 ADD PUSH3 0xC02 JUMP JUMPDEST DUP2 DUP2 GT ISZERO PUSH3 0xC33 JUMPI PUSH1 0x0 PUSH1 0x60 DUP4 DUP8 ADD ADD MSTORE JUMPDEST POP PUSH1 0x1F ADD PUSH1 0x1F NOT AND SWAP3 SWAP1 SWAP3 ADD PUSH1 0x60 ADD SWAP5 SWAP4 POP POP POP POP JUMP JUMPDEST DUP1 CALLDATALOAD PUSH1 0x1 PUSH1 0x1 PUSH1 0xA0 SHL SUB DUP2 AND DUP2 EQ PUSH3 0xC62 JUMPI PUSH1 0x0 DUP1 REVERT JUMPDEST SWAP2 SWAP1 POP JUMP JUMPDEST PUSH1 0x0 DUP1 PUSH1 0x0 DUP1 PUSH1 0x0 PUSH1 0xA0 DUP7 DUP9 SUB SLT ISZERO PUSH3 0xC80 JUMPI PUSH1 0x0 DUP1 REVERT JUMPDEST DUP6 CALLDATALOAD SWAP5 POP PUSH3 0xC92 PUSH1 0x20 DUP8 ADD PUSH3 0xC4A JUMP JUMPDEST SWAP5 SWAP8 SWAP5 SWAP7 POP POP POP POP PUSH1 0x40 DUP4 ADD CALLDATALOAD SWAP3 PUSH1 0x60 DUP2 ADD CALLDATALOAD SWAP3 PUSH1 0x80 SWAP1 SWAP2 ADD CALLDATALOAD SWAP2 POP JUMP JUMPDEST PUSH1 0x0 PUSH1 0x20 DUP3 DUP5 SUB SLT ISZERO PUSH3 0xCC3 JUMPI PUSH1 0x0 DUP1 REVERT JUMPDEST PUSH3 0xCCE DUP3 PUSH3 0xC4A JUMP JUMPDEST SWAP4 SWAP3 POP POP POP JUMP JUMPDEST PUSH4 0x4E487B71 PUSH1 0xE0 SHL PUSH1 0x0 MSTORE PUSH1 0x32 PUSH1 0x4 MSTORE PUSH1 0x24 PUSH1 0x0 REVERT JUMPDEST PUSH1 0x0 PUSH1 0x20 DUP3 DUP5 SUB SLT ISZERO PUSH3 0xCFE JUMPI PUSH1 0x0 DUP1 REVERT JUMPDEST DUP2 MLOAD PUSH1 0x5 DUP2 LT PUSH3 0xCCE JUMPI PUSH1 0x0 DUP1 REVERT JUMPDEST PUSH4 0x4E487B71 PUSH1 0xE0 SHL PUSH1 0x0 MSTORE PUSH1 0x11 PUSH1 0x4 MSTORE PUSH1 0x24 PUSH1 0x0 REVERT JUMPDEST PUSH1 0x0 DUP3 NOT DUP3 GT ISZERO PUSH3 0xD3A JUMPI PUSH3 0xD3A PUSH3 0xD0E JUMP JUMPDEST POP ADD SWAP1 JUMP JUMPDEST PUSH1 0x0 PUSH1 0x0 NOT DUP3 EQ ISZERO PUSH3 0xD56 JUMPI PUSH3 0xD56 PUSH3 0xD0E JUMP JUMPDEST POP PUSH1 0x1 ADD SWAP1 JUMP JUMPDEST PUSH1 0x0 DUP3 DUP3 LT ISZERO PUSH3 0xD72 JUMPI PUSH3 0xD72 PUSH3 0xD0E JUMP JUMPDEST POP SUB SWAP1 JUMP JUMPDEST PUSH1 0x20 DUP1 DUP3 MSTORE DUP2 DUP2 ADD MSTORE PUSH32 0x4F776E61626C653A2063616C6C6572206973206E6F7420746865206F776E6572 PUSH1 0x40 DUP3 ADD MSTORE PUSH1 0x60 ADD SWAP1 JUMP JUMPDEST PUSH1 0x0 PUSH1 0x20 DUP3 DUP5 SUB SLT ISZERO PUSH3 0xDBF JUMPI PUSH1 0x0 DUP1 REVERT JUMPDEST POP MLOAD SWAP2 SWAP1 POP JUMP INVALID PUSH1 0x80 PUSH1 0x40 MSTORE PUSH1 0x14 PUSH1 0x4 SSTORE PUSH1 0x78 PUSH1 0x10 SSTORE CALLVALUE DUP1 ISZERO PUSH2 0x1A JUMPI PUSH1 0x0 DUP1 REVERT JUMPDEST POP PUSH1 0x40 MLOAD PUSH2 0x18F8 CODESIZE SUB DUP1 PUSH2 0x18F8 DUP4 CODECOPY DUP2 ADD PUSH1 0x40 DUP2 SWAP1 MSTORE PUSH2 0x39 SWAP2 PUSH2 0x142 JUMP JUMPDEST PUSH2 0x42 CALLER PUSH2 0xF2 JUMP JUMPDEST PUSH1 0x1 DUP1 SSTORE PUSH1 0x1 PUSH1 0x1 PUSH1 0xA0 SHL SUB DUP5 AND PUSH2 0xA0 JUMPI PUSH1 0x40 MLOAD PUSH3 0x461BCD PUSH1 0xE5 SHL DUP2 MSTORE PUSH1 0x20 PUSH1 0x4 DUP3 ADD MSTORE PUSH1 0x1A PUSH1 0x24 DUP3 ADD MSTORE PUSH32 0x4E6F7420612076616C6964204552433732312061646472657373000000000000 PUSH1 0x44 DUP3 ADD MSTORE PUSH1 0x64 ADD PUSH1 0x40 MLOAD DUP1 SWAP2 SUB SWAP1 REVERT JUMPDEST PUSH1 0x11 DUP1 SLOAD PUSH1 0xFF NOT AND SWAP1 SSTORE PUSH1 0xA SWAP5 SWAP1 SWAP5 SSTORE PUSH1 0xC DUP1 SLOAD PUSH1 0x1 PUSH1 0x1 PUSH1 0xA0 SHL SUB SWAP5 DUP6 AND PUSH1 0x1 PUSH1 0x1 PUSH1 0xA0 SHL SUB NOT SWAP2 DUP3 AND OR SWAP1 SWAP2 SSTORE PUSH1 0xD SWAP3 SWAP1 SWAP3 SSTORE PUSH1 0xE SSTORE PUSH1 0xF SWAP3 SWAP1 SWAP3 SSTORE PUSH1 0x0 SLOAD PUSH1 0x3 DUP1 SLOAD SWAP1 SWAP4 AND SWAP2 AND OR SWAP1 SSTORE PUSH2 0x198 JUMP JUMPDEST PUSH1 0x0 DUP1 SLOAD PUSH1 0x1 PUSH1 0x1 PUSH1 0xA0 SHL SUB DUP4 DUP2 AND PUSH1 0x1 PUSH1 0x1 PUSH1 0xA0 SHL SUB NOT DUP4 AND DUP2 OR DUP5 SSTORE PUSH1 0x40 MLOAD SWAP2 SWAP1 SWAP3 AND SWAP3 DUP4 SWAP2 PUSH32 0x8BE0079C531659141344CD1FD0A4F28419497F9722A3DAAFE3B4186F6B6457E0 SWAP2 SWAP1 LOG3 POP POP JUMP JUMPDEST PUSH1 0x0 DUP1 PUSH1 0x0 DUP1 PUSH1 0x0 PUSH1 0xA0 DUP7 DUP9 SUB SLT ISZERO PUSH2 0x15A JUMPI PUSH1 0x0 DUP1 REVERT JUMPDEST DUP6 MLOAD PUSH1 0x20 DUP8 ADD MLOAD SWAP1 SWAP6 POP PUSH1 0x1 PUSH1 0x1 PUSH1 0xA0 SHL SUB DUP2 AND DUP2 EQ PUSH2 0x179 JUMPI PUSH1 0x0 DUP1 REVERT JUMPDEST PUSH1 0x40 DUP8 ADD MLOAD PUSH1 0x60 DUP9 ADD MLOAD PUSH1 0x80 SWAP1 SWAP9 ADD MLOAD SWAP7 SWAP10 SWAP2 SWAP9 POP SWAP7 SWAP6 SWAP5 POP SWAP3 POP POP POP JUMP JUMPDEST PUSH2 0x1751 DUP1 PUSH2 0x1A7 PUSH1 0x0 CODECOPY PUSH1 0x0 RETURN INVALID PUSH1 0x80 PUSH1 0x40 MSTORE PUSH1 0x4 CALLDATASIZE LT PUSH2 0x19C JUMPI PUSH1 0x0 CALLDATALOAD PUSH1 0xE0 SHR DUP1 PUSH4 0xAA8C217C GT PUSH2 0xEC JUMPI DUP1 PUSH4 0xD5B19DF5 GT PUSH2 0x8A JUMPI DUP1 PUSH4 0xE8A5ACEE GT PUSH2 0x64 JUMPI DUP1 PUSH4 0xE8A5ACEE EQ PUSH2 0x43A JUMPI DUP1 PUSH4 0xF2FDE38B EQ PUSH2 0x450 JUMPI DUP1 PUSH4 0xF71D96CB EQ PUSH2 0x470 JUMPI DUP1 PUSH4 0xF9688BC1 EQ PUSH2 0x490 JUMPI PUSH1 0x0 DUP1 REVERT JUMPDEST DUP1 PUSH4 0xD5B19DF5 EQ PUSH2 0x3DA JUMPI DUP1 PUSH4 0xD7EE3C79 EQ PUSH2 0x3FA JUMPI DUP1 PUSH4 0xDFBF53AE EQ PUSH2 0x41A JUMPI PUSH1 0x0 DUP1 REVERT JUMPDEST DUP1 PUSH4 0xB95EDBF9 GT PUSH2 0xC6 JUMPI DUP1 PUSH4 0xB95EDBF9 EQ PUSH2 0x379 JUMPI DUP1 PUSH4 0xBA829D71 EQ PUSH2 0x38F JUMPI DUP1 PUSH4 0xC45A0155 EQ PUSH2 0x3A5 JUMPI DUP1 PUSH4 0xD28A2EDD EQ PUSH2 0x3C5 JUMPI PUSH1 0x0 DUP1 REVERT JUMPDEST DUP1 PUSH4 0xAA8C217C EQ PUSH2 0x32E JUMPI DUP1 PUSH4 0xB6F1AD5B EQ PUSH2 0x344 JUMPI DUP1 PUSH4 0xB8E33FB2 EQ PUSH2 0x359 JUMPI PUSH1 0x0 DUP1 REVERT JUMPDEST DUP1 PUSH4 0x715018A6 GT PUSH2 0x159 JUMPI DUP1 PUSH4 0x7F386B6C GT PUSH2 0x133 JUMPI DUP1 PUSH4 0x7F386B6C EQ PUSH2 0x2A3 JUMPI DUP1 PUSH4 0x89A694DD EQ PUSH2 0x2B9 JUMPI DUP1 PUSH4 0x8DA5CB5B EQ PUSH2 0x2E6 JUMPI DUP1 PUSH4 0xA438B0E5 EQ PUSH2 0x318 JUMPI PUSH1 0x0 DUP1 REVERT JUMPDEST DUP1 PUSH4 0x715018A6 EQ PUSH2 0x263 JUMPI DUP1 PUSH4 0x74328B1C EQ PUSH2 0x278 JUMPI DUP1 PUSH4 0x7676D235 EQ PUSH2 0x28D JUMPI PUSH1 0x0 DUP1 REVERT JUMPDEST DUP1 PUSH4 0x51E1524 EQ PUSH2 0x1A1 JUMPI DUP1 PUSH4 0x17D70F7C EQ PUSH2 0x1B6 JUMPI DUP1 PUSH4 0x35FE2D7F EQ PUSH2 0x1DF JUMPI DUP1 PUSH4 0x39107381 EQ PUSH2 0x20C JUMPI DUP1 PUSH4 0x3EADB6DB EQ PUSH2 0x221 JUMPI DUP1 PUSH4 0x64B4D428 EQ PUSH2 0x236 JUMPI JUMPDEST PUSH1 0x0 DUP1 REVERT JUMPDEST PUSH2 0x1B4 PUSH2 0x1AF CALLDATASIZE PUSH1 0x4 PUSH2 0x140A JUMP JUMPDEST PUSH2 0x4B7 JUMP JUMPDEST STOP JUMPDEST CALLVALUE DUP1 ISZERO PUSH2 0x1C2 JUMPI PUSH1 0x0 DUP1 REVERT JUMPDEST POP PUSH2 0x1CC PUSH1 0xD SLOAD DUP2 JUMP JUMPDEST PUSH1 0x40 MLOAD SWAP1 DUP2 MSTORE PUSH1 0x20 ADD JUMPDEST PUSH1 0x40 MLOAD DUP1 SWAP2 SUB SWAP1 RETURN JUMPDEST CALLVALUE DUP1 ISZERO PUSH2 0x1EB JUMPI PUSH1 0x0 DUP1 REVERT JUMPDEST POP PUSH2 0x1CC PUSH2 0x1FA CALLDATASIZE PUSH1 0x4 PUSH2 0x1423 JUMP JUMPDEST PUSH1 0x7 PUSH1 0x20 MSTORE PUSH1 0x0 SWAP1 DUP2 MSTORE PUSH1 0x40 SWAP1 KECCAK256 SLOAD DUP2 JUMP JUMPDEST CALLVALUE DUP1 ISZERO PUSH2 0x218 JUMPI PUSH1 0x0 DUP1 REVERT JUMPDEST POP PUSH2 0x1B4 PUSH2 0x68A JUMP JUMPDEST CALLVALUE DUP1 ISZERO PUSH2 0x22D JUMPI PUSH1 0x0 DUP1 REVERT JUMPDEST POP PUSH2 0x1B4 PUSH2 0x8C0 JUMP JUMPDEST CALLVALUE DUP1 ISZERO PUSH2 0x242 JUMPI PUSH1 0x0 DUP1 REVERT JUMPDEST POP PUSH2 0x1CC PUSH2 0x251 CALLDATASIZE PUSH1 0x4 PUSH2 0x1423 JUMP JUMPDEST PUSH1 0x6 PUSH1 0x20 MSTORE PUSH1 0x0 SWAP1 DUP2 MSTORE PUSH1 0x40 SWAP1 KECCAK256 SLOAD DUP2 JUMP JUMPDEST CALLVALUE DUP1 ISZERO PUSH2 0x26F JUMPI PUSH1 0x0 DUP1 REVERT JUMPDEST POP PUSH2 0x1B4 PUSH2 0xA5A JUMP JUMPDEST CALLVALUE DUP1 ISZERO PUSH2 0x284 JUMPI PUSH1 0x0 DUP1 REVERT JUMPDEST POP PUSH2 0x1B4 PUSH2 0xA8E JUMP JUMPDEST CALLVALUE DUP1 ISZERO PUSH2 0x299 JUMPI PUSH1 0x0 DUP1 REVERT JUMPDEST POP PUSH2 0x1CC PUSH1 0xF SLOAD DUP2 JUMP JUMPDEST CALLVALUE DUP1 ISZERO PUSH2 0x2AF JUMPI PUSH1 0x0 DUP1 REVERT JUMPDEST POP PUSH2 0x1CC PUSH1 0xB SLOAD DUP2 JUMP JUMPDEST CALLVALUE DUP1 ISZERO PUSH2 0x2C5 JUMPI PUSH1 0x0 DUP1 REVERT JUMPDEST POP PUSH2 0x1CC PUSH2 0x2D4 CALLDATASIZE PUSH1 0x4 PUSH2 0x1423 JUMP JUMPDEST PUSH1 0x5 PUSH1 0x20 MSTORE PUSH1 0x0 SWAP1 DUP2 MSTORE PUSH1 0x40 SWAP1 KECCAK256 SLOAD DUP2 JUMP JUMPDEST CALLVALUE DUP1 ISZERO PUSH2 0x2F2 JUMPI PUSH1 0x0 DUP1 REVERT JUMPDEST POP PUSH1 0x0 SLOAD PUSH1 0x1 PUSH1 0x1 PUSH1 0xA0 SHL SUB AND JUMPDEST PUSH1 0x40 MLOAD PUSH1 0x1 PUSH1 0x1 PUSH1 0xA0 SHL SUB SWAP1 SWAP2 AND DUP2 MSTORE PUSH1 0x20 ADD PUSH2 0x1D6 JUMP JUMPDEST CALLVALUE DUP1 ISZERO PUSH2 0x324 JUMPI PUSH1 0x0 DUP1 REVERT JUMPDEST POP PUSH2 0x1CC PUSH1 0x10 SLOAD DUP2 JUMP JUMPDEST CALLVALUE DUP1 ISZERO PUSH2 0x33A JUMPI PUSH1 0x0 DUP1 REVERT JUMPDEST POP PUSH2 0x1CC PUSH1 0x9 SLOAD DUP2 JUMP JUMPDEST CALLVALUE DUP1 ISZERO PUSH2 0x350 JUMPI PUSH1 0x0 DUP1 REVERT JUMPDEST POP PUSH2 0x1B4 PUSH2 0xB8C JUMP JUMPDEST CALLVALUE DUP1 ISZERO PUSH2 0x365 JUMPI PUSH1 0x0 DUP1 REVERT JUMPDEST POP PUSH1 0xC SLOAD PUSH2 0x300 SWAP1 PUSH1 0x1 PUSH1 0x1 PUSH1 0xA0 SHL SUB AND DUP2 JUMP JUMPDEST CALLVALUE DUP1 ISZERO PUSH2 0x385 JUMPI PUSH1 0x0 DUP1 REVERT JUMPDEST POP PUSH2 0x1CC PUSH1 0x4 SLOAD DUP2 JUMP JUMPDEST CALLVALUE DUP1 ISZERO PUSH2 0x39B JUMPI PUSH1 0x0 DUP1 REVERT JUMPDEST POP PUSH2 0x1CC PUSH1 0xE SLOAD DUP2 JUMP JUMPDEST CALLVALUE DUP1 ISZERO PUSH2 0x3B1 JUMPI PUSH1 0x0 DUP1 REVERT JUMPDEST POP PUSH1 0x3 SLOAD PUSH2 0x300 SWAP1 PUSH1 0x1 PUSH1 0x1 PUSH1 0xA0 SHL SUB AND DUP2 JUMP JUMPDEST CALLVALUE DUP1 ISZERO PUSH2 0x3D1 JUMPI PUSH1 0x0 DUP1 REVERT JUMPDEST POP PUSH2 0x1B4 PUSH2 0xC9C JUMP JUMPDEST CALLVALUE DUP1 ISZERO PUSH2 0x3E6 JUMPI PUSH1 0x0 DUP1 REVERT JUMPDEST POP PUSH2 0x1B4 PUSH2 0x3F5 CALLDATASIZE PUSH1 0x4 PUSH2 0x1469 JUMP JUMPDEST PUSH2 0xD87 JUMP JUMPDEST CALLVALUE DUP1 ISZERO PUSH2 0x406 JUMPI PUSH1 0x0 DUP1 REVERT JUMPDEST POP PUSH2 0x1B4 PUSH2 0x415 CALLDATASIZE PUSH1 0x4 PUSH2 0x1469 JUMP JUMPDEST PUSH2 0xF15 JUMP JUMPDEST CALLVALUE DUP1 ISZERO PUSH2 0x426 JUMPI PUSH1 0x0 DUP1 REVERT JUMPDEST POP PUSH1 0x8 SLOAD PUSH2 0x300 SWAP1 PUSH1 0x1 PUSH1 0x1 PUSH1 0xA0 SHL SUB AND DUP2 JUMP JUMPDEST CALLVALUE DUP1 ISZERO PUSH2 0x446 JUMPI PUSH1 0x0 DUP1 REVERT JUMPDEST POP PUSH2 0x1CC PUSH1 0xA SLOAD DUP2 JUMP JUMPDEST CALLVALUE DUP1 ISZERO PUSH2 0x45C JUMPI PUSH1 0x0 DUP1 REVERT JUMPDEST POP PUSH2 0x1B4 PUSH2 0x46B CALLDATASIZE PUSH1 0x4 PUSH2 0x1423 JUMP JUMPDEST PUSH2 0x1157 JUMP JUMPDEST CALLVALUE DUP1 ISZERO PUSH2 0x47C JUMPI PUSH1 0x0 DUP1 REVERT JUMPDEST POP PUSH2 0x300 PUSH2 0x48B CALLDATASIZE PUSH1 0x4 PUSH2 0x140A JUMP JUMPDEST PUSH2 0x11F2 JUMP JUMPDEST CALLVALUE DUP1 ISZERO PUSH2 0x49C JUMPI PUSH1 0x0 DUP1 REVERT JUMPDEST POP PUSH1 0x11 SLOAD PUSH2 0x4AA SWAP1 PUSH1 0xFF AND DUP2 JUMP JUMPDEST PUSH1 0x40 MLOAD PUSH2 0x1D6 SWAP2 SWAP1 PUSH2 0x1534 JUMP JUMPDEST PUSH1 0x1 PUSH1 0x11 SLOAD PUSH1 0xFF AND PUSH1 0x4 DUP2 GT ISZERO PUSH2 0x4D0 JUMPI PUSH2 0x4D0 PUSH2 0x151E JUMP JUMPDEST EQ PUSH2 0x518 JUMPI PUSH1 0x40 MLOAD PUSH3 0x461BCD PUSH1 0xE5 SHL DUP2 MSTORE PUSH1 0x20 PUSH1 0x4 DUP3 ADD MSTORE PUSH1 0x13 PUSH1 0x24 DUP3 ADD MSTORE PUSH19 0x57726F6E672061756374696F6E207374617465 PUSH1 0x68 SHL PUSH1 0x44 DUP3 ADD MSTORE PUSH1 0x64 ADD JUMPDEST PUSH1 0x40 MLOAD DUP1 SWAP2 SUB SWAP1 REVERT JUMPDEST PUSH1 0x0 SLOAD PUSH1 0x1 PUSH1 0x1 PUSH1 0xA0 SHL SUB AND CALLER EQ ISZERO PUSH2 0x564 JUMPI PUSH1 0x40 MLOAD PUSH3 0x461BCD PUSH1 0xE5 SHL DUP2 MSTORE PUSH1 0x20 PUSH1 0x4 DUP3 ADD MSTORE PUSH1 0xE PUSH1 0x24 DUP3 ADD MSTORE PUSH14 0x13DDDB995C8818D85B9D08189A59 PUSH1 0x92 SHL PUSH1 0x44 DUP3 ADD MSTORE PUSH1 0x64 ADD PUSH2 0x50F JUMP JUMPDEST PUSH1 0x0 CALLVALUE GT PUSH2 0x5A4 JUMPI PUSH1 0x40 MLOAD PUSH3 0x461BCD PUSH1 0xE5 SHL DUP2 MSTORE PUSH1 0x20 PUSH1 0x4 DUP3 ADD MSTORE PUSH1 0xD PUSH1 0x24 DUP3 ADD MSTORE PUSH13 0x9CCACAC840E6DEDACA408AA89 PUSH1 0x9B SHL PUSH1 0x44 DUP3 ADD MSTORE PUSH1 0x64 ADD PUSH2 0x50F JUMP JUMPDEST CALLER PUSH1 0x0 SWAP1 DUP2 MSTORE PUSH1 0x5 PUSH1 0x20 MSTORE PUSH1 0x40 SWAP1 KECCAK256 SLOAD ISZERO PUSH2 0x5F2 JUMPI PUSH1 0x40 MLOAD PUSH3 0x461BCD PUSH1 0xE5 SHL DUP2 MSTORE PUSH1 0x20 PUSH1 0x4 DUP3 ADD MSTORE PUSH1 0xE PUSH1 0x24 DUP3 ADD MSTORE PUSH14 0x43616E7420626964207477696365 PUSH1 0x90 SHL PUSH1 0x44 DUP3 ADD MSTORE PUSH1 0x64 ADD PUSH2 0x50F JUMP JUMPDEST PUSH1 0x2 DUP1 SLOAD PUSH1 0x1 DUP2 ADD SWAP1 SWAP2 SSTORE PUSH32 0x405787FA12A823E0F2B7631CC41B3BA8828B3321CA811111FA75CD3AA3BB5ACE ADD DUP1 SLOAD PUSH1 0x1 PUSH1 0x1 PUSH1 0xA0 SHL SUB NOT AND CALLER SWAP1 DUP2 OR SWAP1 SWAP2 SSTORE PUSH1 0x0 DUP2 DUP2 MSTORE PUSH1 0x5 PUSH1 0x20 SWAP1 DUP2 MSTORE PUSH1 0x40 DUP1 DUP4 KECCAK256 CALLVALUE SWAP1 SSTORE PUSH1 0x6 DUP3 MSTORE SWAP2 DUP3 SWAP1 KECCAK256 DUP5 SWAP1 SSTORE DUP2 MLOAD SWAP3 DUP4 MSTORE DUP3 ADD DUP4 SWAP1 MSTORE DUP1 MLOAD PUSH32 0x2853238C840E1DD18555551DFF41E5CD85668D2FDE7E4FC2F66A4E379FF4167C SWAP3 DUP2 SWAP1 SUB SWAP1 SWAP2 ADD SWAP1 LOG1 POP JUMP JUMPDEST PUSH1 0x0 SLOAD PUSH1 0x1 PUSH1 0x1 PUSH1 0xA0 SHL SUB AND CALLER EQ PUSH2 0x6B4 JUMPI PUSH1 0x40 MLOAD PUSH3 0x461BCD PUSH1 0xE5 SHL DUP2 MSTORE PUSH1 0x4 ADD PUSH2 0x50F SWAP1 PUSH2 0x155C JUMP JUMPDEST PUSH1 0x2 PUSH1 0x1 SLOAD EQ ISZERO PUSH2 0x6D7 JUMPI PUSH1 0x40 MLOAD PUSH3 0x461BCD PUSH1 0xE5 SHL DUP2 MSTORE PUSH1 0x4 ADD PUSH2 0x50F SWAP1 PUSH2 0x1591 JUMP JUMPDEST PUSH1 0x2 PUSH1 0x1 SSTORE PUSH1 0x4 PUSH1 0x11 SLOAD PUSH1 0xFF AND PUSH1 0x4 DUP2 GT ISZERO PUSH2 0x6F5 JUMPI PUSH2 0x6F5 PUSH2 0x151E JUMP JUMPDEST EQ PUSH2 0x6FF JUMPI PUSH1 0x0 DUP1 REVERT JUMPDEST PUSH1 0x9 SLOAD ISZERO PUSH2 0x7EE JUMPI PUSH1 0x0 PUSH2 0x3E8 PUSH1 0x4 SLOAD PUSH1 0x9 SLOAD PUSH2 0x71C SWAP2 SWAP1 PUSH2 0x15DE JUMP JUMPDEST PUSH2 0x726 SWAP2 SWAP1 PUSH2 0x15FD JUMP JUMPDEST SWAP1 POP PUSH1 0x0 DUP2 PUSH1 0x9 SLOAD PUSH2 0x738 SWAP2 SWAP1 PUSH2 0x161F JUMP JUMPDEST PUSH1 0x0 PUSH1 0x9 DUP2 SWAP1 SSTORE PUSH1 0x3 SLOAD PUSH1 0x40 MLOAD SWAP3 SWAP4 POP PUSH1 0x1 PUSH1 0x1 PUSH1 0xA0 SHL SUB AND SWAP2 DUP5 ISZERO PUSH2 0x8FC MUL SWAP2 DUP6 SWAP2 SWAP1 DUP2 DUP2 DUP2 DUP6 DUP9 DUP9 CALL SWAP4 POP POP POP POP ISZERO DUP1 ISZERO PUSH2 0x779 JUMPI RETURNDATASIZE PUSH1 0x0 DUP1 RETURNDATACOPY RETURNDATASIZE PUSH1 0x0 REVERT JUMPDEST POP PUSH1 0x0 DUP1 SLOAD PUSH1 0x40 MLOAD PUSH1 0x1 PUSH1 0x1 PUSH1 0xA0 SHL SUB SWAP1 SWAP2 AND SWAP2 DUP4 ISZERO PUSH2 0x8FC MUL SWAP2 DUP5 SWAP2 DUP2 DUP2 DUP2 DUP6 DUP9 DUP9 CALL SWAP4 POP POP POP POP ISZERO DUP1 ISZERO PUSH2 0x7B3 JUMPI RETURNDATASIZE PUSH1 0x0 DUP1 RETURNDATACOPY RETURNDATASIZE PUSH1 0x0 REVERT JUMPDEST POP PUSH1 0x40 MLOAD DUP2 DUP2 MSTORE PUSH32 0xA9BAE03C15D23DD001998395B3ADF7648085BF2FBA01211DF19DF18BE3A51B4D SWAP1 PUSH1 0x20 ADD PUSH1 0x40 MLOAD DUP1 SWAP2 SUB SWAP1 LOG1 POP POP PUSH2 0x8BA JUMP JUMPDEST PUSH1 0xC SLOAD PUSH1 0x1 PUSH1 0x1 PUSH1 0xA0 SHL SUB AND PUSH4 0x42842E0E ADDRESS CALLER PUSH1 0xD SLOAD PUSH1 0x40 MLOAD PUSH1 0x1 PUSH1 0x1 PUSH1 0xE0 SHL SUB NOT PUSH1 0xE0 DUP7 SWAP1 SHL AND DUP2 MSTORE PUSH1 0x1 PUSH1 0x1 PUSH1 0xA0 SHL SUB SWAP4 DUP5 AND PUSH1 0x4 DUP3 ADD MSTORE SWAP3 SWAP1 SWAP2 AND PUSH1 0x24 DUP4 ADD MSTORE PUSH1 0x44 DUP3 ADD MSTORE PUSH1 0x64 ADD PUSH1 0x0 PUSH1 0x40 MLOAD DUP1 DUP4 SUB DUP2 PUSH1 0x0 DUP8 DUP1 EXTCODESIZE ISZERO DUP1 ISZERO PUSH2 0x853 JUMPI PUSH1 0x0 DUP1 REVERT JUMPDEST POP GAS CALL ISZERO DUP1 ISZERO PUSH2 0x867 JUMPI RETURNDATASIZE PUSH1 0x0 DUP1 RETURNDATACOPY RETURNDATASIZE PUSH1 0x0 REVERT JUMPDEST POP POP POP POP PUSH32 0x700A9BE0C495BC7C8168D01913054B681C4B7CD5A72376A4FE03F32F5166C28A PUSH2 0x89E PUSH1 0x0 SLOAD PUSH1 0x1 PUSH1 0x1 PUSH1 0xA0 SHL SUB AND SWAP1 JUMP JUMPDEST PUSH1 0x40 MLOAD PUSH1 0x1 PUSH1 0x1 PUSH1 0xA0 SHL SUB SWAP1 SWAP2 AND DUP2 MSTORE PUSH1 0x20 ADD PUSH1 0x40 MLOAD DUP1 SWAP2 SUB SWAP1 LOG1 JUMPDEST PUSH1 0x1 DUP1 SSTORE JUMP JUMPDEST PUSH1 0x1 PUSH1 0x11 SLOAD PUSH1 0xFF AND PUSH1 0x4 DUP2 GT ISZERO PUSH2 0x8D9 JUMPI PUSH2 0x8D9 PUSH2 0x151E JUMP JUMPDEST EQ ISZERO PUSH2 0x95F JUMPI PUSH1 0xE SLOAD TIMESTAMP LT ISZERO PUSH2 0x927 JUMPI PUSH1 0x40 MLOAD PUSH3 0x461BCD PUSH1 0xE5 SHL DUP2 MSTORE PUSH1 0x20 PUSH1 0x4 DUP3 ADD MSTORE PUSH1 0x13 PUSH1 0x24 DUP3 ADD MSTORE PUSH19 0x5761697420756E74696C207365742074696D65 PUSH1 0x68 SHL PUSH1 0x44 DUP3 ADD MSTORE PUSH1 0x64 ADD PUSH2 0x50F JUMP JUMPDEST PUSH1 0x11 DUP1 SLOAD PUSH1 0xFF NOT AND PUSH1 0x2 OR SWAP1 SSTORE PUSH1 0x40 MLOAD PUSH32 0x96FAEDF2FA195434CEDBB880CB8B4608BBEB066005DC5AC6C4785935589D7A20 SWAP1 PUSH1 0x0 SWAP1 LOG1 JUMP JUMPDEST PUSH1 0x2 PUSH1 0x11 SLOAD PUSH1 0xFF AND PUSH1 0x4 DUP2 GT ISZERO PUSH2 0x978 JUMPI PUSH2 0x978 PUSH2 0x151E JUMP JUMPDEST EQ ISZERO PUSH2 0xA58 JUMPI PUSH1 0x10 SLOAD PUSH1 0xF SLOAD PUSH2 0x98E SWAP2 SWAP1 PUSH2 0x1636 JUMP JUMPDEST TIMESTAMP LT ISZERO PUSH2 0x9DD JUMPI PUSH1 0x40 MLOAD PUSH3 0x461BCD PUSH1 0xE5 SHL DUP2 MSTORE PUSH1 0x20 PUSH1 0x4 DUP3 ADD MSTORE PUSH1 0x1C PUSH1 0x24 DUP3 ADD MSTORE PUSH32 0x5761697420756E74696C207365742074696D65202B206F666673657400000000 PUSH1 0x44 DUP3 ADD MSTORE PUSH1 0x64 ADD PUSH2 0x50F JUMP JUMPDEST PUSH1 0x0 SLOAD PUSH1 0x1 PUSH1 0x1 PUSH1 0xA0 SHL SUB AND CALLER EQ ISZERO PUSH2 0xA43 JUMPI PUSH1 0x40 MLOAD PUSH3 0x461BCD PUSH1 0xE5 SHL DUP2 MSTORE PUSH1 0x20 PUSH1 0x4 DUP3 ADD MSTORE PUSH1 0x22 PUSH1 0x24 DUP3 ADD MSTORE PUSH32 0x4F776E6572206D757374207573652077696E6E657243616C63756C6174696F6E PUSH1 0x44 DUP3 ADD MSTORE PUSH2 0x2829 PUSH1 0xF0 SHL PUSH1 0x64 DUP3 ADD MSTORE PUSH1 0x84 ADD PUSH2 0x50F JUMP JUMPDEST PUSH1 0x11 DUP1 SLOAD PUSH1 0xFF NOT AND PUSH1 0x3 OR SWAP1 SSTORE PUSH2 0xA58 PUSH2 0x121C JUMP JUMPDEST JUMP JUMPDEST PUSH1 0x0 SLOAD PUSH1 0x1 PUSH1 0x1 PUSH1 0xA0 SHL SUB AND CALLER EQ PUSH2 0xA84 JUMPI PUSH1 0x40 MLOAD PUSH3 0x461BCD PUSH1 0xE5 SHL DUP2 MSTORE PUSH1 0x4 ADD PUSH2 0x50F SWAP1 PUSH2 0x155C JUMP JUMPDEST PUSH2 0xA58 PUSH1 0x0 PUSH2 0x13BA JUMP JUMPDEST PUSH1 0x0 SLOAD PUSH1 0x1 PUSH1 0x1 PUSH1 0xA0 SHL SUB AND CALLER EQ PUSH2 0xAB8 JUMPI PUSH1 0x40 MLOAD PUSH3 0x461BCD PUSH1 0xE5 SHL DUP2 MSTORE PUSH1 0x4 ADD PUSH2 0x50F SWAP1 PUSH2 0x155C JUMP JUMPDEST PUSH1 0x0 PUSH1 0x11 SLOAD PUSH1 0xFF AND PUSH1 0x4 DUP2 GT ISZERO PUSH2 0xAD1 JUMPI PUSH2 0xAD1 PUSH2 0x151E JUMP JUMPDEST EQ PUSH2 0xADB JUMPI PUSH1 0x0 DUP1 REVERT JUMPDEST PUSH1 0xC SLOAD PUSH1 0x1 PUSH1 0x1 PUSH1 0xA0 SHL SUB AND PUSH4 0x23B872DD CALLER PUSH1 0xD SLOAD PUSH1 0x40 MLOAD PUSH1 0x1 PUSH1 0x1 PUSH1 0xE0 SHL SUB NOT PUSH1 0xE0 DUP6 SWAP1 SHL AND DUP2 MSTORE PUSH1 0x1 PUSH1 0x1 PUSH1 0xA0 SHL SUB SWAP1 SWAP3 AND PUSH1 0x4 DUP4 ADD MSTORE ADDRESS PUSH1 0x24 DUP4 ADD MSTORE PUSH1 0x44 DUP3 ADD MSTORE PUSH1 0x64 ADD PUSH1 0x0 PUSH1 0x40 MLOAD DUP1 DUP4 SUB DUP2 PUSH1 0x0 DUP8 DUP1 EXTCODESIZE ISZERO DUP1 ISZERO PUSH2 0xB3C JUMPI PUSH1 0x0 DUP1 REVERT JUMPDEST POP GAS CALL ISZERO DUP1 ISZERO PUSH2 0xB50 JUMPI RETURNDATASIZE PUSH1 0x0 DUP1 RETURNDATACOPY RETURNDATASIZE PUSH1 0x0 REVERT JUMPDEST POP POP PUSH1 0x11 DUP1 SLOAD PUSH1 0xFF NOT AND PUSH1 0x1 OR SWAP1 SSTORE POP POP PUSH1 0x40 MLOAD PUSH32 0x2F6F7F97E94F53DB5C4466AF22DABC3A2E2852BB871A001AAA29799FDB094341 SWAP1 PUSH1 0x0 SWAP1 LOG1 JUMP JUMPDEST PUSH1 0x2 PUSH1 0x1 SLOAD EQ ISZERO PUSH2 0xBAF JUMPI PUSH1 0x40 MLOAD PUSH3 0x461BCD PUSH1 0xE5 SHL DUP2 MSTORE PUSH1 0x4 ADD PUSH2 0x50F SWAP1 PUSH2 0x1591 JUMP JUMPDEST PUSH1 0x2 PUSH1 0x1 SSTORE PUSH1 0x4 PUSH1 0x11 SLOAD PUSH1 0xFF AND PUSH1 0x4 DUP2 GT ISZERO PUSH2 0xBCD JUMPI PUSH2 0xBCD PUSH2 0x151E JUMP JUMPDEST EQ PUSH2 0xBD7 JUMPI PUSH1 0x0 DUP1 REVERT JUMPDEST PUSH1 0x8 SLOAD PUSH1 0x1 PUSH1 0x1 PUSH1 0xA0 SHL SUB AND CALLER PUSH1 0x1 PUSH1 0x1 PUSH1 0xA0 SHL SUB AND EQ PUSH2 0xBF7 JUMPI PUSH1 0x0 DUP1 REVERT JUMPDEST PUSH1 0xC SLOAD PUSH1 0x1 PUSH1 0x1 PUSH1 0xA0 SHL SUB AND PUSH4 0x42842E0E ADDRESS CALLER PUSH1 0xD SLOAD PUSH1 0x40 MLOAD PUSH1 0x1 PUSH1 0x1 PUSH1 0xE0 SHL SUB NOT PUSH1 0xE0 DUP7 SWAP1 SHL AND DUP2 MSTORE PUSH1 0x1 PUSH1 0x1 PUSH1 0xA0 SHL SUB SWAP4 DUP5 AND PUSH1 0x4 DUP3 ADD MSTORE SWAP3 SWAP1 SWAP2 AND PUSH1 0x24 DUP4 ADD MSTORE PUSH1 0x44 DUP3 ADD MSTORE PUSH1 0x64 ADD PUSH1 0x0 PUSH1 0x40 MLOAD DUP1 DUP4 SUB DUP2 PUSH1 0x0 DUP8 DUP1 EXTCODESIZE ISZERO DUP1 ISZERO PUSH2 0xC5C JUMPI PUSH1 0x0 DUP1 REVERT JUMPDEST POP GAS CALL ISZERO DUP1 ISZERO PUSH2 0xC70 JUMPI RETURNDATASIZE PUSH1 0x0 DUP1 RETURNDATACOPY RETURNDATASIZE PUSH1 0x0 REVERT JUMPDEST POP POP POP POP PUSH32 0x700A9BE0C495BC7C8168D01913054B681C4B7CD5A72376A4FE03F32F5166C28A PUSH2 0x89E CALLER SWAP1 JUMP JUMPDEST PUSH1 0x2 PUSH1 0x1 SLOAD EQ ISZERO PUSH2 0xCBF JUMPI PUSH1 0x40 MLOAD PUSH3 0x461BCD PUSH1 0xE5 SHL DUP2 MSTORE PUSH1 0x4 ADD PUSH2 0x50F SWAP1 PUSH2 0x1591 JUMP JUMPDEST PUSH1 0x2 PUSH1 0x1 SSTORE PUSH1 0x4 PUSH1 0x11 SLOAD PUSH1 0xFF AND PUSH1 0x4 DUP2 GT ISZERO PUSH2 0xCDD JUMPI PUSH2 0xCDD PUSH2 0x151E JUMP JUMPDEST EQ PUSH2 0xCE7 JUMPI PUSH1 0x0 DUP1 REVERT JUMPDEST CALLER PUSH1 0x0 SWAP1 DUP2 MSTORE PUSH1 0x5 PUSH1 0x20 MSTORE PUSH1 0x40 SWAP1 KECCAK256 SLOAD DUP1 PUSH2 0xD01 JUMPI PUSH1 0x0 DUP1 REVERT JUMPDEST CALLER PUSH1 0x0 DUP2 DUP2 MSTORE PUSH1 0x5 PUSH1 0x20 MSTORE PUSH1 0x40 DUP1 DUP3 KECCAK256 DUP3 SWAP1 SSTORE MLOAD DUP4 ISZERO PUSH2 0x8FC MUL SWAP2 DUP5 SWAP2 SWAP1 DUP2 DUP2 DUP2 DUP6 DUP9 DUP9 CALL SWAP4 POP POP POP POP ISZERO DUP1 ISZERO PUSH2 0xD3C JUMPI RETURNDATASIZE PUSH1 0x0 DUP1 RETURNDATACOPY RETURNDATASIZE PUSH1 0x0 REVERT JUMPDEST POP PUSH32 0xC9F3C6B79609B860090FFFD3A76FC2F0112FF1825F2D99AF5EF7E3AB2B6EEF3C CALLER PUSH1 0x40 DUP1 MLOAD PUSH1 0x1 PUSH1 0x1 PUSH1 0xA0 SHL SUB SWAP1 SWAP3 AND DUP3 MSTORE PUSH1 0x20 DUP3 ADD DUP5 SWAP1 MSTORE ADD PUSH1 0x40 MLOAD DUP1 SWAP2 SUB SWAP1 LOG1 POP PUSH1 0x1 DUP1 SSTORE JUMP JUMPDEST PUSH1 0x0 SLOAD PUSH1 0x1 PUSH1 0x1 PUSH1 0xA0 SHL SUB AND CALLER EQ PUSH2 0xDB1 JUMPI PUSH1 0x40 MLOAD PUSH3 0x461BCD PUSH1 0xE5 SHL DUP2 MSTORE PUSH1 0x4 ADD PUSH2 0x50F SWAP1 PUSH2 0x155C JUMP JUMPDEST PUSH1 0x2 PUSH1 0x11 SLOAD PUSH1 0xFF AND PUSH1 0x4 DUP2 GT ISZERO PUSH2 0xDCA JUMPI PUSH2 0xDCA PUSH2 0x151E JUMP JUMPDEST EQ PUSH2 0xE0D JUMPI PUSH1 0x40 MLOAD PUSH3 0x461BCD PUSH1 0xE5 SHL DUP2 MSTORE PUSH1 0x20 PUSH1 0x4 DUP3 ADD MSTORE PUSH1 0x13 PUSH1 0x24 DUP3 ADD MSTORE PUSH19 0x57726F6E672061756374696F6E207374617465 PUSH1 0x68 SHL PUSH1 0x44 DUP3 ADD MSTORE PUSH1 0x64 ADD PUSH2 0x50F JUMP JUMPDEST PUSH1 0xF SLOAD TIMESTAMP LT ISZERO PUSH2 0xE55 JUMPI PUSH1 0x40 MLOAD PUSH3 0x461BCD PUSH1 0xE5 SHL DUP2 MSTORE PUSH1 0x20 PUSH1 0x4 DUP3 ADD MSTORE PUSH1 0x13 PUSH1 0x24 DUP3 ADD MSTORE PUSH19 0x5761697420756E74696C207365742074696D65 PUSH1 0x68 SHL PUSH1 0x44 DUP3 ADD MSTORE PUSH1 0x64 ADD PUSH2 0x50F JUMP JUMPDEST DUP2 DUP2 PUSH1 0x40 MLOAD PUSH1 0x20 ADD PUSH2 0xE68 SWAP3 SWAP2 SWAP1 PUSH2 0x167E JUMP JUMPDEST PUSH1 0x40 MLOAD PUSH1 0x20 DUP2 DUP4 SUB SUB DUP2 MSTORE SWAP1 PUSH1 0x40 MSTORE DUP1 MLOAD SWAP1 PUSH1 0x20 ADD KECCAK256 PUSH1 0xA SLOAD EQ PUSH2 0xEC4 JUMPI PUSH1 0x40 MLOAD PUSH3 0x461BCD PUSH1 0xE5 SHL DUP2 MSTORE PUSH1 0x20 PUSH1 0x4 DUP3 ADD MSTORE PUSH1 0x13 PUSH1 0x24 DUP3 ADD MSTORE PUSH19 0x90C2E6D0CAE640C8DE40DCDEE840DAC2E8C6D PUSH1 0x6B SHL PUSH1 0x44 DUP3 ADD MSTORE PUSH1 0x64 ADD PUSH2 0x50F JUMP JUMPDEST PUSH1 0xB DUP2 SWAP1 SSTORE PUSH1 0x11 DUP1 SLOAD PUSH1 0xFF NOT AND PUSH1 0x3 OR SWAP1 SSTORE PUSH1 0x40 MLOAD DUP2 DUP2 MSTORE PUSH32 0xFC8A1AF0498179AB028BD9B180740384D8D1625AE26C8E88DDAC563006AE586 SWAP1 PUSH1 0x20 ADD PUSH1 0x40 MLOAD DUP1 SWAP2 SUB SWAP1 LOG1 PUSH2 0xF11 PUSH2 0x121C JUMP JUMPDEST POP POP JUMP JUMPDEST PUSH1 0x2 PUSH1 0x11 SLOAD PUSH1 0xFF AND PUSH1 0x4 DUP2 GT ISZERO PUSH2 0xF2E JUMPI PUSH2 0xF2E PUSH2 0x151E JUMP JUMPDEST EQ PUSH2 0xF6C JUMPI PUSH1 0x40 MLOAD PUSH3 0x461BCD PUSH1 0xE5 SHL DUP2 MSTORE PUSH1 0x20 PUSH1 0x4 DUP3 ADD MSTORE PUSH1 0xE PUSH1 0x24 DUP3 ADD MSTORE PUSH14 0x4E6F742072696768742074696D65 PUSH1 0x90 SHL PUSH1 0x44 DUP3 ADD MSTORE PUSH1 0x64 ADD PUSH2 0x50F JUMP JUMPDEST CALLER PUSH1 0x0 SWAP1 DUP2 MSTORE PUSH1 0x5 PUSH1 0x20 MSTORE PUSH1 0x40 SWAP1 KECCAK256 SLOAD PUSH2 0xFC8 JUMPI PUSH1 0x40 MLOAD PUSH3 0x461BCD PUSH1 0xE5 SHL DUP2 MSTORE PUSH1 0x20 PUSH1 0x4 DUP3 ADD MSTORE PUSH1 0x19 PUSH1 0x24 DUP3 ADD MSTORE PUSH32 0x596F7520617265206E6F742061207061727469636970616E7400000000000000 PUSH1 0x44 DUP3 ADD MSTORE PUSH1 0x64 ADD PUSH2 0x50F JUMP JUMPDEST CALLER PUSH1 0x0 SWAP1 DUP2 MSTORE PUSH1 0x7 PUSH1 0x20 MSTORE PUSH1 0x40 SWAP1 KECCAK256 SLOAD ISZERO PUSH2 0x101C JUMPI PUSH1 0x40 MLOAD PUSH3 0x461BCD PUSH1 0xE5 SHL DUP2 MSTORE PUSH1 0x20 PUSH1 0x4 DUP3 ADD MSTORE PUSH1 0x14 PUSH1 0x24 DUP3 ADD MSTORE PUSH20 0x43616E206F6E6C792072657665616C206F6E6365 PUSH1 0x60 SHL PUSH1 0x44 DUP3 ADD MSTORE PUSH1 0x64 ADD PUSH2 0x50F JUMP JUMPDEST CALLER PUSH1 0x0 SWAP1 DUP2 MSTORE PUSH1 0x5 PUSH1 0x20 MSTORE PUSH1 0x40 SWAP1 KECCAK256 SLOAD DUP2 GT ISZERO PUSH2 0x106F JUMPI PUSH1 0x40 MLOAD PUSH3 0x461BCD PUSH1 0xE5 SHL DUP2 MSTORE PUSH1 0x20 PUSH1 0x4 DUP3 ADD MSTORE PUSH1 0x11 PUSH1 0x24 DUP3 ADD MSTORE PUSH17 0x13D999995C881A5B9D985B1A59185D1959 PUSH1 0x7A SHL PUSH1 0x44 DUP3 ADD MSTORE PUSH1 0x64 ADD PUSH2 0x50F JUMP JUMPDEST DUP2 DUP2 PUSH1 0x40 MLOAD PUSH1 0x20 ADD PUSH2 0x1082 SWAP3 SWAP2 SWAP1 PUSH2 0x167E JUMP JUMPDEST PUSH1 0x40 MLOAD PUSH1 0x20 DUP2 DUP4 SUB SUB DUP2 MSTORE SWAP1 PUSH1 0x40 MSTORE DUP1 MLOAD SWAP1 PUSH1 0x20 ADD KECCAK256 PUSH1 0x6 PUSH1 0x0 PUSH2 0x10A3 CALLER SWAP1 JUMP JUMPDEST PUSH1 0x1 PUSH1 0x1 PUSH1 0xA0 SHL SUB AND PUSH1 0x1 PUSH1 0x1 PUSH1 0xA0 SHL SUB AND DUP2 MSTORE PUSH1 0x20 ADD SWAP1 DUP2 MSTORE PUSH1 0x20 ADD PUSH1 0x0 KECCAK256 SLOAD EQ PUSH2 0x1107 JUMPI PUSH1 0x40 MLOAD PUSH3 0x461BCD PUSH1 0xE5 SHL DUP2 MSTORE PUSH1 0x20 PUSH1 0x4 DUP3 ADD MSTORE PUSH1 0x13 PUSH1 0x24 DUP3 ADD MSTORE PUSH19 0x90C2E6D0CAE640C8DE40DCDEE840DAC2E8C6D PUSH1 0x6B SHL PUSH1 0x44 DUP3 ADD MSTORE PUSH1 0x64 ADD PUSH2 0x50F JUMP JUMPDEST CALLER PUSH1 0x0 DUP2 DUP2 MSTORE PUSH1 0x7 PUSH1 0x20 MSTORE PUSH1 0x40 SWAP1 DUP2 SWAP1 KECCAK256 DUP4 SWAP1 SSTORE MLOAD PUSH32 0xF23315B5875C8D1E8E2D1F24E22EF7D94663E61A21F375F129CF311920F999FA SWAP2 PUSH2 0x114B SWAP2 DUP6 SWAP1 DUP6 SWAP1 PUSH2 0x16A0 JUMP JUMPDEST PUSH1 0x40 MLOAD DUP1 SWAP2 SUB SWAP1 LOG1 POP POP JUMP JUMPDEST PUSH1 0x0 SLOAD PUSH1 0x1 PUSH1 0x1 PUSH1 0xA0 SHL SUB AND CALLER EQ PUSH2 0x1181 JUMPI PUSH1 0x40 MLOAD PUSH3 0x461BCD PUSH1 0xE5 SHL DUP2 MSTORE PUSH1 0x4 ADD PUSH2 0x50F SWAP1 PUSH2 0x155C JUMP JUMPDEST PUSH1 0x1 PUSH1 0x1 PUSH1 0xA0 SHL SUB DUP2 AND PUSH2 0x11E6 JUMPI PUSH1 0x40 MLOAD PUSH3 0x461BCD PUSH1 0xE5 SHL DUP2 MSTORE PUSH1 0x20 PUSH1 0x4 DUP3 ADD MSTORE PUSH1 0x26 PUSH1 0x24 DUP3 ADD MSTORE PUSH32 0x4F776E61626C653A206E6577206F776E657220697320746865207A65726F2061 PUSH1 0x44 DUP3 ADD MSTORE PUSH6 0x646472657373 PUSH1 0xD0 SHL PUSH1 0x64 DUP3 ADD MSTORE PUSH1 0x84 ADD PUSH2 0x50F JUMP JUMPDEST PUSH2 0x11EF DUP2 PUSH2 0x13BA JUMP JUMPDEST POP JUMP JUMPDEST PUSH1 0x2 DUP2 DUP2 SLOAD DUP2 LT PUSH2 0x1202 JUMPI PUSH1 0x0 DUP1 REVERT JUMPDEST PUSH1 0x0 SWAP2 DUP3 MSTORE PUSH1 0x20 SWAP1 SWAP2 KECCAK256 ADD SLOAD PUSH1 0x1 PUSH1 0x1 PUSH1 0xA0 SHL SUB AND SWAP1 POP DUP2 JUMP JUMPDEST PUSH1 0x2 SLOAD PUSH1 0x0 SWAP1 DUP2 SWAP1 DUP2 SWAP1 ISZERO PUSH2 0x135E JUMPI POP PUSH1 0x0 JUMPDEST PUSH1 0x2 SLOAD DUP2 LT ISZERO PUSH2 0x12D0 JUMPI DUP2 PUSH1 0x7 PUSH1 0x0 PUSH1 0x2 DUP5 DUP2 SLOAD DUP2 LT PUSH2 0x1251 JUMPI PUSH2 0x1251 PUSH2 0x16EA JUMP JUMPDEST PUSH1 0x0 SWAP2 DUP3 MSTORE PUSH1 0x20 DUP1 DUP4 KECCAK256 SWAP1 SWAP2 ADD SLOAD PUSH1 0x1 PUSH1 0x1 PUSH1 0xA0 SHL SUB AND DUP4 MSTORE DUP3 ADD SWAP3 SWAP1 SWAP3 MSTORE PUSH1 0x40 ADD SWAP1 KECCAK256 SLOAD GT ISZERO PUSH2 0x12BE JUMPI DUP1 SWAP3 POP PUSH1 0x7 PUSH1 0x0 PUSH1 0x2 DUP4 DUP2 SLOAD DUP2 LT PUSH2 0x1296 JUMPI PUSH2 0x1296 PUSH2 0x16EA JUMP JUMPDEST PUSH1 0x0 SWAP2 DUP3 MSTORE PUSH1 0x20 DUP1 DUP4 KECCAK256 SWAP1 SWAP2 ADD SLOAD PUSH1 0x1 PUSH1 0x1 PUSH1 0xA0 SHL SUB AND DUP4 MSTORE DUP3 ADD SWAP3 SWAP1 SWAP3 MSTORE PUSH1 0x40 ADD SWAP1 KECCAK256 SLOAD SWAP2 POP JUMPDEST DUP1 PUSH2 0x12C8 DUP2 PUSH2 0x1700 JUMP JUMPDEST SWAP2 POP POP PUSH2 0x122F JUMP JUMPDEST DUP2 ISZERO PUSH2 0x135E JUMPI PUSH1 0xB SLOAD DUP3 LT PUSH2 0x135E JUMPI PUSH1 0x2 DUP4 DUP2 SLOAD DUP2 LT PUSH2 0x12F2 JUMPI PUSH2 0x12F2 PUSH2 0x16EA JUMP JUMPDEST PUSH1 0x0 SWAP2 DUP3 MSTORE PUSH1 0x20 DUP1 DUP4 KECCAK256 SWAP1 SWAP2 ADD SLOAD PUSH1 0x8 DUP1 SLOAD PUSH1 0x1 PUSH1 0x1 PUSH1 0xA0 SHL SUB NOT AND PUSH1 0x1 PUSH1 0x1 PUSH1 0xA0 SHL SUB SWAP1 SWAP3 AND SWAP2 DUP3 OR SWAP1 SSTORE DUP3 MSTORE PUSH1 0x7 DUP2 MSTORE PUSH1 0x40 DUP1 DUP4 KECCAK256 SLOAD PUSH1 0x9 DUP2 SWAP1 SSTORE PUSH1 0x5 SWAP1 SWAP3 MSTORE SWAP1 SWAP2 KECCAK256 SLOAD PUSH2 0x1342 SWAP2 SWAP1 PUSH2 0x161F JUMP JUMPDEST PUSH1 0x8 SLOAD PUSH1 0x1 PUSH1 0x1 PUSH1 0xA0 SHL SUB AND PUSH1 0x0 SWAP1 DUP2 MSTORE PUSH1 0x5 PUSH1 0x20 MSTORE PUSH1 0x40 SWAP1 KECCAK256 SSTORE JUMPDEST PUSH1 0x11 DUP1 SLOAD PUSH1 0xFF NOT AND PUSH1 0x4 OR SWAP1 SSTORE PUSH1 0x8 SLOAD PUSH1 0x9 SLOAD PUSH1 0x40 DUP1 MLOAD PUSH1 0x1 PUSH1 0x1 PUSH1 0xA0 SHL SUB SWAP1 SWAP4 AND DUP4 MSTORE PUSH1 0x20 DUP4 ADD SWAP2 SWAP1 SWAP2 MSTORE PUSH32 0xC5D1E2A43E1052756E222065802CB80A029BFAF7045B3DF42C5C87B92E48DE41 SWAP2 ADD PUSH1 0x40 MLOAD DUP1 SWAP2 SUB SWAP1 LOG1 POP POP POP JUMP JUMPDEST PUSH1 0x0 DUP1 SLOAD PUSH1 0x1 PUSH1 0x1 PUSH1 0xA0 SHL SUB DUP4 DUP2 AND PUSH1 0x1 PUSH1 0x1 PUSH1 0xA0 SHL SUB NOT DUP4 AND DUP2 OR DUP5 SSTORE PUSH1 0x40 MLOAD SWAP2 SWAP1 SWAP3 AND SWAP3 DUP4 SWAP2 PUSH32 0x8BE0079C531659141344CD1FD0A4F28419497F9722A3DAAFE3B4186F6B6457E0 SWAP2 SWAP1 LOG3 POP POP JUMP JUMPDEST PUSH1 0x0 PUSH1 0x20 DUP3 DUP5 SUB SLT ISZERO PUSH2 0x141C JUMPI PUSH1 0x0 DUP1 REVERT JUMPDEST POP CALLDATALOAD SWAP2 SWAP1 POP JUMP JUMPDEST PUSH1 0x0 PUSH1 0x20 DUP3 DUP5 SUB SLT ISZERO PUSH2 0x1435 JUMPI PUSH1 0x0 DUP1 REVERT JUMPDEST DUP2 CALLDATALOAD PUSH1 0x1 PUSH1 0x1 PUSH1 0xA0 SHL SUB DUP2 AND DUP2 EQ PUSH2 0x144C JUMPI PUSH1 0x0 DUP1 REVERT JUMPDEST SWAP4 SWAP3 POP POP POP JUMP JUMPDEST PUSH4 0x4E487B71 PUSH1 0xE0 SHL PUSH1 0x0 MSTORE PUSH1 0x41 PUSH1 0x4 MSTORE PUSH1 0x24 PUSH1 0x0 REVERT JUMPDEST PUSH1 0x0 DUP1 PUSH1 0x40 DUP4 DUP6 SUB SLT ISZERO PUSH2 0x147C JUMPI PUSH1 0x0 DUP1 REVERT JUMPDEST DUP3 CALLDATALOAD PUSH8 0xFFFFFFFFFFFFFFFF DUP1 DUP3 GT ISZERO PUSH2 0x1494 JUMPI PUSH1 0x0 DUP1 REVERT JUMPDEST DUP2 DUP6 ADD SWAP2 POP DUP6 PUSH1 0x1F DUP4 ADD SLT PUSH2 0x14A8 JUMPI PUSH1 0x0 DUP1 REVERT JUMPDEST DUP2 CALLDATALOAD DUP2 DUP2 GT ISZERO PUSH2 0x14BA JUMPI PUSH2 0x14BA PUSH2 0x1453 JUMP JUMPDEST PUSH1 0x40 MLOAD PUSH1 0x1F DUP3 ADD PUSH1 0x1F NOT SWAP1 DUP2 AND PUSH1 0x3F ADD AND DUP2 ADD SWAP1 DUP4 DUP3 GT DUP2 DUP4 LT OR ISZERO PUSH2 0x14E2 JUMPI PUSH2 0x14E2 PUSH2 0x1453 JUMP JUMPDEST DUP2 PUSH1 0x40 MSTORE DUP3 DUP2 MSTORE DUP9 PUSH1 0x20 DUP5 DUP8 ADD ADD GT ISZERO PUSH2 0x14FB JUMPI PUSH1 0x0 DUP1 REVERT JUMPDEST DUP3 PUSH1 0x20 DUP7 ADD PUSH1 0x20 DUP4 ADD CALLDATACOPY PUSH1 0x0 PUSH1 0x20 SWAP4 DUP3 ADD DUP5 ADD MSTORE SWAP9 SWAP7 SWAP1 SWAP2 ADD CALLDATALOAD SWAP7 POP POP POP POP POP POP JUMP JUMPDEST PUSH4 0x4E487B71 PUSH1 0xE0 SHL PUSH1 0x0 MSTORE PUSH1 0x21 PUSH1 0x4 MSTORE PUSH1 0x24 PUSH1 0x0 REVERT JUMPDEST PUSH1 0x20 DUP2 ADD PUSH1 0x5 DUP4 LT PUSH2 0x1556 JUMPI PUSH4 0x4E487B71 PUSH1 0xE0 SHL PUSH1 0x0 MSTORE PUSH1 0x21 PUSH1 0x4 MSTORE PUSH1 0x24 PUSH1 0x0 REVERT JUMPDEST SWAP2 SWAP1 MSTORE SWAP1 JUMP JUMPDEST PUSH1 0x20 DUP1 DUP3 MSTORE DUP2 DUP2 ADD MSTORE PUSH32 0x4F776E61626C653A2063616C6C6572206973206E6F7420746865206F776E6572 PUSH1 0x40 DUP3 ADD MSTORE PUSH1 0x60 ADD SWAP1 JUMP JUMPDEST PUSH1 0x20 DUP1 DUP3 MSTORE PUSH1 0x1F SWAP1 DUP3 ADD MSTORE PUSH32 0x5265656E7472616E637947756172643A207265656E7472616E742063616C6C00 PUSH1 0x40 DUP3 ADD MSTORE PUSH1 0x60 ADD SWAP1 JUMP JUMPDEST PUSH4 0x4E487B71 PUSH1 0xE0 SHL PUSH1 0x0 MSTORE PUSH1 0x11 PUSH1 0x4 MSTORE PUSH1 0x24 PUSH1 0x0 REVERT JUMPDEST PUSH1 0x0 DUP2 PUSH1 0x0 NOT DIV DUP4 GT DUP3 ISZERO ISZERO AND ISZERO PUSH2 0x15F8 JUMPI PUSH2 0x15F8 PUSH2 0x15C8 JUMP JUMPDEST POP MUL SWAP1 JUMP JUMPDEST PUSH1 0x0 DUP3 PUSH2 0x161A JUMPI PUSH4 0x4E487B71 PUSH1 0xE0 SHL PUSH1 0x0 MSTORE PUSH1 0x12 PUSH1 0x4 MSTORE PUSH1 0x24 PUSH1 0x0 REVERT JUMPDEST POP DIV SWAP1 JUMP JUMPDEST PUSH1 0x0 DUP3 DUP3 LT ISZERO PUSH2 0x1631 JUMPI PUSH2 0x1631 PUSH2 0x15C8 JUMP JUMPDEST POP SUB SWAP1 JUMP JUMPDEST PUSH1 0x0 DUP3 NOT DUP3 GT ISZERO PUSH2 0x1649 JUMPI PUSH2 0x1649 PUSH2 0x15C8 JUMP JUMPDEST POP ADD SWAP1 JUMP JUMPDEST PUSH1 0x0 JUMPDEST DUP4 DUP2 LT ISZERO PUSH2 0x1669 JUMPI DUP2 DUP2 ADD MLOAD DUP4 DUP3 ADD MSTORE PUSH1 0x20 ADD PUSH2 0x1651 JUMP JUMPDEST DUP4 DUP2 GT ISZERO PUSH2 0x1678 JUMPI PUSH1 0x0 DUP5 DUP5 ADD MSTORE JUMPDEST POP POP POP POP JUMP JUMPDEST PUSH1 0x0 DUP4 MLOAD PUSH2 0x1690 DUP2 DUP5 PUSH1 0x20 DUP9 ADD PUSH2 0x164E JUMP JUMPDEST SWAP2 SWAP1 SWAP2 ADD SWAP2 DUP3 MSTORE POP PUSH1 0x20 ADD SWAP2 SWAP1 POP JUMP JUMPDEST PUSH1 0x1 DUP1 PUSH1 0xA0 SHL SUB DUP5 AND DUP2 MSTORE PUSH1 0x60 PUSH1 0x20 DUP3 ADD MSTORE PUSH1 0x0 DUP4 MLOAD DUP1 PUSH1 0x60 DUP5 ADD MSTORE PUSH2 0x16CD DUP2 PUSH1 0x80 DUP6 ADD PUSH1 0x20 DUP9 ADD PUSH2 0x164E JUMP JUMPDEST PUSH1 0x40 DUP4 ADD SWAP4 SWAP1 SWAP4 MSTORE POP PUSH1 0x1F SWAP2 SWAP1 SWAP2 ADD PUSH1 0x1F NOT AND ADD PUSH1 0x80 ADD SWAP3 SWAP2 POP POP JUMP JUMPDEST PUSH4 0x4E487B71 PUSH1 0xE0 SHL PUSH1 0x0 MSTORE PUSH1 0x32 PUSH1 0x4 MSTORE PUSH1 0x24 PUSH1 0x0 REVERT JUMPDEST PUSH1 0x0 PUSH1 0x0 NOT DUP3 EQ ISZERO PUSH2 0x1714 JUMPI PUSH2 0x1714 PUSH2 0x15C8 JUMP JUMPDEST POP PUSH1 0x1 ADD SWAP1 JUMP INVALID LOG2 PUSH5 0x6970667358 0x22 SLT KECCAK256 LOG3 DUP3 SGT JUMPDEST 0xC6 DUP6 0xA9 PUSH16 0x3692674B6D10DCDDFE1970CF6EC4D1A4 PUSH25 0xD939A85C418EC564736F6C634300080C0033A2646970667358 0x22 SLT KECCAK256 CALL DUP2 0xCF 0xE2 0xF6 0xEA EQ RETURN MOD 0xDE REVERT 0xB2 0x5D MULMOD CALLDATASIZE CREATE DUP4 0xAB SSTORE MLOAD 0xC7 DIV CALLER 0xB6 MSTORE8 EXP INVALID SELFDESTRUCT SWAP8 PUSH6 0x2C4964736F6C PUSH4 0x4300080C STOP CALLER ","sha1":"4e2a03e54394e575ffb00f58bc1f90f150961daf","source":"// SPDX-License-Identifier: MIT\n\npragma solidity ^0.8.0;\n\nimport \"@chainlink/contracts/src/v0.8/KeeperCompatible.sol\";\nimport \"@openzeppelin/contracts/access/Ownable.sol\";\nimport \"@openzeppelin/contracts/security/ReentrancyGuard.sol\";\nimport \"./SealedBidAuction.sol\";\n\ncontract AuctionFactory is KeeperCompatibleInterface, Ownable, ReentrancyGuard {\n\n    /**\n     * @dev Emitted when auction gets moved to state 2.\n     */\n    event MoveToReveals(uint8 state);\n\n    /**\n     * @dev Emitted when auction gets moved to state 3.\n     */\n    event MoveToWinnerCalculation(uint8 state);\n\n    /**\n     * @dev Emitted eth gets to the conact, mostly from comissions.\n     */\n    event ComissionReceived(uint256 amount);\n\n    /**\n     * @dev Emitted when owner retrives eth from comissions.\n     */\n    event EtherRetrived();\n\n    /**\n     * @dev Emitted auction is created.\n     */\n    event AuctionCreated(address newAuction);\n\n    // Array to store auctions deployed from this factory\n    SealedBidAuction[] public sealedBidAuctionArrayContracts;\n\n    // Time offset between time close reveals time and next phase, gives auction owner time to \n    // reveal the minimum price. Set to 2 minutes for testing purposes. \n    uint256 public timeOffset = 2 minutes;\n\n    /**\n     * @dev Creates auction and gives ownership of it to creator.\n     *\n     *\n     * Emits a {Transfer} and {AuctionCreated} event.\n     */\n    function createSealedBidAuctionContract(bytes32 _minimumPriceHash, address _nftContract, uint256 _tokenId, uint _revealTime, uint _winnerTime) public returns (uint256){\n        SealedBidAuction auction = new SealedBidAuction(_minimumPriceHash, _nftContract, _tokenId, _revealTime, _winnerTime);\n        sealedBidAuctionArrayContracts.push(auction);\n        auction.transferOwnership(msg.sender); \n        emit AuctionCreated(address(auction));\n    }\n\n    /**\n     * @dev Returns last auction address in array\n    */\n    function getLastAddressInArray() public view returns (address){\n        return address(sealedBidAuctionArrayContracts[sealedBidAuctionArrayContracts.length -1]);\n    }\n\n    /**\n     * @dev Return reveal time for auction `_i` in array\n     */\n    function getRevealTime(uint256 _i) public view returns (uint256){\n        return SealedBidAuction(address(sealedBidAuctionArrayContracts[_i])).revealTime();\n    }\n\n    /**\n     * @dev Returns close reveals/winner calculation time for auction `_i` in array\n    */\n    function getWinnerTime(uint256 _i) public view returns (uint256){\n        return SealedBidAuction(address(sealedBidAuctionArrayContracts[_i])).winnerTime();\n    }\n\n    /**\n     * @dev Returns the state of auction `_i` in array\n    */\n    function getState(uint256 _i) public view returns (SealedBidAuction.AUCTION_STATE){\n        return SealedBidAuction(address(sealedBidAuctionArrayContracts[_i])).auction_state();\n    }\n\n    /**\n     * @dev Changes the state of auction `_i` in array\n    */\n    function changeState(uint256 _i) internal{\n        SealedBidAuction(address(sealedBidAuctionArrayContracts[_i])).nextPhase();\n    }\n\n    /**\n     * @dev Fallback function\n    */\n    fallback () payable external {\n        emit ComissionReceived(msg.value);\n    }\n\n    /**\n     * @dev Transfers all funds in factory to address given by owner\n     *\n     *  Requirements:\n     *      Caller is owner,\n    */\n    function transferFunds(address _address) public nonReentrant onlyOwner{\n        payable(_address).transfer(address(this).balance);\n    }\n\n    /**\n     * @dev Chainlink keepers checkUpkeep function. Checks if an upkeep is needed.\n    */\n    function checkUpkeep(bytes calldata /* checkData */) external view override returns (bool upkeepNeeded, bytes memory /* performData */) {\n        upkeepNeeded = false;\n        uint256 i = 0;\n        while(i < sealedBidAuctionArrayContracts.length && !upkeepNeeded){\n            if(((getWinnerTime(i) + timeOffset < block.timestamp) && (uint8(getState(i)) == 2)) || ((getRevealTime(i) < block.timestamp) && (uint8(getState(i)) == 1))){\n                upkeepNeeded = true;\n            }\n            i++;\n        }\n    }\n\n    /**\n     * @dev Chainlink keepers performUpkeep function, preforms the upkeep.\n    */\n    function performUpkeep(bytes calldata /* performData */) external override {\n        uint256 i;\n        for(i = 0; i < sealedBidAuctionArrayContracts.length; i++){\n            if((getWinnerTime(i) + timeOffset < block.timestamp) && (uint8(getState(i)) == 2)){\n                emit MoveToWinnerCalculation(uint8(getState(i)));\n                changeState(i);\n            }else if((getRevealTime(i) < block.timestamp) && (uint8(getState(i)) == 1)){\n                emit MoveToReveals(uint8(getState(i)));\n                changeState(i);\n            }\n        }\n    }\n\n}","sourcePath":"contracts/AuctionFactory.sol","type":"contract","deployment":{"address":"0x366ef9ea505A035af406441b8D9bd51Aec51522F","chainid":"4","blockHeight":10752188}}