{"abi":[{"inputs":[{"internalType":"bytes32","name":"_minimumPriceHash","type":"bytes32"},{"internalType":"address","name":"_nftContract","type":"address"},{"internalType":"uint256","name":"_tokenId","type":"uint256"}],"stateMutability":"nonpayable","type":"constructor","name":"constructor"},{"anonymous":false,"inputs":[{"indexed":true,"internalType":"address","name":"previousOwner","type":"address"},{"indexed":true,"internalType":"address","name":"newOwner","type":"address"}],"name":"OwnershipTransferred","type":"event"},{"inputs":[{"internalType":"address","name":"","type":"address"}],"name":"accountToAmount","outputs":[{"internalType":"uint256","name":"","type":"uint256"}],"stateMutability":"view","type":"function"},{"inputs":[{"internalType":"address","name":"","type":"address"}],"name":"accountToHash","outputs":[{"internalType":"bytes32","name":"","type":"bytes32"}],"stateMutability":"view","type":"function"},{"inputs":[{"internalType":"address","name":"","type":"address"}],"name":"accountToOffer","outputs":[{"internalType":"uint256","name":"","type":"uint256"}],"stateMutability":"view","type":"function"},{"inputs":[],"name":"amount","outputs":[{"internalType":"uint256","name":"","type":"uint256"}],"stateMutability":"view","type":"function"},{"inputs":[],"name":"auction_state","outputs":[{"internalType":"enum SealedBidAuction.AUCTION_STATE","name":"","type":"uint8"}],"stateMutability":"view","type":"function"},{"inputs":[],"name":"closeOffers","outputs":[],"stateMutability":"nonpayable","type":"function"},{"inputs":[{"internalType":"bytes32","name":"_hash","type":"bytes32"}],"name":"makeOffer","outputs":[],"stateMutability":"payable","type":"function"},{"inputs":[],"name":"minimumPrice","outputs":[{"internalType":"uint256","name":"","type":"uint256"}],"stateMutability":"view","type":"function"},{"inputs":[],"name":"minimumPriceHash","outputs":[{"internalType":"bytes32","name":"","type":"bytes32"}],"stateMutability":"view","type":"function"},{"inputs":[{"internalType":"address","name":"operator","type":"address"},{"internalType":"address","name":"from","type":"address"},{"internalType":"uint256","name":"tokenId","type":"uint256"},{"internalType":"bytes","name":"data","type":"bytes"}],"name":"onERC721Received","outputs":[{"internalType":"bytes4","name":"","type":"bytes4"}],"stateMutability":"nonpayable","type":"function"},{"inputs":[],"name":"owner","outputs":[{"internalType":"address","name":"","type":"address"}],"stateMutability":"view","type":"function"},{"inputs":[],"name":"ownerGetsPayed","outputs":[],"stateMutability":"nonpayable","type":"function"},{"inputs":[],"name":"parentNFT","outputs":[{"internalType":"contract IERC721","name":"","type":"address"}],"stateMutability":"view","type":"function"},{"inputs":[{"internalType":"uint256","name":"","type":"uint256"}],"name":"players","outputs":[{"internalType":"address","name":"","type":"address"}],"stateMutability":"view","type":"function"},{"inputs":[],"name":"reiburseParticipant","outputs":[],"stateMutability":"nonpayable","type":"function"},{"inputs":[],"name":"renounceOwnership","outputs":[],"stateMutability":"nonpayable","type":"function"},{"inputs":[{"internalType":"string","name":"_secret","type":"string"},{"internalType":"uint256","name":"_amount","type":"uint256"}],"name":"revealOffer","outputs":[],"stateMutability":"nonpayable","type":"function"},{"inputs":[],"name":"tokenId","outputs":[{"internalType":"uint256","name":"","type":"uint256"}],"stateMutability":"view","type":"function"},{"inputs":[],"name":"transferAssetToContract","outputs":[],"stateMutability":"nonpayable","type":"function"},{"inputs":[{"internalType":"address","name":"newOwner","type":"address"}],"name":"transferOwnership","outputs":[],"stateMutability":"nonpayable","type":"function"},{"inputs":[],"name":"winner","outputs":[{"internalType":"address","name":"","type":"address"}],"stateMutability":"view","type":"function"},{"inputs":[{"internalType":"string","name":"_secret","type":"string"},{"internalType":"uint256","name":"_amount","type":"uint256"}],"name":"winnerCalculation","outputs":[],"stateMutability":"nonpayable","type":"function"},{"inputs":[],"name":"winnerRetrivesToken","outputs":[],"stateMutability":"nonpayable","type":"function"}],"bytecode":"608060405234801561001057600080fd5b506040516111e93803806111e983398101604081905261002f916100c0565b61003833610070565b600b805460ff19169055600792909255600980546001600160a01b0319166001600160a01b0392909216919091179055600a55610106565b600080546001600160a01b038381166001600160a01b0319831681178455604051919092169283917f8be0079c531659141344cd1fd0a4f28419497f9722a3daafe3b4186f6b6457e09190a35050565b6000806000606084860312156100d557600080fd5b835160208501519093506001600160a01b03811681146100f457600080fd5b80925050604084015190509250925092565b6110d4806101156000396000f3fe6080604052600436106101405760003560e01c80638da5cb5b116100b6578063d7ee3c791161006f578063d7ee3c791461036b578063dfbf53ae1461038b578063e8a5acee146103ab578063f2fde38b146103c1578063f71d96cb146103e1578063f9688bc11461040157600080fd5b80638da5cb5b146102b9578063a27dc332146102eb578063aa8c217c14610300578063b6f1ad5b14610316578063b8e33fb21461032b578063d5b19df51461034b57600080fd5b806364b4d4281161010857806364b4d4281461020a578063715018a61461023757806374328b1c1461024c5780637f386b6c1461026157806389a694dd146102775780638ab9e911146102a457600080fd5b8063051e152414610145578063150b7a021461015a57806317d70f7c146101a457806335fe2d7f146101c857806339107381146101f5575b600080fd5b610158610153366004610dcf565b610428565b005b34801561016657600080fd5b50610186610175366004610e04565b630a85bd0160e11b95945050505050565b6040516001600160e01b031990911681526020015b60405180910390f35b3480156101b057600080fd5b506101ba600a5481565b60405190815260200161019b565b3480156101d457600080fd5b506101ba6101e3366004610e9f565b60046020526000908152604090205481565b34801561020157600080fd5b50610158610587565b34801561021657600080fd5b506101ba610225366004610e9f565b60036020526000908152604090205481565b34801561024357600080fd5b506101586106b3565b34801561025857600080fd5b506101586106e7565b34801561026d57600080fd5b506101ba60085481565b34801561028357600080fd5b506101ba610292366004610e9f565b60026020526000908152604090205481565b3480156102b057600080fd5b506101586107a1565b3480156102c557600080fd5b506000546001600160a01b03165b6040516001600160a01b03909116815260200161019b565b3480156102f757600080fd5b50610158610802565b34801561030c57600080fd5b506101ba60065481565b34801561032257600080fd5b50610158610831565b34801561033757600080fd5b506009546102d3906001600160a01b031681565b34801561035757600080fd5b50610158610366366004610ed7565b610851565b34801561037757600080fd5b50610158610386366004610ed7565b610927565b34801561039757600080fd5b506005546102d3906001600160a01b031681565b3480156103b757600080fd5b506101ba60075481565b3480156103cd57600080fd5b506101586103dc366004610e9f565b610b2c565b3480156103ed57600080fd5b506102d36103fc366004610dcf565b610bc7565b34801561040d57600080fd5b50600b5461041b9060ff1681565b60405161019b9190610fa2565b6001600b5460ff16600481111561044157610441610f8c565b1461044b57600080fd5b6000546001600160a01b031633141561049c5760405162461bcd60e51b815260206004820152600e60248201526d13dddb995c8818d85b9d08189a5960921b60448201526064015b60405180910390fd5b600034116104dc5760405162461bcd60e51b815260206004820152600d60248201526c09ccacac840e6dedaca408aa89609b1b6044820152606401610493565b336000908152600260205260409020541561052a5760405162461bcd60e51b815260206004820152600e60248201526d43616e742062696420747769636560901b6044820152606401610493565b600180548082019091557fb10e2d527612073b26eecdfd717e6a320cf44b4afac2b0732d9fcbe2b7fa0cf60180546001600160a01b0319163390811790915560009081526002602090815260408083203490556003909152902055565b6000546001600160a01b031633146105b15760405162461bcd60e51b815260040161049390610fca565b6004600b5460ff1660048111156105ca576105ca610f8c565b146105d457600080fd5b60065415610633576006805460009091556105f76000546001600160a01b031690565b6001600160a01b03166108fc829081150290604051600060405180830381858888f1935050505015801561062f573d6000803e3d6000fd5b5050565b6009546001600160a01b03166342842e0e3033600a546040516001600160e01b031960e086901b1681526001600160a01b0393841660048201529290911660248301526044820152606401600060405180830381600087803b15801561069857600080fd5b505af11580156106ac573d6000803e3d6000fd5b505050505b565b6000546001600160a01b031633146106dd5760405162461bcd60e51b815260040161049390610fca565b6106b16000610bf1565b6000546001600160a01b031633146107115760405162461bcd60e51b815260040161049390610fca565b6009546001600160a01b03166342842e0e33600a546040516001600160e01b031960e085901b1681526001600160a01b0390921660048301523060248301526044820152606401600060405180830381600087803b15801561077257600080fd5b505af1158015610786573d6000803e3d6000fd5b5050600b80546001935090915060ff191682805b0217905550565b6000546001600160a01b031633146107cb5760405162461bcd60e51b815260040161049390610fca565b6001600b5460ff1660048111156107e4576107e4610f8c565b146107ee57600080fd5b600b80546002919060ff191660018361079a565b336000908152600260205260409020548061081c57600080fd5b336000818152600260205260408120556105f7565b6005546001600160a01b0316336001600160a01b03161461063357600080fd5b6000546001600160a01b0316331461087b5760405162461bcd60e51b815260040161049390610fca565b6002600b5460ff16600481111561089457610894610f8c565b1461089e57600080fd5b81816040516020016108b1929190610fff565b604051602081830303815290604052805190602001206007541461090d5760405162461bcd60e51b8152602060048201526013602482015272090c2e6d0cae640c8de40dcdee840dac2e8c6d606b1b6044820152606401610493565b6008819055600b805460ff1916600317905561062f610c41565b6002600b5460ff16600481111561094057610940610f8c565b1461097e5760405162461bcd60e51b815260206004820152600e60248201526d4e6f742072696768742074696d6560901b6044820152606401610493565b336000908152600260205260409020546109da5760405162461bcd60e51b815260206004820152601960248201527f596f7520617265206e6f742061207061727469636970616e74000000000000006044820152606401610493565b3360009081526004602052604090205415610a2e5760405162461bcd60e51b815260206004820152601460248201527343616e206f6e6c792072657665616c206f6e636560601b6044820152606401610493565b33600090815260026020526040902054811115610a815760405162461bcd60e51b815260206004820152601160248201527013d999995c881a5b9d985b1a59185d1959607a1b6044820152606401610493565b8181604051602001610a94929190610fff565b6040516020818303038152906040528051906020012060036000610ab53390565b6001600160a01b03166001600160a01b031681526020019081526020016000205414610b195760405162461bcd60e51b8152602060048201526013602482015272090c2e6d0cae640c8de40dcdee840dac2e8c6d606b1b6044820152606401610493565b3360009081526004602052604090205550565b6000546001600160a01b03163314610b565760405162461bcd60e51b815260040161049390610fca565b6001600160a01b038116610bbb5760405162461bcd60e51b815260206004820152602660248201527f4f776e61626c653a206e6577206f776e657220697320746865207a65726f206160448201526564647265737360d01b6064820152608401610493565b610bc481610bf1565b50565b60018181548110610bd757600080fd5b6000918252602090912001546001600160a01b0316905081565b600080546001600160a01b038381166001600160a01b0319831681178455604051919092169283917f8be0079c531659141344cd1fd0a4f28419497f9722a3daafe3b4186f6b6457e09190a35050565b6000546001600160a01b03163314610c6b5760405162461bcd60e51b815260040161049390610fca565b6003600b5460ff166004811115610c8457610c84610f8c565b14610c8e57600080fd5b60008060005b600154811015610d3557816004600060018481548110610cb657610cb6611040565b60009182526020808320909101546001600160a01b031683528201929092526040019020541115610d23578092506004600060018381548110610cfb57610cfb611040565b60009182526020808320909101546001600160a01b0316835282019290925260400190205491505b80610d2d8161106c565b915050610c94565b6008548210610dbd5760018381548110610d5157610d51611040565b6000918252602080832090910154600580546001600160a01b0319166001600160a01b0390921691821790558252600481526040808320546006819055600290925290912054610da19190611087565b6005546001600160a01b03166000908152600260205260409020555b5050600b805460ff1916600417905550565b600060208284031215610de157600080fd5b5035919050565b80356001600160a01b0381168114610dff57600080fd5b919050565b600080600080600060808688031215610e1c57600080fd5b610e2586610de8565b9450610e3360208701610de8565b935060408601359250606086013567ffffffffffffffff80821115610e5757600080fd5b818801915088601f830112610e6b57600080fd5b813581811115610e7a57600080fd5b896020828501011115610e8c57600080fd5b9699959850939650602001949392505050565b600060208284031215610eb157600080fd5b610eba82610de8565b9392505050565b634e487b7160e01b600052604160045260246000fd5b60008060408385031215610eea57600080fd5b823567ffffffffffffffff80821115610f0257600080fd5b818501915085601f830112610f1657600080fd5b813581811115610f2857610f28610ec1565b604051601f8201601f19908116603f01168101908382118183101715610f5057610f50610ec1565b81604052828152886020848701011115610f6957600080fd5b826020860160208301376000602093820184015298969091013596505050505050565b634e487b7160e01b600052602160045260246000fd5b6020810160058310610fc457634e487b7160e01b600052602160045260246000fd5b91905290565b6020808252818101527f4f776e61626c653a2063616c6c6572206973206e6f7420746865206f776e6572604082015260600190565b6000835160005b818110156110205760208187018101518583015201611006565b8181111561102f576000828501525b509190910191825250602001919050565b634e487b7160e01b600052603260045260246000fd5b634e487b7160e01b600052601160045260246000fd5b600060001982141561108057611080611056565b5060010190565b60008282101561109957611099611056565b50039056fea2646970667358221220634e131dba8a7bf1cffb34ebbcb9c6a44a80a7f3874a7bdb670a0d177aab7a9f64736f6c634300080c0033","bytecodeSha1":"83aa7d63c88c71b67fef664fa48fdbfab48d70c4","compiler":{"evm_version":"istanbul","optimizer":{"enabled":true,"runs":200},"version":"0.8.12+commit.f00d7308"},"contractName":"SealedBidAuction","language":"Solidity","natspec":{"kind":"dev","methods":{"onERC721Received(address,address,uint256,bytes)":{"details":"Whenever an {IERC721} `tokenId` token is transferred to this contract via {IERC721-safeTransferFrom} by `operator` from `from`, this function is called. It must return its Solidity selector to confirm the token transfer. If any other value is returned or the interface is not implemented by the recipient, the transfer will be reverted. The selector can be obtained in Solidity with `IERC721.onERC721Received.selector`."},"owner()":{"details":"Returns the address of the current owner."},"renounceOwnership()":{"details":"Leaves the contract without owner. It will not be possible to call `onlyOwner` functions anymore. Can only be called by the current owner. NOTE: Renouncing ownership will leave the contract without an owner, thereby removing any functionality that is only available to the owner."},"transferOwnership(address)":{"details":"Transfers ownership of the contract to a new account (`newOwner`). Can only be called by the current owner."}},"version":1},"opcodes":"PUSH1 0x80 PUSH1 0x40 MSTORE PUSH1 0x4 CALLDATASIZE LT PUSH2 0x140 JUMPI PUSH1 0x0 CALLDATALOAD PUSH1 0xE0 SHR DUP1 PUSH4 0x8DA5CB5B GT PUSH2 0xB6 JUMPI DUP1 PUSH4 0xD7EE3C79 GT PUSH2 0x6F JUMPI DUP1 PUSH4 0xD7EE3C79 EQ PUSH2 0x36B JUMPI DUP1 PUSH4 0xDFBF53AE EQ PUSH2 0x38B JUMPI DUP1 PUSH4 0xE8A5ACEE EQ PUSH2 0x3AB JUMPI DUP1 PUSH4 0xF2FDE38B EQ PUSH2 0x3C1 JUMPI DUP1 PUSH4 0xF71D96CB EQ PUSH2 0x3E1 JUMPI DUP1 PUSH4 0xF9688BC1 EQ PUSH2 0x401 JUMPI PUSH1 0x0 DUP1 REVERT JUMPDEST DUP1 PUSH4 0x8DA5CB5B EQ PUSH2 0x2B9 JUMPI DUP1 PUSH4 0xA27DC332 EQ PUSH2 0x2EB JUMPI DUP1 PUSH4 0xAA8C217C EQ PUSH2 0x300 JUMPI DUP1 PUSH4 0xB6F1AD5B EQ PUSH2 0x316 JUMPI DUP1 PUSH4 0xB8E33FB2 EQ PUSH2 0x32B JUMPI DUP1 PUSH4 0xD5B19DF5 EQ PUSH2 0x34B JUMPI PUSH1 0x0 DUP1 REVERT JUMPDEST DUP1 PUSH4 0x64B4D428 GT PUSH2 0x108 JUMPI DUP1 PUSH4 0x64B4D428 EQ PUSH2 0x20A JUMPI DUP1 PUSH4 0x715018A6 EQ PUSH2 0x237 JUMPI DUP1 PUSH4 0x74328B1C EQ PUSH2 0x24C JUMPI DUP1 PUSH4 0x7F386B6C EQ PUSH2 0x261 JUMPI DUP1 PUSH4 0x89A694DD EQ PUSH2 0x277 JUMPI DUP1 PUSH4 0x8AB9E911 EQ PUSH2 0x2A4 JUMPI PUSH1 0x0 DUP1 REVERT JUMPDEST DUP1 PUSH4 0x51E1524 EQ PUSH2 0x145 JUMPI DUP1 PUSH4 0x150B7A02 EQ PUSH2 0x15A JUMPI DUP1 PUSH4 0x17D70F7C EQ PUSH2 0x1A4 JUMPI DUP1 PUSH4 0x35FE2D7F EQ PUSH2 0x1C8 JUMPI DUP1 PUSH4 0x39107381 EQ PUSH2 0x1F5 JUMPI JUMPDEST PUSH1 0x0 DUP1 REVERT JUMPDEST PUSH2 0x158 PUSH2 0x153 CALLDATASIZE PUSH1 0x4 PUSH2 0xDCF JUMP JUMPDEST PUSH2 0x428 JUMP JUMPDEST STOP JUMPDEST CALLVALUE DUP1 ISZERO PUSH2 0x166 JUMPI PUSH1 0x0 DUP1 REVERT JUMPDEST POP PUSH2 0x186 PUSH2 0x175 CALLDATASIZE PUSH1 0x4 PUSH2 0xE04 JUMP JUMPDEST PUSH4 0xA85BD01 PUSH1 0xE1 SHL SWAP6 SWAP5 POP POP POP POP POP JUMP JUMPDEST PUSH1 0x40 MLOAD PUSH1 0x1 PUSH1 0x1 PUSH1 0xE0 SHL SUB NOT SWAP1 SWAP2 AND DUP2 MSTORE PUSH1 0x20 ADD JUMPDEST PUSH1 0x40 MLOAD DUP1 SWAP2 SUB SWAP1 RETURN JUMPDEST CALLVALUE DUP1 ISZERO PUSH2 0x1B0 JUMPI PUSH1 0x0 DUP1 REVERT JUMPDEST POP PUSH2 0x1BA PUSH1 0xA SLOAD DUP2 JUMP JUMPDEST PUSH1 0x40 MLOAD SWAP1 DUP2 MSTORE PUSH1 0x20 ADD PUSH2 0x19B JUMP JUMPDEST CALLVALUE DUP1 ISZERO PUSH2 0x1D4 JUMPI PUSH1 0x0 DUP1 REVERT JUMPDEST POP PUSH2 0x1BA PUSH2 0x1E3 CALLDATASIZE PUSH1 0x4 PUSH2 0xE9F JUMP JUMPDEST PUSH1 0x4 PUSH1 0x20 MSTORE PUSH1 0x0 SWAP1 DUP2 MSTORE PUSH1 0x40 SWAP1 KECCAK256 SLOAD DUP2 JUMP JUMPDEST CALLVALUE DUP1 ISZERO PUSH2 0x201 JUMPI PUSH1 0x0 DUP1 REVERT JUMPDEST POP PUSH2 0x158 PUSH2 0x587 JUMP JUMPDEST CALLVALUE DUP1 ISZERO PUSH2 0x216 JUMPI PUSH1 0x0 DUP1 REVERT JUMPDEST POP PUSH2 0x1BA PUSH2 0x225 CALLDATASIZE PUSH1 0x4 PUSH2 0xE9F JUMP JUMPDEST PUSH1 0x3 PUSH1 0x20 MSTORE PUSH1 0x0 SWAP1 DUP2 MSTORE PUSH1 0x40 SWAP1 KECCAK256 SLOAD DUP2 JUMP JUMPDEST CALLVALUE DUP1 ISZERO PUSH2 0x243 JUMPI PUSH1 0x0 DUP1 REVERT JUMPDEST POP PUSH2 0x158 PUSH2 0x6B3 JUMP JUMPDEST CALLVALUE DUP1 ISZERO PUSH2 0x258 JUMPI PUSH1 0x0 DUP1 REVERT JUMPDEST POP PUSH2 0x158 PUSH2 0x6E7 JUMP JUMPDEST CALLVALUE DUP1 ISZERO PUSH2 0x26D JUMPI PUSH1 0x0 DUP1 REVERT JUMPDEST POP PUSH2 0x1BA PUSH1 0x8 SLOAD DUP2 JUMP JUMPDEST CALLVALUE DUP1 ISZERO PUSH2 0x283 JUMPI PUSH1 0x0 DUP1 REVERT JUMPDEST POP PUSH2 0x1BA PUSH2 0x292 CALLDATASIZE PUSH1 0x4 PUSH2 0xE9F JUMP JUMPDEST PUSH1 0x2 PUSH1 0x20 MSTORE PUSH1 0x0 SWAP1 DUP2 MSTORE PUSH1 0x40 SWAP1 KECCAK256 SLOAD DUP2 JUMP JUMPDEST CALLVALUE DUP1 ISZERO PUSH2 0x2B0 JUMPI PUSH1 0x0 DUP1 REVERT JUMPDEST POP PUSH2 0x158 PUSH2 0x7A1 JUMP JUMPDEST CALLVALUE DUP1 ISZERO PUSH2 0x2C5 JUMPI PUSH1 0x0 DUP1 REVERT JUMPDEST POP PUSH1 0x0 SLOAD PUSH1 0x1 PUSH1 0x1 PUSH1 0xA0 SHL SUB AND JUMPDEST PUSH1 0x40 MLOAD PUSH1 0x1 PUSH1 0x1 PUSH1 0xA0 SHL SUB SWAP1 SWAP2 AND DUP2 MSTORE PUSH1 0x20 ADD PUSH2 0x19B JUMP JUMPDEST CALLVALUE DUP1 ISZERO PUSH2 0x2F7 JUMPI PUSH1 0x0 DUP1 REVERT JUMPDEST POP PUSH2 0x158 PUSH2 0x802 JUMP JUMPDEST CALLVALUE DUP1 ISZERO PUSH2 0x30C JUMPI PUSH1 0x0 DUP1 REVERT JUMPDEST POP PUSH2 0x1BA PUSH1 0x6 SLOAD DUP2 JUMP JUMPDEST CALLVALUE DUP1 ISZERO PUSH2 0x322 JUMPI PUSH1 0x0 DUP1 REVERT JUMPDEST POP PUSH2 0x158 PUSH2 0x831 JUMP JUMPDEST CALLVALUE DUP1 ISZERO PUSH2 0x337 JUMPI PUSH1 0x0 DUP1 REVERT JUMPDEST POP PUSH1 0x9 SLOAD PUSH2 0x2D3 SWAP1 PUSH1 0x1 PUSH1 0x1 PUSH1 0xA0 SHL SUB AND DUP2 JUMP JUMPDEST CALLVALUE DUP1 ISZERO PUSH2 0x357 JUMPI PUSH1 0x0 DUP1 REVERT JUMPDEST POP PUSH2 0x158 PUSH2 0x366 CALLDATASIZE PUSH1 0x4 PUSH2 0xED7 JUMP JUMPDEST PUSH2 0x851 JUMP JUMPDEST CALLVALUE DUP1 ISZERO PUSH2 0x377 JUMPI PUSH1 0x0 DUP1 REVERT JUMPDEST POP PUSH2 0x158 PUSH2 0x386 CALLDATASIZE PUSH1 0x4 PUSH2 0xED7 JUMP JUMPDEST PUSH2 0x927 JUMP JUMPDEST CALLVALUE DUP1 ISZERO PUSH2 0x397 JUMPI PUSH1 0x0 DUP1 REVERT JUMPDEST POP PUSH1 0x5 SLOAD PUSH2 0x2D3 SWAP1 PUSH1 0x1 PUSH1 0x1 PUSH1 0xA0 SHL SUB AND DUP2 JUMP JUMPDEST CALLVALUE DUP1 ISZERO PUSH2 0x3B7 JUMPI PUSH1 0x0 DUP1 REVERT JUMPDEST POP PUSH2 0x1BA PUSH1 0x7 SLOAD DUP2 JUMP JUMPDEST CALLVALUE DUP1 ISZERO PUSH2 0x3CD JUMPI PUSH1 0x0 DUP1 REVERT JUMPDEST POP PUSH2 0x158 PUSH2 0x3DC CALLDATASIZE PUSH1 0x4 PUSH2 0xE9F JUMP JUMPDEST PUSH2 0xB2C JUMP JUMPDEST CALLVALUE DUP1 ISZERO PUSH2 0x3ED JUMPI PUSH1 0x0 DUP1 REVERT JUMPDEST POP PUSH2 0x2D3 PUSH2 0x3FC CALLDATASIZE PUSH1 0x4 PUSH2 0xDCF JUMP JUMPDEST PUSH2 0xBC7 JUMP JUMPDEST CALLVALUE DUP1 ISZERO PUSH2 0x40D JUMPI PUSH1 0x0 DUP1 REVERT JUMPDEST POP PUSH1 0xB SLOAD PUSH2 0x41B SWAP1 PUSH1 0xFF AND DUP2 JUMP JUMPDEST PUSH1 0x40 MLOAD PUSH2 0x19B SWAP2 SWAP1 PUSH2 0xFA2 JUMP JUMPDEST PUSH1 0x1 PUSH1 0xB SLOAD PUSH1 0xFF AND PUSH1 0x4 DUP2 GT ISZERO PUSH2 0x441 JUMPI PUSH2 0x441 PUSH2 0xF8C JUMP JUMPDEST EQ PUSH2 0x44B JUMPI PUSH1 0x0 DUP1 REVERT JUMPDEST PUSH1 0x0 SLOAD PUSH1 0x1 PUSH1 0x1 PUSH1 0xA0 SHL SUB AND CALLER EQ ISZERO PUSH2 0x49C JUMPI PUSH1 0x40 MLOAD PUSH3 0x461BCD PUSH1 0xE5 SHL DUP2 MSTORE PUSH1 0x20 PUSH1 0x4 DUP3 ADD MSTORE PUSH1 0xE PUSH1 0x24 DUP3 ADD MSTORE PUSH14 0x13DDDB995C8818D85B9D08189A59 PUSH1 0x92 SHL PUSH1 0x44 DUP3 ADD MSTORE PUSH1 0x64 ADD JUMPDEST PUSH1 0x40 MLOAD DUP1 SWAP2 SUB SWAP1 REVERT JUMPDEST PUSH1 0x0 CALLVALUE GT PUSH2 0x4DC JUMPI PUSH1 0x40 MLOAD PUSH3 0x461BCD PUSH1 0xE5 SHL DUP2 MSTORE PUSH1 0x20 PUSH1 0x4 DUP3 ADD MSTORE PUSH1 0xD PUSH1 0x24 DUP3 ADD MSTORE PUSH13 0x9CCACAC840E6DEDACA408AA89 PUSH1 0x9B SHL PUSH1 0x44 DUP3 ADD MSTORE PUSH1 0x64 ADD PUSH2 0x493 JUMP JUMPDEST CALLER PUSH1 0x0 SWAP1 DUP2 MSTORE PUSH1 0x2 PUSH1 0x20 MSTORE PUSH1 0x40 SWAP1 KECCAK256 SLOAD ISZERO PUSH2 0x52A JUMPI PUSH1 0x40 MLOAD PUSH3 0x461BCD PUSH1 0xE5 SHL DUP2 MSTORE PUSH1 0x20 PUSH1 0x4 DUP3 ADD MSTORE PUSH1 0xE PUSH1 0x24 DUP3 ADD MSTORE PUSH14 0x43616E7420626964207477696365 PUSH1 0x90 SHL PUSH1 0x44 DUP3 ADD MSTORE PUSH1 0x64 ADD PUSH2 0x493 JUMP JUMPDEST PUSH1 0x1 DUP1 SLOAD DUP1 DUP3 ADD SWAP1 SWAP2 SSTORE PUSH32 0xB10E2D527612073B26EECDFD717E6A320CF44B4AFAC2B0732D9FCBE2B7FA0CF6 ADD DUP1 SLOAD PUSH1 0x1 PUSH1 0x1 PUSH1 0xA0 SHL SUB NOT AND CALLER SWAP1 DUP2 OR SWAP1 SWAP2 SSTORE PUSH1 0x0 SWAP1 DUP2 MSTORE PUSH1 0x2 PUSH1 0x20 SWAP1 DUP2 MSTORE PUSH1 0x40 DUP1 DUP4 KECCAK256 CALLVALUE SWAP1 SSTORE PUSH1 0x3 SWAP1 SWAP2 MSTORE SWAP1 KECCAK256 SSTORE JUMP JUMPDEST PUSH1 0x0 SLOAD PUSH1 0x1 PUSH1 0x1 PUSH1 0xA0 SHL SUB AND CALLER EQ PUSH2 0x5B1 JUMPI PUSH1 0x40 MLOAD PUSH3 0x461BCD PUSH1 0xE5 SHL DUP2 MSTORE PUSH1 0x4 ADD PUSH2 0x493 SWAP1 PUSH2 0xFCA JUMP JUMPDEST PUSH1 0x4 PUSH1 0xB SLOAD PUSH1 0xFF AND PUSH1 0x4 DUP2 GT ISZERO PUSH2 0x5CA JUMPI PUSH2 0x5CA PUSH2 0xF8C JUMP JUMPDEST EQ PUSH2 0x5D4 JUMPI PUSH1 0x0 DUP1 REVERT JUMPDEST PUSH1 0x6 SLOAD ISZERO PUSH2 0x633 JUMPI PUSH1 0x6 DUP1 SLOAD PUSH1 0x0 SWAP1 SWAP2 SSTORE PUSH2 0x5F7 PUSH1 0x0 SLOAD PUSH1 0x1 PUSH1 0x1 PUSH1 0xA0 SHL SUB AND SWAP1 JUMP JUMPDEST PUSH1 0x1 PUSH1 0x1 PUSH1 0xA0 SHL SUB AND PUSH2 0x8FC DUP3 SWAP1 DUP2 ISZERO MUL SWAP1 PUSH1 0x40 MLOAD PUSH1 0x0 PUSH1 0x40 MLOAD DUP1 DUP4 SUB DUP2 DUP6 DUP9 DUP9 CALL SWAP4 POP POP POP POP ISZERO DUP1 ISZERO PUSH2 0x62F JUMPI RETURNDATASIZE PUSH1 0x0 DUP1 RETURNDATACOPY RETURNDATASIZE PUSH1 0x0 REVERT JUMPDEST POP POP JUMP JUMPDEST PUSH1 0x9 SLOAD PUSH1 0x1 PUSH1 0x1 PUSH1 0xA0 SHL SUB AND PUSH4 0x42842E0E ADDRESS CALLER PUSH1 0xA SLOAD PUSH1 0x40 MLOAD PUSH1 0x1 PUSH1 0x1 PUSH1 0xE0 SHL SUB NOT PUSH1 0xE0 DUP7 SWAP1 SHL AND DUP2 MSTORE PUSH1 0x1 PUSH1 0x1 PUSH1 0xA0 SHL SUB SWAP4 DUP5 AND PUSH1 0x4 DUP3 ADD MSTORE SWAP3 SWAP1 SWAP2 AND PUSH1 0x24 DUP4 ADD MSTORE PUSH1 0x44 DUP3 ADD MSTORE PUSH1 0x64 ADD PUSH1 0x0 PUSH1 0x40 MLOAD DUP1 DUP4 SUB DUP2 PUSH1 0x0 DUP8 DUP1 EXTCODESIZE ISZERO DUP1 ISZERO PUSH2 0x698 JUMPI PUSH1 0x0 DUP1 REVERT JUMPDEST POP GAS CALL ISZERO DUP1 ISZERO PUSH2 0x6AC JUMPI RETURNDATASIZE PUSH1 0x0 DUP1 RETURNDATACOPY RETURNDATASIZE PUSH1 0x0 REVERT JUMPDEST POP POP POP POP JUMPDEST JUMP JUMPDEST PUSH1 0x0 SLOAD PUSH1 0x1 PUSH1 0x1 PUSH1 0xA0 SHL SUB AND CALLER EQ PUSH2 0x6DD JUMPI PUSH1 0x40 MLOAD PUSH3 0x461BCD PUSH1 0xE5 SHL DUP2 MSTORE PUSH1 0x4 ADD PUSH2 0x493 SWAP1 PUSH2 0xFCA JUMP JUMPDEST PUSH2 0x6B1 PUSH1 0x0 PUSH2 0xBF1 JUMP JUMPDEST PUSH1 0x0 SLOAD PUSH1 0x1 PUSH1 0x1 PUSH1 0xA0 SHL SUB AND CALLER EQ PUSH2 0x711 JUMPI PUSH1 0x40 MLOAD PUSH3 0x461BCD PUSH1 0xE5 SHL DUP2 MSTORE PUSH1 0x4 ADD PUSH2 0x493 SWAP1 PUSH2 0xFCA JUMP JUMPDEST PUSH1 0x9 SLOAD PUSH1 0x1 PUSH1 0x1 PUSH1 0xA0 SHL SUB AND PUSH4 0x42842E0E CALLER PUSH1 0xA SLOAD PUSH1 0x40 MLOAD PUSH1 0x1 PUSH1 0x1 PUSH1 0xE0 SHL SUB NOT PUSH1 0xE0 DUP6 SWAP1 SHL AND DUP2 MSTORE PUSH1 0x1 PUSH1 0x1 PUSH1 0xA0 SHL SUB SWAP1 SWAP3 AND PUSH1 0x4 DUP4 ADD MSTORE ADDRESS PUSH1 0x24 DUP4 ADD MSTORE PUSH1 0x44 DUP3 ADD MSTORE PUSH1 0x64 ADD PUSH1 0x0 PUSH1 0x40 MLOAD DUP1 DUP4 SUB DUP2 PUSH1 0x0 DUP8 DUP1 EXTCODESIZE ISZERO DUP1 ISZERO PUSH2 0x772 JUMPI PUSH1 0x0 DUP1 REVERT JUMPDEST POP GAS CALL ISZERO DUP1 ISZERO PUSH2 0x786 JUMPI RETURNDATASIZE PUSH1 0x0 DUP1 RETURNDATACOPY RETURNDATASIZE PUSH1 0x0 REVERT JUMPDEST POP POP PUSH1 0xB DUP1 SLOAD PUSH1 0x1 SWAP4 POP SWAP1 SWAP2 POP PUSH1 0xFF NOT AND DUP3 DUP1 JUMPDEST MUL OR SWAP1 SSTORE POP JUMP JUMPDEST PUSH1 0x0 SLOAD PUSH1 0x1 PUSH1 0x1 PUSH1 0xA0 SHL SUB AND CALLER EQ PUSH2 0x7CB JUMPI PUSH1 0x40 MLOAD PUSH3 0x461BCD PUSH1 0xE5 SHL DUP2 MSTORE PUSH1 0x4 ADD PUSH2 0x493 SWAP1 PUSH2 0xFCA JUMP JUMPDEST PUSH1 0x1 PUSH1 0xB SLOAD PUSH1 0xFF AND PUSH1 0x4 DUP2 GT ISZERO PUSH2 0x7E4 JUMPI PUSH2 0x7E4 PUSH2 0xF8C JUMP JUMPDEST EQ PUSH2 0x7EE JUMPI PUSH1 0x0 DUP1 REVERT JUMPDEST PUSH1 0xB DUP1 SLOAD PUSH1 0x2 SWAP2 SWAP1 PUSH1 0xFF NOT AND PUSH1 0x1 DUP4 PUSH2 0x79A JUMP JUMPDEST CALLER PUSH1 0x0 SWAP1 DUP2 MSTORE PUSH1 0x2 PUSH1 0x20 MSTORE PUSH1 0x40 SWAP1 KECCAK256 SLOAD DUP1 PUSH2 0x81C JUMPI PUSH1 0x0 DUP1 REVERT JUMPDEST CALLER PUSH1 0x0 DUP2 DUP2 MSTORE PUSH1 0x2 PUSH1 0x20 MSTORE PUSH1 0x40 DUP2 KECCAK256 SSTORE PUSH2 0x5F7 JUMP JUMPDEST PUSH1 0x5 SLOAD PUSH1 0x1 PUSH1 0x1 PUSH1 0xA0 SHL SUB AND CALLER PUSH1 0x1 PUSH1 0x1 PUSH1 0xA0 SHL SUB AND EQ PUSH2 0x633 JUMPI PUSH1 0x0 DUP1 REVERT JUMPDEST PUSH1 0x0 SLOAD PUSH1 0x1 PUSH1 0x1 PUSH1 0xA0 SHL SUB AND CALLER EQ PUSH2 0x87B JUMPI PUSH1 0x40 MLOAD PUSH3 0x461BCD PUSH1 0xE5 SHL DUP2 MSTORE PUSH1 0x4 ADD PUSH2 0x493 SWAP1 PUSH2 0xFCA JUMP JUMPDEST PUSH1 0x2 PUSH1 0xB SLOAD PUSH1 0xFF AND PUSH1 0x4 DUP2 GT ISZERO PUSH2 0x894 JUMPI PUSH2 0x894 PUSH2 0xF8C JUMP JUMPDEST EQ PUSH2 0x89E JUMPI PUSH1 0x0 DUP1 REVERT JUMPDEST DUP2 DUP2 PUSH1 0x40 MLOAD PUSH1 0x20 ADD PUSH2 0x8B1 SWAP3 SWAP2 SWAP1 PUSH2 0xFFF JUMP JUMPDEST PUSH1 0x40 MLOAD PUSH1 0x20 DUP2 DUP4 SUB SUB DUP2 MSTORE SWAP1 PUSH1 0x40 MSTORE DUP1 MLOAD SWAP1 PUSH1 0x20 ADD KECCAK256 PUSH1 0x7 SLOAD EQ PUSH2 0x90D JUMPI PUSH1 0x40 MLOAD PUSH3 0x461BCD PUSH1 0xE5 SHL DUP2 MSTORE PUSH1 0x20 PUSH1 0x4 DUP3 ADD MSTORE PUSH1 0x13 PUSH1 0x24 DUP3 ADD MSTORE PUSH19 0x90C2E6D0CAE640C8DE40DCDEE840DAC2E8C6D PUSH1 0x6B SHL PUSH1 0x44 DUP3 ADD MSTORE PUSH1 0x64 ADD PUSH2 0x493 JUMP JUMPDEST PUSH1 0x8 DUP2 SWAP1 SSTORE PUSH1 0xB DUP1 SLOAD PUSH1 0xFF NOT AND PUSH1 0x3 OR SWAP1 SSTORE PUSH2 0x62F PUSH2 0xC41 JUMP JUMPDEST PUSH1 0x2 PUSH1 0xB SLOAD PUSH1 0xFF AND PUSH1 0x4 DUP2 GT ISZERO PUSH2 0x940 JUMPI PUSH2 0x940 PUSH2 0xF8C JUMP JUMPDEST EQ PUSH2 0x97E JUMPI PUSH1 0x40 MLOAD PUSH3 0x461BCD PUSH1 0xE5 SHL DUP2 MSTORE PUSH1 0x20 PUSH1 0x4 DUP3 ADD MSTORE PUSH1 0xE PUSH1 0x24 DUP3 ADD MSTORE PUSH14 0x4E6F742072696768742074696D65 PUSH1 0x90 SHL PUSH1 0x44 DUP3 ADD MSTORE PUSH1 0x64 ADD PUSH2 0x493 JUMP JUMPDEST CALLER PUSH1 0x0 SWAP1 DUP2 MSTORE PUSH1 0x2 PUSH1 0x20 MSTORE PUSH1 0x40 SWAP1 KECCAK256 SLOAD PUSH2 0x9DA JUMPI PUSH1 0x40 MLOAD PUSH3 0x461BCD PUSH1 0xE5 SHL DUP2 MSTORE PUSH1 0x20 PUSH1 0x4 DUP3 ADD MSTORE PUSH1 0x19 PUSH1 0x24 DUP3 ADD MSTORE PUSH32 0x596F7520617265206E6F742061207061727469636970616E7400000000000000 PUSH1 0x44 DUP3 ADD MSTORE PUSH1 0x64 ADD PUSH2 0x493 JUMP JUMPDEST CALLER PUSH1 0x0 SWAP1 DUP2 MSTORE PUSH1 0x4 PUSH1 0x20 MSTORE PUSH1 0x40 SWAP1 KECCAK256 SLOAD ISZERO PUSH2 0xA2E JUMPI PUSH1 0x40 MLOAD PUSH3 0x461BCD PUSH1 0xE5 SHL DUP2 MSTORE PUSH1 0x20 PUSH1 0x4 DUP3 ADD MSTORE PUSH1 0x14 PUSH1 0x24 DUP3 ADD MSTORE PUSH20 0x43616E206F6E6C792072657665616C206F6E6365 PUSH1 0x60 SHL PUSH1 0x44 DUP3 ADD MSTORE PUSH1 0x64 ADD PUSH2 0x493 JUMP JUMPDEST CALLER PUSH1 0x0 SWAP1 DUP2 MSTORE PUSH1 0x2 PUSH1 0x20 MSTORE PUSH1 0x40 SWAP1 KECCAK256 SLOAD DUP2 GT ISZERO PUSH2 0xA81 JUMPI PUSH1 0x40 MLOAD PUSH3 0x461BCD PUSH1 0xE5 SHL DUP2 MSTORE PUSH1 0x20 PUSH1 0x4 DUP3 ADD MSTORE PUSH1 0x11 PUSH1 0x24 DUP3 ADD MSTORE PUSH17 0x13D999995C881A5B9D985B1A59185D1959 PUSH1 0x7A SHL PUSH1 0x44 DUP3 ADD MSTORE PUSH1 0x64 ADD PUSH2 0x493 JUMP JUMPDEST DUP2 DUP2 PUSH1 0x40 MLOAD PUSH1 0x20 ADD PUSH2 0xA94 SWAP3 SWAP2 SWAP1 PUSH2 0xFFF JUMP JUMPDEST PUSH1 0x40 MLOAD PUSH1 0x20 DUP2 DUP4 SUB SUB DUP2 MSTORE SWAP1 PUSH1 0x40 MSTORE DUP1 MLOAD SWAP1 PUSH1 0x20 ADD KECCAK256 PUSH1 0x3 PUSH1 0x0 PUSH2 0xAB5 CALLER SWAP1 JUMP JUMPDEST PUSH1 0x1 PUSH1 0x1 PUSH1 0xA0 SHL SUB AND PUSH1 0x1 PUSH1 0x1 PUSH1 0xA0 SHL SUB AND DUP2 MSTORE PUSH1 0x20 ADD SWAP1 DUP2 MSTORE PUSH1 0x20 ADD PUSH1 0x0 KECCAK256 SLOAD EQ PUSH2 0xB19 JUMPI PUSH1 0x40 MLOAD PUSH3 0x461BCD PUSH1 0xE5 SHL DUP2 MSTORE PUSH1 0x20 PUSH1 0x4 DUP3 ADD MSTORE PUSH1 0x13 PUSH1 0x24 DUP3 ADD MSTORE PUSH19 0x90C2E6D0CAE640C8DE40DCDEE840DAC2E8C6D PUSH1 0x6B SHL PUSH1 0x44 DUP3 ADD MSTORE PUSH1 0x64 ADD PUSH2 0x493 JUMP JUMPDEST CALLER PUSH1 0x0 SWAP1 DUP2 MSTORE PUSH1 0x4 PUSH1 0x20 MSTORE PUSH1 0x40 SWAP1 KECCAK256 SSTORE POP JUMP JUMPDEST PUSH1 0x0 SLOAD PUSH1 0x1 PUSH1 0x1 PUSH1 0xA0 SHL SUB AND CALLER EQ PUSH2 0xB56 JUMPI PUSH1 0x40 MLOAD PUSH3 0x461BCD PUSH1 0xE5 SHL DUP2 MSTORE PUSH1 0x4 ADD PUSH2 0x493 SWAP1 PUSH2 0xFCA JUMP JUMPDEST PUSH1 0x1 PUSH1 0x1 PUSH1 0xA0 SHL SUB DUP2 AND PUSH2 0xBBB JUMPI PUSH1 0x40 MLOAD PUSH3 0x461BCD PUSH1 0xE5 SHL DUP2 MSTORE PUSH1 0x20 PUSH1 0x4 DUP3 ADD MSTORE PUSH1 0x26 PUSH1 0x24 DUP3 ADD MSTORE PUSH32 0x4F776E61626C653A206E6577206F776E657220697320746865207A65726F2061 PUSH1 0x44 DUP3 ADD MSTORE PUSH6 0x646472657373 PUSH1 0xD0 SHL PUSH1 0x64 DUP3 ADD MSTORE PUSH1 0x84 ADD PUSH2 0x493 JUMP JUMPDEST PUSH2 0xBC4 DUP2 PUSH2 0xBF1 JUMP JUMPDEST POP JUMP JUMPDEST PUSH1 0x1 DUP2 DUP2 SLOAD DUP2 LT PUSH2 0xBD7 JUMPI PUSH1 0x0 DUP1 REVERT JUMPDEST PUSH1 0x0 SWAP2 DUP3 MSTORE PUSH1 0x20 SWAP1 SWAP2 KECCAK256 ADD SLOAD PUSH1 0x1 PUSH1 0x1 PUSH1 0xA0 SHL SUB AND SWAP1 POP DUP2 JUMP JUMPDEST PUSH1 0x0 DUP1 SLOAD PUSH1 0x1 PUSH1 0x1 PUSH1 0xA0 SHL SUB DUP4 DUP2 AND PUSH1 0x1 PUSH1 0x1 PUSH1 0xA0 SHL SUB NOT DUP4 AND DUP2 OR DUP5 SSTORE PUSH1 0x40 MLOAD SWAP2 SWAP1 SWAP3 AND SWAP3 DUP4 SWAP2 PUSH32 0x8BE0079C531659141344CD1FD0A4F28419497F9722A3DAAFE3B4186F6B6457E0 SWAP2 SWAP1 LOG3 POP POP JUMP JUMPDEST PUSH1 0x0 SLOAD PUSH1 0x1 PUSH1 0x1 PUSH1 0xA0 SHL SUB AND CALLER EQ PUSH2 0xC6B JUMPI PUSH1 0x40 MLOAD PUSH3 0x461BCD PUSH1 0xE5 SHL DUP2 MSTORE PUSH1 0x4 ADD PUSH2 0x493 SWAP1 PUSH2 0xFCA JUMP JUMPDEST PUSH1 0x3 PUSH1 0xB SLOAD PUSH1 0xFF AND PUSH1 0x4 DUP2 GT ISZERO PUSH2 0xC84 JUMPI PUSH2 0xC84 PUSH2 0xF8C JUMP JUMPDEST EQ PUSH2 0xC8E JUMPI PUSH1 0x0 DUP1 REVERT JUMPDEST PUSH1 0x0 DUP1 PUSH1 0x0 JUMPDEST PUSH1 0x1 SLOAD DUP2 LT ISZERO PUSH2 0xD35 JUMPI DUP2 PUSH1 0x4 PUSH1 0x0 PUSH1 0x1 DUP5 DUP2 SLOAD DUP2 LT PUSH2 0xCB6 JUMPI PUSH2 0xCB6 PUSH2 0x1040 JUMP JUMPDEST PUSH1 0x0 SWAP2 DUP3 MSTORE PUSH1 0x20 DUP1 DUP4 KECCAK256 SWAP1 SWAP2 ADD SLOAD PUSH1 0x1 PUSH1 0x1 PUSH1 0xA0 SHL SUB AND DUP4 MSTORE DUP3 ADD SWAP3 SWAP1 SWAP3 MSTORE PUSH1 0x40 ADD SWAP1 KECCAK256 SLOAD GT ISZERO PUSH2 0xD23 JUMPI DUP1 SWAP3 POP PUSH1 0x4 PUSH1 0x0 PUSH1 0x1 DUP4 DUP2 SLOAD DUP2 LT PUSH2 0xCFB JUMPI PUSH2 0xCFB PUSH2 0x1040 JUMP JUMPDEST PUSH1 0x0 SWAP2 DUP3 MSTORE PUSH1 0x20 DUP1 DUP4 KECCAK256 SWAP1 SWAP2 ADD SLOAD PUSH1 0x1 PUSH1 0x1 PUSH1 0xA0 SHL SUB AND DUP4 MSTORE DUP3 ADD SWAP3 SWAP1 SWAP3 MSTORE PUSH1 0x40 ADD SWAP1 KECCAK256 SLOAD SWAP2 POP JUMPDEST DUP1 PUSH2 0xD2D DUP2 PUSH2 0x106C JUMP JUMPDEST SWAP2 POP POP PUSH2 0xC94 JUMP JUMPDEST PUSH1 0x8 SLOAD DUP3 LT PUSH2 0xDBD JUMPI PUSH1 0x1 DUP4 DUP2 SLOAD DUP2 LT PUSH2 0xD51 JUMPI PUSH2 0xD51 PUSH2 0x1040 JUMP JUMPDEST PUSH1 0x0 SWAP2 DUP3 MSTORE PUSH1 0x20 DUP1 DUP4 KECCAK256 SWAP1 SWAP2 ADD SLOAD PUSH1 0x5 DUP1 SLOAD PUSH1 0x1 PUSH1 0x1 PUSH1 0xA0 SHL SUB NOT AND PUSH1 0x1 PUSH1 0x1 PUSH1 0xA0 SHL SUB SWAP1 SWAP3 AND SWAP2 DUP3 OR SWAP1 SSTORE DUP3 MSTORE PUSH1 0x4 DUP2 MSTORE PUSH1 0x40 DUP1 DUP4 KECCAK256 SLOAD PUSH1 0x6 DUP2 SWAP1 SSTORE PUSH1 0x2 SWAP1 SWAP3 MSTORE SWAP1 SWAP2 KECCAK256 SLOAD PUSH2 0xDA1 SWAP2 SWAP1 PUSH2 0x1087 JUMP JUMPDEST PUSH1 0x5 SLOAD PUSH1 0x1 PUSH1 0x1 PUSH1 0xA0 SHL SUB AND PUSH1 0x0 SWAP1 DUP2 MSTORE PUSH1 0x2 PUSH1 0x20 MSTORE PUSH1 0x40 SWAP1 KECCAK256 SSTORE JUMPDEST POP POP PUSH1 0xB DUP1 SLOAD PUSH1 0xFF NOT AND PUSH1 0x4 OR SWAP1 SSTORE POP JUMP JUMPDEST PUSH1 0x0 PUSH1 0x20 DUP3 DUP5 SUB SLT ISZERO PUSH2 0xDE1 JUMPI PUSH1 0x0 DUP1 REVERT JUMPDEST POP CALLDATALOAD SWAP2 SWAP1 POP JUMP JUMPDEST DUP1 CALLDATALOAD PUSH1 0x1 PUSH1 0x1 PUSH1 0xA0 SHL SUB DUP2 AND DUP2 EQ PUSH2 0xDFF JUMPI PUSH1 0x0 DUP1 REVERT JUMPDEST SWAP2 SWAP1 POP JUMP JUMPDEST PUSH1 0x0 DUP1 PUSH1 0x0 DUP1 PUSH1 0x0 PUSH1 0x80 DUP7 DUP9 SUB SLT ISZERO PUSH2 0xE1C JUMPI PUSH1 0x0 DUP1 REVERT JUMPDEST PUSH2 0xE25 DUP7 PUSH2 0xDE8 JUMP JUMPDEST SWAP5 POP PUSH2 0xE33 PUSH1 0x20 DUP8 ADD PUSH2 0xDE8 JUMP JUMPDEST SWAP4 POP PUSH1 0x40 DUP7 ADD CALLDATALOAD SWAP3 POP PUSH1 0x60 DUP7 ADD CALLDATALOAD PUSH8 0xFFFFFFFFFFFFFFFF DUP1 DUP3 GT ISZERO PUSH2 0xE57 JUMPI PUSH1 0x0 DUP1 REVERT JUMPDEST DUP2 DUP9 ADD SWAP2 POP DUP9 PUSH1 0x1F DUP4 ADD SLT PUSH2 0xE6B JUMPI PUSH1 0x0 DUP1 REVERT JUMPDEST DUP2 CALLDATALOAD DUP2 DUP2 GT ISZERO PUSH2 0xE7A JUMPI PUSH1 0x0 DUP1 REVERT JUMPDEST DUP10 PUSH1 0x20 DUP3 DUP6 ADD ADD GT ISZERO PUSH2 0xE8C JUMPI PUSH1 0x0 DUP1 REVERT JUMPDEST SWAP7 SWAP10 SWAP6 SWAP9 POP SWAP4 SWAP7 POP PUSH1 0x20 ADD SWAP5 SWAP4 SWAP3 POP POP POP JUMP JUMPDEST PUSH1 0x0 PUSH1 0x20 DUP3 DUP5 SUB SLT ISZERO PUSH2 0xEB1 JUMPI PUSH1 0x0 DUP1 REVERT JUMPDEST PUSH2 0xEBA DUP3 PUSH2 0xDE8 JUMP JUMPDEST SWAP4 SWAP3 POP POP POP JUMP JUMPDEST PUSH4 0x4E487B71 PUSH1 0xE0 SHL PUSH1 0x0 MSTORE PUSH1 0x41 PUSH1 0x4 MSTORE PUSH1 0x24 PUSH1 0x0 REVERT JUMPDEST PUSH1 0x0 DUP1 PUSH1 0x40 DUP4 DUP6 SUB SLT ISZERO PUSH2 0xEEA JUMPI PUSH1 0x0 DUP1 REVERT JUMPDEST DUP3 CALLDATALOAD PUSH8 0xFFFFFFFFFFFFFFFF DUP1 DUP3 GT ISZERO PUSH2 0xF02 JUMPI PUSH1 0x0 DUP1 REVERT JUMPDEST DUP2 DUP6 ADD SWAP2 POP DUP6 PUSH1 0x1F DUP4 ADD SLT PUSH2 0xF16 JUMPI PUSH1 0x0 DUP1 REVERT JUMPDEST DUP2 CALLDATALOAD DUP2 DUP2 GT ISZERO PUSH2 0xF28 JUMPI PUSH2 0xF28 PUSH2 0xEC1 JUMP JUMPDEST PUSH1 0x40 MLOAD PUSH1 0x1F DUP3 ADD PUSH1 0x1F NOT SWAP1 DUP2 AND PUSH1 0x3F ADD AND DUP2 ADD SWAP1 DUP4 DUP3 GT DUP2 DUP4 LT OR ISZERO PUSH2 0xF50 JUMPI PUSH2 0xF50 PUSH2 0xEC1 JUMP JUMPDEST DUP2 PUSH1 0x40 MSTORE DUP3 DUP2 MSTORE DUP9 PUSH1 0x20 DUP5 DUP8 ADD ADD GT ISZERO PUSH2 0xF69 JUMPI PUSH1 0x0 DUP1 REVERT JUMPDEST DUP3 PUSH1 0x20 DUP7 ADD PUSH1 0x20 DUP4 ADD CALLDATACOPY PUSH1 0x0 PUSH1 0x20 SWAP4 DUP3 ADD DUP5 ADD MSTORE SWAP9 SWAP7 SWAP1 SWAP2 ADD CALLDATALOAD SWAP7 POP POP POP POP POP POP JUMP JUMPDEST PUSH4 0x4E487B71 PUSH1 0xE0 SHL PUSH1 0x0 MSTORE PUSH1 0x21 PUSH1 0x4 MSTORE PUSH1 0x24 PUSH1 0x0 REVERT JUMPDEST PUSH1 0x20 DUP2 ADD PUSH1 0x5 DUP4 LT PUSH2 0xFC4 JUMPI PUSH4 0x4E487B71 PUSH1 0xE0 SHL PUSH1 0x0 MSTORE PUSH1 0x21 PUSH1 0x4 MSTORE PUSH1 0x24 PUSH1 0x0 REVERT JUMPDEST SWAP2 SWAP1 MSTORE SWAP1 JUMP JUMPDEST PUSH1 0x20 DUP1 DUP3 MSTORE DUP2 DUP2 ADD MSTORE PUSH32 0x4F776E61626C653A2063616C6C6572206973206E6F7420746865206F776E6572 PUSH1 0x40 DUP3 ADD MSTORE PUSH1 0x60 ADD SWAP1 JUMP JUMPDEST PUSH1 0x0 DUP4 MLOAD PUSH1 0x0 JUMPDEST DUP2 DUP2 LT ISZERO PUSH2 0x1020 JUMPI PUSH1 0x20 DUP2 DUP8 ADD DUP2 ADD MLOAD DUP6 DUP4 ADD MSTORE ADD PUSH2 0x1006 JUMP JUMPDEST DUP2 DUP2 GT ISZERO PUSH2 0x102F JUMPI PUSH1 0x0 DUP3 DUP6 ADD MSTORE JUMPDEST POP SWAP2 SWAP1 SWAP2 ADD SWAP2 DUP3 MSTORE POP PUSH1 0x20 ADD SWAP2 SWAP1 POP JUMP JUMPDEST PUSH4 0x4E487B71 PUSH1 0xE0 SHL PUSH1 0x0 MSTORE PUSH1 0x32 PUSH1 0x4 MSTORE PUSH1 0x24 PUSH1 0x0 REVERT JUMPDEST PUSH4 0x4E487B71 PUSH1 0xE0 SHL PUSH1 0x0 MSTORE PUSH1 0x11 PUSH1 0x4 MSTORE PUSH1 0x24 PUSH1 0x0 REVERT JUMPDEST PUSH1 0x0 PUSH1 0x0 NOT DUP3 EQ ISZERO PUSH2 0x1080 JUMPI PUSH2 0x1080 PUSH2 0x1056 JUMP JUMPDEST POP PUSH1 0x1 ADD SWAP1 JUMP JUMPDEST PUSH1 0x0 DUP3 DUP3 LT ISZERO PUSH2 0x1099 JUMPI PUSH2 0x1099 PUSH2 0x1056 JUMP JUMPDEST POP SUB SWAP1 JUMP INVALID LOG2 PUSH5 0x6970667358 0x22 SLT KECCAK256 PUSH4 0x4E131DBA DUP11 PUSH28 0xF1CFFB34EBBCB9C6A44A80A7F3874A7BDB670A0D177AAB7A9F64736F PUSH13 0x634300080C0033000000000000 ","sha1":"decf756784c2ec28f4de4b2de80784d8935bbea5","source":"// SPDX-License-Identifier: MIT\n\npragma solidity ^0.8.0;\n\nimport \"@openzeppelin/contracts/access/Ownable.sol\";\nimport \"@openzeppelin/contracts/token/ERC721/IERC721.sol\";\nimport \"@openzeppelin/contracts/token/ERC721/IERC721Receiver.sol\";\n\ncontract SealedBidAuction is Ownable, IERC721Receiver {\n\n\n    address[] public players; // Para poder regresar x a los que no ganan\n\n    mapping(address => uint256) public accountToAmount;\n    mapping(address => bytes32) public accountToHash;\n    mapping(address => uint256) public accountToOffer;\n\n    address public winner;\n    uint256 public amount;\n    bytes32 public minimumPriceHash;\n    uint256 public minimumPrice;\n\n    IERC721 public parentNFT;\n    uint256 public tokenId;\n\n    enum AUCTION_STATE{\n        CONTRACT_CREATION,\n        RECIVEING_OFFERS,\n        OFFER_REVEAL,\n        CALCULATING_WINNER,\n        AUCTION_ENDED\n    }\n\n    AUCTION_STATE public auction_state;\n\n    constructor(bytes32 _minimumPriceHash, address _nftContract, uint256 _tokenId) {\n        auction_state = AUCTION_STATE.CONTRACT_CREATION;\n        minimumPriceHash = _minimumPriceHash;\n        parentNFT = IERC721(_nftContract);\n        tokenId = _tokenId;\n    }\n\n    function transferAssetToContract() public onlyOwner{\n        parentNFT.safeTransferFrom(_msgSender(), address(this), tokenId);\n        auction_state = AUCTION_STATE.RECIVEING_OFFERS;\n    }\n\n    \n    function makeOffer(bytes32 _hash) public virtual payable{\n        require(auction_state == AUCTION_STATE.RECIVEING_OFFERS);\n        require(_msgSender() != owner(), \"Owner cant bid\");\n        require(msg.value > 0, \"Need some ETH\");\n        require(accountToAmount[_msgSender()] == 0, \"Cant bid twice\"); // New participant.\n        //event\n        players.push(payable(_msgSender()));\n        //event\n        accountToAmount[_msgSender()] = msg.value;\n        //event\n        accountToHash[_msgSender()] = _hash;\n    }\n\n    function closeOffers() public onlyOwner {\n        require(auction_state == AUCTION_STATE.RECIVEING_OFFERS);\n        auction_state = AUCTION_STATE.OFFER_REVEAL;\n    }\n\n    // Cambiale el nombre y pega el close reveals a final del metodo. Te mamas \n    function winnerCalculation(string memory _secret, uint256 _amount) public onlyOwner {\n        require(auction_state == AUCTION_STATE.OFFER_REVEAL);\n        require(\n            minimumPriceHash == keccak256(\n                abi.encodePacked(\n                    _secret,\n                    _amount\n                )\n            ), \"Hashes do not match\"\n        );\n        minimumPrice = _amount;\n        auction_state = AUCTION_STATE.CALCULATING_WINNER;\n        _closeReveals();\n    }\n\n    function revealOffer(string memory _secret, uint256 _amount) public virtual{\n        require(auction_state == AUCTION_STATE.OFFER_REVEAL, \"Not right time\");\n        require(accountToAmount[_msgSender()] != 0, \"You are not a participant\"); // Participant\n        require(accountToOffer[_msgSender()] == 0, \"Can only reveal once\"); // No retrys\n        require(_amount <= accountToAmount[_msgSender()], \"Offer invalidated\"); \n        require(\n            accountToHash[_msgSender()] == keccak256(\n                abi.encodePacked(\n                    _secret,\n                    _amount\n                )\n            ), \"Hashes do not match\"\n        ); // Hash match\n        //event\n        accountToOffer[_msgSender()] = _amount;\n    }\n    //Funcion para recibir el precio minimo\n\n    function _closeReveals() internal onlyOwner { //internal\n        // Verifia que el precio minimo este puesto. \n        require(auction_state == AUCTION_STATE.CALCULATING_WINNER);\n        uint256 indexOfWinner;\n        uint256 loopAmount;\n        uint256 i;\n        for(i = 0; i < players.length; i++){\n            if(accountToOffer[players[i]] > loopAmount){\n                indexOfWinner = i;\n                loopAmount = accountToOffer[players[i]];\n            }\n    \n        }\n        if(loopAmount >= minimumPrice){\n            winner = players[indexOfWinner];\n            amount = accountToOffer[winner];\n            // Quito lo ofrecido al que gana\n            accountToAmount[winner] = accountToAmount[winner] - accountToOffer[winner];\n        }\n        auction_state = AUCTION_STATE.AUCTION_ENDED;\n    }\n\n    function ownerGetsPayed() public onlyOwner{\n        require(auction_state == AUCTION_STATE.AUCTION_ENDED);\n        if(amount > 0){\n            uint256 toPay = amount;\n            amount = 0; //No reentrancy\n            payable(owner()).transfer(toPay);\n        }else{\n            // Nadie gana entonces regresa NFT al que crea subasta.\n            parentNFT.safeTransferFrom(address(this), _msgSender(), tokenId);\n        }\n    }\n\n    function reiburseParticipant() public{\n        // Tenga saldo positivo\n        uint256 reimbursement = accountToAmount[_msgSender()];\n        require(reimbursement > 0);\n        accountToAmount[_msgSender()] = 0; // no reent\n        payable(_msgSender()).transfer(reimbursement);\n    }\n\n    function winnerRetrivesToken() public{\n        require(_msgSender() == winner);\n        parentNFT.safeTransferFrom(address(this), _msgSender(), tokenId);\n    }\n\n    function onERC721Received(\n        address operator,\n        address from,\n        uint256 tokenId,\n        bytes calldata data\n    ) public virtual override returns (bytes4){\n         return this.onERC721Received.selector;\n    }\n}","sourcePath":"contracts/SealedBidAuction.sol","type":"contract","deployment":{"address":"0x6DeA4Da2E0a9e8F2782ec58dc95bC08Cb6bd4c32","chainid":"4","blockHeight":10564454}}