{"abi":[{"inputs":[{"internalType":"bytes32","name":"_minimumPriceHash","type":"bytes32"},{"internalType":"address","name":"_nftContract","type":"address"},{"internalType":"uint256","name":"_tokenId","type":"uint256"}],"stateMutability":"nonpayable","type":"constructor","name":"constructor"},{"anonymous":false,"inputs":[{"indexed":true,"internalType":"address","name":"previousOwner","type":"address"},{"indexed":true,"internalType":"address","name":"newOwner","type":"address"}],"name":"OwnershipTransferred","type":"event"},{"inputs":[{"internalType":"address","name":"","type":"address"}],"name":"accountToAmount","outputs":[{"internalType":"uint256","name":"","type":"uint256"}],"stateMutability":"view","type":"function"},{"inputs":[{"internalType":"address","name":"","type":"address"}],"name":"accountToHash","outputs":[{"internalType":"bytes32","name":"","type":"bytes32"}],"stateMutability":"view","type":"function"},{"inputs":[{"internalType":"address","name":"","type":"address"}],"name":"accountToOffer","outputs":[{"internalType":"uint256","name":"","type":"uint256"}],"stateMutability":"view","type":"function"},{"inputs":[],"name":"amount","outputs":[{"internalType":"uint256","name":"","type":"uint256"}],"stateMutability":"view","type":"function"},{"inputs":[],"name":"auction_state","outputs":[{"internalType":"enum SealedBidAuction.AUCTION_STATE","name":"","type":"uint8"}],"stateMutability":"view","type":"function"},{"inputs":[],"name":"closeOffers","outputs":[],"stateMutability":"nonpayable","type":"function"},{"inputs":[],"name":"closeReveals","outputs":[],"stateMutability":"nonpayable","type":"function"},{"inputs":[{"internalType":"bytes32","name":"_hash","type":"bytes32"}],"name":"makeOffer","outputs":[],"stateMutability":"payable","type":"function"},{"inputs":[],"name":"minimumPrice","outputs":[{"internalType":"uint256","name":"","type":"uint256"}],"stateMutability":"view","type":"function"},{"inputs":[],"name":"minimumPriceHash","outputs":[{"internalType":"bytes32","name":"","type":"bytes32"}],"stateMutability":"view","type":"function"},{"inputs":[{"internalType":"address","name":"operator","type":"address"},{"internalType":"address","name":"from","type":"address"},{"internalType":"uint256","name":"tokenId","type":"uint256"},{"internalType":"bytes","name":"data","type":"bytes"}],"name":"onERC721Received","outputs":[{"internalType":"bytes4","name":"","type":"bytes4"}],"stateMutability":"nonpayable","type":"function"},{"inputs":[],"name":"owner","outputs":[{"internalType":"address","name":"","type":"address"}],"stateMutability":"view","type":"function"},{"inputs":[],"name":"ownerGetsPayed","outputs":[],"stateMutability":"nonpayable","type":"function"},{"inputs":[],"name":"parentNFT","outputs":[{"internalType":"contract IERC721","name":"","type":"address"}],"stateMutability":"view","type":"function"},{"inputs":[{"internalType":"uint256","name":"","type":"uint256"}],"name":"players","outputs":[{"internalType":"address","name":"","type":"address"}],"stateMutability":"view","type":"function"},{"inputs":[],"name":"reiburseParticipant","outputs":[],"stateMutability":"nonpayable","type":"function"},{"inputs":[],"name":"renounceOwnership","outputs":[],"stateMutability":"nonpayable","type":"function"},{"inputs":[{"internalType":"string","name":"_secret","type":"string"},{"internalType":"uint256","name":"_amount","type":"uint256"}],"name":"revealOffer","outputs":[],"stateMutability":"nonpayable","type":"function"},{"inputs":[],"name":"tokenId","outputs":[{"internalType":"uint256","name":"","type":"uint256"}],"stateMutability":"view","type":"function"},{"inputs":[],"name":"transferAssetToContract","outputs":[],"stateMutability":"nonpayable","type":"function"},{"inputs":[{"internalType":"address","name":"newOwner","type":"address"}],"name":"transferOwnership","outputs":[],"stateMutability":"nonpayable","type":"function"},{"inputs":[],"name":"winner","outputs":[{"internalType":"address","name":"","type":"address"}],"stateMutability":"view","type":"function"},{"inputs":[{"internalType":"string","name":"_secret","type":"string"},{"internalType":"uint256","name":"_amount","type":"uint256"}],"name":"winnerCalculation","outputs":[],"stateMutability":"nonpayable","type":"function"},{"inputs":[],"name":"winnerRetrivesToken","outputs":[],"stateMutability":"nonpayable","type":"function"}],"bytecode":"608060405234801561001057600080fd5b5060405161120238038061120283398101604081905261002f916100c0565b61003833610070565b600b805460ff19169055600792909255600980546001600160a01b0319166001600160a01b0392909216919091179055600a55610106565b600080546001600160a01b038381166001600160a01b0319831681178455604051919092169283917f8be0079c531659141344cd1fd0a4f28419497f9722a3daafe3b4186f6b6457e09190a35050565b6000806000606084860312156100d557600080fd5b835160208501519093506001600160a01b03811681146100f457600080fd5b80925050604084015190509250925092565b6110ed806101156000396000f3fe60806040526004361061014b5760003560e01c80638da5cb5b116100b6578063d7ee3c791161006f578063d7ee3c791461038b578063dfbf53ae146103ab578063e8a5acee146103cb578063f2fde38b146103e1578063f71d96cb14610401578063f9688bc11461042157600080fd5b80638da5cb5b146102d9578063a27dc3321461030b578063aa8c217c14610320578063b6f1ad5b14610336578063b8e33fb21461034b578063d5b19df51461036b57600080fd5b8063715018a611610108578063715018a61461024257806374328b1c146102575780637f386b6c1461026c578063825d63221461028257806389a694dd146102975780638ab9e911146102c457600080fd5b8063051e152414610150578063150b7a021461016557806317d70f7c146101af57806335fe2d7f146101d3578063391073811461020057806364b4d42814610215575b600080fd5b61016361015e366004610de8565b610448565b005b34801561017157600080fd5b50610191610180366004610e1d565b630a85bd0160e11b95945050505050565b6040516001600160e01b031990911681526020015b60405180910390f35b3480156101bb57600080fd5b506101c5600a5481565b6040519081526020016101a6565b3480156101df57600080fd5b506101c56101ee366004610eb8565b60046020526000908152604090205481565b34801561020c57600080fd5b506101636105a7565b34801561022157600080fd5b506101c5610230366004610eb8565b60036020526000908152604090205481565b34801561024e57600080fd5b506101636106d3565b34801561026357600080fd5b50610163610707565b34801561027857600080fd5b506101c560085481565b34801561028e57600080fd5b506101636107c1565b3480156102a357600080fd5b506101c56102b2366004610eb8565b60026020526000908152604090205481565b3480156102d057600080fd5b5061016361094f565b3480156102e557600080fd5b506000546001600160a01b03165b6040516001600160a01b0390911681526020016101a6565b34801561031757600080fd5b506101636109b0565b34801561032c57600080fd5b506101c560065481565b34801561034257600080fd5b506101636109df565b34801561035757600080fd5b506009546102f3906001600160a01b031681565b34801561037757600080fd5b50610163610386366004610ef0565b6109ff565b34801561039757600080fd5b506101636103a6366004610ef0565b610ace565b3480156103b757600080fd5b506005546102f3906001600160a01b031681565b3480156103d757600080fd5b506101c560075481565b3480156103ed57600080fd5b506101636103fc366004610eb8565b610cd3565b34801561040d57600080fd5b506102f361041c366004610de8565b610d6e565b34801561042d57600080fd5b50600b5461043b9060ff1681565b6040516101a69190610fbb565b6001600b5460ff16600481111561046157610461610fa5565b1461046b57600080fd5b6000546001600160a01b03163314156104bc5760405162461bcd60e51b815260206004820152600e60248201526d13dddb995c8818d85b9d08189a5960921b60448201526064015b60405180910390fd5b600034116104fc5760405162461bcd60e51b815260206004820152600d60248201526c09ccacac840e6dedaca408aa89609b1b60448201526064016104b3565b336000908152600260205260409020541561054a5760405162461bcd60e51b815260206004820152600e60248201526d43616e742062696420747769636560901b60448201526064016104b3565b600180548082019091557fb10e2d527612073b26eecdfd717e6a320cf44b4afac2b0732d9fcbe2b7fa0cf60180546001600160a01b0319163390811790915560009081526002602090815260408083203490556003909152902055565b6000546001600160a01b031633146105d15760405162461bcd60e51b81526004016104b390610fe3565b6004600b5460ff1660048111156105ea576105ea610fa5565b146105f457600080fd5b60065415610653576006805460009091556106176000546001600160a01b031690565b6001600160a01b03166108fc829081150290604051600060405180830381858888f1935050505015801561064f573d6000803e3d6000fd5b5050565b6009546001600160a01b03166342842e0e3033600a546040516001600160e01b031960e086901b1681526001600160a01b0393841660048201529290911660248301526044820152606401600060405180830381600087803b1580156106b857600080fd5b505af11580156106cc573d6000803e3d6000fd5b505050505b565b6000546001600160a01b031633146106fd5760405162461bcd60e51b81526004016104b390610fe3565b6106d16000610d98565b6000546001600160a01b031633146107315760405162461bcd60e51b81526004016104b390610fe3565b6009546001600160a01b03166342842e0e33600a546040516001600160e01b031960e085901b1681526001600160a01b0390921660048301523060248301526044820152606401600060405180830381600087803b15801561079257600080fd5b505af11580156107a6573d6000803e3d6000fd5b5050600b80546001935090915060ff191682805b0217905550565b6000546001600160a01b031633146107eb5760405162461bcd60e51b81526004016104b390610fe3565b6003600b5460ff16600481111561080457610804610fa5565b1461080e57600080fd5b60008060005b6001548110156108b55781600460006001848154811061083657610836611018565b60009182526020808320909101546001600160a01b0316835282019290925260400190205411156108a357809250600460006001838154811061087b5761087b611018565b60009182526020808320909101546001600160a01b0316835282019290925260400190205491505b806108ad81611044565b915050610814565b600854821061093d57600183815481106108d1576108d1611018565b6000918252602080832090910154600580546001600160a01b0319166001600160a01b0390921691821790558252600481526040808320546006819055600290925290912054610921919061105f565b6005546001600160a01b03166000908152600260205260409020555b5050600b805460ff1916600417905550565b6000546001600160a01b031633146109795760405162461bcd60e51b81526004016104b390610fe3565b6001600b5460ff16600481111561099257610992610fa5565b1461099c57600080fd5b600b80546002919060ff19166001836107ba565b33600090815260026020526040902054806109ca57600080fd5b33600081815260026020526040812055610617565b6005546001600160a01b0316336001600160a01b03161461065357600080fd5b6000546001600160a01b03163314610a295760405162461bcd60e51b81526004016104b390610fe3565b6002600b5460ff166004811115610a4257610a42610fa5565b14610a4c57600080fd5b8181604051602001610a5f929190611076565b6040516020818303038152906040528051906020012060075414610abb5760405162461bcd60e51b8152602060048201526013602482015272090c2e6d0cae640c8de40dcdee840dac2e8c6d606b1b60448201526064016104b3565b60085550600b805460ff19166003179055565b6002600b5460ff166004811115610ae757610ae7610fa5565b14610b255760405162461bcd60e51b815260206004820152600e60248201526d4e6f742072696768742074696d6560901b60448201526064016104b3565b33600090815260026020526040902054610b815760405162461bcd60e51b815260206004820152601960248201527f596f7520617265206e6f742061207061727469636970616e740000000000000060448201526064016104b3565b3360009081526004602052604090205415610bd55760405162461bcd60e51b815260206004820152601460248201527343616e206f6e6c792072657665616c206f6e636560601b60448201526064016104b3565b33600090815260026020526040902054811115610c285760405162461bcd60e51b815260206004820152601160248201527013d999995c881a5b9d985b1a59185d1959607a1b60448201526064016104b3565b8181604051602001610c3b929190611076565b6040516020818303038152906040528051906020012060036000610c5c3390565b6001600160a01b03166001600160a01b031681526020019081526020016000205414610cc05760405162461bcd60e51b8152602060048201526013602482015272090c2e6d0cae640c8de40dcdee840dac2e8c6d606b1b60448201526064016104b3565b3360009081526004602052604090205550565b6000546001600160a01b03163314610cfd5760405162461bcd60e51b81526004016104b390610fe3565b6001600160a01b038116610d625760405162461bcd60e51b815260206004820152602660248201527f4f776e61626c653a206e6577206f776e657220697320746865207a65726f206160448201526564647265737360d01b60648201526084016104b3565b610d6b81610d98565b50565b60018181548110610d7e57600080fd5b6000918252602090912001546001600160a01b0316905081565b600080546001600160a01b038381166001600160a01b0319831681178455604051919092169283917f8be0079c531659141344cd1fd0a4f28419497f9722a3daafe3b4186f6b6457e09190a35050565b600060208284031215610dfa57600080fd5b5035919050565b80356001600160a01b0381168114610e1857600080fd5b919050565b600080600080600060808688031215610e3557600080fd5b610e3e86610e01565b9450610e4c60208701610e01565b935060408601359250606086013567ffffffffffffffff80821115610e7057600080fd5b818801915088601f830112610e8457600080fd5b813581811115610e9357600080fd5b896020828501011115610ea557600080fd5b9699959850939650602001949392505050565b600060208284031215610eca57600080fd5b610ed382610e01565b9392505050565b634e487b7160e01b600052604160045260246000fd5b60008060408385031215610f0357600080fd5b823567ffffffffffffffff80821115610f1b57600080fd5b818501915085601f830112610f2f57600080fd5b813581811115610f4157610f41610eda565b604051601f8201601f19908116603f01168101908382118183101715610f6957610f69610eda565b81604052828152886020848701011115610f8257600080fd5b826020860160208301376000602093820184015298969091013596505050505050565b634e487b7160e01b600052602160045260246000fd5b6020810160058310610fdd57634e487b7160e01b600052602160045260246000fd5b91905290565b6020808252818101527f4f776e61626c653a2063616c6c6572206973206e6f7420746865206f776e6572604082015260600190565b634e487b7160e01b600052603260045260246000fd5b634e487b7160e01b600052601160045260246000fd5b60006000198214156110585761105861102e565b5060010190565b6000828210156110715761107161102e565b500390565b6000835160005b81811015611097576020818701810151858301520161107d565b818111156110a6576000828501525b50919091019182525060200191905056fea26469706673582212209211ed6c694067d635831e22e8e37e5e269766264c02f7c3b780e78226a5149264736f6c634300080c0033","bytecodeSha1":"a49737e767f92b17a44ae25f26664d69417ed86e","compiler":{"evm_version":"istanbul","optimizer":{"enabled":true,"runs":200},"version":"0.8.12+commit.f00d7308"},"contractName":"SealedBidAuction","language":"Solidity","natspec":{"kind":"dev","methods":{"onERC721Received(address,address,uint256,bytes)":{"details":"Whenever an {IERC721} `tokenId` token is transferred to this contract via {IERC721-safeTransferFrom} by `operator` from `from`, this function is called. It must return its Solidity selector to confirm the token transfer. If any other value is returned or the interface is not implemented by the recipient, the transfer will be reverted. The selector can be obtained in Solidity with `IERC721.onERC721Received.selector`."},"owner()":{"details":"Returns the address of the current owner."},"renounceOwnership()":{"details":"Leaves the contract without owner. It will not be possible to call `onlyOwner` functions anymore. Can only be called by the current owner. NOTE: Renouncing ownership will leave the contract without an owner, thereby removing any functionality that is only available to the owner."},"transferOwnership(address)":{"details":"Transfers ownership of the contract to a new account (`newOwner`). Can only be called by the current owner."}},"version":1},"opcodes":"PUSH1 0x80 PUSH1 0x40 MSTORE PUSH1 0x4 CALLDATASIZE LT PUSH2 0x14B JUMPI PUSH1 0x0 CALLDATALOAD PUSH1 0xE0 SHR DUP1 PUSH4 0x8DA5CB5B GT PUSH2 0xB6 JUMPI DUP1 PUSH4 0xD7EE3C79 GT PUSH2 0x6F JUMPI DUP1 PUSH4 0xD7EE3C79 EQ PUSH2 0x38B JUMPI DUP1 PUSH4 0xDFBF53AE EQ PUSH2 0x3AB JUMPI DUP1 PUSH4 0xE8A5ACEE EQ PUSH2 0x3CB JUMPI DUP1 PUSH4 0xF2FDE38B EQ PUSH2 0x3E1 JUMPI DUP1 PUSH4 0xF71D96CB EQ PUSH2 0x401 JUMPI DUP1 PUSH4 0xF9688BC1 EQ PUSH2 0x421 JUMPI PUSH1 0x0 DUP1 REVERT JUMPDEST DUP1 PUSH4 0x8DA5CB5B EQ PUSH2 0x2D9 JUMPI DUP1 PUSH4 0xA27DC332 EQ PUSH2 0x30B JUMPI DUP1 PUSH4 0xAA8C217C EQ PUSH2 0x320 JUMPI DUP1 PUSH4 0xB6F1AD5B EQ PUSH2 0x336 JUMPI DUP1 PUSH4 0xB8E33FB2 EQ PUSH2 0x34B JUMPI DUP1 PUSH4 0xD5B19DF5 EQ PUSH2 0x36B JUMPI PUSH1 0x0 DUP1 REVERT JUMPDEST DUP1 PUSH4 0x715018A6 GT PUSH2 0x108 JUMPI DUP1 PUSH4 0x715018A6 EQ PUSH2 0x242 JUMPI DUP1 PUSH4 0x74328B1C EQ PUSH2 0x257 JUMPI DUP1 PUSH4 0x7F386B6C EQ PUSH2 0x26C JUMPI DUP1 PUSH4 0x825D6322 EQ PUSH2 0x282 JUMPI DUP1 PUSH4 0x89A694DD EQ PUSH2 0x297 JUMPI DUP1 PUSH4 0x8AB9E911 EQ PUSH2 0x2C4 JUMPI PUSH1 0x0 DUP1 REVERT JUMPDEST DUP1 PUSH4 0x51E1524 EQ PUSH2 0x150 JUMPI DUP1 PUSH4 0x150B7A02 EQ PUSH2 0x165 JUMPI DUP1 PUSH4 0x17D70F7C EQ PUSH2 0x1AF JUMPI DUP1 PUSH4 0x35FE2D7F EQ PUSH2 0x1D3 JUMPI DUP1 PUSH4 0x39107381 EQ PUSH2 0x200 JUMPI DUP1 PUSH4 0x64B4D428 EQ PUSH2 0x215 JUMPI JUMPDEST PUSH1 0x0 DUP1 REVERT JUMPDEST PUSH2 0x163 PUSH2 0x15E CALLDATASIZE PUSH1 0x4 PUSH2 0xDE8 JUMP JUMPDEST PUSH2 0x448 JUMP JUMPDEST STOP JUMPDEST CALLVALUE DUP1 ISZERO PUSH2 0x171 JUMPI PUSH1 0x0 DUP1 REVERT JUMPDEST POP PUSH2 0x191 PUSH2 0x180 CALLDATASIZE PUSH1 0x4 PUSH2 0xE1D JUMP JUMPDEST PUSH4 0xA85BD01 PUSH1 0xE1 SHL SWAP6 SWAP5 POP POP POP POP POP JUMP JUMPDEST PUSH1 0x40 MLOAD PUSH1 0x1 PUSH1 0x1 PUSH1 0xE0 SHL SUB NOT SWAP1 SWAP2 AND DUP2 MSTORE PUSH1 0x20 ADD JUMPDEST PUSH1 0x40 MLOAD DUP1 SWAP2 SUB SWAP1 RETURN JUMPDEST CALLVALUE DUP1 ISZERO PUSH2 0x1BB JUMPI PUSH1 0x0 DUP1 REVERT JUMPDEST POP PUSH2 0x1C5 PUSH1 0xA SLOAD DUP2 JUMP JUMPDEST PUSH1 0x40 MLOAD SWAP1 DUP2 MSTORE PUSH1 0x20 ADD PUSH2 0x1A6 JUMP JUMPDEST CALLVALUE DUP1 ISZERO PUSH2 0x1DF JUMPI PUSH1 0x0 DUP1 REVERT JUMPDEST POP PUSH2 0x1C5 PUSH2 0x1EE CALLDATASIZE PUSH1 0x4 PUSH2 0xEB8 JUMP JUMPDEST PUSH1 0x4 PUSH1 0x20 MSTORE PUSH1 0x0 SWAP1 DUP2 MSTORE PUSH1 0x40 SWAP1 KECCAK256 SLOAD DUP2 JUMP JUMPDEST CALLVALUE DUP1 ISZERO PUSH2 0x20C JUMPI PUSH1 0x0 DUP1 REVERT JUMPDEST POP PUSH2 0x163 PUSH2 0x5A7 JUMP JUMPDEST CALLVALUE DUP1 ISZERO PUSH2 0x221 JUMPI PUSH1 0x0 DUP1 REVERT JUMPDEST POP PUSH2 0x1C5 PUSH2 0x230 CALLDATASIZE PUSH1 0x4 PUSH2 0xEB8 JUMP JUMPDEST PUSH1 0x3 PUSH1 0x20 MSTORE PUSH1 0x0 SWAP1 DUP2 MSTORE PUSH1 0x40 SWAP1 KECCAK256 SLOAD DUP2 JUMP JUMPDEST CALLVALUE DUP1 ISZERO PUSH2 0x24E JUMPI PUSH1 0x0 DUP1 REVERT JUMPDEST POP PUSH2 0x163 PUSH2 0x6D3 JUMP JUMPDEST CALLVALUE DUP1 ISZERO PUSH2 0x263 JUMPI PUSH1 0x0 DUP1 REVERT JUMPDEST POP PUSH2 0x163 PUSH2 0x707 JUMP JUMPDEST CALLVALUE DUP1 ISZERO PUSH2 0x278 JUMPI PUSH1 0x0 DUP1 REVERT JUMPDEST POP PUSH2 0x1C5 PUSH1 0x8 SLOAD DUP2 JUMP JUMPDEST CALLVALUE DUP1 ISZERO PUSH2 0x28E JUMPI PUSH1 0x0 DUP1 REVERT JUMPDEST POP PUSH2 0x163 PUSH2 0x7C1 JUMP JUMPDEST CALLVALUE DUP1 ISZERO PUSH2 0x2A3 JUMPI PUSH1 0x0 DUP1 REVERT JUMPDEST POP PUSH2 0x1C5 PUSH2 0x2B2 CALLDATASIZE PUSH1 0x4 PUSH2 0xEB8 JUMP JUMPDEST PUSH1 0x2 PUSH1 0x20 MSTORE PUSH1 0x0 SWAP1 DUP2 MSTORE PUSH1 0x40 SWAP1 KECCAK256 SLOAD DUP2 JUMP JUMPDEST CALLVALUE DUP1 ISZERO PUSH2 0x2D0 JUMPI PUSH1 0x0 DUP1 REVERT JUMPDEST POP PUSH2 0x163 PUSH2 0x94F JUMP JUMPDEST CALLVALUE DUP1 ISZERO PUSH2 0x2E5 JUMPI PUSH1 0x0 DUP1 REVERT JUMPDEST POP PUSH1 0x0 SLOAD PUSH1 0x1 PUSH1 0x1 PUSH1 0xA0 SHL SUB AND JUMPDEST PUSH1 0x40 MLOAD PUSH1 0x1 PUSH1 0x1 PUSH1 0xA0 SHL SUB SWAP1 SWAP2 AND DUP2 MSTORE PUSH1 0x20 ADD PUSH2 0x1A6 JUMP JUMPDEST CALLVALUE DUP1 ISZERO PUSH2 0x317 JUMPI PUSH1 0x0 DUP1 REVERT JUMPDEST POP PUSH2 0x163 PUSH2 0x9B0 JUMP JUMPDEST CALLVALUE DUP1 ISZERO PUSH2 0x32C JUMPI PUSH1 0x0 DUP1 REVERT JUMPDEST POP PUSH2 0x1C5 PUSH1 0x6 SLOAD DUP2 JUMP JUMPDEST CALLVALUE DUP1 ISZERO PUSH2 0x342 JUMPI PUSH1 0x0 DUP1 REVERT JUMPDEST POP PUSH2 0x163 PUSH2 0x9DF JUMP JUMPDEST CALLVALUE DUP1 ISZERO PUSH2 0x357 JUMPI PUSH1 0x0 DUP1 REVERT JUMPDEST POP PUSH1 0x9 SLOAD PUSH2 0x2F3 SWAP1 PUSH1 0x1 PUSH1 0x1 PUSH1 0xA0 SHL SUB AND DUP2 JUMP JUMPDEST CALLVALUE DUP1 ISZERO PUSH2 0x377 JUMPI PUSH1 0x0 DUP1 REVERT JUMPDEST POP PUSH2 0x163 PUSH2 0x386 CALLDATASIZE PUSH1 0x4 PUSH2 0xEF0 JUMP JUMPDEST PUSH2 0x9FF JUMP JUMPDEST CALLVALUE DUP1 ISZERO PUSH2 0x397 JUMPI PUSH1 0x0 DUP1 REVERT JUMPDEST POP PUSH2 0x163 PUSH2 0x3A6 CALLDATASIZE PUSH1 0x4 PUSH2 0xEF0 JUMP JUMPDEST PUSH2 0xACE JUMP JUMPDEST CALLVALUE DUP1 ISZERO PUSH2 0x3B7 JUMPI PUSH1 0x0 DUP1 REVERT JUMPDEST POP PUSH1 0x5 SLOAD PUSH2 0x2F3 SWAP1 PUSH1 0x1 PUSH1 0x1 PUSH1 0xA0 SHL SUB AND DUP2 JUMP JUMPDEST CALLVALUE DUP1 ISZERO PUSH2 0x3D7 JUMPI PUSH1 0x0 DUP1 REVERT JUMPDEST POP PUSH2 0x1C5 PUSH1 0x7 SLOAD DUP2 JUMP JUMPDEST CALLVALUE DUP1 ISZERO PUSH2 0x3ED JUMPI PUSH1 0x0 DUP1 REVERT JUMPDEST POP PUSH2 0x163 PUSH2 0x3FC CALLDATASIZE PUSH1 0x4 PUSH2 0xEB8 JUMP JUMPDEST PUSH2 0xCD3 JUMP JUMPDEST CALLVALUE DUP1 ISZERO PUSH2 0x40D JUMPI PUSH1 0x0 DUP1 REVERT JUMPDEST POP PUSH2 0x2F3 PUSH2 0x41C CALLDATASIZE PUSH1 0x4 PUSH2 0xDE8 JUMP JUMPDEST PUSH2 0xD6E JUMP JUMPDEST CALLVALUE DUP1 ISZERO PUSH2 0x42D JUMPI PUSH1 0x0 DUP1 REVERT JUMPDEST POP PUSH1 0xB SLOAD PUSH2 0x43B SWAP1 PUSH1 0xFF AND DUP2 JUMP JUMPDEST PUSH1 0x40 MLOAD PUSH2 0x1A6 SWAP2 SWAP1 PUSH2 0xFBB JUMP JUMPDEST PUSH1 0x1 PUSH1 0xB SLOAD PUSH1 0xFF AND PUSH1 0x4 DUP2 GT ISZERO PUSH2 0x461 JUMPI PUSH2 0x461 PUSH2 0xFA5 JUMP JUMPDEST EQ PUSH2 0x46B JUMPI PUSH1 0x0 DUP1 REVERT JUMPDEST PUSH1 0x0 SLOAD PUSH1 0x1 PUSH1 0x1 PUSH1 0xA0 SHL SUB AND CALLER EQ ISZERO PUSH2 0x4BC JUMPI PUSH1 0x40 MLOAD PUSH3 0x461BCD PUSH1 0xE5 SHL DUP2 MSTORE PUSH1 0x20 PUSH1 0x4 DUP3 ADD MSTORE PUSH1 0xE PUSH1 0x24 DUP3 ADD MSTORE PUSH14 0x13DDDB995C8818D85B9D08189A59 PUSH1 0x92 SHL PUSH1 0x44 DUP3 ADD MSTORE PUSH1 0x64 ADD JUMPDEST PUSH1 0x40 MLOAD DUP1 SWAP2 SUB SWAP1 REVERT JUMPDEST PUSH1 0x0 CALLVALUE GT PUSH2 0x4FC JUMPI PUSH1 0x40 MLOAD PUSH3 0x461BCD PUSH1 0xE5 SHL DUP2 MSTORE PUSH1 0x20 PUSH1 0x4 DUP3 ADD MSTORE PUSH1 0xD PUSH1 0x24 DUP3 ADD MSTORE PUSH13 0x9CCACAC840E6DEDACA408AA89 PUSH1 0x9B SHL PUSH1 0x44 DUP3 ADD MSTORE PUSH1 0x64 ADD PUSH2 0x4B3 JUMP JUMPDEST CALLER PUSH1 0x0 SWAP1 DUP2 MSTORE PUSH1 0x2 PUSH1 0x20 MSTORE PUSH1 0x40 SWAP1 KECCAK256 SLOAD ISZERO PUSH2 0x54A JUMPI PUSH1 0x40 MLOAD PUSH3 0x461BCD PUSH1 0xE5 SHL DUP2 MSTORE PUSH1 0x20 PUSH1 0x4 DUP3 ADD MSTORE PUSH1 0xE PUSH1 0x24 DUP3 ADD MSTORE PUSH14 0x43616E7420626964207477696365 PUSH1 0x90 SHL PUSH1 0x44 DUP3 ADD MSTORE PUSH1 0x64 ADD PUSH2 0x4B3 JUMP JUMPDEST PUSH1 0x1 DUP1 SLOAD DUP1 DUP3 ADD SWAP1 SWAP2 SSTORE PUSH32 0xB10E2D527612073B26EECDFD717E6A320CF44B4AFAC2B0732D9FCBE2B7FA0CF6 ADD DUP1 SLOAD PUSH1 0x1 PUSH1 0x1 PUSH1 0xA0 SHL SUB NOT AND CALLER SWAP1 DUP2 OR SWAP1 SWAP2 SSTORE PUSH1 0x0 SWAP1 DUP2 MSTORE PUSH1 0x2 PUSH1 0x20 SWAP1 DUP2 MSTORE PUSH1 0x40 DUP1 DUP4 KECCAK256 CALLVALUE SWAP1 SSTORE PUSH1 0x3 SWAP1 SWAP2 MSTORE SWAP1 KECCAK256 SSTORE JUMP JUMPDEST PUSH1 0x0 SLOAD PUSH1 0x1 PUSH1 0x1 PUSH1 0xA0 SHL SUB AND CALLER EQ PUSH2 0x5D1 JUMPI PUSH1 0x40 MLOAD PUSH3 0x461BCD PUSH1 0xE5 SHL DUP2 MSTORE PUSH1 0x4 ADD PUSH2 0x4B3 SWAP1 PUSH2 0xFE3 JUMP JUMPDEST PUSH1 0x4 PUSH1 0xB SLOAD PUSH1 0xFF AND PUSH1 0x4 DUP2 GT ISZERO PUSH2 0x5EA JUMPI PUSH2 0x5EA PUSH2 0xFA5 JUMP JUMPDEST EQ PUSH2 0x5F4 JUMPI PUSH1 0x0 DUP1 REVERT JUMPDEST PUSH1 0x6 SLOAD ISZERO PUSH2 0x653 JUMPI PUSH1 0x6 DUP1 SLOAD PUSH1 0x0 SWAP1 SWAP2 SSTORE PUSH2 0x617 PUSH1 0x0 SLOAD PUSH1 0x1 PUSH1 0x1 PUSH1 0xA0 SHL SUB AND SWAP1 JUMP JUMPDEST PUSH1 0x1 PUSH1 0x1 PUSH1 0xA0 SHL SUB AND PUSH2 0x8FC DUP3 SWAP1 DUP2 ISZERO MUL SWAP1 PUSH1 0x40 MLOAD PUSH1 0x0 PUSH1 0x40 MLOAD DUP1 DUP4 SUB DUP2 DUP6 DUP9 DUP9 CALL SWAP4 POP POP POP POP ISZERO DUP1 ISZERO PUSH2 0x64F JUMPI RETURNDATASIZE PUSH1 0x0 DUP1 RETURNDATACOPY RETURNDATASIZE PUSH1 0x0 REVERT JUMPDEST POP POP JUMP JUMPDEST PUSH1 0x9 SLOAD PUSH1 0x1 PUSH1 0x1 PUSH1 0xA0 SHL SUB AND PUSH4 0x42842E0E ADDRESS CALLER PUSH1 0xA SLOAD PUSH1 0x40 MLOAD PUSH1 0x1 PUSH1 0x1 PUSH1 0xE0 SHL SUB NOT PUSH1 0xE0 DUP7 SWAP1 SHL AND DUP2 MSTORE PUSH1 0x1 PUSH1 0x1 PUSH1 0xA0 SHL SUB SWAP4 DUP5 AND PUSH1 0x4 DUP3 ADD MSTORE SWAP3 SWAP1 SWAP2 AND PUSH1 0x24 DUP4 ADD MSTORE PUSH1 0x44 DUP3 ADD MSTORE PUSH1 0x64 ADD PUSH1 0x0 PUSH1 0x40 MLOAD DUP1 DUP4 SUB DUP2 PUSH1 0x0 DUP8 DUP1 EXTCODESIZE ISZERO DUP1 ISZERO PUSH2 0x6B8 JUMPI PUSH1 0x0 DUP1 REVERT JUMPDEST POP GAS CALL ISZERO DUP1 ISZERO PUSH2 0x6CC JUMPI RETURNDATASIZE PUSH1 0x0 DUP1 RETURNDATACOPY RETURNDATASIZE PUSH1 0x0 REVERT JUMPDEST POP POP POP POP JUMPDEST JUMP JUMPDEST PUSH1 0x0 SLOAD PUSH1 0x1 PUSH1 0x1 PUSH1 0xA0 SHL SUB AND CALLER EQ PUSH2 0x6FD JUMPI PUSH1 0x40 MLOAD PUSH3 0x461BCD PUSH1 0xE5 SHL DUP2 MSTORE PUSH1 0x4 ADD PUSH2 0x4B3 SWAP1 PUSH2 0xFE3 JUMP JUMPDEST PUSH2 0x6D1 PUSH1 0x0 PUSH2 0xD98 JUMP JUMPDEST PUSH1 0x0 SLOAD PUSH1 0x1 PUSH1 0x1 PUSH1 0xA0 SHL SUB AND CALLER EQ PUSH2 0x731 JUMPI PUSH1 0x40 MLOAD PUSH3 0x461BCD PUSH1 0xE5 SHL DUP2 MSTORE PUSH1 0x4 ADD PUSH2 0x4B3 SWAP1 PUSH2 0xFE3 JUMP JUMPDEST PUSH1 0x9 SLOAD PUSH1 0x1 PUSH1 0x1 PUSH1 0xA0 SHL SUB AND PUSH4 0x42842E0E CALLER PUSH1 0xA SLOAD PUSH1 0x40 MLOAD PUSH1 0x1 PUSH1 0x1 PUSH1 0xE0 SHL SUB NOT PUSH1 0xE0 DUP6 SWAP1 SHL AND DUP2 MSTORE PUSH1 0x1 PUSH1 0x1 PUSH1 0xA0 SHL SUB SWAP1 SWAP3 AND PUSH1 0x4 DUP4 ADD MSTORE ADDRESS PUSH1 0x24 DUP4 ADD MSTORE PUSH1 0x44 DUP3 ADD MSTORE PUSH1 0x64 ADD PUSH1 0x0 PUSH1 0x40 MLOAD DUP1 DUP4 SUB DUP2 PUSH1 0x0 DUP8 DUP1 EXTCODESIZE ISZERO DUP1 ISZERO PUSH2 0x792 JUMPI PUSH1 0x0 DUP1 REVERT JUMPDEST POP GAS CALL ISZERO DUP1 ISZERO PUSH2 0x7A6 JUMPI RETURNDATASIZE PUSH1 0x0 DUP1 RETURNDATACOPY RETURNDATASIZE PUSH1 0x0 REVERT JUMPDEST POP POP PUSH1 0xB DUP1 SLOAD PUSH1 0x1 SWAP4 POP SWAP1 SWAP2 POP PUSH1 0xFF NOT AND DUP3 DUP1 JUMPDEST MUL OR SWAP1 SSTORE POP JUMP JUMPDEST PUSH1 0x0 SLOAD PUSH1 0x1 PUSH1 0x1 PUSH1 0xA0 SHL SUB AND CALLER EQ PUSH2 0x7EB JUMPI PUSH1 0x40 MLOAD PUSH3 0x461BCD PUSH1 0xE5 SHL DUP2 MSTORE PUSH1 0x4 ADD PUSH2 0x4B3 SWAP1 PUSH2 0xFE3 JUMP JUMPDEST PUSH1 0x3 PUSH1 0xB SLOAD PUSH1 0xFF AND PUSH1 0x4 DUP2 GT ISZERO PUSH2 0x804 JUMPI PUSH2 0x804 PUSH2 0xFA5 JUMP JUMPDEST EQ PUSH2 0x80E JUMPI PUSH1 0x0 DUP1 REVERT JUMPDEST PUSH1 0x0 DUP1 PUSH1 0x0 JUMPDEST PUSH1 0x1 SLOAD DUP2 LT ISZERO PUSH2 0x8B5 JUMPI DUP2 PUSH1 0x4 PUSH1 0x0 PUSH1 0x1 DUP5 DUP2 SLOAD DUP2 LT PUSH2 0x836 JUMPI PUSH2 0x836 PUSH2 0x1018 JUMP JUMPDEST PUSH1 0x0 SWAP2 DUP3 MSTORE PUSH1 0x20 DUP1 DUP4 KECCAK256 SWAP1 SWAP2 ADD SLOAD PUSH1 0x1 PUSH1 0x1 PUSH1 0xA0 SHL SUB AND DUP4 MSTORE DUP3 ADD SWAP3 SWAP1 SWAP3 MSTORE PUSH1 0x40 ADD SWAP1 KECCAK256 SLOAD GT ISZERO PUSH2 0x8A3 JUMPI DUP1 SWAP3 POP PUSH1 0x4 PUSH1 0x0 PUSH1 0x1 DUP4 DUP2 SLOAD DUP2 LT PUSH2 0x87B JUMPI PUSH2 0x87B PUSH2 0x1018 JUMP JUMPDEST PUSH1 0x0 SWAP2 DUP3 MSTORE PUSH1 0x20 DUP1 DUP4 KECCAK256 SWAP1 SWAP2 ADD SLOAD PUSH1 0x1 PUSH1 0x1 PUSH1 0xA0 SHL SUB AND DUP4 MSTORE DUP3 ADD SWAP3 SWAP1 SWAP3 MSTORE PUSH1 0x40 ADD SWAP1 KECCAK256 SLOAD SWAP2 POP JUMPDEST DUP1 PUSH2 0x8AD DUP2 PUSH2 0x1044 JUMP JUMPDEST SWAP2 POP POP PUSH2 0x814 JUMP JUMPDEST PUSH1 0x8 SLOAD DUP3 LT PUSH2 0x93D JUMPI PUSH1 0x1 DUP4 DUP2 SLOAD DUP2 LT PUSH2 0x8D1 JUMPI PUSH2 0x8D1 PUSH2 0x1018 JUMP JUMPDEST PUSH1 0x0 SWAP2 DUP3 MSTORE PUSH1 0x20 DUP1 DUP4 KECCAK256 SWAP1 SWAP2 ADD SLOAD PUSH1 0x5 DUP1 SLOAD PUSH1 0x1 PUSH1 0x1 PUSH1 0xA0 SHL SUB NOT AND PUSH1 0x1 PUSH1 0x1 PUSH1 0xA0 SHL SUB SWAP1 SWAP3 AND SWAP2 DUP3 OR SWAP1 SSTORE DUP3 MSTORE PUSH1 0x4 DUP2 MSTORE PUSH1 0x40 DUP1 DUP4 KECCAK256 SLOAD PUSH1 0x6 DUP2 SWAP1 SSTORE PUSH1 0x2 SWAP1 SWAP3 MSTORE SWAP1 SWAP2 KECCAK256 SLOAD PUSH2 0x921 SWAP2 SWAP1 PUSH2 0x105F JUMP JUMPDEST PUSH1 0x5 SLOAD PUSH1 0x1 PUSH1 0x1 PUSH1 0xA0 SHL SUB AND PUSH1 0x0 SWAP1 DUP2 MSTORE PUSH1 0x2 PUSH1 0x20 MSTORE PUSH1 0x40 SWAP1 KECCAK256 SSTORE JUMPDEST POP POP PUSH1 0xB DUP1 SLOAD PUSH1 0xFF NOT AND PUSH1 0x4 OR SWAP1 SSTORE POP JUMP JUMPDEST PUSH1 0x0 SLOAD PUSH1 0x1 PUSH1 0x1 PUSH1 0xA0 SHL SUB AND CALLER EQ PUSH2 0x979 JUMPI PUSH1 0x40 MLOAD PUSH3 0x461BCD PUSH1 0xE5 SHL DUP2 MSTORE PUSH1 0x4 ADD PUSH2 0x4B3 SWAP1 PUSH2 0xFE3 JUMP JUMPDEST PUSH1 0x1 PUSH1 0xB SLOAD PUSH1 0xFF AND PUSH1 0x4 DUP2 GT ISZERO PUSH2 0x992 JUMPI PUSH2 0x992 PUSH2 0xFA5 JUMP JUMPDEST EQ PUSH2 0x99C JUMPI PUSH1 0x0 DUP1 REVERT JUMPDEST PUSH1 0xB DUP1 SLOAD PUSH1 0x2 SWAP2 SWAP1 PUSH1 0xFF NOT AND PUSH1 0x1 DUP4 PUSH2 0x7BA JUMP JUMPDEST CALLER PUSH1 0x0 SWAP1 DUP2 MSTORE PUSH1 0x2 PUSH1 0x20 MSTORE PUSH1 0x40 SWAP1 KECCAK256 SLOAD DUP1 PUSH2 0x9CA JUMPI PUSH1 0x0 DUP1 REVERT JUMPDEST CALLER PUSH1 0x0 DUP2 DUP2 MSTORE PUSH1 0x2 PUSH1 0x20 MSTORE PUSH1 0x40 DUP2 KECCAK256 SSTORE PUSH2 0x617 JUMP JUMPDEST PUSH1 0x5 SLOAD PUSH1 0x1 PUSH1 0x1 PUSH1 0xA0 SHL SUB AND CALLER PUSH1 0x1 PUSH1 0x1 PUSH1 0xA0 SHL SUB AND EQ PUSH2 0x653 JUMPI PUSH1 0x0 DUP1 REVERT JUMPDEST PUSH1 0x0 SLOAD PUSH1 0x1 PUSH1 0x1 PUSH1 0xA0 SHL SUB AND CALLER EQ PUSH2 0xA29 JUMPI PUSH1 0x40 MLOAD PUSH3 0x461BCD PUSH1 0xE5 SHL DUP2 MSTORE PUSH1 0x4 ADD PUSH2 0x4B3 SWAP1 PUSH2 0xFE3 JUMP JUMPDEST PUSH1 0x2 PUSH1 0xB SLOAD PUSH1 0xFF AND PUSH1 0x4 DUP2 GT ISZERO PUSH2 0xA42 JUMPI PUSH2 0xA42 PUSH2 0xFA5 JUMP JUMPDEST EQ PUSH2 0xA4C JUMPI PUSH1 0x0 DUP1 REVERT JUMPDEST DUP2 DUP2 PUSH1 0x40 MLOAD PUSH1 0x20 ADD PUSH2 0xA5F SWAP3 SWAP2 SWAP1 PUSH2 0x1076 JUMP JUMPDEST PUSH1 0x40 MLOAD PUSH1 0x20 DUP2 DUP4 SUB SUB DUP2 MSTORE SWAP1 PUSH1 0x40 MSTORE DUP1 MLOAD SWAP1 PUSH1 0x20 ADD KECCAK256 PUSH1 0x7 SLOAD EQ PUSH2 0xABB JUMPI PUSH1 0x40 MLOAD PUSH3 0x461BCD PUSH1 0xE5 SHL DUP2 MSTORE PUSH1 0x20 PUSH1 0x4 DUP3 ADD MSTORE PUSH1 0x13 PUSH1 0x24 DUP3 ADD MSTORE PUSH19 0x90C2E6D0CAE640C8DE40DCDEE840DAC2E8C6D PUSH1 0x6B SHL PUSH1 0x44 DUP3 ADD MSTORE PUSH1 0x64 ADD PUSH2 0x4B3 JUMP JUMPDEST PUSH1 0x8 SSTORE POP PUSH1 0xB DUP1 SLOAD PUSH1 0xFF NOT AND PUSH1 0x3 OR SWAP1 SSTORE JUMP JUMPDEST PUSH1 0x2 PUSH1 0xB SLOAD PUSH1 0xFF AND PUSH1 0x4 DUP2 GT ISZERO PUSH2 0xAE7 JUMPI PUSH2 0xAE7 PUSH2 0xFA5 JUMP JUMPDEST EQ PUSH2 0xB25 JUMPI PUSH1 0x40 MLOAD PUSH3 0x461BCD PUSH1 0xE5 SHL DUP2 MSTORE PUSH1 0x20 PUSH1 0x4 DUP3 ADD MSTORE PUSH1 0xE PUSH1 0x24 DUP3 ADD MSTORE PUSH14 0x4E6F742072696768742074696D65 PUSH1 0x90 SHL PUSH1 0x44 DUP3 ADD MSTORE PUSH1 0x64 ADD PUSH2 0x4B3 JUMP JUMPDEST CALLER PUSH1 0x0 SWAP1 DUP2 MSTORE PUSH1 0x2 PUSH1 0x20 MSTORE PUSH1 0x40 SWAP1 KECCAK256 SLOAD PUSH2 0xB81 JUMPI PUSH1 0x40 MLOAD PUSH3 0x461BCD PUSH1 0xE5 SHL DUP2 MSTORE PUSH1 0x20 PUSH1 0x4 DUP3 ADD MSTORE PUSH1 0x19 PUSH1 0x24 DUP3 ADD MSTORE PUSH32 0x596F7520617265206E6F742061207061727469636970616E7400000000000000 PUSH1 0x44 DUP3 ADD MSTORE PUSH1 0x64 ADD PUSH2 0x4B3 JUMP JUMPDEST CALLER PUSH1 0x0 SWAP1 DUP2 MSTORE PUSH1 0x4 PUSH1 0x20 MSTORE PUSH1 0x40 SWAP1 KECCAK256 SLOAD ISZERO PUSH2 0xBD5 JUMPI PUSH1 0x40 MLOAD PUSH3 0x461BCD PUSH1 0xE5 SHL DUP2 MSTORE PUSH1 0x20 PUSH1 0x4 DUP3 ADD MSTORE PUSH1 0x14 PUSH1 0x24 DUP3 ADD MSTORE PUSH20 0x43616E206F6E6C792072657665616C206F6E6365 PUSH1 0x60 SHL PUSH1 0x44 DUP3 ADD MSTORE PUSH1 0x64 ADD PUSH2 0x4B3 JUMP JUMPDEST CALLER PUSH1 0x0 SWAP1 DUP2 MSTORE PUSH1 0x2 PUSH1 0x20 MSTORE PUSH1 0x40 SWAP1 KECCAK256 SLOAD DUP2 GT ISZERO PUSH2 0xC28 JUMPI PUSH1 0x40 MLOAD PUSH3 0x461BCD PUSH1 0xE5 SHL DUP2 MSTORE PUSH1 0x20 PUSH1 0x4 DUP3 ADD MSTORE PUSH1 0x11 PUSH1 0x24 DUP3 ADD MSTORE PUSH17 0x13D999995C881A5B9D985B1A59185D1959 PUSH1 0x7A SHL PUSH1 0x44 DUP3 ADD MSTORE PUSH1 0x64 ADD PUSH2 0x4B3 JUMP JUMPDEST DUP2 DUP2 PUSH1 0x40 MLOAD PUSH1 0x20 ADD PUSH2 0xC3B SWAP3 SWAP2 SWAP1 PUSH2 0x1076 JUMP JUMPDEST PUSH1 0x40 MLOAD PUSH1 0x20 DUP2 DUP4 SUB SUB DUP2 MSTORE SWAP1 PUSH1 0x40 MSTORE DUP1 MLOAD SWAP1 PUSH1 0x20 ADD KECCAK256 PUSH1 0x3 PUSH1 0x0 PUSH2 0xC5C CALLER SWAP1 JUMP JUMPDEST PUSH1 0x1 PUSH1 0x1 PUSH1 0xA0 SHL SUB AND PUSH1 0x1 PUSH1 0x1 PUSH1 0xA0 SHL SUB AND DUP2 MSTORE PUSH1 0x20 ADD SWAP1 DUP2 MSTORE PUSH1 0x20 ADD PUSH1 0x0 KECCAK256 SLOAD EQ PUSH2 0xCC0 JUMPI PUSH1 0x40 MLOAD PUSH3 0x461BCD PUSH1 0xE5 SHL DUP2 MSTORE PUSH1 0x20 PUSH1 0x4 DUP3 ADD MSTORE PUSH1 0x13 PUSH1 0x24 DUP3 ADD MSTORE PUSH19 0x90C2E6D0CAE640C8DE40DCDEE840DAC2E8C6D PUSH1 0x6B SHL PUSH1 0x44 DUP3 ADD MSTORE PUSH1 0x64 ADD PUSH2 0x4B3 JUMP JUMPDEST CALLER PUSH1 0x0 SWAP1 DUP2 MSTORE PUSH1 0x4 PUSH1 0x20 MSTORE PUSH1 0x40 SWAP1 KECCAK256 SSTORE POP JUMP JUMPDEST PUSH1 0x0 SLOAD PUSH1 0x1 PUSH1 0x1 PUSH1 0xA0 SHL SUB AND CALLER EQ PUSH2 0xCFD JUMPI PUSH1 0x40 MLOAD PUSH3 0x461BCD PUSH1 0xE5 SHL DUP2 MSTORE PUSH1 0x4 ADD PUSH2 0x4B3 SWAP1 PUSH2 0xFE3 JUMP JUMPDEST PUSH1 0x1 PUSH1 0x1 PUSH1 0xA0 SHL SUB DUP2 AND PUSH2 0xD62 JUMPI PUSH1 0x40 MLOAD PUSH3 0x461BCD PUSH1 0xE5 SHL DUP2 MSTORE PUSH1 0x20 PUSH1 0x4 DUP3 ADD MSTORE PUSH1 0x26 PUSH1 0x24 DUP3 ADD MSTORE PUSH32 0x4F776E61626C653A206E6577206F776E657220697320746865207A65726F2061 PUSH1 0x44 DUP3 ADD MSTORE PUSH6 0x646472657373 PUSH1 0xD0 SHL PUSH1 0x64 DUP3 ADD MSTORE PUSH1 0x84 ADD PUSH2 0x4B3 JUMP JUMPDEST PUSH2 0xD6B DUP2 PUSH2 0xD98 JUMP JUMPDEST POP JUMP JUMPDEST PUSH1 0x1 DUP2 DUP2 SLOAD DUP2 LT PUSH2 0xD7E JUMPI PUSH1 0x0 DUP1 REVERT JUMPDEST PUSH1 0x0 SWAP2 DUP3 MSTORE PUSH1 0x20 SWAP1 SWAP2 KECCAK256 ADD SLOAD PUSH1 0x1 PUSH1 0x1 PUSH1 0xA0 SHL SUB AND SWAP1 POP DUP2 JUMP JUMPDEST PUSH1 0x0 DUP1 SLOAD PUSH1 0x1 PUSH1 0x1 PUSH1 0xA0 SHL SUB DUP4 DUP2 AND PUSH1 0x1 PUSH1 0x1 PUSH1 0xA0 SHL SUB NOT DUP4 AND DUP2 OR DUP5 SSTORE PUSH1 0x40 MLOAD SWAP2 SWAP1 SWAP3 AND SWAP3 DUP4 SWAP2 PUSH32 0x8BE0079C531659141344CD1FD0A4F28419497F9722A3DAAFE3B4186F6B6457E0 SWAP2 SWAP1 LOG3 POP POP JUMP JUMPDEST PUSH1 0x0 PUSH1 0x20 DUP3 DUP5 SUB SLT ISZERO PUSH2 0xDFA JUMPI PUSH1 0x0 DUP1 REVERT JUMPDEST POP CALLDATALOAD SWAP2 SWAP1 POP JUMP JUMPDEST DUP1 CALLDATALOAD PUSH1 0x1 PUSH1 0x1 PUSH1 0xA0 SHL SUB DUP2 AND DUP2 EQ PUSH2 0xE18 JUMPI PUSH1 0x0 DUP1 REVERT JUMPDEST SWAP2 SWAP1 POP JUMP JUMPDEST PUSH1 0x0 DUP1 PUSH1 0x0 DUP1 PUSH1 0x0 PUSH1 0x80 DUP7 DUP9 SUB SLT ISZERO PUSH2 0xE35 JUMPI PUSH1 0x0 DUP1 REVERT JUMPDEST PUSH2 0xE3E DUP7 PUSH2 0xE01 JUMP JUMPDEST SWAP5 POP PUSH2 0xE4C PUSH1 0x20 DUP8 ADD PUSH2 0xE01 JUMP JUMPDEST SWAP4 POP PUSH1 0x40 DUP7 ADD CALLDATALOAD SWAP3 POP PUSH1 0x60 DUP7 ADD CALLDATALOAD PUSH8 0xFFFFFFFFFFFFFFFF DUP1 DUP3 GT ISZERO PUSH2 0xE70 JUMPI PUSH1 0x0 DUP1 REVERT JUMPDEST DUP2 DUP9 ADD SWAP2 POP DUP9 PUSH1 0x1F DUP4 ADD SLT PUSH2 0xE84 JUMPI PUSH1 0x0 DUP1 REVERT JUMPDEST DUP2 CALLDATALOAD DUP2 DUP2 GT ISZERO PUSH2 0xE93 JUMPI PUSH1 0x0 DUP1 REVERT JUMPDEST DUP10 PUSH1 0x20 DUP3 DUP6 ADD ADD GT ISZERO PUSH2 0xEA5 JUMPI PUSH1 0x0 DUP1 REVERT JUMPDEST SWAP7 SWAP10 SWAP6 SWAP9 POP SWAP4 SWAP7 POP PUSH1 0x20 ADD SWAP5 SWAP4 SWAP3 POP POP POP JUMP JUMPDEST PUSH1 0x0 PUSH1 0x20 DUP3 DUP5 SUB SLT ISZERO PUSH2 0xECA JUMPI PUSH1 0x0 DUP1 REVERT JUMPDEST PUSH2 0xED3 DUP3 PUSH2 0xE01 JUMP JUMPDEST SWAP4 SWAP3 POP POP POP JUMP JUMPDEST PUSH4 0x4E487B71 PUSH1 0xE0 SHL PUSH1 0x0 MSTORE PUSH1 0x41 PUSH1 0x4 MSTORE PUSH1 0x24 PUSH1 0x0 REVERT JUMPDEST PUSH1 0x0 DUP1 PUSH1 0x40 DUP4 DUP6 SUB SLT ISZERO PUSH2 0xF03 JUMPI PUSH1 0x0 DUP1 REVERT JUMPDEST DUP3 CALLDATALOAD PUSH8 0xFFFFFFFFFFFFFFFF DUP1 DUP3 GT ISZERO PUSH2 0xF1B JUMPI PUSH1 0x0 DUP1 REVERT JUMPDEST DUP2 DUP6 ADD SWAP2 POP DUP6 PUSH1 0x1F DUP4 ADD SLT PUSH2 0xF2F JUMPI PUSH1 0x0 DUP1 REVERT JUMPDEST DUP2 CALLDATALOAD DUP2 DUP2 GT ISZERO PUSH2 0xF41 JUMPI PUSH2 0xF41 PUSH2 0xEDA JUMP JUMPDEST PUSH1 0x40 MLOAD PUSH1 0x1F DUP3 ADD PUSH1 0x1F NOT SWAP1 DUP2 AND PUSH1 0x3F ADD AND DUP2 ADD SWAP1 DUP4 DUP3 GT DUP2 DUP4 LT OR ISZERO PUSH2 0xF69 JUMPI PUSH2 0xF69 PUSH2 0xEDA JUMP JUMPDEST DUP2 PUSH1 0x40 MSTORE DUP3 DUP2 MSTORE DUP9 PUSH1 0x20 DUP5 DUP8 ADD ADD GT ISZERO PUSH2 0xF82 JUMPI PUSH1 0x0 DUP1 REVERT JUMPDEST DUP3 PUSH1 0x20 DUP7 ADD PUSH1 0x20 DUP4 ADD CALLDATACOPY PUSH1 0x0 PUSH1 0x20 SWAP4 DUP3 ADD DUP5 ADD MSTORE SWAP9 SWAP7 SWAP1 SWAP2 ADD CALLDATALOAD SWAP7 POP POP POP POP POP POP JUMP JUMPDEST PUSH4 0x4E487B71 PUSH1 0xE0 SHL PUSH1 0x0 MSTORE PUSH1 0x21 PUSH1 0x4 MSTORE PUSH1 0x24 PUSH1 0x0 REVERT JUMPDEST PUSH1 0x20 DUP2 ADD PUSH1 0x5 DUP4 LT PUSH2 0xFDD JUMPI PUSH4 0x4E487B71 PUSH1 0xE0 SHL PUSH1 0x0 MSTORE PUSH1 0x21 PUSH1 0x4 MSTORE PUSH1 0x24 PUSH1 0x0 REVERT JUMPDEST SWAP2 SWAP1 MSTORE SWAP1 JUMP JUMPDEST PUSH1 0x20 DUP1 DUP3 MSTORE DUP2 DUP2 ADD MSTORE PUSH32 0x4F776E61626C653A2063616C6C6572206973206E6F7420746865206F776E6572 PUSH1 0x40 DUP3 ADD MSTORE PUSH1 0x60 ADD SWAP1 JUMP JUMPDEST PUSH4 0x4E487B71 PUSH1 0xE0 SHL PUSH1 0x0 MSTORE PUSH1 0x32 PUSH1 0x4 MSTORE PUSH1 0x24 PUSH1 0x0 REVERT JUMPDEST PUSH4 0x4E487B71 PUSH1 0xE0 SHL PUSH1 0x0 MSTORE PUSH1 0x11 PUSH1 0x4 MSTORE PUSH1 0x24 PUSH1 0x0 REVERT JUMPDEST PUSH1 0x0 PUSH1 0x0 NOT DUP3 EQ ISZERO PUSH2 0x1058 JUMPI PUSH2 0x1058 PUSH2 0x102E JUMP JUMPDEST POP PUSH1 0x1 ADD SWAP1 JUMP JUMPDEST PUSH1 0x0 DUP3 DUP3 LT ISZERO PUSH2 0x1071 JUMPI PUSH2 0x1071 PUSH2 0x102E JUMP JUMPDEST POP SUB SWAP1 JUMP JUMPDEST PUSH1 0x0 DUP4 MLOAD PUSH1 0x0 JUMPDEST DUP2 DUP2 LT ISZERO PUSH2 0x1097 JUMPI PUSH1 0x20 DUP2 DUP8 ADD DUP2 ADD MLOAD DUP6 DUP4 ADD MSTORE ADD PUSH2 0x107D JUMP JUMPDEST DUP2 DUP2 GT ISZERO PUSH2 0x10A6 JUMPI PUSH1 0x0 DUP3 DUP6 ADD MSTORE JUMPDEST POP SWAP2 SWAP1 SWAP2 ADD SWAP2 DUP3 MSTORE POP PUSH1 0x20 ADD SWAP2 SWAP1 POP JUMP INVALID LOG2 PUSH5 0x6970667358 0x22 SLT KECCAK256 SWAP3 GT 0xED PUSH13 0x694067D635831E22E8E37E5E26 SWAP8 PUSH7 0x264C02F7C3B780 0xE7 DUP3 0x26 0xA5 EQ SWAP3 PUSH5 0x736F6C6343 STOP ADDMOD 0xC STOP CALLER ","sha1":"5116bee0381242d707a7080064c70313f80d0c9d","source":"// SPDX-License-Identifier: MIT\n\npragma solidity ^0.8.0;\n\nimport \"@openzeppelin/contracts/access/Ownable.sol\";\nimport \"@openzeppelin/contracts/token/ERC721/IERC721.sol\";\nimport \"@openzeppelin/contracts/token/ERC721/IERC721Receiver.sol\";\n\ncontract SealedBidAuction is Ownable, IERC721Receiver {\n\n\n    address[] public players; // Para poder regresar x a los que no ganan\n\n    mapping(address => uint256) public accountToAmount;\n    mapping(address => bytes32) public accountToHash;\n    mapping(address => uint256) public accountToOffer;\n\n    address public winner;\n    uint256 public amount;\n    bytes32 public minimumPriceHash;\n    uint256 public minimumPrice;\n\n    IERC721 public parentNFT;\n    uint256 public tokenId;\n\n    enum AUCTION_STATE{\n        CONTRACT_CREATION,\n        RECIVEING_OFFERS,\n        OFFER_REVEAL,\n        CALCULATING_WINNER,\n        AUCTION_ENDED\n    }\n\n    AUCTION_STATE public auction_state;\n\n    constructor(bytes32 _minimumPriceHash, address _nftContract, uint256 _tokenId) {\n        auction_state = AUCTION_STATE.CONTRACT_CREATION;\n        minimumPriceHash = _minimumPriceHash;\n        parentNFT = IERC721(_nftContract);\n        tokenId = _tokenId;\n    }\n\n    function transferAssetToContract() public onlyOwner{\n        parentNFT.safeTransferFrom(_msgSender(), address(this), tokenId);\n        auction_state = AUCTION_STATE.RECIVEING_OFFERS;\n    }\n\n    \n    function makeOffer(bytes32 _hash) public virtual payable{\n        require(auction_state == AUCTION_STATE.RECIVEING_OFFERS);\n        require(_msgSender() != owner(), \"Owner cant bid\");\n        require(msg.value > 0, \"Need some ETH\");\n        require(accountToAmount[_msgSender()] == 0, \"Cant bid twice\"); // New participant.\n        //event\n        players.push(payable(_msgSender()));\n        //event\n        accountToAmount[_msgSender()] = msg.value;\n        //event\n        accountToHash[_msgSender()] = _hash;\n    }\n\n    function closeOffers() public onlyOwner {\n        require(auction_state == AUCTION_STATE.RECIVEING_OFFERS);\n        auction_state = AUCTION_STATE.OFFER_REVEAL;\n    }\n\n    // Cambiale el nombre y pega el close reveals a final del metodo. Te mamas \n    function winnerCalculation(string memory _secret, uint256 _amount) public onlyOwner {\n        require(auction_state == AUCTION_STATE.OFFER_REVEAL);\n        require(\n            minimumPriceHash == keccak256(\n                abi.encodePacked(\n                    _secret,\n                    _amount\n                )\n            ), \"Hashes do not match\"\n        );\n        minimumPrice = _amount;\n        auction_state = AUCTION_STATE.CALCULATING_WINNER;\n    }\n\n    function revealOffer(string memory _secret, uint256 _amount) public virtual{\n        require(auction_state == AUCTION_STATE.OFFER_REVEAL, \"Not right time\");\n        require(accountToAmount[_msgSender()] != 0, \"You are not a participant\"); // Participant\n        require(accountToOffer[_msgSender()] == 0, \"Can only reveal once\"); // No retrys\n        require(_amount <= accountToAmount[_msgSender()], \"Offer invalidated\"); \n        require(\n            accountToHash[_msgSender()] == keccak256(\n                abi.encodePacked(\n                    _secret,\n                    _amount\n                )\n            ), \"Hashes do not match\"\n        ); // Hash match\n        //event\n        accountToOffer[_msgSender()] = _amount;\n    }\n    //Funcion para recibir el precio minimo\n\n    function closeReveals() public onlyOwner { //internal\n        // Verifia que el precio minimo este puesto. \n        require(auction_state == AUCTION_STATE.CALCULATING_WINNER);\n        uint256 indexOfWinner;\n        uint256 loopAmount;\n        uint256 i;\n        for(i = 0; i < players.length; i++){\n            if(accountToOffer[players[i]] > loopAmount){\n                indexOfWinner = i;\n                loopAmount = accountToOffer[players[i]];\n            }\n    \n        }\n        if(loopAmount >= minimumPrice){\n            winner = players[indexOfWinner];\n            amount = accountToOffer[winner];\n            // Quito lo ofrecido al que gana\n            accountToAmount[winner] = accountToAmount[winner] - accountToOffer[winner];\n        }\n        auction_state = AUCTION_STATE.AUCTION_ENDED;\n    }\n\n    function ownerGetsPayed() public onlyOwner{\n        require(auction_state == AUCTION_STATE.AUCTION_ENDED);\n        if(amount > 0){\n            uint256 toPay = amount;\n            amount = 0; //No reentrancy\n            payable(owner()).transfer(toPay);\n        }else{\n            // Nadie gana entonces regresa NFT al que crea subasta.\n            parentNFT.safeTransferFrom(address(this), _msgSender(), tokenId);\n        }\n    }\n\n    function reiburseParticipant() public{\n        // Tenga saldo positivo\n        uint256 reimbursement = accountToAmount[_msgSender()];\n        require(reimbursement > 0);\n        accountToAmount[_msgSender()] = 0; // no reent\n        payable(_msgSender()).transfer(reimbursement);\n    }\n\n    function winnerRetrivesToken() public{\n        require(_msgSender() == winner);\n        parentNFT.safeTransferFrom(address(this), _msgSender(), tokenId);\n    }\n\n    function onERC721Received(\n        address operator,\n        address from,\n        uint256 tokenId,\n        bytes calldata data\n    ) public virtual override returns (bytes4){\n         return this.onERC721Received.selector;\n    }\n}","sourcePath":"contracts/SealedBidAuction.sol","type":"contract","deployment":{"address":"0x77F17473CE21E9A914E97A02D92f8A24cAAe28fc","chainid":"4","blockHeight":10564383}}