{"abi":[{"inputs":[{"internalType":"bytes32","name":"_minimumPriceHash","type":"bytes32"},{"internalType":"address","name":"_nftContract","type":"address"},{"internalType":"uint256","name":"_tokenId","type":"uint256"},{"internalType":"uint256","name":"_revealTime","type":"uint256"},{"internalType":"uint256","name":"_winnerTime","type":"uint256"}],"stateMutability":"nonpayable","type":"constructor","name":"constructor"},{"anonymous":false,"inputs":[],"name":"ERC721Transfer","type":"event"},{"anonymous":false,"inputs":[{"indexed":false,"internalType":"uint256","name":"amount","type":"uint256"}],"name":"MinimumPriceRevealed","type":"event"},{"anonymous":false,"inputs":[{"indexed":false,"internalType":"address","name":"account","type":"address"},{"indexed":false,"internalType":"bytes32","name":"hashString","type":"bytes32"}],"name":"OfferMade","type":"event"},{"anonymous":false,"inputs":[{"indexed":false,"internalType":"address","name":"account","type":"address"},{"indexed":false,"internalType":"string","name":"secret","type":"string"},{"indexed":false,"internalType":"uint256","name":"amount","type":"uint256"}],"name":"OfferRevealed","type":"event"},{"anonymous":false,"inputs":[],"name":"OffersClosed","type":"event"},{"anonymous":false,"inputs":[{"indexed":false,"internalType":"uint256","name":"amount","type":"uint256"}],"name":"OwnerPayed","type":"event"},{"anonymous":false,"inputs":[{"indexed":true,"internalType":"address","name":"previousOwner","type":"address"},{"indexed":true,"internalType":"address","name":"newOwner","type":"address"}],"name":"OwnershipTransferred","type":"event"},{"anonymous":false,"inputs":[{"indexed":false,"internalType":"address","name":"account","type":"address"},{"indexed":false,"internalType":"uint256","name":"amount","type":"uint256"}],"name":"ParticipantReimbursed","type":"event"},{"anonymous":false,"inputs":[{"indexed":false,"internalType":"address","name":"account","type":"address"}],"name":"TokenWithdrawal","type":"event"},{"anonymous":false,"inputs":[{"indexed":false,"internalType":"address","name":"account","type":"address"},{"indexed":false,"internalType":"uint256","name":"amount","type":"uint256"}],"name":"WinnerChosen","type":"event"},{"inputs":[{"internalType":"address","name":"","type":"address"}],"name":"accountToAmount","outputs":[{"internalType":"uint256","name":"","type":"uint256"}],"stateMutability":"view","type":"function"},{"inputs":[{"internalType":"address","name":"","type":"address"}],"name":"accountToHash","outputs":[{"internalType":"bytes32","name":"","type":"bytes32"}],"stateMutability":"view","type":"function"},{"inputs":[{"internalType":"address","name":"","type":"address"}],"name":"accountToOffer","outputs":[{"internalType":"uint256","name":"","type":"uint256"}],"stateMutability":"view","type":"function"},{"inputs":[],"name":"amount","outputs":[{"internalType":"uint256","name":"","type":"uint256"}],"stateMutability":"view","type":"function"},{"inputs":[],"name":"auction_state","outputs":[{"internalType":"enum SealedBidAuction.AUCTION_STATE","name":"","type":"uint8"}],"stateMutability":"view","type":"function"},{"inputs":[],"name":"closeOffers","outputs":[],"stateMutability":"nonpayable","type":"function"},{"inputs":[],"name":"closeReveals","outputs":[],"stateMutability":"nonpayable","type":"function"},{"inputs":[{"internalType":"bytes32","name":"_hash","type":"bytes32"}],"name":"makeOffer","outputs":[],"stateMutability":"payable","type":"function"},{"inputs":[],"name":"minimumPrice","outputs":[{"internalType":"uint256","name":"","type":"uint256"}],"stateMutability":"view","type":"function"},{"inputs":[],"name":"minimumPriceHash","outputs":[{"internalType":"bytes32","name":"","type":"bytes32"}],"stateMutability":"view","type":"function"},{"inputs":[],"name":"owner","outputs":[{"internalType":"address","name":"","type":"address"}],"stateMutability":"view","type":"function"},{"inputs":[],"name":"ownerGetsPayed","outputs":[],"stateMutability":"nonpayable","type":"function"},{"inputs":[],"name":"parentNFT","outputs":[{"internalType":"contract IERC721","name":"","type":"address"}],"stateMutability":"view","type":"function"},{"inputs":[{"internalType":"uint256","name":"","type":"uint256"}],"name":"players","outputs":[{"internalType":"address","name":"","type":"address"}],"stateMutability":"view","type":"function"},{"inputs":[],"name":"reimburseParticipant","outputs":[],"stateMutability":"nonpayable","type":"function"},{"inputs":[],"name":"renounceOwnership","outputs":[],"stateMutability":"nonpayable","type":"function"},{"inputs":[],"name":"returnOracleTime","outputs":[{"internalType":"uint256","name":"","type":"uint256"}],"stateMutability":"view","type":"function"},{"inputs":[{"internalType":"string","name":"_secret","type":"string"},{"internalType":"uint256","name":"_amount","type":"uint256"}],"name":"revealOffer","outputs":[],"stateMutability":"nonpayable","type":"function"},{"inputs":[],"name":"revealTime","outputs":[{"internalType":"uint256","name":"","type":"uint256"}],"stateMutability":"view","type":"function"},{"inputs":[],"name":"timeOffset","outputs":[{"internalType":"uint256","name":"","type":"uint256"}],"stateMutability":"view","type":"function"},{"inputs":[],"name":"timeOracle","outputs":[{"internalType":"contract ITimeOracle","name":"","type":"address"}],"stateMutability":"view","type":"function"},{"inputs":[],"name":"tokenId","outputs":[{"internalType":"uint256","name":"","type":"uint256"}],"stateMutability":"view","type":"function"},{"inputs":[],"name":"transferAssetToContract","outputs":[],"stateMutability":"nonpayable","type":"function"},{"inputs":[{"internalType":"address","name":"newOwner","type":"address"}],"name":"transferOwnership","outputs":[],"stateMutability":"nonpayable","type":"function"},{"inputs":[],"name":"winner","outputs":[{"internalType":"address","name":"","type":"address"}],"stateMutability":"view","type":"function"},{"inputs":[{"internalType":"string","name":"_secret","type":"string"},{"internalType":"uint256","name":"_amount","type":"uint256"}],"name":"winnerCalculation","outputs":[],"stateMutability":"nonpayable","type":"function"},{"inputs":[],"name":"winnerRetrivesToken","outputs":[],"stateMutability":"nonpayable","type":"function"},{"inputs":[],"name":"winnerTime","outputs":[{"internalType":"uint256","name":"","type":"uint256"}],"stateMutability":"view","type":"function"}],"bytecode":"60806040526005600e55600f80546001600160a01b0319167367de150e01738a06e60cf4f060b609c862527fb617905534801561003b57600080fd5b50604051620019cb380380620019cb83398101604081905261005c91610155565b61006533610105565b600180556001600160a01b0384166100c35760405162461bcd60e51b815260206004820152601a60248201527f4e6f7420612076616c6964204552433732312061646472657373000000000000604482015260640160405180910390fd5b600f805460ff60a01b19169055600894909455600a80546001600160a01b0319166001600160a01b039490941693909317909255600b55600c55600d556101ab565b600080546001600160a01b038381166001600160a01b0319831681178455604051919092169283917f8be0079c531659141344cd1fd0a4f28419497f9722a3daafe3b4186f6b6457e09190a35050565b600080600080600060a0868803121561016d57600080fd5b855160208701519095506001600160a01b038116811461018c57600080fd5b6040870151606088015160809098015196999198509695945092505050565b61181080620001bb6000396000f3fe6080604052600436106101b75760003560e01c8063a438b0e5116100ec578063d5b19df51161008a578063e8a5acee11610064578063e8a5acee14610469578063f2fde38b1461047f578063f71d96cb1461049f578063f9688bc1146104bf57600080fd5b8063d5b19df514610409578063d7ee3c7914610429578063dfbf53ae1461044957600080fd5b8063b8e33fb2116100c6578063b8e33fb21461039e578063ba829d71146103be578063d2607131146103d4578063d28a2edd146103f457600080fd5b8063a438b0e51461035d578063aa8c217c14610373578063b6f1ad5b1461038957600080fd5b806374328b1c11610159578063825d632211610133578063825d6322146102d457806389a694dd146102e95780638ab9e911146103165780638da5cb5b1461032b57600080fd5b806374328b1c146102935780637676d235146102a85780637f386b6c146102be57600080fd5b806339107381116101955780633910738114610227578063545081611461023c57806364b4d42814610251578063715018a61461027e57600080fd5b8063051e1524146101bc57806317d70f7c146101d157806335fe2d7f146101fa575b600080fd5b6101cf6101ca3660046114c4565b6104ed565b005b3480156101dd57600080fd5b506101e7600b5481565b6040519081526020015b60405180910390f35b34801561020657600080fd5b506101e76102153660046114dd565b60056020526000908152604090205481565b34801561023357600080fd5b506101cf6106a5565b34801561024857600080fd5b506101e7610888565b34801561025d57600080fd5b506101e761026c3660046114dd565b60046020526000908152604090205481565b34801561028a57600080fd5b506101cf6108fb565b34801561029f57600080fd5b506101cf610931565b3480156102b457600080fd5b506101e7600d5481565b3480156102ca57600080fd5b506101e760095481565b3480156102e057600080fd5b506101cf610a3c565b3480156102f557600080fd5b506101e76103043660046114dd565b60036020526000908152604090205481565b34801561032257600080fd5b506101cf610b7f565b34801561033757600080fd5b506000546001600160a01b03165b6040516001600160a01b0390911681526020016101f1565b34801561036957600080fd5b506101e7600e5481565b34801561037f57600080fd5b506101e760075481565b34801561039557600080fd5b506101cf610c42565b3480156103aa57600080fd5b50600a54610345906001600160a01b031681565b3480156103ca57600080fd5b506101e7600c5481565b3480156103e057600080fd5b50600f54610345906001600160a01b031681565b34801561040057600080fd5b506101cf610d59565b34801561041557600080fd5b506101cf610424366004611523565b610e4b565b34801561043557600080fd5b506101cf610444366004611523565b610fc0565b34801561045557600080fd5b50600654610345906001600160a01b031681565b34801561047557600080fd5b506101e760085481565b34801561048b57600080fd5b506101cf61049a3660046114dd565b611209565b3480156104ab57600080fd5b506103456104ba3660046114c4565b6112a4565b3480156104cb57600080fd5b50600f546104e090600160a01b900460ff1681565b6040516101f191906115ee565b6001600f54600160a01b900460ff16600481111561050d5761050d6115d8565b146105335760405162461bcd60e51b815260040161052a90611616565b60405180910390fd5b6000546001600160a01b031633141561057f5760405162461bcd60e51b815260206004820152600e60248201526d13dddb995c8818d85b9d08189a5960921b604482015260640161052a565b600034116105bf5760405162461bcd60e51b815260206004820152600d60248201526c09ccacac840e6dedaca408aa89609b1b604482015260640161052a565b336000908152600360205260409020541561060d5760405162461bcd60e51b815260206004820152600e60248201526d43616e742062696420747769636560901b604482015260640161052a565b60028054600181019091557f405787fa12a823e0f2b7631cc41b3ba8828b3321ca811111fa75cd3aa3bb5ace0180546001600160a01b03191633908117909155600081815260036020908152604080832034905560048252918290208490558151928352820183905280517f2853238c840e1dd18555551dff41e5cd85668d2fde7e4fc2f66a4e379ff4167c9281900390910190a150565b6000546001600160a01b031633146106cf5760405162461bcd60e51b815260040161052a90611643565b600260015414156106f25760405162461bcd60e51b815260040161052a90611678565b60026001556004600f54600160a01b900460ff166004811115610717576107176115d8565b1461072157600080fd5b600754156107b6576007805460009091556107446000546001600160a01b031690565b6001600160a01b03166108fc829081150290604051600060405180830381858888f1935050505015801561077c573d6000803e3d6000fd5b506040518181527fa9bae03c15d23dd001998395b3adf7648085bf2fba01211df19df18be3a51b4d9060200160405180910390a150610882565b600a546001600160a01b03166342842e0e3033600b546040516001600160e01b031960e086901b1681526001600160a01b0393841660048201529290911660248301526044820152606401600060405180830381600087803b15801561081b57600080fd5b505af115801561082f573d6000803e3d6000fd5b505050507f700a9be0c495bc7c8168d01913054b681c4b7cd5a72376a4fe03f32f5166c28a6108666000546001600160a01b031690565b6040516001600160a01b03909116815260200160405180910390a15b60018055565b600f5460408051632f70f28960e11b815290516000926001600160a01b031691635ee1e5129160048083019260209291908290030181865afa1580156108d2573d6000803e3d6000fd5b505050506040513d601f19601f820116820180604052508101906108f691906116af565b905090565b6000546001600160a01b031633146109255760405162461bcd60e51b815260040161052a90611643565b61092f60006112ce565b565b6000546001600160a01b0316331461095b5760405162461bcd60e51b815260040161052a90611643565b6000600f54600160a01b900460ff16600481111561097b5761097b6115d8565b1461098557600080fd5b600a546001600160a01b03166323b872dd33600b546040516001600160e01b031960e085901b1681526001600160a01b0390921660048301523060248301526044820152606401600060405180830381600087803b1580156109e657600080fd5b505af11580156109fa573d6000803e3d6000fd5b5050600f805460ff60a01b1916600160a01b17905550506040517f2f6f7f97e94f53db5c4466af22dabc3a2e2852bb871a001aaa29799fdb09434190600090a1565b600e54600d54610a4c91906116de565b421015610a9b5760405162461bcd60e51b815260206004820152601c60248201527f5761697420756e74696c207365742074696d65202b206f666673657400000000604482015260640161052a565b6000546001600160a01b0316331415610b015760405162461bcd60e51b815260206004820152602260248201527f4f776e6572206d757374207573652077696e6e657243616c63756c6174696f6e604482015261282960f01b606482015260840161052a565b6002600f54600160a01b900460ff166004811115610b2157610b216115d8565b14610b645760405162461bcd60e51b815260206004820152601360248201527277726f6e672061756374696f6e20737461746560681b604482015260640161052a565b600f805460ff60a01b1916600360a01b17905561092f61131e565b600c54421015610bc75760405162461bcd60e51b81526020600482015260136024820152725761697420756e74696c207365742074696d6560681b604482015260640161052a565b6001600f54600160a01b900460ff166004811115610be757610be76115d8565b14610c045760405162461bcd60e51b815260040161052a90611616565b600f805460ff60a01b1916600160a11b1790556040517f96faedf2fa195434cedbb880cb8b4608bbeb066005dc5ac6c4785935589d7a2090600090a1565b60026001541415610c655760405162461bcd60e51b815260040161052a90611678565b60026001556004600f54600160a01b900460ff166004811115610c8a57610c8a6115d8565b14610c9457600080fd5b6006546001600160a01b0316336001600160a01b031614610cb457600080fd5b600a546001600160a01b03166342842e0e3033600b546040516001600160e01b031960e086901b1681526001600160a01b0393841660048201529290911660248301526044820152606401600060405180830381600087803b158015610d1957600080fd5b505af1158015610d2d573d6000803e3d6000fd5b505050507f700a9be0c495bc7c8168d01913054b681c4b7cd5a72376a4fe03f32f5166c28a6108663390565b60026001541415610d7c5760405162461bcd60e51b815260040161052a90611678565b60026001556004600f54600160a01b900460ff166004811115610da157610da16115d8565b14610dab57600080fd5b3360009081526003602052604090205480610dc557600080fd5b336000818152600360205260408082208290555183156108fc0291849190818181858888f19350505050158015610e00573d6000803e3d6000fd5b507fc9f3c6b79609b860090fffd3a76fc2f0112ff1825f2d99af5ef7e3ab2b6eef3c33604080516001600160a01b039092168252602082018490520160405180910390a15060018055565b6000546001600160a01b03163314610e755760405162461bcd60e51b815260040161052a90611643565b6002600f54600160a01b900460ff166004811115610e9557610e956115d8565b14610eb25760405162461bcd60e51b815260040161052a90611616565b600d54421015610efa5760405162461bcd60e51b81526020600482015260136024820152725761697420756e74696c207365742074696d6560681b604482015260640161052a565b8181604051602001610f0d929190611726565b6040516020818303038152906040528051906020012060085414610f695760405162461bcd60e51b8152602060048201526013602482015272090c2e6d0cae640c8de40dcdee840dac2e8c6d606b1b604482015260640161052a565b6009819055600f805460ff60a01b1916600360a01b1790556040805182815290517f0fc8a1af0498179ab028bd9b180740384d8d1625ae26c8e88ddac563006ae5869181900360200190a1610fbc61131e565b5050565b6002600f54600160a01b900460ff166004811115610fe057610fe06115d8565b1461101e5760405162461bcd60e51b815260206004820152600e60248201526d4e6f742072696768742074696d6560901b604482015260640161052a565b3360009081526003602052604090205461107a5760405162461bcd60e51b815260206004820152601960248201527f596f7520617265206e6f742061207061727469636970616e7400000000000000604482015260640161052a565b33600090815260056020526040902054156110ce5760405162461bcd60e51b815260206004820152601460248201527343616e206f6e6c792072657665616c206f6e636560601b604482015260640161052a565b336000908152600360205260409020548111156111215760405162461bcd60e51b815260206004820152601160248201527013d999995c881a5b9d985b1a59185d1959607a1b604482015260640161052a565b8181604051602001611134929190611726565b60405160208183030381529060405280519060200120600460006111553390565b6001600160a01b03166001600160a01b0316815260200190815260200160002054146111b95760405162461bcd60e51b8152602060048201526013602482015272090c2e6d0cae640c8de40dcdee840dac2e8c6d606b1b604482015260640161052a565b3360008181526005602052604090819020839055517ff23315b5875c8d1e8e2d1f24e22ef7d94663e61a21f375f129cf311920f999fa916111fd9185908590611748565b60405180910390a15050565b6000546001600160a01b031633146112335760405162461bcd60e51b815260040161052a90611643565b6001600160a01b0381166112985760405162461bcd60e51b815260206004820152602660248201527f4f776e61626c653a206e6577206f776e657220697320746865207a65726f206160448201526564647265737360d01b606482015260840161052a565b6112a1816112ce565b50565b600281815481106112b457600080fd5b6000918252602090912001546001600160a01b0316905081565b600080546001600160a01b038381166001600160a01b0319831681178455604051919092169283917f8be0079c531659141344cd1fd0a4f28419497f9722a3daafe3b4186f6b6457e09190a35050565b6002546000908190819015611460575060005b6002548110156113d25781600560006002848154811061135357611353611792565b60009182526020808320909101546001600160a01b0316835282019290925260400190205411156113c057809250600560006002838154811061139857611398611792565b60009182526020808320909101546001600160a01b0316835282019290925260400190205491505b806113ca816117a8565b915050611331565b811561146057600954821061146057600283815481106113f4576113f4611792565b6000918252602080832090910154600680546001600160a01b0319166001600160a01b039092169182179055825260058152604080832054600781905560039092529091205461144491906117c3565b6006546001600160a01b03166000908152600360205260409020555b600f8054600160a21b60ff60a01b19909116179055600654600754604080516001600160a01b03909316835260208301919091527fc5d1e2a43e1052756e222065802cb80a029bfaf7045b3df42c5c87b92e48de41910160405180910390a1505050565b6000602082840312156114d657600080fd5b5035919050565b6000602082840312156114ef57600080fd5b81356001600160a01b038116811461150657600080fd5b9392505050565b634e487b7160e01b600052604160045260246000fd5b6000806040838503121561153657600080fd5b823567ffffffffffffffff8082111561154e57600080fd5b818501915085601f83011261156257600080fd5b8135818111156115745761157461150d565b604051601f8201601f19908116603f0116810190838211818310171561159c5761159c61150d565b816040528281528860208487010111156115b557600080fd5b826020860160208301376000602093820184015298969091013596505050505050565b634e487b7160e01b600052602160045260246000fd5b602081016005831061161057634e487b7160e01b600052602160045260246000fd5b91905290565b60208082526013908201527257726f6e672061756374696f6e20737461746560681b604082015260600190565b6020808252818101527f4f776e61626c653a2063616c6c6572206973206e6f7420746865206f776e6572604082015260600190565b6020808252601f908201527f5265656e7472616e637947756172643a207265656e7472616e742063616c6c00604082015260600190565b6000602082840312156116c157600080fd5b5051919050565b634e487b7160e01b600052601160045260246000fd5b600082198211156116f1576116f16116c8565b500190565b60005b838110156117115781810151838201526020016116f9565b83811115611720576000848401525b50505050565b600083516117388184602088016116f6565b9190910191825250602001919050565b60018060a01b038416815260606020820152600083518060608401526117758160808501602088016116f6565b604083019390935250601f91909101601f19160160800192915050565b634e487b7160e01b600052603260045260246000fd5b60006000198214156117bc576117bc6116c8565b5060010190565b6000828210156117d5576117d56116c8565b50039056fea26469706673582212205999fd3e99cdc4c644775fe08300c90afc590e9b4ffe2c45d762a206f82b078064736f6c634300080c0033","bytecodeSha1":"149adf9a5681141704adf63961224e453354874e","compiler":{"evm_version":"istanbul","optimizer":{"enabled":true,"runs":200},"version":"0.8.12+commit.f00d7308"},"contractName":"SealedBidAuction","language":"Solidity","natspec":{"kind":"dev","methods":{"closeOffers()":{"details":"Changes state of auction to offer reveals  Requirements:  -Time origin must be larger than contract set time  -Auction state must be in RECIVEING_OFFERS  -Must transfer a non zero amount of eth Emits a {OffersClosed} event. "},"closeReveals()":{"details":"Changes auction state to CALCULATING_WINNER  Requirements:  -   caller must not be owner  -   time origin must be larger than preset closeReveals time  -   Auction state must be in OFFER_REVEAL Calls _closeReveals() Internal funciton. "},"constructor":{"details":"Auction constructor  Constructs the auction contract. Requirements:    -'_nftContract' cannot be zero address"},"makeOffer(bytes32)":{"details":"Lets a participant make an offer  Requirements:  -Auction state must be RECIVEING_OFFERS  -Contract owner cant make an offer  -Must transfer a non zero amount of eth Emits a {OfferMade} event. "},"owner()":{"details":"Returns the address of the current owner."},"ownerGetsPayed()":{"details":"Auction owner retrives sale price or nft if it did not sell  Requirements:  -   caller must be owner  -   Auction state must be in AUCTION_ENDED Emits a {OwnerPayed} xor {TokenWithdrawal} event. "},"reimburseParticipant()":{"details":"Reinburses deposited amount left to participants after auction ends  Requirements:  -   Auction state must be in AUCTION_ENDED  -   accountToAmount[_msgSender()] must be larger than 0 Emits a {ParticipantReimbursed} event. "},"renounceOwnership()":{"details":"Leaves the contract without owner. It will not be possible to call `onlyOwner` functions anymore. Can only be called by the current owner. NOTE: Renouncing ownership will leave the contract without an owner, thereby removing any functionality that is only available to the owner."},"revealOffer(string,uint256)":{"details":"Reveals offer of participants  Requirements:  -   accountToAmount[_msgSender()] must not be zero  -   accountToOffer[_msgSender()] must be zero. Prevents double reveals  -   Auction state must be in OFFER_REVEAL  -   Must transfer a non zero amount of eth  -   _amount must be equal or smaller to accountToAmount[_msgSender()]  -   _secret and _amount hash must match stored hash Emits a {OfferRevealed} event. "},"transferAssetToContract()":{"details":"Transfers ERC721 to contract  Requirements:  -Auction state must be CONTRACT_CREATION Emits a {ERC721Transfer} event. "},"transferOwnership(address)":{"details":"Transfers ownership of the contract to a new account (`newOwner`). Can only be called by the current owner."},"winnerCalculation(string,uint256)":{"details":"Owner reveals minimum price and calculates winner  Requirements:  -   caller must be owner  -   Auction state must be in OFFER_REVEAL  -   time origin must be larger than preset closeReveals time  -   _secret and _amount hash must match stored hash Emits a {MinimumPriceRevealed} event. "},"winnerRetrivesToken()":{"details":"Auction winner retrives ERC721 token.  Requirements:  -   Auction state must be in AUCTION_ENDED  -   caller must be auction winner Emits a {TokenWithdrawal} event. "}},"notice":"Sealed Bid auction protocol. ","version":1},"opcodes":"PUSH1 0x80 PUSH1 0x40 MSTORE PUSH1 0x4 CALLDATASIZE LT PUSH2 0x1B7 JUMPI PUSH1 0x0 CALLDATALOAD PUSH1 0xE0 SHR DUP1 PUSH4 0xA438B0E5 GT PUSH2 0xEC JUMPI DUP1 PUSH4 0xD5B19DF5 GT PUSH2 0x8A JUMPI DUP1 PUSH4 0xE8A5ACEE GT PUSH2 0x64 JUMPI DUP1 PUSH4 0xE8A5ACEE EQ PUSH2 0x469 JUMPI DUP1 PUSH4 0xF2FDE38B EQ PUSH2 0x47F JUMPI DUP1 PUSH4 0xF71D96CB EQ PUSH2 0x49F JUMPI DUP1 PUSH4 0xF9688BC1 EQ PUSH2 0x4BF JUMPI PUSH1 0x0 DUP1 REVERT JUMPDEST DUP1 PUSH4 0xD5B19DF5 EQ PUSH2 0x409 JUMPI DUP1 PUSH4 0xD7EE3C79 EQ PUSH2 0x429 JUMPI DUP1 PUSH4 0xDFBF53AE EQ PUSH2 0x449 JUMPI PUSH1 0x0 DUP1 REVERT JUMPDEST DUP1 PUSH4 0xB8E33FB2 GT PUSH2 0xC6 JUMPI DUP1 PUSH4 0xB8E33FB2 EQ PUSH2 0x39E JUMPI DUP1 PUSH4 0xBA829D71 EQ PUSH2 0x3BE JUMPI DUP1 PUSH4 0xD2607131 EQ PUSH2 0x3D4 JUMPI DUP1 PUSH4 0xD28A2EDD EQ PUSH2 0x3F4 JUMPI PUSH1 0x0 DUP1 REVERT JUMPDEST DUP1 PUSH4 0xA438B0E5 EQ PUSH2 0x35D JUMPI DUP1 PUSH4 0xAA8C217C EQ PUSH2 0x373 JUMPI DUP1 PUSH4 0xB6F1AD5B EQ PUSH2 0x389 JUMPI PUSH1 0x0 DUP1 REVERT JUMPDEST DUP1 PUSH4 0x74328B1C GT PUSH2 0x159 JUMPI DUP1 PUSH4 0x825D6322 GT PUSH2 0x133 JUMPI DUP1 PUSH4 0x825D6322 EQ PUSH2 0x2D4 JUMPI DUP1 PUSH4 0x89A694DD EQ PUSH2 0x2E9 JUMPI DUP1 PUSH4 0x8AB9E911 EQ PUSH2 0x316 JUMPI DUP1 PUSH4 0x8DA5CB5B EQ PUSH2 0x32B JUMPI PUSH1 0x0 DUP1 REVERT JUMPDEST DUP1 PUSH4 0x74328B1C EQ PUSH2 0x293 JUMPI DUP1 PUSH4 0x7676D235 EQ PUSH2 0x2A8 JUMPI DUP1 PUSH4 0x7F386B6C EQ PUSH2 0x2BE JUMPI PUSH1 0x0 DUP1 REVERT JUMPDEST DUP1 PUSH4 0x39107381 GT PUSH2 0x195 JUMPI DUP1 PUSH4 0x39107381 EQ PUSH2 0x227 JUMPI DUP1 PUSH4 0x54508161 EQ PUSH2 0x23C JUMPI DUP1 PUSH4 0x64B4D428 EQ PUSH2 0x251 JUMPI DUP1 PUSH4 0x715018A6 EQ PUSH2 0x27E JUMPI PUSH1 0x0 DUP1 REVERT JUMPDEST DUP1 PUSH4 0x51E1524 EQ PUSH2 0x1BC JUMPI DUP1 PUSH4 0x17D70F7C EQ PUSH2 0x1D1 JUMPI DUP1 PUSH4 0x35FE2D7F EQ PUSH2 0x1FA JUMPI JUMPDEST PUSH1 0x0 DUP1 REVERT JUMPDEST PUSH2 0x1CF PUSH2 0x1CA CALLDATASIZE PUSH1 0x4 PUSH2 0x14C4 JUMP JUMPDEST PUSH2 0x4ED JUMP JUMPDEST STOP JUMPDEST CALLVALUE DUP1 ISZERO PUSH2 0x1DD JUMPI PUSH1 0x0 DUP1 REVERT JUMPDEST POP PUSH2 0x1E7 PUSH1 0xB SLOAD DUP2 JUMP JUMPDEST PUSH1 0x40 MLOAD SWAP1 DUP2 MSTORE PUSH1 0x20 ADD JUMPDEST PUSH1 0x40 MLOAD DUP1 SWAP2 SUB SWAP1 RETURN JUMPDEST CALLVALUE DUP1 ISZERO PUSH2 0x206 JUMPI PUSH1 0x0 DUP1 REVERT JUMPDEST POP PUSH2 0x1E7 PUSH2 0x215 CALLDATASIZE PUSH1 0x4 PUSH2 0x14DD JUMP JUMPDEST PUSH1 0x5 PUSH1 0x20 MSTORE PUSH1 0x0 SWAP1 DUP2 MSTORE PUSH1 0x40 SWAP1 KECCAK256 SLOAD DUP2 JUMP JUMPDEST CALLVALUE DUP1 ISZERO PUSH2 0x233 JUMPI PUSH1 0x0 DUP1 REVERT JUMPDEST POP PUSH2 0x1CF PUSH2 0x6A5 JUMP JUMPDEST CALLVALUE DUP1 ISZERO PUSH2 0x248 JUMPI PUSH1 0x0 DUP1 REVERT JUMPDEST POP PUSH2 0x1E7 PUSH2 0x888 JUMP JUMPDEST CALLVALUE DUP1 ISZERO PUSH2 0x25D JUMPI PUSH1 0x0 DUP1 REVERT JUMPDEST POP PUSH2 0x1E7 PUSH2 0x26C CALLDATASIZE PUSH1 0x4 PUSH2 0x14DD JUMP JUMPDEST PUSH1 0x4 PUSH1 0x20 MSTORE PUSH1 0x0 SWAP1 DUP2 MSTORE PUSH1 0x40 SWAP1 KECCAK256 SLOAD DUP2 JUMP JUMPDEST CALLVALUE DUP1 ISZERO PUSH2 0x28A JUMPI PUSH1 0x0 DUP1 REVERT JUMPDEST POP PUSH2 0x1CF PUSH2 0x8FB JUMP JUMPDEST CALLVALUE DUP1 ISZERO PUSH2 0x29F JUMPI PUSH1 0x0 DUP1 REVERT JUMPDEST POP PUSH2 0x1CF PUSH2 0x931 JUMP JUMPDEST CALLVALUE DUP1 ISZERO PUSH2 0x2B4 JUMPI PUSH1 0x0 DUP1 REVERT JUMPDEST POP PUSH2 0x1E7 PUSH1 0xD SLOAD DUP2 JUMP JUMPDEST CALLVALUE DUP1 ISZERO PUSH2 0x2CA JUMPI PUSH1 0x0 DUP1 REVERT JUMPDEST POP PUSH2 0x1E7 PUSH1 0x9 SLOAD DUP2 JUMP JUMPDEST CALLVALUE DUP1 ISZERO PUSH2 0x2E0 JUMPI PUSH1 0x0 DUP1 REVERT JUMPDEST POP PUSH2 0x1CF PUSH2 0xA3C JUMP JUMPDEST CALLVALUE DUP1 ISZERO PUSH2 0x2F5 JUMPI PUSH1 0x0 DUP1 REVERT JUMPDEST POP PUSH2 0x1E7 PUSH2 0x304 CALLDATASIZE PUSH1 0x4 PUSH2 0x14DD JUMP JUMPDEST PUSH1 0x3 PUSH1 0x20 MSTORE PUSH1 0x0 SWAP1 DUP2 MSTORE PUSH1 0x40 SWAP1 KECCAK256 SLOAD DUP2 JUMP JUMPDEST CALLVALUE DUP1 ISZERO PUSH2 0x322 JUMPI PUSH1 0x0 DUP1 REVERT JUMPDEST POP PUSH2 0x1CF PUSH2 0xB7F JUMP JUMPDEST CALLVALUE DUP1 ISZERO PUSH2 0x337 JUMPI PUSH1 0x0 DUP1 REVERT JUMPDEST POP PUSH1 0x0 SLOAD PUSH1 0x1 PUSH1 0x1 PUSH1 0xA0 SHL SUB AND JUMPDEST PUSH1 0x40 MLOAD PUSH1 0x1 PUSH1 0x1 PUSH1 0xA0 SHL SUB SWAP1 SWAP2 AND DUP2 MSTORE PUSH1 0x20 ADD PUSH2 0x1F1 JUMP JUMPDEST CALLVALUE DUP1 ISZERO PUSH2 0x369 JUMPI PUSH1 0x0 DUP1 REVERT JUMPDEST POP PUSH2 0x1E7 PUSH1 0xE SLOAD DUP2 JUMP JUMPDEST CALLVALUE DUP1 ISZERO PUSH2 0x37F JUMPI PUSH1 0x0 DUP1 REVERT JUMPDEST POP PUSH2 0x1E7 PUSH1 0x7 SLOAD DUP2 JUMP JUMPDEST CALLVALUE DUP1 ISZERO PUSH2 0x395 JUMPI PUSH1 0x0 DUP1 REVERT JUMPDEST POP PUSH2 0x1CF PUSH2 0xC42 JUMP JUMPDEST CALLVALUE DUP1 ISZERO PUSH2 0x3AA JUMPI PUSH1 0x0 DUP1 REVERT JUMPDEST POP PUSH1 0xA SLOAD PUSH2 0x345 SWAP1 PUSH1 0x1 PUSH1 0x1 PUSH1 0xA0 SHL SUB AND DUP2 JUMP JUMPDEST CALLVALUE DUP1 ISZERO PUSH2 0x3CA JUMPI PUSH1 0x0 DUP1 REVERT JUMPDEST POP PUSH2 0x1E7 PUSH1 0xC SLOAD DUP2 JUMP JUMPDEST CALLVALUE DUP1 ISZERO PUSH2 0x3E0 JUMPI PUSH1 0x0 DUP1 REVERT JUMPDEST POP PUSH1 0xF SLOAD PUSH2 0x345 SWAP1 PUSH1 0x1 PUSH1 0x1 PUSH1 0xA0 SHL SUB AND DUP2 JUMP JUMPDEST CALLVALUE DUP1 ISZERO PUSH2 0x400 JUMPI PUSH1 0x0 DUP1 REVERT JUMPDEST POP PUSH2 0x1CF PUSH2 0xD59 JUMP JUMPDEST CALLVALUE DUP1 ISZERO PUSH2 0x415 JUMPI PUSH1 0x0 DUP1 REVERT JUMPDEST POP PUSH2 0x1CF PUSH2 0x424 CALLDATASIZE PUSH1 0x4 PUSH2 0x1523 JUMP JUMPDEST PUSH2 0xE4B JUMP JUMPDEST CALLVALUE DUP1 ISZERO PUSH2 0x435 JUMPI PUSH1 0x0 DUP1 REVERT JUMPDEST POP PUSH2 0x1CF PUSH2 0x444 CALLDATASIZE PUSH1 0x4 PUSH2 0x1523 JUMP JUMPDEST PUSH2 0xFC0 JUMP JUMPDEST CALLVALUE DUP1 ISZERO PUSH2 0x455 JUMPI PUSH1 0x0 DUP1 REVERT JUMPDEST POP PUSH1 0x6 SLOAD PUSH2 0x345 SWAP1 PUSH1 0x1 PUSH1 0x1 PUSH1 0xA0 SHL SUB AND DUP2 JUMP JUMPDEST CALLVALUE DUP1 ISZERO PUSH2 0x475 JUMPI PUSH1 0x0 DUP1 REVERT JUMPDEST POP PUSH2 0x1E7 PUSH1 0x8 SLOAD DUP2 JUMP JUMPDEST CALLVALUE DUP1 ISZERO PUSH2 0x48B JUMPI PUSH1 0x0 DUP1 REVERT JUMPDEST POP PUSH2 0x1CF PUSH2 0x49A CALLDATASIZE PUSH1 0x4 PUSH2 0x14DD JUMP JUMPDEST PUSH2 0x1209 JUMP JUMPDEST CALLVALUE DUP1 ISZERO PUSH2 0x4AB JUMPI PUSH1 0x0 DUP1 REVERT JUMPDEST POP PUSH2 0x345 PUSH2 0x4BA CALLDATASIZE PUSH1 0x4 PUSH2 0x14C4 JUMP JUMPDEST PUSH2 0x12A4 JUMP JUMPDEST CALLVALUE DUP1 ISZERO PUSH2 0x4CB JUMPI PUSH1 0x0 DUP1 REVERT JUMPDEST POP PUSH1 0xF SLOAD PUSH2 0x4E0 SWAP1 PUSH1 0x1 PUSH1 0xA0 SHL SWAP1 DIV PUSH1 0xFF AND DUP2 JUMP JUMPDEST PUSH1 0x40 MLOAD PUSH2 0x1F1 SWAP2 SWAP1 PUSH2 0x15EE JUMP JUMPDEST PUSH1 0x1 PUSH1 0xF SLOAD PUSH1 0x1 PUSH1 0xA0 SHL SWAP1 DIV PUSH1 0xFF AND PUSH1 0x4 DUP2 GT ISZERO PUSH2 0x50D JUMPI PUSH2 0x50D PUSH2 0x15D8 JUMP JUMPDEST EQ PUSH2 0x533 JUMPI PUSH1 0x40 MLOAD PUSH3 0x461BCD PUSH1 0xE5 SHL DUP2 MSTORE PUSH1 0x4 ADD PUSH2 0x52A SWAP1 PUSH2 0x1616 JUMP JUMPDEST PUSH1 0x40 MLOAD DUP1 SWAP2 SUB SWAP1 REVERT JUMPDEST PUSH1 0x0 SLOAD PUSH1 0x1 PUSH1 0x1 PUSH1 0xA0 SHL SUB AND CALLER EQ ISZERO PUSH2 0x57F JUMPI PUSH1 0x40 MLOAD PUSH3 0x461BCD PUSH1 0xE5 SHL DUP2 MSTORE PUSH1 0x20 PUSH1 0x4 DUP3 ADD MSTORE PUSH1 0xE PUSH1 0x24 DUP3 ADD MSTORE PUSH14 0x13DDDB995C8818D85B9D08189A59 PUSH1 0x92 SHL PUSH1 0x44 DUP3 ADD MSTORE PUSH1 0x64 ADD PUSH2 0x52A JUMP JUMPDEST PUSH1 0x0 CALLVALUE GT PUSH2 0x5BF JUMPI PUSH1 0x40 MLOAD PUSH3 0x461BCD PUSH1 0xE5 SHL DUP2 MSTORE PUSH1 0x20 PUSH1 0x4 DUP3 ADD MSTORE PUSH1 0xD PUSH1 0x24 DUP3 ADD MSTORE PUSH13 0x9CCACAC840E6DEDACA408AA89 PUSH1 0x9B SHL PUSH1 0x44 DUP3 ADD MSTORE PUSH1 0x64 ADD PUSH2 0x52A JUMP JUMPDEST CALLER PUSH1 0x0 SWAP1 DUP2 MSTORE PUSH1 0x3 PUSH1 0x20 MSTORE PUSH1 0x40 SWAP1 KECCAK256 SLOAD ISZERO PUSH2 0x60D JUMPI PUSH1 0x40 MLOAD PUSH3 0x461BCD PUSH1 0xE5 SHL DUP2 MSTORE PUSH1 0x20 PUSH1 0x4 DUP3 ADD MSTORE PUSH1 0xE PUSH1 0x24 DUP3 ADD MSTORE PUSH14 0x43616E7420626964207477696365 PUSH1 0x90 SHL PUSH1 0x44 DUP3 ADD MSTORE PUSH1 0x64 ADD PUSH2 0x52A JUMP JUMPDEST PUSH1 0x2 DUP1 SLOAD PUSH1 0x1 DUP2 ADD SWAP1 SWAP2 SSTORE PUSH32 0x405787FA12A823E0F2B7631CC41B3BA8828B3321CA811111FA75CD3AA3BB5ACE ADD DUP1 SLOAD PUSH1 0x1 PUSH1 0x1 PUSH1 0xA0 SHL SUB NOT AND CALLER SWAP1 DUP2 OR SWAP1 SWAP2 SSTORE PUSH1 0x0 DUP2 DUP2 MSTORE PUSH1 0x3 PUSH1 0x20 SWAP1 DUP2 MSTORE PUSH1 0x40 DUP1 DUP4 KECCAK256 CALLVALUE SWAP1 SSTORE PUSH1 0x4 DUP3 MSTORE SWAP2 DUP3 SWAP1 KECCAK256 DUP5 SWAP1 SSTORE DUP2 MLOAD SWAP3 DUP4 MSTORE DUP3 ADD DUP4 SWAP1 MSTORE DUP1 MLOAD PUSH32 0x2853238C840E1DD18555551DFF41E5CD85668D2FDE7E4FC2F66A4E379FF4167C SWAP3 DUP2 SWAP1 SUB SWAP1 SWAP2 ADD SWAP1 LOG1 POP JUMP JUMPDEST PUSH1 0x0 SLOAD PUSH1 0x1 PUSH1 0x1 PUSH1 0xA0 SHL SUB AND CALLER EQ PUSH2 0x6CF JUMPI PUSH1 0x40 MLOAD PUSH3 0x461BCD PUSH1 0xE5 SHL DUP2 MSTORE PUSH1 0x4 ADD PUSH2 0x52A SWAP1 PUSH2 0x1643 JUMP JUMPDEST PUSH1 0x2 PUSH1 0x1 SLOAD EQ ISZERO PUSH2 0x6F2 JUMPI PUSH1 0x40 MLOAD PUSH3 0x461BCD PUSH1 0xE5 SHL DUP2 MSTORE PUSH1 0x4 ADD PUSH2 0x52A SWAP1 PUSH2 0x1678 JUMP JUMPDEST PUSH1 0x2 PUSH1 0x1 SSTORE PUSH1 0x4 PUSH1 0xF SLOAD PUSH1 0x1 PUSH1 0xA0 SHL SWAP1 DIV PUSH1 0xFF AND PUSH1 0x4 DUP2 GT ISZERO PUSH2 0x717 JUMPI PUSH2 0x717 PUSH2 0x15D8 JUMP JUMPDEST EQ PUSH2 0x721 JUMPI PUSH1 0x0 DUP1 REVERT JUMPDEST PUSH1 0x7 SLOAD ISZERO PUSH2 0x7B6 JUMPI PUSH1 0x7 DUP1 SLOAD PUSH1 0x0 SWAP1 SWAP2 SSTORE PUSH2 0x744 PUSH1 0x0 SLOAD PUSH1 0x1 PUSH1 0x1 PUSH1 0xA0 SHL SUB AND SWAP1 JUMP JUMPDEST PUSH1 0x1 PUSH1 0x1 PUSH1 0xA0 SHL SUB AND PUSH2 0x8FC DUP3 SWAP1 DUP2 ISZERO MUL SWAP1 PUSH1 0x40 MLOAD PUSH1 0x0 PUSH1 0x40 MLOAD DUP1 DUP4 SUB DUP2 DUP6 DUP9 DUP9 CALL SWAP4 POP POP POP POP ISZERO DUP1 ISZERO PUSH2 0x77C JUMPI RETURNDATASIZE PUSH1 0x0 DUP1 RETURNDATACOPY RETURNDATASIZE PUSH1 0x0 REVERT JUMPDEST POP PUSH1 0x40 MLOAD DUP2 DUP2 MSTORE PUSH32 0xA9BAE03C15D23DD001998395B3ADF7648085BF2FBA01211DF19DF18BE3A51B4D SWAP1 PUSH1 0x20 ADD PUSH1 0x40 MLOAD DUP1 SWAP2 SUB SWAP1 LOG1 POP PUSH2 0x882 JUMP JUMPDEST PUSH1 0xA SLOAD PUSH1 0x1 PUSH1 0x1 PUSH1 0xA0 SHL SUB AND PUSH4 0x42842E0E ADDRESS CALLER PUSH1 0xB SLOAD PUSH1 0x40 MLOAD PUSH1 0x1 PUSH1 0x1 PUSH1 0xE0 SHL SUB NOT PUSH1 0xE0 DUP7 SWAP1 SHL AND DUP2 MSTORE PUSH1 0x1 PUSH1 0x1 PUSH1 0xA0 SHL SUB SWAP4 DUP5 AND PUSH1 0x4 DUP3 ADD MSTORE SWAP3 SWAP1 SWAP2 AND PUSH1 0x24 DUP4 ADD MSTORE PUSH1 0x44 DUP3 ADD MSTORE PUSH1 0x64 ADD PUSH1 0x0 PUSH1 0x40 MLOAD DUP1 DUP4 SUB DUP2 PUSH1 0x0 DUP8 DUP1 EXTCODESIZE ISZERO DUP1 ISZERO PUSH2 0x81B JUMPI PUSH1 0x0 DUP1 REVERT JUMPDEST POP GAS CALL ISZERO DUP1 ISZERO PUSH2 0x82F JUMPI RETURNDATASIZE PUSH1 0x0 DUP1 RETURNDATACOPY RETURNDATASIZE PUSH1 0x0 REVERT JUMPDEST POP POP POP POP PUSH32 0x700A9BE0C495BC7C8168D01913054B681C4B7CD5A72376A4FE03F32F5166C28A PUSH2 0x866 PUSH1 0x0 SLOAD PUSH1 0x1 PUSH1 0x1 PUSH1 0xA0 SHL SUB AND SWAP1 JUMP JUMPDEST PUSH1 0x40 MLOAD PUSH1 0x1 PUSH1 0x1 PUSH1 0xA0 SHL SUB SWAP1 SWAP2 AND DUP2 MSTORE PUSH1 0x20 ADD PUSH1 0x40 MLOAD DUP1 SWAP2 SUB SWAP1 LOG1 JUMPDEST PUSH1 0x1 DUP1 SSTORE JUMP JUMPDEST PUSH1 0xF SLOAD PUSH1 0x40 DUP1 MLOAD PUSH4 0x2F70F289 PUSH1 0xE1 SHL DUP2 MSTORE SWAP1 MLOAD PUSH1 0x0 SWAP3 PUSH1 0x1 PUSH1 0x1 PUSH1 0xA0 SHL SUB AND SWAP2 PUSH4 0x5EE1E512 SWAP2 PUSH1 0x4 DUP1 DUP4 ADD SWAP3 PUSH1 0x20 SWAP3 SWAP2 SWAP1 DUP3 SWAP1 SUB ADD DUP2 DUP7 GAS STATICCALL ISZERO DUP1 ISZERO PUSH2 0x8D2 JUMPI RETURNDATASIZE PUSH1 0x0 DUP1 RETURNDATACOPY RETURNDATASIZE PUSH1 0x0 REVERT JUMPDEST POP POP POP POP PUSH1 0x40 MLOAD RETURNDATASIZE PUSH1 0x1F NOT PUSH1 0x1F DUP3 ADD AND DUP3 ADD DUP1 PUSH1 0x40 MSTORE POP DUP2 ADD SWAP1 PUSH2 0x8F6 SWAP2 SWAP1 PUSH2 0x16AF JUMP JUMPDEST SWAP1 POP SWAP1 JUMP JUMPDEST PUSH1 0x0 SLOAD PUSH1 0x1 PUSH1 0x1 PUSH1 0xA0 SHL SUB AND CALLER EQ PUSH2 0x925 JUMPI PUSH1 0x40 MLOAD PUSH3 0x461BCD PUSH1 0xE5 SHL DUP2 MSTORE PUSH1 0x4 ADD PUSH2 0x52A SWAP1 PUSH2 0x1643 JUMP JUMPDEST PUSH2 0x92F PUSH1 0x0 PUSH2 0x12CE JUMP JUMPDEST JUMP JUMPDEST PUSH1 0x0 SLOAD PUSH1 0x1 PUSH1 0x1 PUSH1 0xA0 SHL SUB AND CALLER EQ PUSH2 0x95B JUMPI PUSH1 0x40 MLOAD PUSH3 0x461BCD PUSH1 0xE5 SHL DUP2 MSTORE PUSH1 0x4 ADD PUSH2 0x52A SWAP1 PUSH2 0x1643 JUMP JUMPDEST PUSH1 0x0 PUSH1 0xF SLOAD PUSH1 0x1 PUSH1 0xA0 SHL SWAP1 DIV PUSH1 0xFF AND PUSH1 0x4 DUP2 GT ISZERO PUSH2 0x97B JUMPI PUSH2 0x97B PUSH2 0x15D8 JUMP JUMPDEST EQ PUSH2 0x985 JUMPI PUSH1 0x0 DUP1 REVERT JUMPDEST PUSH1 0xA SLOAD PUSH1 0x1 PUSH1 0x1 PUSH1 0xA0 SHL SUB AND PUSH4 0x23B872DD CALLER PUSH1 0xB SLOAD PUSH1 0x40 MLOAD PUSH1 0x1 PUSH1 0x1 PUSH1 0xE0 SHL SUB NOT PUSH1 0xE0 DUP6 SWAP1 SHL AND DUP2 MSTORE PUSH1 0x1 PUSH1 0x1 PUSH1 0xA0 SHL SUB SWAP1 SWAP3 AND PUSH1 0x4 DUP4 ADD MSTORE ADDRESS PUSH1 0x24 DUP4 ADD MSTORE PUSH1 0x44 DUP3 ADD MSTORE PUSH1 0x64 ADD PUSH1 0x0 PUSH1 0x40 MLOAD DUP1 DUP4 SUB DUP2 PUSH1 0x0 DUP8 DUP1 EXTCODESIZE ISZERO DUP1 ISZERO PUSH2 0x9E6 JUMPI PUSH1 0x0 DUP1 REVERT JUMPDEST POP GAS CALL ISZERO DUP1 ISZERO PUSH2 0x9FA JUMPI RETURNDATASIZE PUSH1 0x0 DUP1 RETURNDATACOPY RETURNDATASIZE PUSH1 0x0 REVERT JUMPDEST POP POP PUSH1 0xF DUP1 SLOAD PUSH1 0xFF PUSH1 0xA0 SHL NOT AND PUSH1 0x1 PUSH1 0xA0 SHL OR SWAP1 SSTORE POP POP PUSH1 0x40 MLOAD PUSH32 0x2F6F7F97E94F53DB5C4466AF22DABC3A2E2852BB871A001AAA29799FDB094341 SWAP1 PUSH1 0x0 SWAP1 LOG1 JUMP JUMPDEST PUSH1 0xE SLOAD PUSH1 0xD SLOAD PUSH2 0xA4C SWAP2 SWAP1 PUSH2 0x16DE JUMP JUMPDEST TIMESTAMP LT ISZERO PUSH2 0xA9B JUMPI PUSH1 0x40 MLOAD PUSH3 0x461BCD PUSH1 0xE5 SHL DUP2 MSTORE PUSH1 0x20 PUSH1 0x4 DUP3 ADD MSTORE PUSH1 0x1C PUSH1 0x24 DUP3 ADD MSTORE PUSH32 0x5761697420756E74696C207365742074696D65202B206F666673657400000000 PUSH1 0x44 DUP3 ADD MSTORE PUSH1 0x64 ADD PUSH2 0x52A JUMP JUMPDEST PUSH1 0x0 SLOAD PUSH1 0x1 PUSH1 0x1 PUSH1 0xA0 SHL SUB AND CALLER EQ ISZERO PUSH2 0xB01 JUMPI PUSH1 0x40 MLOAD PUSH3 0x461BCD PUSH1 0xE5 SHL DUP2 MSTORE PUSH1 0x20 PUSH1 0x4 DUP3 ADD MSTORE PUSH1 0x22 PUSH1 0x24 DUP3 ADD MSTORE PUSH32 0x4F776E6572206D757374207573652077696E6E657243616C63756C6174696F6E PUSH1 0x44 DUP3 ADD MSTORE PUSH2 0x2829 PUSH1 0xF0 SHL PUSH1 0x64 DUP3 ADD MSTORE PUSH1 0x84 ADD PUSH2 0x52A JUMP JUMPDEST PUSH1 0x2 PUSH1 0xF SLOAD PUSH1 0x1 PUSH1 0xA0 SHL SWAP1 DIV PUSH1 0xFF AND PUSH1 0x4 DUP2 GT ISZERO PUSH2 0xB21 JUMPI PUSH2 0xB21 PUSH2 0x15D8 JUMP JUMPDEST EQ PUSH2 0xB64 JUMPI PUSH1 0x40 MLOAD PUSH3 0x461BCD PUSH1 0xE5 SHL DUP2 MSTORE PUSH1 0x20 PUSH1 0x4 DUP3 ADD MSTORE PUSH1 0x13 PUSH1 0x24 DUP3 ADD MSTORE PUSH19 0x77726F6E672061756374696F6E207374617465 PUSH1 0x68 SHL PUSH1 0x44 DUP3 ADD MSTORE PUSH1 0x64 ADD PUSH2 0x52A JUMP JUMPDEST PUSH1 0xF DUP1 SLOAD PUSH1 0xFF PUSH1 0xA0 SHL NOT AND PUSH1 0x3 PUSH1 0xA0 SHL OR SWAP1 SSTORE PUSH2 0x92F PUSH2 0x131E JUMP JUMPDEST PUSH1 0xC SLOAD TIMESTAMP LT ISZERO PUSH2 0xBC7 JUMPI PUSH1 0x40 MLOAD PUSH3 0x461BCD PUSH1 0xE5 SHL DUP2 MSTORE PUSH1 0x20 PUSH1 0x4 DUP3 ADD MSTORE PUSH1 0x13 PUSH1 0x24 DUP3 ADD MSTORE PUSH19 0x5761697420756E74696C207365742074696D65 PUSH1 0x68 SHL PUSH1 0x44 DUP3 ADD MSTORE PUSH1 0x64 ADD PUSH2 0x52A JUMP JUMPDEST PUSH1 0x1 PUSH1 0xF SLOAD PUSH1 0x1 PUSH1 0xA0 SHL SWAP1 DIV PUSH1 0xFF AND PUSH1 0x4 DUP2 GT ISZERO PUSH2 0xBE7 JUMPI PUSH2 0xBE7 PUSH2 0x15D8 JUMP JUMPDEST EQ PUSH2 0xC04 JUMPI PUSH1 0x40 MLOAD PUSH3 0x461BCD PUSH1 0xE5 SHL DUP2 MSTORE PUSH1 0x4 ADD PUSH2 0x52A SWAP1 PUSH2 0x1616 JUMP JUMPDEST PUSH1 0xF DUP1 SLOAD PUSH1 0xFF PUSH1 0xA0 SHL NOT AND PUSH1 0x1 PUSH1 0xA1 SHL OR SWAP1 SSTORE PUSH1 0x40 MLOAD PUSH32 0x96FAEDF2FA195434CEDBB880CB8B4608BBEB066005DC5AC6C4785935589D7A20 SWAP1 PUSH1 0x0 SWAP1 LOG1 JUMP JUMPDEST PUSH1 0x2 PUSH1 0x1 SLOAD EQ ISZERO PUSH2 0xC65 JUMPI PUSH1 0x40 MLOAD PUSH3 0x461BCD PUSH1 0xE5 SHL DUP2 MSTORE PUSH1 0x4 ADD PUSH2 0x52A SWAP1 PUSH2 0x1678 JUMP JUMPDEST PUSH1 0x2 PUSH1 0x1 SSTORE PUSH1 0x4 PUSH1 0xF SLOAD PUSH1 0x1 PUSH1 0xA0 SHL SWAP1 DIV PUSH1 0xFF AND PUSH1 0x4 DUP2 GT ISZERO PUSH2 0xC8A JUMPI PUSH2 0xC8A PUSH2 0x15D8 JUMP JUMPDEST EQ PUSH2 0xC94 JUMPI PUSH1 0x0 DUP1 REVERT JUMPDEST PUSH1 0x6 SLOAD PUSH1 0x1 PUSH1 0x1 PUSH1 0xA0 SHL SUB AND CALLER PUSH1 0x1 PUSH1 0x1 PUSH1 0xA0 SHL SUB AND EQ PUSH2 0xCB4 JUMPI PUSH1 0x0 DUP1 REVERT JUMPDEST PUSH1 0xA SLOAD PUSH1 0x1 PUSH1 0x1 PUSH1 0xA0 SHL SUB AND PUSH4 0x42842E0E ADDRESS CALLER PUSH1 0xB SLOAD PUSH1 0x40 MLOAD PUSH1 0x1 PUSH1 0x1 PUSH1 0xE0 SHL SUB NOT PUSH1 0xE0 DUP7 SWAP1 SHL AND DUP2 MSTORE PUSH1 0x1 PUSH1 0x1 PUSH1 0xA0 SHL SUB SWAP4 DUP5 AND PUSH1 0x4 DUP3 ADD MSTORE SWAP3 SWAP1 SWAP2 AND PUSH1 0x24 DUP4 ADD MSTORE PUSH1 0x44 DUP3 ADD MSTORE PUSH1 0x64 ADD PUSH1 0x0 PUSH1 0x40 MLOAD DUP1 DUP4 SUB DUP2 PUSH1 0x0 DUP8 DUP1 EXTCODESIZE ISZERO DUP1 ISZERO PUSH2 0xD19 JUMPI PUSH1 0x0 DUP1 REVERT JUMPDEST POP GAS CALL ISZERO DUP1 ISZERO PUSH2 0xD2D JUMPI RETURNDATASIZE PUSH1 0x0 DUP1 RETURNDATACOPY RETURNDATASIZE PUSH1 0x0 REVERT JUMPDEST POP POP POP POP PUSH32 0x700A9BE0C495BC7C8168D01913054B681C4B7CD5A72376A4FE03F32F5166C28A PUSH2 0x866 CALLER SWAP1 JUMP JUMPDEST PUSH1 0x2 PUSH1 0x1 SLOAD EQ ISZERO PUSH2 0xD7C JUMPI PUSH1 0x40 MLOAD PUSH3 0x461BCD PUSH1 0xE5 SHL DUP2 MSTORE PUSH1 0x4 ADD PUSH2 0x52A SWAP1 PUSH2 0x1678 JUMP JUMPDEST PUSH1 0x2 PUSH1 0x1 SSTORE PUSH1 0x4 PUSH1 0xF SLOAD PUSH1 0x1 PUSH1 0xA0 SHL SWAP1 DIV PUSH1 0xFF AND PUSH1 0x4 DUP2 GT ISZERO PUSH2 0xDA1 JUMPI PUSH2 0xDA1 PUSH2 0x15D8 JUMP JUMPDEST EQ PUSH2 0xDAB JUMPI PUSH1 0x0 DUP1 REVERT JUMPDEST CALLER PUSH1 0x0 SWAP1 DUP2 MSTORE PUSH1 0x3 PUSH1 0x20 MSTORE PUSH1 0x40 SWAP1 KECCAK256 SLOAD DUP1 PUSH2 0xDC5 JUMPI PUSH1 0x0 DUP1 REVERT JUMPDEST CALLER PUSH1 0x0 DUP2 DUP2 MSTORE PUSH1 0x3 PUSH1 0x20 MSTORE PUSH1 0x40 DUP1 DUP3 KECCAK256 DUP3 SWAP1 SSTORE MLOAD DUP4 ISZERO PUSH2 0x8FC MUL SWAP2 DUP5 SWAP2 SWAP1 DUP2 DUP2 DUP2 DUP6 DUP9 DUP9 CALL SWAP4 POP POP POP POP ISZERO DUP1 ISZERO PUSH2 0xE00 JUMPI RETURNDATASIZE PUSH1 0x0 DUP1 RETURNDATACOPY RETURNDATASIZE PUSH1 0x0 REVERT JUMPDEST POP PUSH32 0xC9F3C6B79609B860090FFFD3A76FC2F0112FF1825F2D99AF5EF7E3AB2B6EEF3C CALLER PUSH1 0x40 DUP1 MLOAD PUSH1 0x1 PUSH1 0x1 PUSH1 0xA0 SHL SUB SWAP1 SWAP3 AND DUP3 MSTORE PUSH1 0x20 DUP3 ADD DUP5 SWAP1 MSTORE ADD PUSH1 0x40 MLOAD DUP1 SWAP2 SUB SWAP1 LOG1 POP PUSH1 0x1 DUP1 SSTORE JUMP JUMPDEST PUSH1 0x0 SLOAD PUSH1 0x1 PUSH1 0x1 PUSH1 0xA0 SHL SUB AND CALLER EQ PUSH2 0xE75 JUMPI PUSH1 0x40 MLOAD PUSH3 0x461BCD PUSH1 0xE5 SHL DUP2 MSTORE PUSH1 0x4 ADD PUSH2 0x52A SWAP1 PUSH2 0x1643 JUMP JUMPDEST PUSH1 0x2 PUSH1 0xF SLOAD PUSH1 0x1 PUSH1 0xA0 SHL SWAP1 DIV PUSH1 0xFF AND PUSH1 0x4 DUP2 GT ISZERO PUSH2 0xE95 JUMPI PUSH2 0xE95 PUSH2 0x15D8 JUMP JUMPDEST EQ PUSH2 0xEB2 JUMPI PUSH1 0x40 MLOAD PUSH3 0x461BCD PUSH1 0xE5 SHL DUP2 MSTORE PUSH1 0x4 ADD PUSH2 0x52A SWAP1 PUSH2 0x1616 JUMP JUMPDEST PUSH1 0xD SLOAD TIMESTAMP LT ISZERO PUSH2 0xEFA JUMPI PUSH1 0x40 MLOAD PUSH3 0x461BCD PUSH1 0xE5 SHL DUP2 MSTORE PUSH1 0x20 PUSH1 0x4 DUP3 ADD MSTORE PUSH1 0x13 PUSH1 0x24 DUP3 ADD MSTORE PUSH19 0x5761697420756E74696C207365742074696D65 PUSH1 0x68 SHL PUSH1 0x44 DUP3 ADD MSTORE PUSH1 0x64 ADD PUSH2 0x52A JUMP JUMPDEST DUP2 DUP2 PUSH1 0x40 MLOAD PUSH1 0x20 ADD PUSH2 0xF0D SWAP3 SWAP2 SWAP1 PUSH2 0x1726 JUMP JUMPDEST PUSH1 0x40 MLOAD PUSH1 0x20 DUP2 DUP4 SUB SUB DUP2 MSTORE SWAP1 PUSH1 0x40 MSTORE DUP1 MLOAD SWAP1 PUSH1 0x20 ADD KECCAK256 PUSH1 0x8 SLOAD EQ PUSH2 0xF69 JUMPI PUSH1 0x40 MLOAD PUSH3 0x461BCD PUSH1 0xE5 SHL DUP2 MSTORE PUSH1 0x20 PUSH1 0x4 DUP3 ADD MSTORE PUSH1 0x13 PUSH1 0x24 DUP3 ADD MSTORE PUSH19 0x90C2E6D0CAE640C8DE40DCDEE840DAC2E8C6D PUSH1 0x6B SHL PUSH1 0x44 DUP3 ADD MSTORE PUSH1 0x64 ADD PUSH2 0x52A JUMP JUMPDEST PUSH1 0x9 DUP2 SWAP1 SSTORE PUSH1 0xF DUP1 SLOAD PUSH1 0xFF PUSH1 0xA0 SHL NOT AND PUSH1 0x3 PUSH1 0xA0 SHL OR SWAP1 SSTORE PUSH1 0x40 DUP1 MLOAD DUP3 DUP2 MSTORE SWAP1 MLOAD PUSH32 0xFC8A1AF0498179AB028BD9B180740384D8D1625AE26C8E88DDAC563006AE586 SWAP2 DUP2 SWAP1 SUB PUSH1 0x20 ADD SWAP1 LOG1 PUSH2 0xFBC PUSH2 0x131E JUMP JUMPDEST POP POP JUMP JUMPDEST PUSH1 0x2 PUSH1 0xF SLOAD PUSH1 0x1 PUSH1 0xA0 SHL SWAP1 DIV PUSH1 0xFF AND PUSH1 0x4 DUP2 GT ISZERO PUSH2 0xFE0 JUMPI PUSH2 0xFE0 PUSH2 0x15D8 JUMP JUMPDEST EQ PUSH2 0x101E JUMPI PUSH1 0x40 MLOAD PUSH3 0x461BCD PUSH1 0xE5 SHL DUP2 MSTORE PUSH1 0x20 PUSH1 0x4 DUP3 ADD MSTORE PUSH1 0xE PUSH1 0x24 DUP3 ADD MSTORE PUSH14 0x4E6F742072696768742074696D65 PUSH1 0x90 SHL PUSH1 0x44 DUP3 ADD MSTORE PUSH1 0x64 ADD PUSH2 0x52A JUMP JUMPDEST CALLER PUSH1 0x0 SWAP1 DUP2 MSTORE PUSH1 0x3 PUSH1 0x20 MSTORE PUSH1 0x40 SWAP1 KECCAK256 SLOAD PUSH2 0x107A JUMPI PUSH1 0x40 MLOAD PUSH3 0x461BCD PUSH1 0xE5 SHL DUP2 MSTORE PUSH1 0x20 PUSH1 0x4 DUP3 ADD MSTORE PUSH1 0x19 PUSH1 0x24 DUP3 ADD MSTORE PUSH32 0x596F7520617265206E6F742061207061727469636970616E7400000000000000 PUSH1 0x44 DUP3 ADD MSTORE PUSH1 0x64 ADD PUSH2 0x52A JUMP JUMPDEST CALLER PUSH1 0x0 SWAP1 DUP2 MSTORE PUSH1 0x5 PUSH1 0x20 MSTORE PUSH1 0x40 SWAP1 KECCAK256 SLOAD ISZERO PUSH2 0x10CE JUMPI PUSH1 0x40 MLOAD PUSH3 0x461BCD PUSH1 0xE5 SHL DUP2 MSTORE PUSH1 0x20 PUSH1 0x4 DUP3 ADD MSTORE PUSH1 0x14 PUSH1 0x24 DUP3 ADD MSTORE PUSH20 0x43616E206F6E6C792072657665616C206F6E6365 PUSH1 0x60 SHL PUSH1 0x44 DUP3 ADD MSTORE PUSH1 0x64 ADD PUSH2 0x52A JUMP JUMPDEST CALLER PUSH1 0x0 SWAP1 DUP2 MSTORE PUSH1 0x3 PUSH1 0x20 MSTORE PUSH1 0x40 SWAP1 KECCAK256 SLOAD DUP2 GT ISZERO PUSH2 0x1121 JUMPI PUSH1 0x40 MLOAD PUSH3 0x461BCD PUSH1 0xE5 SHL DUP2 MSTORE PUSH1 0x20 PUSH1 0x4 DUP3 ADD MSTORE PUSH1 0x11 PUSH1 0x24 DUP3 ADD MSTORE PUSH17 0x13D999995C881A5B9D985B1A59185D1959 PUSH1 0x7A SHL PUSH1 0x44 DUP3 ADD MSTORE PUSH1 0x64 ADD PUSH2 0x52A JUMP JUMPDEST DUP2 DUP2 PUSH1 0x40 MLOAD PUSH1 0x20 ADD PUSH2 0x1134 SWAP3 SWAP2 SWAP1 PUSH2 0x1726 JUMP JUMPDEST PUSH1 0x40 MLOAD PUSH1 0x20 DUP2 DUP4 SUB SUB DUP2 MSTORE SWAP1 PUSH1 0x40 MSTORE DUP1 MLOAD SWAP1 PUSH1 0x20 ADD KECCAK256 PUSH1 0x4 PUSH1 0x0 PUSH2 0x1155 CALLER SWAP1 JUMP JUMPDEST PUSH1 0x1 PUSH1 0x1 PUSH1 0xA0 SHL SUB AND PUSH1 0x1 PUSH1 0x1 PUSH1 0xA0 SHL SUB AND DUP2 MSTORE PUSH1 0x20 ADD SWAP1 DUP2 MSTORE PUSH1 0x20 ADD PUSH1 0x0 KECCAK256 SLOAD EQ PUSH2 0x11B9 JUMPI PUSH1 0x40 MLOAD PUSH3 0x461BCD PUSH1 0xE5 SHL DUP2 MSTORE PUSH1 0x20 PUSH1 0x4 DUP3 ADD MSTORE PUSH1 0x13 PUSH1 0x24 DUP3 ADD MSTORE PUSH19 0x90C2E6D0CAE640C8DE40DCDEE840DAC2E8C6D PUSH1 0x6B SHL PUSH1 0x44 DUP3 ADD MSTORE PUSH1 0x64 ADD PUSH2 0x52A JUMP JUMPDEST CALLER PUSH1 0x0 DUP2 DUP2 MSTORE PUSH1 0x5 PUSH1 0x20 MSTORE PUSH1 0x40 SWAP1 DUP2 SWAP1 KECCAK256 DUP4 SWAP1 SSTORE MLOAD PUSH32 0xF23315B5875C8D1E8E2D1F24E22EF7D94663E61A21F375F129CF311920F999FA SWAP2 PUSH2 0x11FD SWAP2 DUP6 SWAP1 DUP6 SWAP1 PUSH2 0x1748 JUMP JUMPDEST PUSH1 0x40 MLOAD DUP1 SWAP2 SUB SWAP1 LOG1 POP POP JUMP JUMPDEST PUSH1 0x0 SLOAD PUSH1 0x1 PUSH1 0x1 PUSH1 0xA0 SHL SUB AND CALLER EQ PUSH2 0x1233 JUMPI PUSH1 0x40 MLOAD PUSH3 0x461BCD PUSH1 0xE5 SHL DUP2 MSTORE PUSH1 0x4 ADD PUSH2 0x52A SWAP1 PUSH2 0x1643 JUMP JUMPDEST PUSH1 0x1 PUSH1 0x1 PUSH1 0xA0 SHL SUB DUP2 AND PUSH2 0x1298 JUMPI PUSH1 0x40 MLOAD PUSH3 0x461BCD PUSH1 0xE5 SHL DUP2 MSTORE PUSH1 0x20 PUSH1 0x4 DUP3 ADD MSTORE PUSH1 0x26 PUSH1 0x24 DUP3 ADD MSTORE PUSH32 0x4F776E61626C653A206E6577206F776E657220697320746865207A65726F2061 PUSH1 0x44 DUP3 ADD MSTORE PUSH6 0x646472657373 PUSH1 0xD0 SHL PUSH1 0x64 DUP3 ADD MSTORE PUSH1 0x84 ADD PUSH2 0x52A JUMP JUMPDEST PUSH2 0x12A1 DUP2 PUSH2 0x12CE JUMP JUMPDEST POP JUMP JUMPDEST PUSH1 0x2 DUP2 DUP2 SLOAD DUP2 LT PUSH2 0x12B4 JUMPI PUSH1 0x0 DUP1 REVERT JUMPDEST PUSH1 0x0 SWAP2 DUP3 MSTORE PUSH1 0x20 SWAP1 SWAP2 KECCAK256 ADD SLOAD PUSH1 0x1 PUSH1 0x1 PUSH1 0xA0 SHL SUB AND SWAP1 POP DUP2 JUMP JUMPDEST PUSH1 0x0 DUP1 SLOAD PUSH1 0x1 PUSH1 0x1 PUSH1 0xA0 SHL SUB DUP4 DUP2 AND PUSH1 0x1 PUSH1 0x1 PUSH1 0xA0 SHL SUB NOT DUP4 AND DUP2 OR DUP5 SSTORE PUSH1 0x40 MLOAD SWAP2 SWAP1 SWAP3 AND SWAP3 DUP4 SWAP2 PUSH32 0x8BE0079C531659141344CD1FD0A4F28419497F9722A3DAAFE3B4186F6B6457E0 SWAP2 SWAP1 LOG3 POP POP JUMP JUMPDEST PUSH1 0x2 SLOAD PUSH1 0x0 SWAP1 DUP2 SWAP1 DUP2 SWAP1 ISZERO PUSH2 0x1460 JUMPI POP PUSH1 0x0 JUMPDEST PUSH1 0x2 SLOAD DUP2 LT ISZERO PUSH2 0x13D2 JUMPI DUP2 PUSH1 0x5 PUSH1 0x0 PUSH1 0x2 DUP5 DUP2 SLOAD DUP2 LT PUSH2 0x1353 JUMPI PUSH2 0x1353 PUSH2 0x1792 JUMP JUMPDEST PUSH1 0x0 SWAP2 DUP3 MSTORE PUSH1 0x20 DUP1 DUP4 KECCAK256 SWAP1 SWAP2 ADD SLOAD PUSH1 0x1 PUSH1 0x1 PUSH1 0xA0 SHL SUB AND DUP4 MSTORE DUP3 ADD SWAP3 SWAP1 SWAP3 MSTORE PUSH1 0x40 ADD SWAP1 KECCAK256 SLOAD GT ISZERO PUSH2 0x13C0 JUMPI DUP1 SWAP3 POP PUSH1 0x5 PUSH1 0x0 PUSH1 0x2 DUP4 DUP2 SLOAD DUP2 LT PUSH2 0x1398 JUMPI PUSH2 0x1398 PUSH2 0x1792 JUMP JUMPDEST PUSH1 0x0 SWAP2 DUP3 MSTORE PUSH1 0x20 DUP1 DUP4 KECCAK256 SWAP1 SWAP2 ADD SLOAD PUSH1 0x1 PUSH1 0x1 PUSH1 0xA0 SHL SUB AND DUP4 MSTORE DUP3 ADD SWAP3 SWAP1 SWAP3 MSTORE PUSH1 0x40 ADD SWAP1 KECCAK256 SLOAD SWAP2 POP JUMPDEST DUP1 PUSH2 0x13CA DUP2 PUSH2 0x17A8 JUMP JUMPDEST SWAP2 POP POP PUSH2 0x1331 JUMP JUMPDEST DUP2 ISZERO PUSH2 0x1460 JUMPI PUSH1 0x9 SLOAD DUP3 LT PUSH2 0x1460 JUMPI PUSH1 0x2 DUP4 DUP2 SLOAD DUP2 LT PUSH2 0x13F4 JUMPI PUSH2 0x13F4 PUSH2 0x1792 JUMP JUMPDEST PUSH1 0x0 SWAP2 DUP3 MSTORE PUSH1 0x20 DUP1 DUP4 KECCAK256 SWAP1 SWAP2 ADD SLOAD PUSH1 0x6 DUP1 SLOAD PUSH1 0x1 PUSH1 0x1 PUSH1 0xA0 SHL SUB NOT AND PUSH1 0x1 PUSH1 0x1 PUSH1 0xA0 SHL SUB SWAP1 SWAP3 AND SWAP2 DUP3 OR SWAP1 SSTORE DUP3 MSTORE PUSH1 0x5 DUP2 MSTORE PUSH1 0x40 DUP1 DUP4 KECCAK256 SLOAD PUSH1 0x7 DUP2 SWAP1 SSTORE PUSH1 0x3 SWAP1 SWAP3 MSTORE SWAP1 SWAP2 KECCAK256 SLOAD PUSH2 0x1444 SWAP2 SWAP1 PUSH2 0x17C3 JUMP JUMPDEST PUSH1 0x6 SLOAD PUSH1 0x1 PUSH1 0x1 PUSH1 0xA0 SHL SUB AND PUSH1 0x0 SWAP1 DUP2 MSTORE PUSH1 0x3 PUSH1 0x20 MSTORE PUSH1 0x40 SWAP1 KECCAK256 SSTORE JUMPDEST PUSH1 0xF DUP1 SLOAD PUSH1 0x1 PUSH1 0xA2 SHL PUSH1 0xFF PUSH1 0xA0 SHL NOT SWAP1 SWAP2 AND OR SWAP1 SSTORE PUSH1 0x6 SLOAD PUSH1 0x7 SLOAD PUSH1 0x40 DUP1 MLOAD PUSH1 0x1 PUSH1 0x1 PUSH1 0xA0 SHL SUB SWAP1 SWAP4 AND DUP4 MSTORE PUSH1 0x20 DUP4 ADD SWAP2 SWAP1 SWAP2 MSTORE PUSH32 0xC5D1E2A43E1052756E222065802CB80A029BFAF7045B3DF42C5C87B92E48DE41 SWAP2 ADD PUSH1 0x40 MLOAD DUP1 SWAP2 SUB SWAP1 LOG1 POP POP POP JUMP JUMPDEST PUSH1 0x0 PUSH1 0x20 DUP3 DUP5 SUB SLT ISZERO PUSH2 0x14D6 JUMPI PUSH1 0x0 DUP1 REVERT JUMPDEST POP CALLDATALOAD SWAP2 SWAP1 POP JUMP JUMPDEST PUSH1 0x0 PUSH1 0x20 DUP3 DUP5 SUB SLT ISZERO PUSH2 0x14EF JUMPI PUSH1 0x0 DUP1 REVERT JUMPDEST DUP2 CALLDATALOAD PUSH1 0x1 PUSH1 0x1 PUSH1 0xA0 SHL SUB DUP2 AND DUP2 EQ PUSH2 0x1506 JUMPI PUSH1 0x0 DUP1 REVERT JUMPDEST SWAP4 SWAP3 POP POP POP JUMP JUMPDEST PUSH4 0x4E487B71 PUSH1 0xE0 SHL PUSH1 0x0 MSTORE PUSH1 0x41 PUSH1 0x4 MSTORE PUSH1 0x24 PUSH1 0x0 REVERT JUMPDEST PUSH1 0x0 DUP1 PUSH1 0x40 DUP4 DUP6 SUB SLT ISZERO PUSH2 0x1536 JUMPI PUSH1 0x0 DUP1 REVERT JUMPDEST DUP3 CALLDATALOAD PUSH8 0xFFFFFFFFFFFFFFFF DUP1 DUP3 GT ISZERO PUSH2 0x154E JUMPI PUSH1 0x0 DUP1 REVERT JUMPDEST DUP2 DUP6 ADD SWAP2 POP DUP6 PUSH1 0x1F DUP4 ADD SLT PUSH2 0x1562 JUMPI PUSH1 0x0 DUP1 REVERT JUMPDEST DUP2 CALLDATALOAD DUP2 DUP2 GT ISZERO PUSH2 0x1574 JUMPI PUSH2 0x1574 PUSH2 0x150D JUMP JUMPDEST PUSH1 0x40 MLOAD PUSH1 0x1F DUP3 ADD PUSH1 0x1F NOT SWAP1 DUP2 AND PUSH1 0x3F ADD AND DUP2 ADD SWAP1 DUP4 DUP3 GT DUP2 DUP4 LT OR ISZERO PUSH2 0x159C JUMPI PUSH2 0x159C PUSH2 0x150D JUMP JUMPDEST DUP2 PUSH1 0x40 MSTORE DUP3 DUP2 MSTORE DUP9 PUSH1 0x20 DUP5 DUP8 ADD ADD GT ISZERO PUSH2 0x15B5 JUMPI PUSH1 0x0 DUP1 REVERT JUMPDEST DUP3 PUSH1 0x20 DUP7 ADD PUSH1 0x20 DUP4 ADD CALLDATACOPY PUSH1 0x0 PUSH1 0x20 SWAP4 DUP3 ADD DUP5 ADD MSTORE SWAP9 SWAP7 SWAP1 SWAP2 ADD CALLDATALOAD SWAP7 POP POP POP POP POP POP JUMP JUMPDEST PUSH4 0x4E487B71 PUSH1 0xE0 SHL PUSH1 0x0 MSTORE PUSH1 0x21 PUSH1 0x4 MSTORE PUSH1 0x24 PUSH1 0x0 REVERT JUMPDEST PUSH1 0x20 DUP2 ADD PUSH1 0x5 DUP4 LT PUSH2 0x1610 JUMPI PUSH4 0x4E487B71 PUSH1 0xE0 SHL PUSH1 0x0 MSTORE PUSH1 0x21 PUSH1 0x4 MSTORE PUSH1 0x24 PUSH1 0x0 REVERT JUMPDEST SWAP2 SWAP1 MSTORE SWAP1 JUMP JUMPDEST PUSH1 0x20 DUP1 DUP3 MSTORE PUSH1 0x13 SWAP1 DUP3 ADD MSTORE PUSH19 0x57726F6E672061756374696F6E207374617465 PUSH1 0x68 SHL PUSH1 0x40 DUP3 ADD MSTORE PUSH1 0x60 ADD SWAP1 JUMP JUMPDEST PUSH1 0x20 DUP1 DUP3 MSTORE DUP2 DUP2 ADD MSTORE PUSH32 0x4F776E61626C653A2063616C6C6572206973206E6F7420746865206F776E6572 PUSH1 0x40 DUP3 ADD MSTORE PUSH1 0x60 ADD SWAP1 JUMP JUMPDEST PUSH1 0x20 DUP1 DUP3 MSTORE PUSH1 0x1F SWAP1 DUP3 ADD MSTORE PUSH32 0x5265656E7472616E637947756172643A207265656E7472616E742063616C6C00 PUSH1 0x40 DUP3 ADD MSTORE PUSH1 0x60 ADD SWAP1 JUMP JUMPDEST PUSH1 0x0 PUSH1 0x20 DUP3 DUP5 SUB SLT ISZERO PUSH2 0x16C1 JUMPI PUSH1 0x0 DUP1 REVERT JUMPDEST POP MLOAD SWAP2 SWAP1 POP JUMP JUMPDEST PUSH4 0x4E487B71 PUSH1 0xE0 SHL PUSH1 0x0 MSTORE PUSH1 0x11 PUSH1 0x4 MSTORE PUSH1 0x24 PUSH1 0x0 REVERT JUMPDEST PUSH1 0x0 DUP3 NOT DUP3 GT ISZERO PUSH2 0x16F1 JUMPI PUSH2 0x16F1 PUSH2 0x16C8 JUMP JUMPDEST POP ADD SWAP1 JUMP JUMPDEST PUSH1 0x0 JUMPDEST DUP4 DUP2 LT ISZERO PUSH2 0x1711 JUMPI DUP2 DUP2 ADD MLOAD DUP4 DUP3 ADD MSTORE PUSH1 0x20 ADD PUSH2 0x16F9 JUMP JUMPDEST DUP4 DUP2 GT ISZERO PUSH2 0x1720 JUMPI PUSH1 0x0 DUP5 DUP5 ADD MSTORE JUMPDEST POP POP POP POP JUMP JUMPDEST PUSH1 0x0 DUP4 MLOAD PUSH2 0x1738 DUP2 DUP5 PUSH1 0x20 DUP9 ADD PUSH2 0x16F6 JUMP JUMPDEST SWAP2 SWAP1 SWAP2 ADD SWAP2 DUP3 MSTORE POP PUSH1 0x20 ADD SWAP2 SWAP1 POP JUMP JUMPDEST PUSH1 0x1 DUP1 PUSH1 0xA0 SHL SUB DUP5 AND DUP2 MSTORE PUSH1 0x60 PUSH1 0x20 DUP3 ADD MSTORE PUSH1 0x0 DUP4 MLOAD DUP1 PUSH1 0x60 DUP5 ADD MSTORE PUSH2 0x1775 DUP2 PUSH1 0x80 DUP6 ADD PUSH1 0x20 DUP9 ADD PUSH2 0x16F6 JUMP JUMPDEST PUSH1 0x40 DUP4 ADD SWAP4 SWAP1 SWAP4 MSTORE POP PUSH1 0x1F SWAP2 SWAP1 SWAP2 ADD PUSH1 0x1F NOT AND ADD PUSH1 0x80 ADD SWAP3 SWAP2 POP POP JUMP JUMPDEST PUSH4 0x4E487B71 PUSH1 0xE0 SHL PUSH1 0x0 MSTORE PUSH1 0x32 PUSH1 0x4 MSTORE PUSH1 0x24 PUSH1 0x0 REVERT JUMPDEST PUSH1 0x0 PUSH1 0x0 NOT DUP3 EQ ISZERO PUSH2 0x17BC JUMPI PUSH2 0x17BC PUSH2 0x16C8 JUMP JUMPDEST POP PUSH1 0x1 ADD SWAP1 JUMP JUMPDEST PUSH1 0x0 DUP3 DUP3 LT ISZERO PUSH2 0x17D5 JUMPI PUSH2 0x17D5 PUSH2 0x16C8 JUMP JUMPDEST POP SUB SWAP1 JUMP INVALID LOG2 PUSH5 0x6970667358 0x22 SLT KECCAK256 MSIZE SWAP10 REVERT RETURNDATACOPY SWAP10 0xCD 0xC4 0xC6 DIFFICULTY PUSH24 0x5FE08300C90AFC590E9B4FFE2C45D762A206F82B07806473 PUSH16 0x6C634300080C00330000000000000000 ","sha1":"be0ad7b101b185ace0ba91ad92af820257d20383","source":"// SPDX-License-Identifier: MIT\npragma solidity ^0.8.0;\n\nimport \"@openzeppelin/contracts/access/Ownable.sol\";\nimport \"@openzeppelin/contracts/token/ERC721/IERC721.sol\";\nimport \"@openzeppelin/contracts/token/ERC721/IERC721Receiver.sol\";\nimport \"@openzeppelin/contracts/security/ReentrancyGuard.sol\";\nimport \"./ITimeOracle.sol\";\n\n/**\n * Sealed Bid auction protocol. \n*/\n\ncontract SealedBidAuction is Ownable, ReentrancyGuard {\n\n    // Participant wallets array.\n    address[] public players;\n\n    // Wallet to amount transfered mapping.\n    mapping(address => uint256) public accountToAmount;\n\n    // Wallet to hash of offer + secret mapping.\n    mapping(address => bytes32) public accountToHash;\n\n    // Wallet to offer mapping\n    mapping(address => uint256) public accountToOffer;\n\n    // Auction winner\n    address public winner;\n\n    // Auction sale price.\n    uint256 public amount;\n\n    // Hash of minPrice + secret\n    bytes32 public minimumPriceHash;\n\n    // minimum price of token\n    uint256 public minimumPrice;\n\n    // NFT \n    IERC721 public parentNFT;\n\n    // NFT ID\n    uint256 public tokenId;\n\n\n    // Time when acution changes to reveals == Time when offers close\n    uint public revealTime;\n\n    // Time when winner is calculated == Time when reveals close\n    uint public winnerTime;\n\n    // Time offset to let owner reveal price\n    uint public timeOffset = 5 seconds;\n\n    // TimeOracle\n    ITimeOracle public timeOracle = ITimeOracle(0x67de150e01738A06e60cf4F060b609c862527FB6);\n\n    // States of the auction\n    enum AUCTION_STATE{\n        CONTRACT_CREATION,\n        RECIVEING_OFFERS,\n        OFFER_REVEAL,\n        CALCULATING_WINNER,\n        AUCTION_ENDED\n    }\n\n    /**\n     * @dev Emitted when contract receives token.\n     */\n    event ERC721Transfer();\n\n    /**\n     * @dev Emitted when `account` makes a secret offer of `hashString`.\n     */\n    event OfferMade(address account, bytes32 hashString);\n\n    /**\n     * @dev Emitted when auction states moves to RECEIVEINF_OFFERS.\n     */\n    event OffersClosed();\n\n    /**\n     * @dev Emitted when `accounts` reveals offer of `price` and `secret`\n     */\n    event OfferRevealed(address account, string secret, uint256 amount);\n\n    /**\n     * @dev Emitted when owner reveals minimum price `amaount`.\n     */\n    event MinimumPriceRevealed(uint256 amount);\n\n    /**\n     * @dev Emitted when `account` wins the auction for an offered `amount`\n     */\n    event WinnerChosen(address account, uint256 amount);\n\n    /**\n     * @dev Emitted when owner get payed `amount`\n     */\n    event OwnerPayed(uint256 amount);\n\n    /**\n     * @dev Emitted when `account` is reinbursed `amount`\n     */\n    event ParticipantReimbursed(address account, uint256 amount);\n\n    /**\n     * @dev Emitted when `account` retrives ERC721.\n     */\n    event TokenWithdrawal(address account);\n\n\n    // Stores the auction of the state\n    AUCTION_STATE public auction_state;\n\n    /**\n     * @dev Auction constructor \n     * Constructs the auction contract.\n     * Requirements:\n     *  \n     *  -'_nftContract' cannot be zero address\n    */\n\n    constructor(bytes32 _minimumPriceHash, address _nftContract, uint256 _tokenId, uint _revealTime, uint _winnerTime) {\n        require(_nftContract != address(0), \"Not a valid ERC721 address\");\n        auction_state = AUCTION_STATE.CONTRACT_CREATION;\n        minimumPriceHash = _minimumPriceHash;\n        parentNFT = IERC721(_nftContract);\n        tokenId = _tokenId;\n        revealTime = _revealTime;\n        winnerTime = _winnerTime;\n    }\n\n    /**\n     * @dev Transfers ERC721 to contract\n     * \n     * Requirements:\n     *  -Auction state must be CONTRACT_CREATION\n     *\n     * Emits a {ERC721Transfer} event. \n    */\n\n\n    function transferAssetToContract() public onlyOwner{\n        require(auction_state == AUCTION_STATE.CONTRACT_CREATION);\n        parentNFT.transferFrom(_msgSender(), address(this), tokenId);\n        auction_state = AUCTION_STATE.RECIVEING_OFFERS;\n        emit ERC721Transfer();\n    }\n\n    /**\n     * @dev Lets a participant make an offer\n     * \n     * Requirements:\n     *  -Auction state must be RECIVEING_OFFERS\n     *  -Contract owner cant make an offer\n     *  -Must transfer a non zero amount of eth\n     *\n     * Emits a {OfferMade} event. \n    */\n\n    \n    function makeOffer(bytes32 _hash) public virtual payable{\n        require(auction_state == AUCTION_STATE.RECIVEING_OFFERS, 'Wrong auction state');\n        require(_msgSender() != owner(), \"Owner cant bid\");\n        require(msg.value > 0, \"Need some ETH\");\n        require(accountToAmount[_msgSender()] == 0, \"Cant bid twice\"); \n        players.push(payable(_msgSender()));\n        accountToAmount[_msgSender()] = msg.value;\n        accountToHash[_msgSender()] = _hash;\n        emit OfferMade( _msgSender(), _hash);\n    }\n\n    /**\n     * @dev Changes state of auction to offer reveals\n     * \n     * Requirements:\n     *  -Time origin must be larger than contract set time\n     *  -Auction state must be in RECIVEING_OFFERS\n     *  -Must transfer a non zero amount of eth\n     *\n     * Emits a {OffersClosed} event. \n    */\n    function closeOffers() public{\n        require(block.timestamp >= revealTime, 'Wait until set time');\n        require(auction_state == AUCTION_STATE.RECIVEING_OFFERS, 'Wrong auction state');\n        auction_state = AUCTION_STATE.OFFER_REVEAL;\n        emit OffersClosed();\n    }\n\n    /**\n     * @dev Reveals offer of participants\n     * \n     * Requirements:\n     *  -   accountToAmount[_msgSender()] must not be zero\n     *  -   accountToOffer[_msgSender()] must be zero. Prevents double reveals\n     *  -   Auction state must be in OFFER_REVEAL\n     *  -   Must transfer a non zero amount of eth\n     *  -   _amount must be equal or smaller to accountToAmount[_msgSender()]\n     *  -   _secret and _amount hash must match stored hash\n     *\n     *\n     * Emits a {OfferRevealed} event. \n    */\n\n    function revealOffer(string memory _secret, uint256 _amount) public virtual{\n    require(auction_state == AUCTION_STATE.OFFER_REVEAL, \"Not right time\");\n    require(accountToAmount[_msgSender()] != 0, \"You are not a participant\"); \n    require(accountToOffer[_msgSender()] == 0, \"Can only reveal once\"); \n    require(_amount <= accountToAmount[_msgSender()], \"Offer invalidated\"); \n    require(\n        accountToHash[_msgSender()] == keccak256(\n            abi.encodePacked(\n                _secret,\n                _amount\n            )\n        ), \"Hashes do not match\"\n    );\n        accountToOffer[_msgSender()] = _amount;\n        emit OfferRevealed(_msgSender(), _secret, _amount);\n    }\n\n    /**\n     * @dev Changes auction state to CALCULATING_WINNER\n     * \n     * Requirements:\n     *  -   caller must not be owner\n     *  -   time origin must be larger than preset closeReveals time\n     *  -   Auction state must be in OFFER_REVEAL\n     *\n     *\n     * Calls _closeReveals() Internal funciton. \n    */\n\n    function closeReveals() public{\n        require(block.timestamp >= winnerTime + timeOffset, 'Wait until set time + offset'); //5s despues que vence tiempo de owner\n        require(_msgSender() != owner(), \"Owner must use winnerCalculation()\");\n        require(auction_state == AUCTION_STATE.OFFER_REVEAL, 'wrong auction state');\n        auction_state = AUCTION_STATE.CALCULATING_WINNER;\n        _closeReveals();\n    }\n\n    /**\n     * @dev Owner reveals minimum price and calculates winner\n     * \n     * Requirements:\n     *  -   caller must be owner\n     *  -   Auction state must be in OFFER_REVEAL\n     *  -   time origin must be larger than preset closeReveals time\n     *  -   _secret and _amount hash must match stored hash\n     *\n     *\n     * Emits a {MinimumPriceRevealed} event. \n    */\n\n    // TODO un cambio de nombre no vendria mal, creo. Poco intuitivo.?\n    function winnerCalculation(string memory _secret, uint256 _amount) public onlyOwner {\n        require(auction_state == AUCTION_STATE.OFFER_REVEAL, 'Wrong auction state');\n        require(block.timestamp >= winnerTime, 'Wait until set time');\n        require(\n            minimumPriceHash == keccak256(\n                abi.encodePacked(\n                    _secret,\n                    _amount\n                )\n            ), \"Hashes do not match\"\n        );\n        minimumPrice = _amount;\n        auction_state = AUCTION_STATE.CALCULATING_WINNER;\n        emit MinimumPriceRevealed(_amount);\n        _closeReveals();\n    }\n\n    /**\n     * @dev Closes reveal period and calculates winner, intenal\n     * \n     *\n     * Emits a {WinnerChosen} event. \n    */\n\n    function _closeReveals() internal{\n        uint256 indexOfWinner;\n        uint256 loopAmount;\n        uint256 i;\n        if(players.length > 0){\n            for(i = 0; i < players.length; i++){\n                if(accountToOffer[players[i]] > loopAmount){\n                    indexOfWinner = i;\n                    loopAmount = accountToOffer[players[i]];\n                }\n            }\n            if(loopAmount > 0){\n                if(loopAmount >= minimumPrice){\n                    winner = players[indexOfWinner];\n                    amount = accountToOffer[winner];\n                    accountToAmount[winner] = accountToAmount[winner] - accountToOffer[winner];\n                } \n            }\n            \n        }\n        auction_state = AUCTION_STATE.AUCTION_ENDED;\n        emit WinnerChosen(winner, amount);\n    }\n\n    /**\n     * @dev Auction owner retrives sale price or nft if it did not sell\n     * \n     * Requirements:\n     *  -   caller must be owner\n     *  -   Auction state must be in AUCTION_ENDED\n     *\n     *\n     * Emits a {OwnerPayed} xor {TokenWithdrawal} event. \n    */\n\n    function ownerGetsPayed() public onlyOwner nonReentrant{\n        require(auction_state == AUCTION_STATE.AUCTION_ENDED);\n        if(amount > 0){\n            uint256 toPay = amount;\n            amount = 0;\n            payable(owner()).transfer(toPay);\n            emit OwnerPayed(toPay);\n        }else{\n            parentNFT.safeTransferFrom(address(this), _msgSender(), tokenId);\n            emit TokenWithdrawal(owner());\n        }\n    }\n\n    /**\n     * @dev Reinburses deposited amount left to participants after auction ends\n     * \n     * Requirements:\n     *  -   Auction state must be in AUCTION_ENDED\n     *  -   accountToAmount[_msgSender()] must be larger than 0\n     *\n     *\n     * Emits a {ParticipantReimbursed} event. \n    */\n\n    function reimburseParticipant() nonReentrant public{\n        require(auction_state == AUCTION_STATE.AUCTION_ENDED);\n        uint256 reimbursement = accountToAmount[_msgSender()];\n        require(reimbursement > 0);\n        accountToAmount[_msgSender()] = 0;\n        payable(_msgSender()).transfer(reimbursement);\n        emit ParticipantReimbursed(_msgSender(), reimbursement);\n    }\n\n    /**\n     * @dev Auction winner retrives ERC721 token.\n     * \n     * Requirements:\n     *  -   Auction state must be in AUCTION_ENDED\n     *  -   caller must be auction winner\n     *\n     *\n     * Emits a {TokenWithdrawal} event. \n    */\n\n    function winnerRetrivesToken() nonReentrant public{\n        require(auction_state == AUCTION_STATE.AUCTION_ENDED);\n        require(_msgSender() == winner);\n        parentNFT.safeTransferFrom(address(this), _msgSender(), tokenId);\n        emit TokenWithdrawal(_msgSender());\n    }\n\n    function returnOracleTime() public view returns (uint){\n        return timeOracle.getLatestTime();\n    }\n}","sourcePath":"contracts/SealedBidAuction.sol","type":"contract","deployment":{"address":"0xd19418C6663008D40872a9D4Fb4D1F525A31F12b","chainid":"4","blockHeight":10747615}}