{"abi":[{"anonymous":false,"inputs":[{"indexed":false,"internalType":"uint8","name":"state","type":"uint8"}],"name":"StateChange1","type":"event"},{"anonymous":false,"inputs":[{"indexed":false,"internalType":"uint8","name":"state","type":"uint8"}],"name":"StateChange2","type":"event"},{"inputs":[{"internalType":"bytes","name":"","type":"bytes"}],"name":"checkKeep","outputs":[{"internalType":"bool","name":"","type":"bool"}],"stateMutability":"view","type":"function"},{"inputs":[{"internalType":"bytes","name":"","type":"bytes"}],"name":"checkUpkeep","outputs":[{"internalType":"bool","name":"upkeepNeeded","type":"bool"},{"internalType":"bytes","name":"","type":"bytes"}],"stateMutability":"view","type":"function"},{"inputs":[{"internalType":"bytes32","name":"_minimumPriceHash","type":"bytes32"},{"internalType":"address","name":"_nftContract","type":"address"},{"internalType":"uint256","name":"_tokenId","type":"uint256"},{"internalType":"uint256","name":"_revealTime","type":"uint256"},{"internalType":"uint256","name":"_winnerTime","type":"uint256"}],"name":"createSealedBidAuctionContract","outputs":[{"internalType":"uint256","name":"","type":"uint256"}],"stateMutability":"nonpayable","type":"function"},{"inputs":[],"name":"getLastAddressInArray","outputs":[{"internalType":"address","name":"","type":"address"}],"stateMutability":"view","type":"function"},{"inputs":[{"internalType":"uint256","name":"_i","type":"uint256"}],"name":"getRevealTime","outputs":[{"internalType":"uint256","name":"","type":"uint256"}],"stateMutability":"view","type":"function"},{"inputs":[{"internalType":"uint256","name":"_i","type":"uint256"}],"name":"getState","outputs":[{"internalType":"enum SealedBidAuction.AUCTION_STATE","name":"","type":"uint8"}],"stateMutability":"view","type":"function"},{"inputs":[{"internalType":"uint256","name":"_i","type":"uint256"}],"name":"getWinnerTime","outputs":[{"internalType":"uint256","name":"","type":"uint256"}],"stateMutability":"view","type":"function"},{"inputs":[{"internalType":"bytes","name":"","type":"bytes"}],"name":"performUpkeep","outputs":[],"stateMutability":"nonpayable","type":"function"},{"inputs":[{"internalType":"uint256","name":"","type":"uint256"}],"name":"sealedBidAuctionArrayContracts","outputs":[{"internalType":"contract SealedBidAuction","name":"","type":"address"}],"stateMutability":"view","type":"function"}],"bytecode":"608060405234801561001057600080fd5b50612422806100206000396000f3fe60806040523480156200001157600080fd5b50600436106200009f5760003560e01c80636e04ff0d116200006e5780636e04ff0d1462000121578063b046bee51462000148578063d47c0c4d146200016e578063e0d2fbeb1462000196578063e34a5d1c14620001ad57600080fd5b806325ce07e914620000a457806344c9af2814620000d85780634585e33b14620000fe5780634be351f01462000117575b600080fd5b620000bb620000b53660046200085a565b620001c4565b6040516001600160a01b0390911681526020015b60405180910390f35b620000ef620000e93660046200085a565b620001ef565b604051620000cf91906200088a565b620001156200010f366004620008b3565b62000281565b005b620000bb620003fe565b6200013862000132366004620008b3565b6200043f565b604051620000cf9291906200092a565b6200015f620001593660046200098c565b6200050d565b604051908152602001620000cf565b620001856200017f366004620008b3565b62000612565b6040519015158152602001620000cf565b6200015f620001a73660046200085a565b620006df565b6200015f620001be3660046200085a565b6200076b565b60008181548110620001d557600080fd5b6000918252602090912001546001600160a01b0316905081565b6000808281548110620002065762000206620009e2565b600091825260209182902001546040805163f9688bc160e01b815290516001600160a01b039092169263f9688bc1926004808401938290030181865afa15801562000255573d6000803e3d6000fd5b505050506040513d601f19601f820116820180604052508101906200027b9190620009f8565b92915050565b60005b600054811015620003f957426200029b82620006df565b620002a890600562000a38565b108015620002d75750620002bc81620001ef565b6004811115620002d057620002d062000874565b60ff166002145b1562000343577f9bbbbf32d395a94f1f22ac4a2bb90aa8da725886f46a988596ccef1727fcc2186200030982620001ef565b60048111156200031d576200031d62000874565b60405160ff909116815260200160405180910390a16200033d81620007d1565b620003e4565b426200034f826200076b565b1080156200037e57506200036381620001ef565b600481111562000377576200037762000874565b60ff166001145b15620003e4577f134fa4482dfe755ad64a6d1ee79f48c1c54128c2c9eb2c08e5bfe90376822139620003b082620001ef565b6004811115620003c457620003c462000874565b60405160ff909116815260200160405180910390a1620003e481620007d1565b80620003f08162000a53565b91505062000284565b505050565b600080548190620004129060019062000a71565b81548110620004255762000425620009e2565b6000918252602090912001546001600160a01b0316919050565b60006060815b6000548110801562000455575082155b156200050557426200046782620006df565b6200047490600562000a38565b108015620004a357506200048881620001ef565b60048111156200049c576200049c62000874565b60ff166002145b80620004e5575042620004b6826200076b565b108015620004e55750620004ca81620001ef565b6004811115620004de57620004de62000874565b60ff166001145b15620004f057600192505b80620004fc8162000a53565b91505062000445565b509250929050565b600080868686868660405162000523906200084c565b9485526001600160a01b03909316602085015260408401919091526060830152608082015260a001604051809103906000f08015801562000568573d6000803e3d6000fd5b50600080546001810182559080527f290decd9548b62a8d60345a988386fc84ba6bc95484008f6362f93160ef3e5630180546001600160a01b0319166001600160a01b03831690811790915560405163f2fde38b60e01b81523360048201529192509063f2fde38b90602401600060405180830381600087803b158015620005ef57600080fd5b505af115801562000604573d6000803e3d6000fd5b505050505095945050505050565b600080805b6000548110801562000627575081155b15620006d757426200063982620006df565b6200064690600562000a38565b1080156200067557506200065a81620001ef565b60048111156200066e576200066e62000874565b60ff166002145b80620006b757504262000688826200076b565b108015620006b757506200069c81620001ef565b6004811115620006b057620006b062000874565b60ff166001145b15620006c257600191505b80620006ce8162000a53565b91505062000617565b509392505050565b6000808281548110620006f657620006f6620009e2565b6000918252602091829020015460408051637676d23560e01b815290516001600160a01b0390921692637676d235926004808401938290030181865afa15801562000745573d6000803e3d6000fd5b505050506040513d601f19601f820116820180604052508101906200027b919062000a8b565b6000808281548110620007825762000782620009e2565b600091825260209182902001546040805163ba829d7160e01b815290516001600160a01b039092169263ba829d71926004808401938290030181865afa15801562000745573d6000803e3d6000fd5b60008181548110620007e757620007e7620009e2565b600091825260208220015460408051633eadb6db60e01b815290516001600160a01b0390921692633eadb6db9260048084019382900301818387803b1580156200083057600080fd5b505af115801562000845573d6000803e3d6000fd5b5050505050565b6119478062000aa683390190565b6000602082840312156200086d57600080fd5b5035919050565b634e487b7160e01b600052602160045260246000fd5b6020810160058310620008ad57634e487b7160e01b600052602160045260246000fd5b91905290565b60008060208385031215620008c757600080fd5b823567ffffffffffffffff80821115620008e057600080fd5b818501915085601f830112620008f557600080fd5b8135818111156200090557600080fd5b8660208285010111156200091857600080fd5b60209290920196919550909350505050565b821515815260006020604081840152835180604085015260005b81811015620009625785810183015185820160600152820162000944565b8181111562000975576000606083870101525b50601f01601f191692909201606001949350505050565b600080600080600060a08688031215620009a557600080fd5b8535945060208601356001600160a01b0381168114620009c457600080fd5b94979496505050506040830135926060810135926080909101359150565b634e487b7160e01b600052603260045260246000fd5b60006020828403121562000a0b57600080fd5b81516005811062000a1b57600080fd5b9392505050565b634e487b7160e01b600052601160045260246000fd5b6000821982111562000a4e5762000a4e62000a22565b500190565b600060001982141562000a6a5762000a6a62000a22565b5060010190565b60008282101562000a865762000a8662000a22565b500390565b60006020828403121562000a9e57600080fd5b505191905056fe60806040526005600e5534801561001557600080fd5b5060405162001947380380620019478339810160408190526100369161012c565b61003f336100dc565b600180556001600160a01b03841661009d5760405162461bcd60e51b815260206004820152601a60248201527f4e6f7420612076616c6964204552433732312061646472657373000000000000604482015260640160405180910390fd5b600f805460ff19169055600894909455600a80546001600160a01b0319166001600160a01b039490941693909317909255600b55600c55600d55610182565b600080546001600160a01b038381166001600160a01b0319831681178455604051919092169283917f8be0079c531659141344cd1fd0a4f28419497f9722a3daafe3b4186f6b6457e09190a35050565b600080600080600060a0868803121561014457600080fd5b855160208701519095506001600160a01b038116811461016357600080fd5b6040870151606088015160809098015196999198509695945092505050565b6117b580620001926000396000f3fe60806040526004361061019c5760003560e01c80638da5cb5b116100ec578063d5b19df51161008a578063e8a5acee11610064578063e8a5acee1461042e578063f2fde38b14610444578063f71d96cb14610464578063f9688bc11461048457600080fd5b8063d5b19df5146103ce578063d7ee3c79146103ee578063dfbf53ae1461040e57600080fd5b8063b6f1ad5b116100c6578063b6f1ad5b1461036e578063b8e33fb214610383578063ba829d71146103a3578063d28a2edd146103b957600080fd5b80638da5cb5b14610310578063a438b0e514610342578063aa8c217c1461035857600080fd5b8063715018a6116101595780637f386b6c116101335780637f386b6c146102a3578063825d6322146102b957806389a694dd146102ce5780638ab9e911146102fb57600080fd5b8063715018a61461026357806374328b1c146102785780637676d2351461028d57600080fd5b8063051e1524146101a157806317d70f7c146101b657806335fe2d7f146101df578063391073811461020c5780633eadb6db1461022157806364b4d42814610236575b600080fd5b6101b46101af366004611413565b6104ab565b005b3480156101c257600080fd5b506101cc600b5481565b6040519081526020015b60405180910390f35b3480156101eb57600080fd5b506101cc6101fa36600461142c565b60056020526000908152604090205481565b34801561021857600080fd5b506101b461065c565b34801561022d57600080fd5b506101b4610838565b34801561024257600080fd5b506101cc61025136600461142c565b60046020526000908152604090205481565b34801561026f57600080fd5b506101b4610971565b34801561028457600080fd5b506101b46109a5565b34801561029957600080fd5b506101cc600d5481565b3480156102af57600080fd5b506101cc60095481565b3480156102c557600080fd5b506101b4610aa3565b3480156102da57600080fd5b506101cc6102e936600461142c565b60036020526000908152604090205481565b34801561030757600080fd5b506101b4610b89565b34801561031c57600080fd5b506000546001600160a01b03165b6040516001600160a01b0390911681526020016101d6565b34801561034e57600080fd5b506101cc600e5481565b34801561036457600080fd5b506101cc60075481565b34801561037a57600080fd5b506101b4610be1565b34801561038f57600080fd5b50600a5461032a906001600160a01b031681565b3480156103af57600080fd5b506101cc600c5481565b3480156103c557600080fd5b506101b4610cf1565b3480156103da57600080fd5b506101b46103e9366004611472565b610ddc565b3480156103fa57600080fd5b506101b4610409366004611472565b610f1e565b34801561041a57600080fd5b5060065461032a906001600160a01b031681565b34801561043a57600080fd5b506101cc60085481565b34801561045057600080fd5b506101b461045f36600461142c565b611160565b34801561047057600080fd5b5061032a61047f366004611413565b6111fb565b34801561049057600080fd5b50600f5461049e9060ff1681565b6040516101d6919061153d565b6001600f5460ff1660048111156104c4576104c4611527565b146104ea5760405162461bcd60e51b81526004016104e190611565565b60405180910390fd5b6000546001600160a01b03163314156105365760405162461bcd60e51b815260206004820152600e60248201526d13dddb995c8818d85b9d08189a5960921b60448201526064016104e1565b600034116105765760405162461bcd60e51b815260206004820152600d60248201526c09ccacac840e6dedaca408aa89609b1b60448201526064016104e1565b33600090815260036020526040902054156105c45760405162461bcd60e51b815260206004820152600e60248201526d43616e742062696420747769636560901b60448201526064016104e1565b60028054600181019091557f405787fa12a823e0f2b7631cc41b3ba8828b3321ca811111fa75cd3aa3bb5ace0180546001600160a01b03191633908117909155600081815260036020908152604080832034905560048252918290208490558151928352820183905280517f2853238c840e1dd18555551dff41e5cd85668d2fde7e4fc2f66a4e379ff4167c9281900390910190a150565b6000546001600160a01b031633146106865760405162461bcd60e51b81526004016104e190611592565b600260015414156106a95760405162461bcd60e51b81526004016104e1906115c7565b60026001556004600f5460ff1660048111156106c7576106c7611527565b146106d157600080fd5b60075415610766576007805460009091556106f46000546001600160a01b031690565b6001600160a01b03166108fc829081150290604051600060405180830381858888f1935050505015801561072c573d6000803e3d6000fd5b506040518181527fa9bae03c15d23dd001998395b3adf7648085bf2fba01211df19df18be3a51b4d9060200160405180910390a150610832565b600a546001600160a01b03166342842e0e3033600b546040516001600160e01b031960e086901b1681526001600160a01b0393841660048201529290911660248301526044820152606401600060405180830381600087803b1580156107cb57600080fd5b505af11580156107df573d6000803e3d6000fd5b505050507f700a9be0c495bc7c8168d01913054b681c4b7cd5a72376a4fe03f32f5166c28a6108166000546001600160a01b031690565b6040516001600160a01b03909116815260200160405180910390a15b60018055565b6001600f5460ff16600481111561085157610851611527565b14156108b157600c544210156108795760405162461bcd60e51b81526004016104e1906115fe565b600f805460ff191660021790556040517f96faedf2fa195434cedbb880cb8b4608bbeb066005dc5ac6c4785935589d7a2090600090a1565b6002600f5460ff1660048111156108ca576108ca611527565b141561096f57600e54600d546108e09190611641565b42101561092f5760405162461bcd60e51b815260206004820152601c60248201527f5761697420756e74696c207365742074696d65202b206f66667365740000000060448201526064016104e1565b6000546001600160a01b031633141561095a5760405162461bcd60e51b81526004016104e190611659565b600f805460ff1916600317905561096f611225565b565b6000546001600160a01b0316331461099b5760405162461bcd60e51b81526004016104e190611592565b61096f60006113c3565b6000546001600160a01b031633146109cf5760405162461bcd60e51b81526004016104e190611592565b6000600f5460ff1660048111156109e8576109e8611527565b146109f257600080fd5b600a546001600160a01b03166323b872dd33600b546040516001600160e01b031960e085901b1681526001600160a01b0390921660048301523060248301526044820152606401600060405180830381600087803b158015610a5357600080fd5b505af1158015610a67573d6000803e3d6000fd5b5050600f805460ff1916600117905550506040517f2f6f7f97e94f53db5c4466af22dabc3a2e2852bb871a001aaa29799fdb09434190600090a1565b600e54600d54610ab39190611641565b421015610b025760405162461bcd60e51b815260206004820152601c60248201527f5761697420756e74696c207365742074696d65202b206f66667365740000000060448201526064016104e1565b6000546001600160a01b0316331415610b2d5760405162461bcd60e51b81526004016104e190611659565b6002600f5460ff166004811115610b4657610b46611527565b1461095a5760405162461bcd60e51b815260206004820152601360248201527277726f6e672061756374696f6e20737461746560681b60448201526064016104e1565b600c54421015610bab5760405162461bcd60e51b81526004016104e1906115fe565b6001600f5460ff166004811115610bc457610bc4611527565b146108795760405162461bcd60e51b81526004016104e190611565565b60026001541415610c045760405162461bcd60e51b81526004016104e1906115c7565b60026001556004600f5460ff166004811115610c2257610c22611527565b14610c2c57600080fd5b6006546001600160a01b0316336001600160a01b031614610c4c57600080fd5b600a546001600160a01b03166342842e0e3033600b546040516001600160e01b031960e086901b1681526001600160a01b0393841660048201529290911660248301526044820152606401600060405180830381600087803b158015610cb157600080fd5b505af1158015610cc5573d6000803e3d6000fd5b505050507f700a9be0c495bc7c8168d01913054b681c4b7cd5a72376a4fe03f32f5166c28a6108163390565b60026001541415610d145760405162461bcd60e51b81526004016104e1906115c7565b60026001556004600f5460ff166004811115610d3257610d32611527565b14610d3c57600080fd5b3360009081526003602052604090205480610d5657600080fd5b336000818152600360205260408082208290555183156108fc0291849190818181858888f19350505050158015610d91573d6000803e3d6000fd5b507fc9f3c6b79609b860090fffd3a76fc2f0112ff1825f2d99af5ef7e3ab2b6eef3c33604080516001600160a01b039092168252602082018490520160405180910390a15060018055565b6000546001600160a01b03163314610e065760405162461bcd60e51b81526004016104e190611592565b6002600f5460ff166004811115610e1f57610e1f611527565b14610e3c5760405162461bcd60e51b81526004016104e190611565565b600d54421015610e5e5760405162461bcd60e51b81526004016104e1906115fe565b8181604051602001610e719291906116cb565b6040516020818303038152906040528051906020012060085414610ecd5760405162461bcd60e51b8152602060048201526013602482015272090c2e6d0cae640c8de40dcdee840dac2e8c6d606b1b60448201526064016104e1565b6009819055600f805460ff191660031790556040518181527f0fc8a1af0498179ab028bd9b180740384d8d1625ae26c8e88ddac563006ae5869060200160405180910390a1610f1a611225565b5050565b6002600f5460ff166004811115610f3757610f37611527565b14610f755760405162461bcd60e51b815260206004820152600e60248201526d4e6f742072696768742074696d6560901b60448201526064016104e1565b33600090815260036020526040902054610fd15760405162461bcd60e51b815260206004820152601960248201527f596f7520617265206e6f742061207061727469636970616e740000000000000060448201526064016104e1565b33600090815260056020526040902054156110255760405162461bcd60e51b815260206004820152601460248201527343616e206f6e6c792072657665616c206f6e636560601b60448201526064016104e1565b336000908152600360205260409020548111156110785760405162461bcd60e51b815260206004820152601160248201527013d999995c881a5b9d985b1a59185d1959607a1b60448201526064016104e1565b818160405160200161108b9291906116cb565b60405160208183030381529060405280519060200120600460006110ac3390565b6001600160a01b03166001600160a01b0316815260200190815260200160002054146111105760405162461bcd60e51b8152602060048201526013602482015272090c2e6d0cae640c8de40dcdee840dac2e8c6d606b1b60448201526064016104e1565b3360008181526005602052604090819020839055517ff23315b5875c8d1e8e2d1f24e22ef7d94663e61a21f375f129cf311920f999fa9161115491859085906116ed565b60405180910390a15050565b6000546001600160a01b0316331461118a5760405162461bcd60e51b81526004016104e190611592565b6001600160a01b0381166111ef5760405162461bcd60e51b815260206004820152602660248201527f4f776e61626c653a206e6577206f776e657220697320746865207a65726f206160448201526564647265737360d01b60648201526084016104e1565b6111f8816113c3565b50565b6002818154811061120b57600080fd5b6000918252602090912001546001600160a01b0316905081565b6002546000908190819015611367575060005b6002548110156112d95781600560006002848154811061125a5761125a611737565b60009182526020808320909101546001600160a01b0316835282019290925260400190205411156112c757809250600560006002838154811061129f5761129f611737565b60009182526020808320909101546001600160a01b0316835282019290925260400190205491505b806112d18161174d565b915050611238565b811561136757600954821061136757600283815481106112fb576112fb611737565b6000918252602080832090910154600680546001600160a01b0319166001600160a01b039092169182179055825260058152604080832054600781905560039092529091205461134b9190611768565b6006546001600160a01b03166000908152600360205260409020555b600f805460ff19166004179055600654600754604080516001600160a01b03909316835260208301919091527fc5d1e2a43e1052756e222065802cb80a029bfaf7045b3df42c5c87b92e48de41910160405180910390a1505050565b600080546001600160a01b038381166001600160a01b0319831681178455604051919092169283917f8be0079c531659141344cd1fd0a4f28419497f9722a3daafe3b4186f6b6457e09190a35050565b60006020828403121561142557600080fd5b5035919050565b60006020828403121561143e57600080fd5b81356001600160a01b038116811461145557600080fd5b9392505050565b634e487b7160e01b600052604160045260246000fd5b6000806040838503121561148557600080fd5b823567ffffffffffffffff8082111561149d57600080fd5b818501915085601f8301126114b157600080fd5b8135818111156114c3576114c361145c565b604051601f8201601f19908116603f011681019083821181831017156114eb576114eb61145c565b8160405282815288602084870101111561150457600080fd5b826020860160208301376000602093820184015298969091013596505050505050565b634e487b7160e01b600052602160045260246000fd5b602081016005831061155f57634e487b7160e01b600052602160045260246000fd5b91905290565b60208082526013908201527257726f6e672061756374696f6e20737461746560681b604082015260600190565b6020808252818101527f4f776e61626c653a2063616c6c6572206973206e6f7420746865206f776e6572604082015260600190565b6020808252601f908201527f5265656e7472616e637947756172643a207265656e7472616e742063616c6c00604082015260600190565b6020808252601390820152725761697420756e74696c207365742074696d6560681b604082015260600190565b634e487b7160e01b600052601160045260246000fd5b600082198211156116545761165461162b565b500190565b60208082526022908201527f4f776e6572206d757374207573652077696e6e657243616c63756c6174696f6e604082015261282960f01b606082015260800190565b60005b838110156116b657818101518382015260200161169e565b838111156116c5576000848401525b50505050565b600083516116dd81846020880161169b565b9190910191825250602001919050565b60018060a01b0384168152606060208201526000835180606084015261171a81608085016020880161169b565b604083019390935250601f91909101601f19160160800192915050565b634e487b7160e01b600052603260045260246000fd5b60006000198214156117615761176161162b565b5060010190565b60008282101561177a5761177a61162b565b50039056fea264697066735822122087e6a85470059149ebbfedc31fc50d07107539a090f422b8f2cc7ec32016e8fa64736f6c634300080c0033a26469706673582212201e39634f62cd6ab4cda4cfffc76d125787acf8fccd4a50cf4a29a50daaf42aa864736f6c634300080c0033","bytecodeSha1":"5b165a5a71a2052c7dac4a481b5573927a727285","compiler":{"evm_version":"istanbul","optimizer":{"enabled":true,"runs":200},"version":"0.8.12+commit.f00d7308"},"contractName":"AuctionFactory","language":"Solidity","natspec":{"kind":"dev","methods":{},"version":1},"opcodes":"PUSH1 0x80 PUSH1 0x40 MSTORE CALLVALUE DUP1 ISZERO PUSH3 0x11 JUMPI PUSH1 0x0 DUP1 REVERT JUMPDEST POP PUSH1 0x4 CALLDATASIZE LT PUSH3 0x9F JUMPI PUSH1 0x0 CALLDATALOAD PUSH1 0xE0 SHR DUP1 PUSH4 0x6E04FF0D GT PUSH3 0x6E JUMPI DUP1 PUSH4 0x6E04FF0D EQ PUSH3 0x121 JUMPI DUP1 PUSH4 0xB046BEE5 EQ PUSH3 0x148 JUMPI DUP1 PUSH4 0xD47C0C4D EQ PUSH3 0x16E JUMPI DUP1 PUSH4 0xE0D2FBEB EQ PUSH3 0x196 JUMPI DUP1 PUSH4 0xE34A5D1C EQ PUSH3 0x1AD JUMPI PUSH1 0x0 DUP1 REVERT JUMPDEST DUP1 PUSH4 0x25CE07E9 EQ PUSH3 0xA4 JUMPI DUP1 PUSH4 0x44C9AF28 EQ PUSH3 0xD8 JUMPI DUP1 PUSH4 0x4585E33B EQ PUSH3 0xFE JUMPI DUP1 PUSH4 0x4BE351F0 EQ PUSH3 0x117 JUMPI JUMPDEST PUSH1 0x0 DUP1 REVERT JUMPDEST PUSH3 0xBB PUSH3 0xB5 CALLDATASIZE PUSH1 0x4 PUSH3 0x85A JUMP JUMPDEST PUSH3 0x1C4 JUMP JUMPDEST PUSH1 0x40 MLOAD PUSH1 0x1 PUSH1 0x1 PUSH1 0xA0 SHL SUB SWAP1 SWAP2 AND DUP2 MSTORE PUSH1 0x20 ADD JUMPDEST PUSH1 0x40 MLOAD DUP1 SWAP2 SUB SWAP1 RETURN JUMPDEST PUSH3 0xEF PUSH3 0xE9 CALLDATASIZE PUSH1 0x4 PUSH3 0x85A JUMP JUMPDEST PUSH3 0x1EF JUMP JUMPDEST PUSH1 0x40 MLOAD PUSH3 0xCF SWAP2 SWAP1 PUSH3 0x88A JUMP JUMPDEST PUSH3 0x115 PUSH3 0x10F CALLDATASIZE PUSH1 0x4 PUSH3 0x8B3 JUMP JUMPDEST PUSH3 0x281 JUMP JUMPDEST STOP JUMPDEST PUSH3 0xBB PUSH3 0x3FE JUMP JUMPDEST PUSH3 0x138 PUSH3 0x132 CALLDATASIZE PUSH1 0x4 PUSH3 0x8B3 JUMP JUMPDEST PUSH3 0x43F JUMP JUMPDEST PUSH1 0x40 MLOAD PUSH3 0xCF SWAP3 SWAP2 SWAP1 PUSH3 0x92A JUMP JUMPDEST PUSH3 0x15F PUSH3 0x159 CALLDATASIZE PUSH1 0x4 PUSH3 0x98C JUMP JUMPDEST PUSH3 0x50D JUMP JUMPDEST PUSH1 0x40 MLOAD SWAP1 DUP2 MSTORE PUSH1 0x20 ADD PUSH3 0xCF JUMP JUMPDEST PUSH3 0x185 PUSH3 0x17F CALLDATASIZE PUSH1 0x4 PUSH3 0x8B3 JUMP JUMPDEST PUSH3 0x612 JUMP JUMPDEST PUSH1 0x40 MLOAD SWAP1 ISZERO ISZERO DUP2 MSTORE PUSH1 0x20 ADD PUSH3 0xCF JUMP JUMPDEST PUSH3 0x15F PUSH3 0x1A7 CALLDATASIZE PUSH1 0x4 PUSH3 0x85A JUMP JUMPDEST PUSH3 0x6DF JUMP JUMPDEST PUSH3 0x15F PUSH3 0x1BE CALLDATASIZE PUSH1 0x4 PUSH3 0x85A JUMP JUMPDEST PUSH3 0x76B JUMP JUMPDEST PUSH1 0x0 DUP2 DUP2 SLOAD DUP2 LT PUSH3 0x1D5 JUMPI PUSH1 0x0 DUP1 REVERT JUMPDEST PUSH1 0x0 SWAP2 DUP3 MSTORE PUSH1 0x20 SWAP1 SWAP2 KECCAK256 ADD SLOAD PUSH1 0x1 PUSH1 0x1 PUSH1 0xA0 SHL SUB AND SWAP1 POP DUP2 JUMP JUMPDEST PUSH1 0x0 DUP1 DUP3 DUP2 SLOAD DUP2 LT PUSH3 0x206 JUMPI PUSH3 0x206 PUSH3 0x9E2 JUMP JUMPDEST PUSH1 0x0 SWAP2 DUP3 MSTORE PUSH1 0x20 SWAP2 DUP3 SWAP1 KECCAK256 ADD SLOAD PUSH1 0x40 DUP1 MLOAD PUSH4 0xF9688BC1 PUSH1 0xE0 SHL DUP2 MSTORE SWAP1 MLOAD PUSH1 0x1 PUSH1 0x1 PUSH1 0xA0 SHL SUB SWAP1 SWAP3 AND SWAP3 PUSH4 0xF9688BC1 SWAP3 PUSH1 0x4 DUP1 DUP5 ADD SWAP4 DUP3 SWAP1 SUB ADD DUP2 DUP7 GAS STATICCALL ISZERO DUP1 ISZERO PUSH3 0x255 JUMPI RETURNDATASIZE PUSH1 0x0 DUP1 RETURNDATACOPY RETURNDATASIZE PUSH1 0x0 REVERT JUMPDEST POP POP POP POP PUSH1 0x40 MLOAD RETURNDATASIZE PUSH1 0x1F NOT PUSH1 0x1F DUP3 ADD AND DUP3 ADD DUP1 PUSH1 0x40 MSTORE POP DUP2 ADD SWAP1 PUSH3 0x27B SWAP2 SWAP1 PUSH3 0x9F8 JUMP JUMPDEST SWAP3 SWAP2 POP POP JUMP JUMPDEST PUSH1 0x0 JUMPDEST PUSH1 0x0 SLOAD DUP2 LT ISZERO PUSH3 0x3F9 JUMPI TIMESTAMP PUSH3 0x29B DUP3 PUSH3 0x6DF JUMP JUMPDEST PUSH3 0x2A8 SWAP1 PUSH1 0x5 PUSH3 0xA38 JUMP JUMPDEST LT DUP1 ISZERO PUSH3 0x2D7 JUMPI POP PUSH3 0x2BC DUP2 PUSH3 0x1EF JUMP JUMPDEST PUSH1 0x4 DUP2 GT ISZERO PUSH3 0x2D0 JUMPI PUSH3 0x2D0 PUSH3 0x874 JUMP JUMPDEST PUSH1 0xFF AND PUSH1 0x2 EQ JUMPDEST ISZERO PUSH3 0x343 JUMPI PUSH32 0x9BBBBF32D395A94F1F22AC4A2BB90AA8DA725886F46A988596CCEF1727FCC218 PUSH3 0x309 DUP3 PUSH3 0x1EF JUMP JUMPDEST PUSH1 0x4 DUP2 GT ISZERO PUSH3 0x31D JUMPI PUSH3 0x31D PUSH3 0x874 JUMP JUMPDEST PUSH1 0x40 MLOAD PUSH1 0xFF SWAP1 SWAP2 AND DUP2 MSTORE PUSH1 0x20 ADD PUSH1 0x40 MLOAD DUP1 SWAP2 SUB SWAP1 LOG1 PUSH3 0x33D DUP2 PUSH3 0x7D1 JUMP JUMPDEST PUSH3 0x3E4 JUMP JUMPDEST TIMESTAMP PUSH3 0x34F DUP3 PUSH3 0x76B JUMP JUMPDEST LT DUP1 ISZERO PUSH3 0x37E JUMPI POP PUSH3 0x363 DUP2 PUSH3 0x1EF JUMP JUMPDEST PUSH1 0x4 DUP2 GT ISZERO PUSH3 0x377 JUMPI PUSH3 0x377 PUSH3 0x874 JUMP JUMPDEST PUSH1 0xFF AND PUSH1 0x1 EQ JUMPDEST ISZERO PUSH3 0x3E4 JUMPI PUSH32 0x134FA4482DFE755AD64A6D1EE79F48C1C54128C2C9EB2C08E5BFE90376822139 PUSH3 0x3B0 DUP3 PUSH3 0x1EF JUMP JUMPDEST PUSH1 0x4 DUP2 GT ISZERO PUSH3 0x3C4 JUMPI PUSH3 0x3C4 PUSH3 0x874 JUMP JUMPDEST PUSH1 0x40 MLOAD PUSH1 0xFF SWAP1 SWAP2 AND DUP2 MSTORE PUSH1 0x20 ADD PUSH1 0x40 MLOAD DUP1 SWAP2 SUB SWAP1 LOG1 PUSH3 0x3E4 DUP2 PUSH3 0x7D1 JUMP JUMPDEST DUP1 PUSH3 0x3F0 DUP2 PUSH3 0xA53 JUMP JUMPDEST SWAP2 POP POP PUSH3 0x284 JUMP JUMPDEST POP POP POP JUMP JUMPDEST PUSH1 0x0 DUP1 SLOAD DUP2 SWAP1 PUSH3 0x412 SWAP1 PUSH1 0x1 SWAP1 PUSH3 0xA71 JUMP JUMPDEST DUP2 SLOAD DUP2 LT PUSH3 0x425 JUMPI PUSH3 0x425 PUSH3 0x9E2 JUMP JUMPDEST PUSH1 0x0 SWAP2 DUP3 MSTORE PUSH1 0x20 SWAP1 SWAP2 KECCAK256 ADD SLOAD PUSH1 0x1 PUSH1 0x1 PUSH1 0xA0 SHL SUB AND SWAP2 SWAP1 POP JUMP JUMPDEST PUSH1 0x0 PUSH1 0x60 DUP2 JUMPDEST PUSH1 0x0 SLOAD DUP2 LT DUP1 ISZERO PUSH3 0x455 JUMPI POP DUP3 ISZERO JUMPDEST ISZERO PUSH3 0x505 JUMPI TIMESTAMP PUSH3 0x467 DUP3 PUSH3 0x6DF JUMP JUMPDEST PUSH3 0x474 SWAP1 PUSH1 0x5 PUSH3 0xA38 JUMP JUMPDEST LT DUP1 ISZERO PUSH3 0x4A3 JUMPI POP PUSH3 0x488 DUP2 PUSH3 0x1EF JUMP JUMPDEST PUSH1 0x4 DUP2 GT ISZERO PUSH3 0x49C JUMPI PUSH3 0x49C PUSH3 0x874 JUMP JUMPDEST PUSH1 0xFF AND PUSH1 0x2 EQ JUMPDEST DUP1 PUSH3 0x4E5 JUMPI POP TIMESTAMP PUSH3 0x4B6 DUP3 PUSH3 0x76B JUMP JUMPDEST LT DUP1 ISZERO PUSH3 0x4E5 JUMPI POP PUSH3 0x4CA DUP2 PUSH3 0x1EF JUMP JUMPDEST PUSH1 0x4 DUP2 GT ISZERO PUSH3 0x4DE JUMPI PUSH3 0x4DE PUSH3 0x874 JUMP JUMPDEST PUSH1 0xFF AND PUSH1 0x1 EQ JUMPDEST ISZERO PUSH3 0x4F0 JUMPI PUSH1 0x1 SWAP3 POP JUMPDEST DUP1 PUSH3 0x4FC DUP2 PUSH3 0xA53 JUMP JUMPDEST SWAP2 POP POP PUSH3 0x445 JUMP JUMPDEST POP SWAP3 POP SWAP3 SWAP1 POP JUMP JUMPDEST PUSH1 0x0 DUP1 DUP7 DUP7 DUP7 DUP7 DUP7 PUSH1 0x40 MLOAD PUSH3 0x523 SWAP1 PUSH3 0x84C JUMP JUMPDEST SWAP5 DUP6 MSTORE PUSH1 0x1 PUSH1 0x1 PUSH1 0xA0 SHL SUB SWAP1 SWAP4 AND PUSH1 0x20 DUP6 ADD MSTORE PUSH1 0x40 DUP5 ADD SWAP2 SWAP1 SWAP2 MSTORE PUSH1 0x60 DUP4 ADD MSTORE PUSH1 0x80 DUP3 ADD MSTORE PUSH1 0xA0 ADD PUSH1 0x40 MLOAD DUP1 SWAP2 SUB SWAP1 PUSH1 0x0 CREATE DUP1 ISZERO DUP1 ISZERO PUSH3 0x568 JUMPI RETURNDATASIZE PUSH1 0x0 DUP1 RETURNDATACOPY RETURNDATASIZE PUSH1 0x0 REVERT JUMPDEST POP PUSH1 0x0 DUP1 SLOAD PUSH1 0x1 DUP2 ADD DUP3 SSTORE SWAP1 DUP1 MSTORE PUSH32 0x290DECD9548B62A8D60345A988386FC84BA6BC95484008F6362F93160EF3E563 ADD DUP1 SLOAD PUSH1 0x1 PUSH1 0x1 PUSH1 0xA0 SHL SUB NOT AND PUSH1 0x1 PUSH1 0x1 PUSH1 0xA0 SHL SUB DUP4 AND SWAP1 DUP2 OR SWAP1 SWAP2 SSTORE PUSH1 0x40 MLOAD PUSH4 0xF2FDE38B PUSH1 0xE0 SHL DUP2 MSTORE CALLER PUSH1 0x4 DUP3 ADD MSTORE SWAP2 SWAP3 POP SWAP1 PUSH4 0xF2FDE38B SWAP1 PUSH1 0x24 ADD PUSH1 0x0 PUSH1 0x40 MLOAD DUP1 DUP4 SUB DUP2 PUSH1 0x0 DUP8 DUP1 EXTCODESIZE ISZERO DUP1 ISZERO PUSH3 0x5EF JUMPI PUSH1 0x0 DUP1 REVERT JUMPDEST POP GAS CALL ISZERO DUP1 ISZERO PUSH3 0x604 JUMPI RETURNDATASIZE PUSH1 0x0 DUP1 RETURNDATACOPY RETURNDATASIZE PUSH1 0x0 REVERT JUMPDEST POP POP POP POP POP SWAP6 SWAP5 POP POP POP POP POP JUMP JUMPDEST PUSH1 0x0 DUP1 DUP1 JUMPDEST PUSH1 0x0 SLOAD DUP2 LT DUP1 ISZERO PUSH3 0x627 JUMPI POP DUP2 ISZERO JUMPDEST ISZERO PUSH3 0x6D7 JUMPI TIMESTAMP PUSH3 0x639 DUP3 PUSH3 0x6DF JUMP JUMPDEST PUSH3 0x646 SWAP1 PUSH1 0x5 PUSH3 0xA38 JUMP JUMPDEST LT DUP1 ISZERO PUSH3 0x675 JUMPI POP PUSH3 0x65A DUP2 PUSH3 0x1EF JUMP JUMPDEST PUSH1 0x4 DUP2 GT ISZERO PUSH3 0x66E JUMPI PUSH3 0x66E PUSH3 0x874 JUMP JUMPDEST PUSH1 0xFF AND PUSH1 0x2 EQ JUMPDEST DUP1 PUSH3 0x6B7 JUMPI POP TIMESTAMP PUSH3 0x688 DUP3 PUSH3 0x76B JUMP JUMPDEST LT DUP1 ISZERO PUSH3 0x6B7 JUMPI POP PUSH3 0x69C DUP2 PUSH3 0x1EF JUMP JUMPDEST PUSH1 0x4 DUP2 GT ISZERO PUSH3 0x6B0 JUMPI PUSH3 0x6B0 PUSH3 0x874 JUMP JUMPDEST PUSH1 0xFF AND PUSH1 0x1 EQ JUMPDEST ISZERO PUSH3 0x6C2 JUMPI PUSH1 0x1 SWAP2 POP JUMPDEST DUP1 PUSH3 0x6CE DUP2 PUSH3 0xA53 JUMP JUMPDEST SWAP2 POP POP PUSH3 0x617 JUMP JUMPDEST POP SWAP4 SWAP3 POP POP POP JUMP JUMPDEST PUSH1 0x0 DUP1 DUP3 DUP2 SLOAD DUP2 LT PUSH3 0x6F6 JUMPI PUSH3 0x6F6 PUSH3 0x9E2 JUMP JUMPDEST PUSH1 0x0 SWAP2 DUP3 MSTORE PUSH1 0x20 SWAP2 DUP3 SWAP1 KECCAK256 ADD SLOAD PUSH1 0x40 DUP1 MLOAD PUSH4 0x7676D235 PUSH1 0xE0 SHL DUP2 MSTORE SWAP1 MLOAD PUSH1 0x1 PUSH1 0x1 PUSH1 0xA0 SHL SUB SWAP1 SWAP3 AND SWAP3 PUSH4 0x7676D235 SWAP3 PUSH1 0x4 DUP1 DUP5 ADD SWAP4 DUP3 SWAP1 SUB ADD DUP2 DUP7 GAS STATICCALL ISZERO DUP1 ISZERO PUSH3 0x745 JUMPI RETURNDATASIZE PUSH1 0x0 DUP1 RETURNDATACOPY RETURNDATASIZE PUSH1 0x0 REVERT JUMPDEST POP POP POP POP PUSH1 0x40 MLOAD RETURNDATASIZE PUSH1 0x1F NOT PUSH1 0x1F DUP3 ADD AND DUP3 ADD DUP1 PUSH1 0x40 MSTORE POP DUP2 ADD SWAP1 PUSH3 0x27B SWAP2 SWAP1 PUSH3 0xA8B JUMP JUMPDEST PUSH1 0x0 DUP1 DUP3 DUP2 SLOAD DUP2 LT PUSH3 0x782 JUMPI PUSH3 0x782 PUSH3 0x9E2 JUMP JUMPDEST PUSH1 0x0 SWAP2 DUP3 MSTORE PUSH1 0x20 SWAP2 DUP3 SWAP1 KECCAK256 ADD SLOAD PUSH1 0x40 DUP1 MLOAD PUSH4 0xBA829D71 PUSH1 0xE0 SHL DUP2 MSTORE SWAP1 MLOAD PUSH1 0x1 PUSH1 0x1 PUSH1 0xA0 SHL SUB SWAP1 SWAP3 AND SWAP3 PUSH4 0xBA829D71 SWAP3 PUSH1 0x4 DUP1 DUP5 ADD SWAP4 DUP3 SWAP1 SUB ADD DUP2 DUP7 GAS STATICCALL ISZERO DUP1 ISZERO PUSH3 0x745 JUMPI RETURNDATASIZE PUSH1 0x0 DUP1 RETURNDATACOPY RETURNDATASIZE PUSH1 0x0 REVERT JUMPDEST PUSH1 0x0 DUP2 DUP2 SLOAD DUP2 LT PUSH3 0x7E7 JUMPI PUSH3 0x7E7 PUSH3 0x9E2 JUMP JUMPDEST PUSH1 0x0 SWAP2 DUP3 MSTORE PUSH1 0x20 DUP3 KECCAK256 ADD SLOAD PUSH1 0x40 DUP1 MLOAD PUSH4 0x3EADB6DB PUSH1 0xE0 SHL DUP2 MSTORE SWAP1 MLOAD PUSH1 0x1 PUSH1 0x1 PUSH1 0xA0 SHL SUB SWAP1 SWAP3 AND SWAP3 PUSH4 0x3EADB6DB SWAP3 PUSH1 0x4 DUP1 DUP5 ADD SWAP4 DUP3 SWAP1 SUB ADD DUP2 DUP4 DUP8 DUP1 EXTCODESIZE ISZERO DUP1 ISZERO PUSH3 0x830 JUMPI PUSH1 0x0 DUP1 REVERT JUMPDEST POP GAS CALL ISZERO DUP1 ISZERO PUSH3 0x845 JUMPI RETURNDATASIZE PUSH1 0x0 DUP1 RETURNDATACOPY RETURNDATASIZE PUSH1 0x0 REVERT JUMPDEST POP POP POP POP POP JUMP JUMPDEST PUSH2 0x1947 DUP1 PUSH3 0xAA6 DUP4 CODECOPY ADD SWAP1 JUMP JUMPDEST PUSH1 0x0 PUSH1 0x20 DUP3 DUP5 SUB SLT ISZERO PUSH3 0x86D JUMPI PUSH1 0x0 DUP1 REVERT JUMPDEST POP CALLDATALOAD SWAP2 SWAP1 POP JUMP JUMPDEST PUSH4 0x4E487B71 PUSH1 0xE0 SHL PUSH1 0x0 MSTORE PUSH1 0x21 PUSH1 0x4 MSTORE PUSH1 0x24 PUSH1 0x0 REVERT JUMPDEST PUSH1 0x20 DUP2 ADD PUSH1 0x5 DUP4 LT PUSH3 0x8AD JUMPI PUSH4 0x4E487B71 PUSH1 0xE0 SHL PUSH1 0x0 MSTORE PUSH1 0x21 PUSH1 0x4 MSTORE PUSH1 0x24 PUSH1 0x0 REVERT JUMPDEST SWAP2 SWAP1 MSTORE SWAP1 JUMP JUMPDEST PUSH1 0x0 DUP1 PUSH1 0x20 DUP4 DUP6 SUB SLT ISZERO PUSH3 0x8C7 JUMPI PUSH1 0x0 DUP1 REVERT JUMPDEST DUP3 CALLDATALOAD PUSH8 0xFFFFFFFFFFFFFFFF DUP1 DUP3 GT ISZERO PUSH3 0x8E0 JUMPI PUSH1 0x0 DUP1 REVERT JUMPDEST DUP2 DUP6 ADD SWAP2 POP DUP6 PUSH1 0x1F DUP4 ADD SLT PUSH3 0x8F5 JUMPI PUSH1 0x0 DUP1 REVERT JUMPDEST DUP2 CALLDATALOAD DUP2 DUP2 GT ISZERO PUSH3 0x905 JUMPI PUSH1 0x0 DUP1 REVERT JUMPDEST DUP7 PUSH1 0x20 DUP3 DUP6 ADD ADD GT ISZERO PUSH3 0x918 JUMPI PUSH1 0x0 DUP1 REVERT JUMPDEST PUSH1 0x20 SWAP3 SWAP1 SWAP3 ADD SWAP7 SWAP2 SWAP6 POP SWAP1 SWAP4 POP POP POP POP JUMP JUMPDEST DUP3 ISZERO ISZERO DUP2 MSTORE PUSH1 0x0 PUSH1 0x20 PUSH1 0x40 DUP2 DUP5 ADD MSTORE DUP4 MLOAD DUP1 PUSH1 0x40 DUP6 ADD MSTORE PUSH1 0x0 JUMPDEST DUP2 DUP2 LT ISZERO PUSH3 0x962 JUMPI DUP6 DUP2 ADD DUP4 ADD MLOAD DUP6 DUP3 ADD PUSH1 0x60 ADD MSTORE DUP3 ADD PUSH3 0x944 JUMP JUMPDEST DUP2 DUP2 GT ISZERO PUSH3 0x975 JUMPI PUSH1 0x0 PUSH1 0x60 DUP4 DUP8 ADD ADD MSTORE JUMPDEST POP PUSH1 0x1F ADD PUSH1 0x1F NOT AND SWAP3 SWAP1 SWAP3 ADD PUSH1 0x60 ADD SWAP5 SWAP4 POP POP POP POP JUMP JUMPDEST PUSH1 0x0 DUP1 PUSH1 0x0 DUP1 PUSH1 0x0 PUSH1 0xA0 DUP7 DUP9 SUB SLT ISZERO PUSH3 0x9A5 JUMPI PUSH1 0x0 DUP1 REVERT JUMPDEST DUP6 CALLDATALOAD SWAP5 POP PUSH1 0x20 DUP7 ADD CALLDATALOAD PUSH1 0x1 PUSH1 0x1 PUSH1 0xA0 SHL SUB DUP2 AND DUP2 EQ PUSH3 0x9C4 JUMPI PUSH1 0x0 DUP1 REVERT JUMPDEST SWAP5 SWAP8 SWAP5 SWAP7 POP POP POP POP PUSH1 0x40 DUP4 ADD CALLDATALOAD SWAP3 PUSH1 0x60 DUP2 ADD CALLDATALOAD SWAP3 PUSH1 0x80 SWAP1 SWAP2 ADD CALLDATALOAD SWAP2 POP JUMP JUMPDEST PUSH4 0x4E487B71 PUSH1 0xE0 SHL PUSH1 0x0 MSTORE PUSH1 0x32 PUSH1 0x4 MSTORE PUSH1 0x24 PUSH1 0x0 REVERT JUMPDEST PUSH1 0x0 PUSH1 0x20 DUP3 DUP5 SUB SLT ISZERO PUSH3 0xA0B JUMPI PUSH1 0x0 DUP1 REVERT JUMPDEST DUP2 MLOAD PUSH1 0x5 DUP2 LT PUSH3 0xA1B JUMPI PUSH1 0x0 DUP1 REVERT JUMPDEST SWAP4 SWAP3 POP POP POP JUMP JUMPDEST PUSH4 0x4E487B71 PUSH1 0xE0 SHL PUSH1 0x0 MSTORE PUSH1 0x11 PUSH1 0x4 MSTORE PUSH1 0x24 PUSH1 0x0 REVERT JUMPDEST PUSH1 0x0 DUP3 NOT DUP3 GT ISZERO PUSH3 0xA4E JUMPI PUSH3 0xA4E PUSH3 0xA22 JUMP JUMPDEST POP ADD SWAP1 JUMP JUMPDEST PUSH1 0x0 PUSH1 0x0 NOT DUP3 EQ ISZERO PUSH3 0xA6A JUMPI PUSH3 0xA6A PUSH3 0xA22 JUMP JUMPDEST POP PUSH1 0x1 ADD SWAP1 JUMP JUMPDEST PUSH1 0x0 DUP3 DUP3 LT ISZERO PUSH3 0xA86 JUMPI PUSH3 0xA86 PUSH3 0xA22 JUMP JUMPDEST POP SUB SWAP1 JUMP JUMPDEST PUSH1 0x0 PUSH1 0x20 DUP3 DUP5 SUB SLT ISZERO PUSH3 0xA9E JUMPI PUSH1 0x0 DUP1 REVERT JUMPDEST POP MLOAD SWAP2 SWAP1 POP JUMP INVALID PUSH1 0x80 PUSH1 0x40 MSTORE PUSH1 0x5 PUSH1 0xE SSTORE CALLVALUE DUP1 ISZERO PUSH2 0x15 JUMPI PUSH1 0x0 DUP1 REVERT JUMPDEST POP PUSH1 0x40 MLOAD PUSH3 0x1947 CODESIZE SUB DUP1 PUSH3 0x1947 DUP4 CODECOPY DUP2 ADD PUSH1 0x40 DUP2 SWAP1 MSTORE PUSH2 0x36 SWAP2 PUSH2 0x12C JUMP JUMPDEST PUSH2 0x3F CALLER PUSH2 0xDC JUMP JUMPDEST PUSH1 0x1 DUP1 SSTORE PUSH1 0x1 PUSH1 0x1 PUSH1 0xA0 SHL SUB DUP5 AND PUSH2 0x9D JUMPI PUSH1 0x40 MLOAD PUSH3 0x461BCD PUSH1 0xE5 SHL DUP2 MSTORE PUSH1 0x20 PUSH1 0x4 DUP3 ADD MSTORE PUSH1 0x1A PUSH1 0x24 DUP3 ADD MSTORE PUSH32 0x4E6F7420612076616C6964204552433732312061646472657373000000000000 PUSH1 0x44 DUP3 ADD MSTORE PUSH1 0x64 ADD PUSH1 0x40 MLOAD DUP1 SWAP2 SUB SWAP1 REVERT JUMPDEST PUSH1 0xF DUP1 SLOAD PUSH1 0xFF NOT AND SWAP1 SSTORE PUSH1 0x8 SWAP5 SWAP1 SWAP5 SSTORE PUSH1 0xA DUP1 SLOAD PUSH1 0x1 PUSH1 0x1 PUSH1 0xA0 SHL SUB NOT AND PUSH1 0x1 PUSH1 0x1 PUSH1 0xA0 SHL SUB SWAP5 SWAP1 SWAP5 AND SWAP4 SWAP1 SWAP4 OR SWAP1 SWAP3 SSTORE PUSH1 0xB SSTORE PUSH1 0xC SSTORE PUSH1 0xD SSTORE PUSH2 0x182 JUMP JUMPDEST PUSH1 0x0 DUP1 SLOAD PUSH1 0x1 PUSH1 0x1 PUSH1 0xA0 SHL SUB DUP4 DUP2 AND PUSH1 0x1 PUSH1 0x1 PUSH1 0xA0 SHL SUB NOT DUP4 AND DUP2 OR DUP5 SSTORE PUSH1 0x40 MLOAD SWAP2 SWAP1 SWAP3 AND SWAP3 DUP4 SWAP2 PUSH32 0x8BE0079C531659141344CD1FD0A4F28419497F9722A3DAAFE3B4186F6B6457E0 SWAP2 SWAP1 LOG3 POP POP JUMP JUMPDEST PUSH1 0x0 DUP1 PUSH1 0x0 DUP1 PUSH1 0x0 PUSH1 0xA0 DUP7 DUP9 SUB SLT ISZERO PUSH2 0x144 JUMPI PUSH1 0x0 DUP1 REVERT JUMPDEST DUP6 MLOAD PUSH1 0x20 DUP8 ADD MLOAD SWAP1 SWAP6 POP PUSH1 0x1 PUSH1 0x1 PUSH1 0xA0 SHL SUB DUP2 AND DUP2 EQ PUSH2 0x163 JUMPI PUSH1 0x0 DUP1 REVERT JUMPDEST PUSH1 0x40 DUP8 ADD MLOAD PUSH1 0x60 DUP9 ADD MLOAD PUSH1 0x80 SWAP1 SWAP9 ADD MLOAD SWAP7 SWAP10 SWAP2 SWAP9 POP SWAP7 SWAP6 SWAP5 POP SWAP3 POP POP POP JUMP JUMPDEST PUSH2 0x17B5 DUP1 PUSH3 0x192 PUSH1 0x0 CODECOPY PUSH1 0x0 RETURN INVALID PUSH1 0x80 PUSH1 0x40 MSTORE PUSH1 0x4 CALLDATASIZE LT PUSH2 0x19C JUMPI PUSH1 0x0 CALLDATALOAD PUSH1 0xE0 SHR DUP1 PUSH4 0x8DA5CB5B GT PUSH2 0xEC JUMPI DUP1 PUSH4 0xD5B19DF5 GT PUSH2 0x8A JUMPI DUP1 PUSH4 0xE8A5ACEE GT PUSH2 0x64 JUMPI DUP1 PUSH4 0xE8A5ACEE EQ PUSH2 0x42E JUMPI DUP1 PUSH4 0xF2FDE38B EQ PUSH2 0x444 JUMPI DUP1 PUSH4 0xF71D96CB EQ PUSH2 0x464 JUMPI DUP1 PUSH4 0xF9688BC1 EQ PUSH2 0x484 JUMPI PUSH1 0x0 DUP1 REVERT JUMPDEST DUP1 PUSH4 0xD5B19DF5 EQ PUSH2 0x3CE JUMPI DUP1 PUSH4 0xD7EE3C79 EQ PUSH2 0x3EE JUMPI DUP1 PUSH4 0xDFBF53AE EQ PUSH2 0x40E JUMPI PUSH1 0x0 DUP1 REVERT JUMPDEST DUP1 PUSH4 0xB6F1AD5B GT PUSH2 0xC6 JUMPI DUP1 PUSH4 0xB6F1AD5B EQ PUSH2 0x36E JUMPI DUP1 PUSH4 0xB8E33FB2 EQ PUSH2 0x383 JUMPI DUP1 PUSH4 0xBA829D71 EQ PUSH2 0x3A3 JUMPI DUP1 PUSH4 0xD28A2EDD EQ PUSH2 0x3B9 JUMPI PUSH1 0x0 DUP1 REVERT JUMPDEST DUP1 PUSH4 0x8DA5CB5B EQ PUSH2 0x310 JUMPI DUP1 PUSH4 0xA438B0E5 EQ PUSH2 0x342 JUMPI DUP1 PUSH4 0xAA8C217C EQ PUSH2 0x358 JUMPI PUSH1 0x0 DUP1 REVERT JUMPDEST DUP1 PUSH4 0x715018A6 GT PUSH2 0x159 JUMPI DUP1 PUSH4 0x7F386B6C GT PUSH2 0x133 JUMPI DUP1 PUSH4 0x7F386B6C EQ PUSH2 0x2A3 JUMPI DUP1 PUSH4 0x825D6322 EQ PUSH2 0x2B9 JUMPI DUP1 PUSH4 0x89A694DD EQ PUSH2 0x2CE JUMPI DUP1 PUSH4 0x8AB9E911 EQ PUSH2 0x2FB JUMPI PUSH1 0x0 DUP1 REVERT JUMPDEST DUP1 PUSH4 0x715018A6 EQ PUSH2 0x263 JUMPI DUP1 PUSH4 0x74328B1C EQ PUSH2 0x278 JUMPI DUP1 PUSH4 0x7676D235 EQ PUSH2 0x28D JUMPI PUSH1 0x0 DUP1 REVERT JUMPDEST DUP1 PUSH4 0x51E1524 EQ PUSH2 0x1A1 JUMPI DUP1 PUSH4 0x17D70F7C EQ PUSH2 0x1B6 JUMPI DUP1 PUSH4 0x35FE2D7F EQ PUSH2 0x1DF JUMPI DUP1 PUSH4 0x39107381 EQ PUSH2 0x20C JUMPI DUP1 PUSH4 0x3EADB6DB EQ PUSH2 0x221 JUMPI DUP1 PUSH4 0x64B4D428 EQ PUSH2 0x236 JUMPI JUMPDEST PUSH1 0x0 DUP1 REVERT JUMPDEST PUSH2 0x1B4 PUSH2 0x1AF CALLDATASIZE PUSH1 0x4 PUSH2 0x1413 JUMP JUMPDEST PUSH2 0x4AB JUMP JUMPDEST STOP JUMPDEST CALLVALUE DUP1 ISZERO PUSH2 0x1C2 JUMPI PUSH1 0x0 DUP1 REVERT JUMPDEST POP PUSH2 0x1CC PUSH1 0xB SLOAD DUP2 JUMP JUMPDEST PUSH1 0x40 MLOAD SWAP1 DUP2 MSTORE PUSH1 0x20 ADD JUMPDEST PUSH1 0x40 MLOAD DUP1 SWAP2 SUB SWAP1 RETURN JUMPDEST CALLVALUE DUP1 ISZERO PUSH2 0x1EB JUMPI PUSH1 0x0 DUP1 REVERT JUMPDEST POP PUSH2 0x1CC PUSH2 0x1FA CALLDATASIZE PUSH1 0x4 PUSH2 0x142C JUMP JUMPDEST PUSH1 0x5 PUSH1 0x20 MSTORE PUSH1 0x0 SWAP1 DUP2 MSTORE PUSH1 0x40 SWAP1 KECCAK256 SLOAD DUP2 JUMP JUMPDEST CALLVALUE DUP1 ISZERO PUSH2 0x218 JUMPI PUSH1 0x0 DUP1 REVERT JUMPDEST POP PUSH2 0x1B4 PUSH2 0x65C JUMP JUMPDEST CALLVALUE DUP1 ISZERO PUSH2 0x22D JUMPI PUSH1 0x0 DUP1 REVERT JUMPDEST POP PUSH2 0x1B4 PUSH2 0x838 JUMP JUMPDEST CALLVALUE DUP1 ISZERO PUSH2 0x242 JUMPI PUSH1 0x0 DUP1 REVERT JUMPDEST POP PUSH2 0x1CC PUSH2 0x251 CALLDATASIZE PUSH1 0x4 PUSH2 0x142C JUMP JUMPDEST PUSH1 0x4 PUSH1 0x20 MSTORE PUSH1 0x0 SWAP1 DUP2 MSTORE PUSH1 0x40 SWAP1 KECCAK256 SLOAD DUP2 JUMP JUMPDEST CALLVALUE DUP1 ISZERO PUSH2 0x26F JUMPI PUSH1 0x0 DUP1 REVERT JUMPDEST POP PUSH2 0x1B4 PUSH2 0x971 JUMP JUMPDEST CALLVALUE DUP1 ISZERO PUSH2 0x284 JUMPI PUSH1 0x0 DUP1 REVERT JUMPDEST POP PUSH2 0x1B4 PUSH2 0x9A5 JUMP JUMPDEST CALLVALUE DUP1 ISZERO PUSH2 0x299 JUMPI PUSH1 0x0 DUP1 REVERT JUMPDEST POP PUSH2 0x1CC PUSH1 0xD SLOAD DUP2 JUMP JUMPDEST CALLVALUE DUP1 ISZERO PUSH2 0x2AF JUMPI PUSH1 0x0 DUP1 REVERT JUMPDEST POP PUSH2 0x1CC PUSH1 0x9 SLOAD DUP2 JUMP JUMPDEST CALLVALUE DUP1 ISZERO PUSH2 0x2C5 JUMPI PUSH1 0x0 DUP1 REVERT JUMPDEST POP PUSH2 0x1B4 PUSH2 0xAA3 JUMP JUMPDEST CALLVALUE DUP1 ISZERO PUSH2 0x2DA JUMPI PUSH1 0x0 DUP1 REVERT JUMPDEST POP PUSH2 0x1CC PUSH2 0x2E9 CALLDATASIZE PUSH1 0x4 PUSH2 0x142C JUMP JUMPDEST PUSH1 0x3 PUSH1 0x20 MSTORE PUSH1 0x0 SWAP1 DUP2 MSTORE PUSH1 0x40 SWAP1 KECCAK256 SLOAD DUP2 JUMP JUMPDEST CALLVALUE DUP1 ISZERO PUSH2 0x307 JUMPI PUSH1 0x0 DUP1 REVERT JUMPDEST POP PUSH2 0x1B4 PUSH2 0xB89 JUMP JUMPDEST CALLVALUE DUP1 ISZERO PUSH2 0x31C JUMPI PUSH1 0x0 DUP1 REVERT JUMPDEST POP PUSH1 0x0 SLOAD PUSH1 0x1 PUSH1 0x1 PUSH1 0xA0 SHL SUB AND JUMPDEST PUSH1 0x40 MLOAD PUSH1 0x1 PUSH1 0x1 PUSH1 0xA0 SHL SUB SWAP1 SWAP2 AND DUP2 MSTORE PUSH1 0x20 ADD PUSH2 0x1D6 JUMP JUMPDEST CALLVALUE DUP1 ISZERO PUSH2 0x34E JUMPI PUSH1 0x0 DUP1 REVERT JUMPDEST POP PUSH2 0x1CC PUSH1 0xE SLOAD DUP2 JUMP JUMPDEST CALLVALUE DUP1 ISZERO PUSH2 0x364 JUMPI PUSH1 0x0 DUP1 REVERT JUMPDEST POP PUSH2 0x1CC PUSH1 0x7 SLOAD DUP2 JUMP JUMPDEST CALLVALUE DUP1 ISZERO PUSH2 0x37A JUMPI PUSH1 0x0 DUP1 REVERT JUMPDEST POP PUSH2 0x1B4 PUSH2 0xBE1 JUMP JUMPDEST CALLVALUE DUP1 ISZERO PUSH2 0x38F JUMPI PUSH1 0x0 DUP1 REVERT JUMPDEST POP PUSH1 0xA SLOAD PUSH2 0x32A SWAP1 PUSH1 0x1 PUSH1 0x1 PUSH1 0xA0 SHL SUB AND DUP2 JUMP JUMPDEST CALLVALUE DUP1 ISZERO PUSH2 0x3AF JUMPI PUSH1 0x0 DUP1 REVERT JUMPDEST POP PUSH2 0x1CC PUSH1 0xC SLOAD DUP2 JUMP JUMPDEST CALLVALUE DUP1 ISZERO PUSH2 0x3C5 JUMPI PUSH1 0x0 DUP1 REVERT JUMPDEST POP PUSH2 0x1B4 PUSH2 0xCF1 JUMP JUMPDEST CALLVALUE DUP1 ISZERO PUSH2 0x3DA JUMPI PUSH1 0x0 DUP1 REVERT JUMPDEST POP PUSH2 0x1B4 PUSH2 0x3E9 CALLDATASIZE PUSH1 0x4 PUSH2 0x1472 JUMP JUMPDEST PUSH2 0xDDC JUMP JUMPDEST CALLVALUE DUP1 ISZERO PUSH2 0x3FA JUMPI PUSH1 0x0 DUP1 REVERT JUMPDEST POP PUSH2 0x1B4 PUSH2 0x409 CALLDATASIZE PUSH1 0x4 PUSH2 0x1472 JUMP JUMPDEST PUSH2 0xF1E JUMP JUMPDEST CALLVALUE DUP1 ISZERO PUSH2 0x41A JUMPI PUSH1 0x0 DUP1 REVERT JUMPDEST POP PUSH1 0x6 SLOAD PUSH2 0x32A SWAP1 PUSH1 0x1 PUSH1 0x1 PUSH1 0xA0 SHL SUB AND DUP2 JUMP JUMPDEST CALLVALUE DUP1 ISZERO PUSH2 0x43A JUMPI PUSH1 0x0 DUP1 REVERT JUMPDEST POP PUSH2 0x1CC PUSH1 0x8 SLOAD DUP2 JUMP JUMPDEST CALLVALUE DUP1 ISZERO PUSH2 0x450 JUMPI PUSH1 0x0 DUP1 REVERT JUMPDEST POP PUSH2 0x1B4 PUSH2 0x45F CALLDATASIZE PUSH1 0x4 PUSH2 0x142C JUMP JUMPDEST PUSH2 0x1160 JUMP JUMPDEST CALLVALUE DUP1 ISZERO PUSH2 0x470 JUMPI PUSH1 0x0 DUP1 REVERT JUMPDEST POP PUSH2 0x32A PUSH2 0x47F CALLDATASIZE PUSH1 0x4 PUSH2 0x1413 JUMP JUMPDEST PUSH2 0x11FB JUMP JUMPDEST CALLVALUE DUP1 ISZERO PUSH2 0x490 JUMPI PUSH1 0x0 DUP1 REVERT JUMPDEST POP PUSH1 0xF SLOAD PUSH2 0x49E SWAP1 PUSH1 0xFF AND DUP2 JUMP JUMPDEST PUSH1 0x40 MLOAD PUSH2 0x1D6 SWAP2 SWAP1 PUSH2 0x153D JUMP JUMPDEST PUSH1 0x1 PUSH1 0xF SLOAD PUSH1 0xFF AND PUSH1 0x4 DUP2 GT ISZERO PUSH2 0x4C4 JUMPI PUSH2 0x4C4 PUSH2 0x1527 JUMP JUMPDEST EQ PUSH2 0x4EA JUMPI PUSH1 0x40 MLOAD PUSH3 0x461BCD PUSH1 0xE5 SHL DUP2 MSTORE PUSH1 0x4 ADD PUSH2 0x4E1 SWAP1 PUSH2 0x1565 JUMP JUMPDEST PUSH1 0x40 MLOAD DUP1 SWAP2 SUB SWAP1 REVERT JUMPDEST PUSH1 0x0 SLOAD PUSH1 0x1 PUSH1 0x1 PUSH1 0xA0 SHL SUB AND CALLER EQ ISZERO PUSH2 0x536 JUMPI PUSH1 0x40 MLOAD PUSH3 0x461BCD PUSH1 0xE5 SHL DUP2 MSTORE PUSH1 0x20 PUSH1 0x4 DUP3 ADD MSTORE PUSH1 0xE PUSH1 0x24 DUP3 ADD MSTORE PUSH14 0x13DDDB995C8818D85B9D08189A59 PUSH1 0x92 SHL PUSH1 0x44 DUP3 ADD MSTORE PUSH1 0x64 ADD PUSH2 0x4E1 JUMP JUMPDEST PUSH1 0x0 CALLVALUE GT PUSH2 0x576 JUMPI PUSH1 0x40 MLOAD PUSH3 0x461BCD PUSH1 0xE5 SHL DUP2 MSTORE PUSH1 0x20 PUSH1 0x4 DUP3 ADD MSTORE PUSH1 0xD PUSH1 0x24 DUP3 ADD MSTORE PUSH13 0x9CCACAC840E6DEDACA408AA89 PUSH1 0x9B SHL PUSH1 0x44 DUP3 ADD MSTORE PUSH1 0x64 ADD PUSH2 0x4E1 JUMP JUMPDEST CALLER PUSH1 0x0 SWAP1 DUP2 MSTORE PUSH1 0x3 PUSH1 0x20 MSTORE PUSH1 0x40 SWAP1 KECCAK256 SLOAD ISZERO PUSH2 0x5C4 JUMPI PUSH1 0x40 MLOAD PUSH3 0x461BCD PUSH1 0xE5 SHL DUP2 MSTORE PUSH1 0x20 PUSH1 0x4 DUP3 ADD MSTORE PUSH1 0xE PUSH1 0x24 DUP3 ADD MSTORE PUSH14 0x43616E7420626964207477696365 PUSH1 0x90 SHL PUSH1 0x44 DUP3 ADD MSTORE PUSH1 0x64 ADD PUSH2 0x4E1 JUMP JUMPDEST PUSH1 0x2 DUP1 SLOAD PUSH1 0x1 DUP2 ADD SWAP1 SWAP2 SSTORE PUSH32 0x405787FA12A823E0F2B7631CC41B3BA8828B3321CA811111FA75CD3AA3BB5ACE ADD DUP1 SLOAD PUSH1 0x1 PUSH1 0x1 PUSH1 0xA0 SHL SUB NOT AND CALLER SWAP1 DUP2 OR SWAP1 SWAP2 SSTORE PUSH1 0x0 DUP2 DUP2 MSTORE PUSH1 0x3 PUSH1 0x20 SWAP1 DUP2 MSTORE PUSH1 0x40 DUP1 DUP4 KECCAK256 CALLVALUE SWAP1 SSTORE PUSH1 0x4 DUP3 MSTORE SWAP2 DUP3 SWAP1 KECCAK256 DUP5 SWAP1 SSTORE DUP2 MLOAD SWAP3 DUP4 MSTORE DUP3 ADD DUP4 SWAP1 MSTORE DUP1 MLOAD PUSH32 0x2853238C840E1DD18555551DFF41E5CD85668D2FDE7E4FC2F66A4E379FF4167C SWAP3 DUP2 SWAP1 SUB SWAP1 SWAP2 ADD SWAP1 LOG1 POP JUMP JUMPDEST PUSH1 0x0 SLOAD PUSH1 0x1 PUSH1 0x1 PUSH1 0xA0 SHL SUB AND CALLER EQ PUSH2 0x686 JUMPI PUSH1 0x40 MLOAD PUSH3 0x461BCD PUSH1 0xE5 SHL DUP2 MSTORE PUSH1 0x4 ADD PUSH2 0x4E1 SWAP1 PUSH2 0x1592 JUMP JUMPDEST PUSH1 0x2 PUSH1 0x1 SLOAD EQ ISZERO PUSH2 0x6A9 JUMPI PUSH1 0x40 MLOAD PUSH3 0x461BCD PUSH1 0xE5 SHL DUP2 MSTORE PUSH1 0x4 ADD PUSH2 0x4E1 SWAP1 PUSH2 0x15C7 JUMP JUMPDEST PUSH1 0x2 PUSH1 0x1 SSTORE PUSH1 0x4 PUSH1 0xF SLOAD PUSH1 0xFF AND PUSH1 0x4 DUP2 GT ISZERO PUSH2 0x6C7 JUMPI PUSH2 0x6C7 PUSH2 0x1527 JUMP JUMPDEST EQ PUSH2 0x6D1 JUMPI PUSH1 0x0 DUP1 REVERT JUMPDEST PUSH1 0x7 SLOAD ISZERO PUSH2 0x766 JUMPI PUSH1 0x7 DUP1 SLOAD PUSH1 0x0 SWAP1 SWAP2 SSTORE PUSH2 0x6F4 PUSH1 0x0 SLOAD PUSH1 0x1 PUSH1 0x1 PUSH1 0xA0 SHL SUB AND SWAP1 JUMP JUMPDEST PUSH1 0x1 PUSH1 0x1 PUSH1 0xA0 SHL SUB AND PUSH2 0x8FC DUP3 SWAP1 DUP2 ISZERO MUL SWAP1 PUSH1 0x40 MLOAD PUSH1 0x0 PUSH1 0x40 MLOAD DUP1 DUP4 SUB DUP2 DUP6 DUP9 DUP9 CALL SWAP4 POP POP POP POP ISZERO DUP1 ISZERO PUSH2 0x72C JUMPI RETURNDATASIZE PUSH1 0x0 DUP1 RETURNDATACOPY RETURNDATASIZE PUSH1 0x0 REVERT JUMPDEST POP PUSH1 0x40 MLOAD DUP2 DUP2 MSTORE PUSH32 0xA9BAE03C15D23DD001998395B3ADF7648085BF2FBA01211DF19DF18BE3A51B4D SWAP1 PUSH1 0x20 ADD PUSH1 0x40 MLOAD DUP1 SWAP2 SUB SWAP1 LOG1 POP PUSH2 0x832 JUMP JUMPDEST PUSH1 0xA SLOAD PUSH1 0x1 PUSH1 0x1 PUSH1 0xA0 SHL SUB AND PUSH4 0x42842E0E ADDRESS CALLER PUSH1 0xB SLOAD PUSH1 0x40 MLOAD PUSH1 0x1 PUSH1 0x1 PUSH1 0xE0 SHL SUB NOT PUSH1 0xE0 DUP7 SWAP1 SHL AND DUP2 MSTORE PUSH1 0x1 PUSH1 0x1 PUSH1 0xA0 SHL SUB SWAP4 DUP5 AND PUSH1 0x4 DUP3 ADD MSTORE SWAP3 SWAP1 SWAP2 AND PUSH1 0x24 DUP4 ADD MSTORE PUSH1 0x44 DUP3 ADD MSTORE PUSH1 0x64 ADD PUSH1 0x0 PUSH1 0x40 MLOAD DUP1 DUP4 SUB DUP2 PUSH1 0x0 DUP8 DUP1 EXTCODESIZE ISZERO DUP1 ISZERO PUSH2 0x7CB JUMPI PUSH1 0x0 DUP1 REVERT JUMPDEST POP GAS CALL ISZERO DUP1 ISZERO PUSH2 0x7DF JUMPI RETURNDATASIZE PUSH1 0x0 DUP1 RETURNDATACOPY RETURNDATASIZE PUSH1 0x0 REVERT JUMPDEST POP POP POP POP PUSH32 0x700A9BE0C495BC7C8168D01913054B681C4B7CD5A72376A4FE03F32F5166C28A PUSH2 0x816 PUSH1 0x0 SLOAD PUSH1 0x1 PUSH1 0x1 PUSH1 0xA0 SHL SUB AND SWAP1 JUMP JUMPDEST PUSH1 0x40 MLOAD PUSH1 0x1 PUSH1 0x1 PUSH1 0xA0 SHL SUB SWAP1 SWAP2 AND DUP2 MSTORE PUSH1 0x20 ADD PUSH1 0x40 MLOAD DUP1 SWAP2 SUB SWAP1 LOG1 JUMPDEST PUSH1 0x1 DUP1 SSTORE JUMP JUMPDEST PUSH1 0x1 PUSH1 0xF SLOAD PUSH1 0xFF AND PUSH1 0x4 DUP2 GT ISZERO PUSH2 0x851 JUMPI PUSH2 0x851 PUSH2 0x1527 JUMP JUMPDEST EQ ISZERO PUSH2 0x8B1 JUMPI PUSH1 0xC SLOAD TIMESTAMP LT ISZERO PUSH2 0x879 JUMPI PUSH1 0x40 MLOAD PUSH3 0x461BCD PUSH1 0xE5 SHL DUP2 MSTORE PUSH1 0x4 ADD PUSH2 0x4E1 SWAP1 PUSH2 0x15FE JUMP JUMPDEST PUSH1 0xF DUP1 SLOAD PUSH1 0xFF NOT AND PUSH1 0x2 OR SWAP1 SSTORE PUSH1 0x40 MLOAD PUSH32 0x96FAEDF2FA195434CEDBB880CB8B4608BBEB066005DC5AC6C4785935589D7A20 SWAP1 PUSH1 0x0 SWAP1 LOG1 JUMP JUMPDEST PUSH1 0x2 PUSH1 0xF SLOAD PUSH1 0xFF AND PUSH1 0x4 DUP2 GT ISZERO PUSH2 0x8CA JUMPI PUSH2 0x8CA PUSH2 0x1527 JUMP JUMPDEST EQ ISZERO PUSH2 0x96F JUMPI PUSH1 0xE SLOAD PUSH1 0xD SLOAD PUSH2 0x8E0 SWAP2 SWAP1 PUSH2 0x1641 JUMP JUMPDEST TIMESTAMP LT ISZERO PUSH2 0x92F JUMPI PUSH1 0x40 MLOAD PUSH3 0x461BCD PUSH1 0xE5 SHL DUP2 MSTORE PUSH1 0x20 PUSH1 0x4 DUP3 ADD MSTORE PUSH1 0x1C PUSH1 0x24 DUP3 ADD MSTORE PUSH32 0x5761697420756E74696C207365742074696D65202B206F666673657400000000 PUSH1 0x44 DUP3 ADD MSTORE PUSH1 0x64 ADD PUSH2 0x4E1 JUMP JUMPDEST PUSH1 0x0 SLOAD PUSH1 0x1 PUSH1 0x1 PUSH1 0xA0 SHL SUB AND CALLER EQ ISZERO PUSH2 0x95A JUMPI PUSH1 0x40 MLOAD PUSH3 0x461BCD PUSH1 0xE5 SHL DUP2 MSTORE PUSH1 0x4 ADD PUSH2 0x4E1 SWAP1 PUSH2 0x1659 JUMP JUMPDEST PUSH1 0xF DUP1 SLOAD PUSH1 0xFF NOT AND PUSH1 0x3 OR SWAP1 SSTORE PUSH2 0x96F PUSH2 0x1225 JUMP JUMPDEST JUMP JUMPDEST PUSH1 0x0 SLOAD PUSH1 0x1 PUSH1 0x1 PUSH1 0xA0 SHL SUB AND CALLER EQ PUSH2 0x99B JUMPI PUSH1 0x40 MLOAD PUSH3 0x461BCD PUSH1 0xE5 SHL DUP2 MSTORE PUSH1 0x4 ADD PUSH2 0x4E1 SWAP1 PUSH2 0x1592 JUMP JUMPDEST PUSH2 0x96F PUSH1 0x0 PUSH2 0x13C3 JUMP JUMPDEST PUSH1 0x0 SLOAD PUSH1 0x1 PUSH1 0x1 PUSH1 0xA0 SHL SUB AND CALLER EQ PUSH2 0x9CF JUMPI PUSH1 0x40 MLOAD PUSH3 0x461BCD PUSH1 0xE5 SHL DUP2 MSTORE PUSH1 0x4 ADD PUSH2 0x4E1 SWAP1 PUSH2 0x1592 JUMP JUMPDEST PUSH1 0x0 PUSH1 0xF SLOAD PUSH1 0xFF AND PUSH1 0x4 DUP2 GT ISZERO PUSH2 0x9E8 JUMPI PUSH2 0x9E8 PUSH2 0x1527 JUMP JUMPDEST EQ PUSH2 0x9F2 JUMPI PUSH1 0x0 DUP1 REVERT JUMPDEST PUSH1 0xA SLOAD PUSH1 0x1 PUSH1 0x1 PUSH1 0xA0 SHL SUB AND PUSH4 0x23B872DD CALLER PUSH1 0xB SLOAD PUSH1 0x40 MLOAD PUSH1 0x1 PUSH1 0x1 PUSH1 0xE0 SHL SUB NOT PUSH1 0xE0 DUP6 SWAP1 SHL AND DUP2 MSTORE PUSH1 0x1 PUSH1 0x1 PUSH1 0xA0 SHL SUB SWAP1 SWAP3 AND PUSH1 0x4 DUP4 ADD MSTORE ADDRESS PUSH1 0x24 DUP4 ADD MSTORE PUSH1 0x44 DUP3 ADD MSTORE PUSH1 0x64 ADD PUSH1 0x0 PUSH1 0x40 MLOAD DUP1 DUP4 SUB DUP2 PUSH1 0x0 DUP8 DUP1 EXTCODESIZE ISZERO DUP1 ISZERO PUSH2 0xA53 JUMPI PUSH1 0x0 DUP1 REVERT JUMPDEST POP GAS CALL ISZERO DUP1 ISZERO PUSH2 0xA67 JUMPI RETURNDATASIZE PUSH1 0x0 DUP1 RETURNDATACOPY RETURNDATASIZE PUSH1 0x0 REVERT JUMPDEST POP POP PUSH1 0xF DUP1 SLOAD PUSH1 0xFF NOT AND PUSH1 0x1 OR SWAP1 SSTORE POP POP PUSH1 0x40 MLOAD PUSH32 0x2F6F7F97E94F53DB5C4466AF22DABC3A2E2852BB871A001AAA29799FDB094341 SWAP1 PUSH1 0x0 SWAP1 LOG1 JUMP JUMPDEST PUSH1 0xE SLOAD PUSH1 0xD SLOAD PUSH2 0xAB3 SWAP2 SWAP1 PUSH2 0x1641 JUMP JUMPDEST TIMESTAMP LT ISZERO PUSH2 0xB02 JUMPI PUSH1 0x40 MLOAD PUSH3 0x461BCD PUSH1 0xE5 SHL DUP2 MSTORE PUSH1 0x20 PUSH1 0x4 DUP3 ADD MSTORE PUSH1 0x1C PUSH1 0x24 DUP3 ADD MSTORE PUSH32 0x5761697420756E74696C207365742074696D65202B206F666673657400000000 PUSH1 0x44 DUP3 ADD MSTORE PUSH1 0x64 ADD PUSH2 0x4E1 JUMP JUMPDEST PUSH1 0x0 SLOAD PUSH1 0x1 PUSH1 0x1 PUSH1 0xA0 SHL SUB AND CALLER EQ ISZERO PUSH2 0xB2D JUMPI PUSH1 0x40 MLOAD PUSH3 0x461BCD PUSH1 0xE5 SHL DUP2 MSTORE PUSH1 0x4 ADD PUSH2 0x4E1 SWAP1 PUSH2 0x1659 JUMP JUMPDEST PUSH1 0x2 PUSH1 0xF SLOAD PUSH1 0xFF AND PUSH1 0x4 DUP2 GT ISZERO PUSH2 0xB46 JUMPI PUSH2 0xB46 PUSH2 0x1527 JUMP JUMPDEST EQ PUSH2 0x95A JUMPI PUSH1 0x40 MLOAD PUSH3 0x461BCD PUSH1 0xE5 SHL DUP2 MSTORE PUSH1 0x20 PUSH1 0x4 DUP3 ADD MSTORE PUSH1 0x13 PUSH1 0x24 DUP3 ADD MSTORE PUSH19 0x77726F6E672061756374696F6E207374617465 PUSH1 0x68 SHL PUSH1 0x44 DUP3 ADD MSTORE PUSH1 0x64 ADD PUSH2 0x4E1 JUMP JUMPDEST PUSH1 0xC SLOAD TIMESTAMP LT ISZERO PUSH2 0xBAB JUMPI PUSH1 0x40 MLOAD PUSH3 0x461BCD PUSH1 0xE5 SHL DUP2 MSTORE PUSH1 0x4 ADD PUSH2 0x4E1 SWAP1 PUSH2 0x15FE JUMP JUMPDEST PUSH1 0x1 PUSH1 0xF SLOAD PUSH1 0xFF AND PUSH1 0x4 DUP2 GT ISZERO PUSH2 0xBC4 JUMPI PUSH2 0xBC4 PUSH2 0x1527 JUMP JUMPDEST EQ PUSH2 0x879 JUMPI PUSH1 0x40 MLOAD PUSH3 0x461BCD PUSH1 0xE5 SHL DUP2 MSTORE PUSH1 0x4 ADD PUSH2 0x4E1 SWAP1 PUSH2 0x1565 JUMP JUMPDEST PUSH1 0x2 PUSH1 0x1 SLOAD EQ ISZERO PUSH2 0xC04 JUMPI PUSH1 0x40 MLOAD PUSH3 0x461BCD PUSH1 0xE5 SHL DUP2 MSTORE PUSH1 0x4 ADD PUSH2 0x4E1 SWAP1 PUSH2 0x15C7 JUMP JUMPDEST PUSH1 0x2 PUSH1 0x1 SSTORE PUSH1 0x4 PUSH1 0xF SLOAD PUSH1 0xFF AND PUSH1 0x4 DUP2 GT ISZERO PUSH2 0xC22 JUMPI PUSH2 0xC22 PUSH2 0x1527 JUMP JUMPDEST EQ PUSH2 0xC2C JUMPI PUSH1 0x0 DUP1 REVERT JUMPDEST PUSH1 0x6 SLOAD PUSH1 0x1 PUSH1 0x1 PUSH1 0xA0 SHL SUB AND CALLER PUSH1 0x1 PUSH1 0x1 PUSH1 0xA0 SHL SUB AND EQ PUSH2 0xC4C JUMPI PUSH1 0x0 DUP1 REVERT JUMPDEST PUSH1 0xA SLOAD PUSH1 0x1 PUSH1 0x1 PUSH1 0xA0 SHL SUB AND PUSH4 0x42842E0E ADDRESS CALLER PUSH1 0xB SLOAD PUSH1 0x40 MLOAD PUSH1 0x1 PUSH1 0x1 PUSH1 0xE0 SHL SUB NOT PUSH1 0xE0 DUP7 SWAP1 SHL AND DUP2 MSTORE PUSH1 0x1 PUSH1 0x1 PUSH1 0xA0 SHL SUB SWAP4 DUP5 AND PUSH1 0x4 DUP3 ADD MSTORE SWAP3 SWAP1 SWAP2 AND PUSH1 0x24 DUP4 ADD MSTORE PUSH1 0x44 DUP3 ADD MSTORE PUSH1 0x64 ADD PUSH1 0x0 PUSH1 0x40 MLOAD DUP1 DUP4 SUB DUP2 PUSH1 0x0 DUP8 DUP1 EXTCODESIZE ISZERO DUP1 ISZERO PUSH2 0xCB1 JUMPI PUSH1 0x0 DUP1 REVERT JUMPDEST POP GAS CALL ISZERO DUP1 ISZERO PUSH2 0xCC5 JUMPI RETURNDATASIZE PUSH1 0x0 DUP1 RETURNDATACOPY RETURNDATASIZE PUSH1 0x0 REVERT JUMPDEST POP POP POP POP PUSH32 0x700A9BE0C495BC7C8168D01913054B681C4B7CD5A72376A4FE03F32F5166C28A PUSH2 0x816 CALLER SWAP1 JUMP JUMPDEST PUSH1 0x2 PUSH1 0x1 SLOAD EQ ISZERO PUSH2 0xD14 JUMPI PUSH1 0x40 MLOAD PUSH3 0x461BCD PUSH1 0xE5 SHL DUP2 MSTORE PUSH1 0x4 ADD PUSH2 0x4E1 SWAP1 PUSH2 0x15C7 JUMP JUMPDEST PUSH1 0x2 PUSH1 0x1 SSTORE PUSH1 0x4 PUSH1 0xF SLOAD PUSH1 0xFF AND PUSH1 0x4 DUP2 GT ISZERO PUSH2 0xD32 JUMPI PUSH2 0xD32 PUSH2 0x1527 JUMP JUMPDEST EQ PUSH2 0xD3C JUMPI PUSH1 0x0 DUP1 REVERT JUMPDEST CALLER PUSH1 0x0 SWAP1 DUP2 MSTORE PUSH1 0x3 PUSH1 0x20 MSTORE PUSH1 0x40 SWAP1 KECCAK256 SLOAD DUP1 PUSH2 0xD56 JUMPI PUSH1 0x0 DUP1 REVERT JUMPDEST CALLER PUSH1 0x0 DUP2 DUP2 MSTORE PUSH1 0x3 PUSH1 0x20 MSTORE PUSH1 0x40 DUP1 DUP3 KECCAK256 DUP3 SWAP1 SSTORE MLOAD DUP4 ISZERO PUSH2 0x8FC MUL SWAP2 DUP5 SWAP2 SWAP1 DUP2 DUP2 DUP2 DUP6 DUP9 DUP9 CALL SWAP4 POP POP POP POP ISZERO DUP1 ISZERO PUSH2 0xD91 JUMPI RETURNDATASIZE PUSH1 0x0 DUP1 RETURNDATACOPY RETURNDATASIZE PUSH1 0x0 REVERT JUMPDEST POP PUSH32 0xC9F3C6B79609B860090FFFD3A76FC2F0112FF1825F2D99AF5EF7E3AB2B6EEF3C CALLER PUSH1 0x40 DUP1 MLOAD PUSH1 0x1 PUSH1 0x1 PUSH1 0xA0 SHL SUB SWAP1 SWAP3 AND DUP3 MSTORE PUSH1 0x20 DUP3 ADD DUP5 SWAP1 MSTORE ADD PUSH1 0x40 MLOAD DUP1 SWAP2 SUB SWAP1 LOG1 POP PUSH1 0x1 DUP1 SSTORE JUMP JUMPDEST PUSH1 0x0 SLOAD PUSH1 0x1 PUSH1 0x1 PUSH1 0xA0 SHL SUB AND CALLER EQ PUSH2 0xE06 JUMPI PUSH1 0x40 MLOAD PUSH3 0x461BCD PUSH1 0xE5 SHL DUP2 MSTORE PUSH1 0x4 ADD PUSH2 0x4E1 SWAP1 PUSH2 0x1592 JUMP JUMPDEST PUSH1 0x2 PUSH1 0xF SLOAD PUSH1 0xFF AND PUSH1 0x4 DUP2 GT ISZERO PUSH2 0xE1F JUMPI PUSH2 0xE1F PUSH2 0x1527 JUMP JUMPDEST EQ PUSH2 0xE3C JUMPI PUSH1 0x40 MLOAD PUSH3 0x461BCD PUSH1 0xE5 SHL DUP2 MSTORE PUSH1 0x4 ADD PUSH2 0x4E1 SWAP1 PUSH2 0x1565 JUMP JUMPDEST PUSH1 0xD SLOAD TIMESTAMP LT ISZERO PUSH2 0xE5E JUMPI PUSH1 0x40 MLOAD PUSH3 0x461BCD PUSH1 0xE5 SHL DUP2 MSTORE PUSH1 0x4 ADD PUSH2 0x4E1 SWAP1 PUSH2 0x15FE JUMP JUMPDEST DUP2 DUP2 PUSH1 0x40 MLOAD PUSH1 0x20 ADD PUSH2 0xE71 SWAP3 SWAP2 SWAP1 PUSH2 0x16CB JUMP JUMPDEST PUSH1 0x40 MLOAD PUSH1 0x20 DUP2 DUP4 SUB SUB DUP2 MSTORE SWAP1 PUSH1 0x40 MSTORE DUP1 MLOAD SWAP1 PUSH1 0x20 ADD KECCAK256 PUSH1 0x8 SLOAD EQ PUSH2 0xECD JUMPI PUSH1 0x40 MLOAD PUSH3 0x461BCD PUSH1 0xE5 SHL DUP2 MSTORE PUSH1 0x20 PUSH1 0x4 DUP3 ADD MSTORE PUSH1 0x13 PUSH1 0x24 DUP3 ADD MSTORE PUSH19 0x90C2E6D0CAE640C8DE40DCDEE840DAC2E8C6D PUSH1 0x6B SHL PUSH1 0x44 DUP3 ADD MSTORE PUSH1 0x64 ADD PUSH2 0x4E1 JUMP JUMPDEST PUSH1 0x9 DUP2 SWAP1 SSTORE PUSH1 0xF DUP1 SLOAD PUSH1 0xFF NOT AND PUSH1 0x3 OR SWAP1 SSTORE PUSH1 0x40 MLOAD DUP2 DUP2 MSTORE PUSH32 0xFC8A1AF0498179AB028BD9B180740384D8D1625AE26C8E88DDAC563006AE586 SWAP1 PUSH1 0x20 ADD PUSH1 0x40 MLOAD DUP1 SWAP2 SUB SWAP1 LOG1 PUSH2 0xF1A PUSH2 0x1225 JUMP JUMPDEST POP POP JUMP JUMPDEST PUSH1 0x2 PUSH1 0xF SLOAD PUSH1 0xFF AND PUSH1 0x4 DUP2 GT ISZERO PUSH2 0xF37 JUMPI PUSH2 0xF37 PUSH2 0x1527 JUMP JUMPDEST EQ PUSH2 0xF75 JUMPI PUSH1 0x40 MLOAD PUSH3 0x461BCD PUSH1 0xE5 SHL DUP2 MSTORE PUSH1 0x20 PUSH1 0x4 DUP3 ADD MSTORE PUSH1 0xE PUSH1 0x24 DUP3 ADD MSTORE PUSH14 0x4E6F742072696768742074696D65 PUSH1 0x90 SHL PUSH1 0x44 DUP3 ADD MSTORE PUSH1 0x64 ADD PUSH2 0x4E1 JUMP JUMPDEST CALLER PUSH1 0x0 SWAP1 DUP2 MSTORE PUSH1 0x3 PUSH1 0x20 MSTORE PUSH1 0x40 SWAP1 KECCAK256 SLOAD PUSH2 0xFD1 JUMPI PUSH1 0x40 MLOAD PUSH3 0x461BCD PUSH1 0xE5 SHL DUP2 MSTORE PUSH1 0x20 PUSH1 0x4 DUP3 ADD MSTORE PUSH1 0x19 PUSH1 0x24 DUP3 ADD MSTORE PUSH32 0x596F7520617265206E6F742061207061727469636970616E7400000000000000 PUSH1 0x44 DUP3 ADD MSTORE PUSH1 0x64 ADD PUSH2 0x4E1 JUMP JUMPDEST CALLER PUSH1 0x0 SWAP1 DUP2 MSTORE PUSH1 0x5 PUSH1 0x20 MSTORE PUSH1 0x40 SWAP1 KECCAK256 SLOAD ISZERO PUSH2 0x1025 JUMPI PUSH1 0x40 MLOAD PUSH3 0x461BCD PUSH1 0xE5 SHL DUP2 MSTORE PUSH1 0x20 PUSH1 0x4 DUP3 ADD MSTORE PUSH1 0x14 PUSH1 0x24 DUP3 ADD MSTORE PUSH20 0x43616E206F6E6C792072657665616C206F6E6365 PUSH1 0x60 SHL PUSH1 0x44 DUP3 ADD MSTORE PUSH1 0x64 ADD PUSH2 0x4E1 JUMP JUMPDEST CALLER PUSH1 0x0 SWAP1 DUP2 MSTORE PUSH1 0x3 PUSH1 0x20 MSTORE PUSH1 0x40 SWAP1 KECCAK256 SLOAD DUP2 GT ISZERO PUSH2 0x1078 JUMPI PUSH1 0x40 MLOAD PUSH3 0x461BCD PUSH1 0xE5 SHL DUP2 MSTORE PUSH1 0x20 PUSH1 0x4 DUP3 ADD MSTORE PUSH1 0x11 PUSH1 0x24 DUP3 ADD MSTORE PUSH17 0x13D999995C881A5B9D985B1A59185D1959 PUSH1 0x7A SHL PUSH1 0x44 DUP3 ADD MSTORE PUSH1 0x64 ADD PUSH2 0x4E1 JUMP JUMPDEST DUP2 DUP2 PUSH1 0x40 MLOAD PUSH1 0x20 ADD PUSH2 0x108B SWAP3 SWAP2 SWAP1 PUSH2 0x16CB JUMP JUMPDEST PUSH1 0x40 MLOAD PUSH1 0x20 DUP2 DUP4 SUB SUB DUP2 MSTORE SWAP1 PUSH1 0x40 MSTORE DUP1 MLOAD SWAP1 PUSH1 0x20 ADD KECCAK256 PUSH1 0x4 PUSH1 0x0 PUSH2 0x10AC CALLER SWAP1 JUMP JUMPDEST PUSH1 0x1 PUSH1 0x1 PUSH1 0xA0 SHL SUB AND PUSH1 0x1 PUSH1 0x1 PUSH1 0xA0 SHL SUB AND DUP2 MSTORE PUSH1 0x20 ADD SWAP1 DUP2 MSTORE PUSH1 0x20 ADD PUSH1 0x0 KECCAK256 SLOAD EQ PUSH2 0x1110 JUMPI PUSH1 0x40 MLOAD PUSH3 0x461BCD PUSH1 0xE5 SHL DUP2 MSTORE PUSH1 0x20 PUSH1 0x4 DUP3 ADD MSTORE PUSH1 0x13 PUSH1 0x24 DUP3 ADD MSTORE PUSH19 0x90C2E6D0CAE640C8DE40DCDEE840DAC2E8C6D PUSH1 0x6B SHL PUSH1 0x44 DUP3 ADD MSTORE PUSH1 0x64 ADD PUSH2 0x4E1 JUMP JUMPDEST CALLER PUSH1 0x0 DUP2 DUP2 MSTORE PUSH1 0x5 PUSH1 0x20 MSTORE PUSH1 0x40 SWAP1 DUP2 SWAP1 KECCAK256 DUP4 SWAP1 SSTORE MLOAD PUSH32 0xF23315B5875C8D1E8E2D1F24E22EF7D94663E61A21F375F129CF311920F999FA SWAP2 PUSH2 0x1154 SWAP2 DUP6 SWAP1 DUP6 SWAP1 PUSH2 0x16ED JUMP JUMPDEST PUSH1 0x40 MLOAD DUP1 SWAP2 SUB SWAP1 LOG1 POP POP JUMP JUMPDEST PUSH1 0x0 SLOAD PUSH1 0x1 PUSH1 0x1 PUSH1 0xA0 SHL SUB AND CALLER EQ PUSH2 0x118A JUMPI PUSH1 0x40 MLOAD PUSH3 0x461BCD PUSH1 0xE5 SHL DUP2 MSTORE PUSH1 0x4 ADD PUSH2 0x4E1 SWAP1 PUSH2 0x1592 JUMP JUMPDEST PUSH1 0x1 PUSH1 0x1 PUSH1 0xA0 SHL SUB DUP2 AND PUSH2 0x11EF JUMPI PUSH1 0x40 MLOAD PUSH3 0x461BCD PUSH1 0xE5 SHL DUP2 MSTORE PUSH1 0x20 PUSH1 0x4 DUP3 ADD MSTORE PUSH1 0x26 PUSH1 0x24 DUP3 ADD MSTORE PUSH32 0x4F776E61626C653A206E6577206F776E657220697320746865207A65726F2061 PUSH1 0x44 DUP3 ADD MSTORE PUSH6 0x646472657373 PUSH1 0xD0 SHL PUSH1 0x64 DUP3 ADD MSTORE PUSH1 0x84 ADD PUSH2 0x4E1 JUMP JUMPDEST PUSH2 0x11F8 DUP2 PUSH2 0x13C3 JUMP JUMPDEST POP JUMP JUMPDEST PUSH1 0x2 DUP2 DUP2 SLOAD DUP2 LT PUSH2 0x120B JUMPI PUSH1 0x0 DUP1 REVERT JUMPDEST PUSH1 0x0 SWAP2 DUP3 MSTORE PUSH1 0x20 SWAP1 SWAP2 KECCAK256 ADD SLOAD PUSH1 0x1 PUSH1 0x1 PUSH1 0xA0 SHL SUB AND SWAP1 POP DUP2 JUMP JUMPDEST PUSH1 0x2 SLOAD PUSH1 0x0 SWAP1 DUP2 SWAP1 DUP2 SWAP1 ISZERO PUSH2 0x1367 JUMPI POP PUSH1 0x0 JUMPDEST PUSH1 0x2 SLOAD DUP2 LT ISZERO PUSH2 0x12D9 JUMPI DUP2 PUSH1 0x5 PUSH1 0x0 PUSH1 0x2 DUP5 DUP2 SLOAD DUP2 LT PUSH2 0x125A JUMPI PUSH2 0x125A PUSH2 0x1737 JUMP JUMPDEST PUSH1 0x0 SWAP2 DUP3 MSTORE PUSH1 0x20 DUP1 DUP4 KECCAK256 SWAP1 SWAP2 ADD SLOAD PUSH1 0x1 PUSH1 0x1 PUSH1 0xA0 SHL SUB AND DUP4 MSTORE DUP3 ADD SWAP3 SWAP1 SWAP3 MSTORE PUSH1 0x40 ADD SWAP1 KECCAK256 SLOAD GT ISZERO PUSH2 0x12C7 JUMPI DUP1 SWAP3 POP PUSH1 0x5 PUSH1 0x0 PUSH1 0x2 DUP4 DUP2 SLOAD DUP2 LT PUSH2 0x129F JUMPI PUSH2 0x129F PUSH2 0x1737 JUMP JUMPDEST PUSH1 0x0 SWAP2 DUP3 MSTORE PUSH1 0x20 DUP1 DUP4 KECCAK256 SWAP1 SWAP2 ADD SLOAD PUSH1 0x1 PUSH1 0x1 PUSH1 0xA0 SHL SUB AND DUP4 MSTORE DUP3 ADD SWAP3 SWAP1 SWAP3 MSTORE PUSH1 0x40 ADD SWAP1 KECCAK256 SLOAD SWAP2 POP JUMPDEST DUP1 PUSH2 0x12D1 DUP2 PUSH2 0x174D JUMP JUMPDEST SWAP2 POP POP PUSH2 0x1238 JUMP JUMPDEST DUP2 ISZERO PUSH2 0x1367 JUMPI PUSH1 0x9 SLOAD DUP3 LT PUSH2 0x1367 JUMPI PUSH1 0x2 DUP4 DUP2 SLOAD DUP2 LT PUSH2 0x12FB JUMPI PUSH2 0x12FB PUSH2 0x1737 JUMP JUMPDEST PUSH1 0x0 SWAP2 DUP3 MSTORE PUSH1 0x20 DUP1 DUP4 KECCAK256 SWAP1 SWAP2 ADD SLOAD PUSH1 0x6 DUP1 SLOAD PUSH1 0x1 PUSH1 0x1 PUSH1 0xA0 SHL SUB NOT AND PUSH1 0x1 PUSH1 0x1 PUSH1 0xA0 SHL SUB SWAP1 SWAP3 AND SWAP2 DUP3 OR SWAP1 SSTORE DUP3 MSTORE PUSH1 0x5 DUP2 MSTORE PUSH1 0x40 DUP1 DUP4 KECCAK256 SLOAD PUSH1 0x7 DUP2 SWAP1 SSTORE PUSH1 0x3 SWAP1 SWAP3 MSTORE SWAP1 SWAP2 KECCAK256 SLOAD PUSH2 0x134B SWAP2 SWAP1 PUSH2 0x1768 JUMP JUMPDEST PUSH1 0x6 SLOAD PUSH1 0x1 PUSH1 0x1 PUSH1 0xA0 SHL SUB AND PUSH1 0x0 SWAP1 DUP2 MSTORE PUSH1 0x3 PUSH1 0x20 MSTORE PUSH1 0x40 SWAP1 KECCAK256 SSTORE JUMPDEST PUSH1 0xF DUP1 SLOAD PUSH1 0xFF NOT AND PUSH1 0x4 OR SWAP1 SSTORE PUSH1 0x6 SLOAD PUSH1 0x7 SLOAD PUSH1 0x40 DUP1 MLOAD PUSH1 0x1 PUSH1 0x1 PUSH1 0xA0 SHL SUB SWAP1 SWAP4 AND DUP4 MSTORE PUSH1 0x20 DUP4 ADD SWAP2 SWAP1 SWAP2 MSTORE PUSH32 0xC5D1E2A43E1052756E222065802CB80A029BFAF7045B3DF42C5C87B92E48DE41 SWAP2 ADD PUSH1 0x40 MLOAD DUP1 SWAP2 SUB SWAP1 LOG1 POP POP POP JUMP JUMPDEST PUSH1 0x0 DUP1 SLOAD PUSH1 0x1 PUSH1 0x1 PUSH1 0xA0 SHL SUB DUP4 DUP2 AND PUSH1 0x1 PUSH1 0x1 PUSH1 0xA0 SHL SUB NOT DUP4 AND DUP2 OR DUP5 SSTORE PUSH1 0x40 MLOAD SWAP2 SWAP1 SWAP3 AND SWAP3 DUP4 SWAP2 PUSH32 0x8BE0079C531659141344CD1FD0A4F28419497F9722A3DAAFE3B4186F6B6457E0 SWAP2 SWAP1 LOG3 POP POP JUMP JUMPDEST PUSH1 0x0 PUSH1 0x20 DUP3 DUP5 SUB SLT ISZERO PUSH2 0x1425 JUMPI PUSH1 0x0 DUP1 REVERT JUMPDEST POP CALLDATALOAD SWAP2 SWAP1 POP JUMP JUMPDEST PUSH1 0x0 PUSH1 0x20 DUP3 DUP5 SUB SLT ISZERO PUSH2 0x143E JUMPI PUSH1 0x0 DUP1 REVERT JUMPDEST DUP2 CALLDATALOAD PUSH1 0x1 PUSH1 0x1 PUSH1 0xA0 SHL SUB DUP2 AND DUP2 EQ PUSH2 0x1455 JUMPI PUSH1 0x0 DUP1 REVERT JUMPDEST SWAP4 SWAP3 POP POP POP JUMP JUMPDEST PUSH4 0x4E487B71 PUSH1 0xE0 SHL PUSH1 0x0 MSTORE PUSH1 0x41 PUSH1 0x4 MSTORE PUSH1 0x24 PUSH1 0x0 REVERT JUMPDEST PUSH1 0x0 DUP1 PUSH1 0x40 DUP4 DUP6 SUB SLT ISZERO PUSH2 0x1485 JUMPI PUSH1 0x0 DUP1 REVERT JUMPDEST DUP3 CALLDATALOAD PUSH8 0xFFFFFFFFFFFFFFFF DUP1 DUP3 GT ISZERO PUSH2 0x149D JUMPI PUSH1 0x0 DUP1 REVERT JUMPDEST DUP2 DUP6 ADD SWAP2 POP DUP6 PUSH1 0x1F DUP4 ADD SLT PUSH2 0x14B1 JUMPI PUSH1 0x0 DUP1 REVERT JUMPDEST DUP2 CALLDATALOAD DUP2 DUP2 GT ISZERO PUSH2 0x14C3 JUMPI PUSH2 0x14C3 PUSH2 0x145C JUMP JUMPDEST PUSH1 0x40 MLOAD PUSH1 0x1F DUP3 ADD PUSH1 0x1F NOT SWAP1 DUP2 AND PUSH1 0x3F ADD AND DUP2 ADD SWAP1 DUP4 DUP3 GT DUP2 DUP4 LT OR ISZERO PUSH2 0x14EB JUMPI PUSH2 0x14EB PUSH2 0x145C JUMP JUMPDEST DUP2 PUSH1 0x40 MSTORE DUP3 DUP2 MSTORE DUP9 PUSH1 0x20 DUP5 DUP8 ADD ADD GT ISZERO PUSH2 0x1504 JUMPI PUSH1 0x0 DUP1 REVERT JUMPDEST DUP3 PUSH1 0x20 DUP7 ADD PUSH1 0x20 DUP4 ADD CALLDATACOPY PUSH1 0x0 PUSH1 0x20 SWAP4 DUP3 ADD DUP5 ADD MSTORE SWAP9 SWAP7 SWAP1 SWAP2 ADD CALLDATALOAD SWAP7 POP POP POP POP POP POP JUMP JUMPDEST PUSH4 0x4E487B71 PUSH1 0xE0 SHL PUSH1 0x0 MSTORE PUSH1 0x21 PUSH1 0x4 MSTORE PUSH1 0x24 PUSH1 0x0 REVERT JUMPDEST PUSH1 0x20 DUP2 ADD PUSH1 0x5 DUP4 LT PUSH2 0x155F JUMPI PUSH4 0x4E487B71 PUSH1 0xE0 SHL PUSH1 0x0 MSTORE PUSH1 0x21 PUSH1 0x4 MSTORE PUSH1 0x24 PUSH1 0x0 REVERT JUMPDEST SWAP2 SWAP1 MSTORE SWAP1 JUMP JUMPDEST PUSH1 0x20 DUP1 DUP3 MSTORE PUSH1 0x13 SWAP1 DUP3 ADD MSTORE PUSH19 0x57726F6E672061756374696F6E207374617465 PUSH1 0x68 SHL PUSH1 0x40 DUP3 ADD MSTORE PUSH1 0x60 ADD SWAP1 JUMP JUMPDEST PUSH1 0x20 DUP1 DUP3 MSTORE DUP2 DUP2 ADD MSTORE PUSH32 0x4F776E61626C653A2063616C6C6572206973206E6F7420746865206F776E6572 PUSH1 0x40 DUP3 ADD MSTORE PUSH1 0x60 ADD SWAP1 JUMP JUMPDEST PUSH1 0x20 DUP1 DUP3 MSTORE PUSH1 0x1F SWAP1 DUP3 ADD MSTORE PUSH32 0x5265656E7472616E637947756172643A207265656E7472616E742063616C6C00 PUSH1 0x40 DUP3 ADD MSTORE PUSH1 0x60 ADD SWAP1 JUMP JUMPDEST PUSH1 0x20 DUP1 DUP3 MSTORE PUSH1 0x13 SWAP1 DUP3 ADD MSTORE PUSH19 0x5761697420756E74696C207365742074696D65 PUSH1 0x68 SHL PUSH1 0x40 DUP3 ADD MSTORE PUSH1 0x60 ADD SWAP1 JUMP JUMPDEST PUSH4 0x4E487B71 PUSH1 0xE0 SHL PUSH1 0x0 MSTORE PUSH1 0x11 PUSH1 0x4 MSTORE PUSH1 0x24 PUSH1 0x0 REVERT JUMPDEST PUSH1 0x0 DUP3 NOT DUP3 GT ISZERO PUSH2 0x1654 JUMPI PUSH2 0x1654 PUSH2 0x162B JUMP JUMPDEST POP ADD SWAP1 JUMP JUMPDEST PUSH1 0x20 DUP1 DUP3 MSTORE PUSH1 0x22 SWAP1 DUP3 ADD MSTORE PUSH32 0x4F776E6572206D757374207573652077696E6E657243616C63756C6174696F6E PUSH1 0x40 DUP3 ADD MSTORE PUSH2 0x2829 PUSH1 0xF0 SHL PUSH1 0x60 DUP3 ADD MSTORE PUSH1 0x80 ADD SWAP1 JUMP JUMPDEST PUSH1 0x0 JUMPDEST DUP4 DUP2 LT ISZERO PUSH2 0x16B6 JUMPI DUP2 DUP2 ADD MLOAD DUP4 DUP3 ADD MSTORE PUSH1 0x20 ADD PUSH2 0x169E JUMP JUMPDEST DUP4 DUP2 GT ISZERO PUSH2 0x16C5 JUMPI PUSH1 0x0 DUP5 DUP5 ADD MSTORE JUMPDEST POP POP POP POP JUMP JUMPDEST PUSH1 0x0 DUP4 MLOAD PUSH2 0x16DD DUP2 DUP5 PUSH1 0x20 DUP9 ADD PUSH2 0x169B JUMP JUMPDEST SWAP2 SWAP1 SWAP2 ADD SWAP2 DUP3 MSTORE POP PUSH1 0x20 ADD SWAP2 SWAP1 POP JUMP JUMPDEST PUSH1 0x1 DUP1 PUSH1 0xA0 SHL SUB DUP5 AND DUP2 MSTORE PUSH1 0x60 PUSH1 0x20 DUP3 ADD MSTORE PUSH1 0x0 DUP4 MLOAD DUP1 PUSH1 0x60 DUP5 ADD MSTORE PUSH2 0x171A DUP2 PUSH1 0x80 DUP6 ADD PUSH1 0x20 DUP9 ADD PUSH2 0x169B JUMP JUMPDEST PUSH1 0x40 DUP4 ADD SWAP4 SWAP1 SWAP4 MSTORE POP PUSH1 0x1F SWAP2 SWAP1 SWAP2 ADD PUSH1 0x1F NOT AND ADD PUSH1 0x80 ADD SWAP3 SWAP2 POP POP JUMP JUMPDEST PUSH4 0x4E487B71 PUSH1 0xE0 SHL PUSH1 0x0 MSTORE PUSH1 0x32 PUSH1 0x4 MSTORE PUSH1 0x24 PUSH1 0x0 REVERT JUMPDEST PUSH1 0x0 PUSH1 0x0 NOT DUP3 EQ ISZERO PUSH2 0x1761 JUMPI PUSH2 0x1761 PUSH2 0x162B JUMP JUMPDEST POP PUSH1 0x1 ADD SWAP1 JUMP JUMPDEST PUSH1 0x0 DUP3 DUP3 LT ISZERO PUSH2 0x177A JUMPI PUSH2 0x177A PUSH2 0x162B JUMP JUMPDEST POP SUB SWAP1 JUMP INVALID LOG2 PUSH5 0x6970667358 0x22 SLT KECCAK256 DUP8 0xE6 0xA8 SLOAD PUSH17 0x59149EBBFEDC31FC50D07107539A090F4 0x22 0xB8 CALLCODE 0xCC PUSH31 0xC32016E8FA64736F6C634300080C0033A26469706673582212201E39634F62 0xCD PUSH11 0xB4CDA4CFFFC76D125787AC 0xF8 0xFC 0xCD 0x4A POP 0xCF 0x4A 0x29 0xA5 0xD 0xAA DELEGATECALL 0x2A 0xA8 PUSH5 0x736F6C6343 STOP ADDMOD 0xC STOP CALLER ","sha1":"3988eb6b033e0b8a86ccdeced30043f92cb4e4ec","source":"// SPDX-License-Identifier: MIT\n\npragma solidity ^0.8.0;\n\nimport \"@chainlink/contracts/src/v0.8/KeeperCompatible.sol\";\nimport \"./SealedBidAuction.sol\";\n\ncontract AuctionFactory is KeeperCompatibleInterface {\n\n    event StateChange1(uint8 state);\n    event StateChange2(uint8 state);\n\n    SealedBidAuction[] public sealedBidAuctionArrayContracts;\n\n    function createSealedBidAuctionContract(bytes32 _minimumPriceHash, address _nftContract, uint256 _tokenId, uint _revealTime, uint _winnerTime) public returns (uint256){\n        SealedBidAuction auction = new SealedBidAuction(_minimumPriceHash, _nftContract, _tokenId, _revealTime, _winnerTime);\n        sealedBidAuctionArrayContracts.push(auction);\n        auction.transferOwnership(msg.sender); \n    }\n\n    function getLastAddressInArray() public view returns (address){\n        return address(sealedBidAuctionArrayContracts[sealedBidAuctionArrayContracts.length -1]);\n    }\n\n    function getRevealTime(uint256 _i) public view returns (uint256){\n        return SealedBidAuction(address(sealedBidAuctionArrayContracts[_i])).revealTime();\n    }\n\n    function getWinnerTime(uint256 _i) public view returns (uint256){\n        return SealedBidAuction(address(sealedBidAuctionArrayContracts[_i])).winnerTime();\n    }\n\n    function getState(uint256 _i) public view returns (SealedBidAuction.AUCTION_STATE){\n        return SealedBidAuction(address(sealedBidAuctionArrayContracts[_i])).auction_state();\n    }\n\n    function changeState(uint256 _i) internal{\n        SealedBidAuction(address(sealedBidAuctionArrayContracts[_i])).nextPhase();\n    }\n\n    function checkUpkeep(bytes calldata /* checkData */) external view override returns (bool upkeepNeeded, bytes memory /* performData */) {\n        upkeepNeeded = false;\n        uint256 i = 0;\n        while(i < sealedBidAuctionArrayContracts.length && !upkeepNeeded){\n            if(((getWinnerTime(i) + 5 seconds < block.timestamp) && (uint8(getState(i)) == 2)) || ((getRevealTime(i) < block.timestamp) && (uint8(getState(i)) == 1))){\n                upkeepNeeded = true;\n            }\n            i++;\n        }\n    }\n\n    function checkKeep(bytes calldata /* checkData */) external view returns (bool) {\n        bool upkeepNeeded = false;\n        uint256 i = 0;\n        while(i < sealedBidAuctionArrayContracts.length && !upkeepNeeded){\n            if(((getWinnerTime(i) + 5 seconds < block.timestamp) && (uint8(getState(i)) == 2)) || ((getRevealTime(i) < block.timestamp) && (uint8(getState(i)) == 1))){\n                upkeepNeeded = true;\n            }\n            i++;\n        }\n        return upkeepNeeded;\n    }\n\n    function performUpkeep(bytes calldata /* performData */) external override {\n        uint256 i;\n        for(i = 0; i < sealedBidAuctionArrayContracts.length; i++){\n            if((getWinnerTime(i) + 5 seconds < block.timestamp) && (uint8(getState(i)) == 2)){\n                emit StateChange2(uint8(getState(i)));\n                changeState(i);\n            }else if((getRevealTime(i) < block.timestamp) && (uint8(getState(i)) == 1)){\n                emit StateChange1(uint8(getState(i)));\n                changeState(i);\n            }\n        }\n    }\n\n    \n    //function checkUpkeep(bytes calldata checkData) external view override returns (bool upkeepNeeded, bytes memory /* performData */) {\n    //    uint256 index = abi.decode(checkData, (uint256));\n    //    upkeepNeeded = getRevealTime(index) < block.timestamp;\n    //    // We don't use the checkData in this example. The checkData is defined when the Upkeep was registered.\n    //}\n\n    // function performUpkeep(bytes calldata performData) external override {\n    //    uint256 index = abi.decode(checkData, (uint256));\n    //    if (getRevealTime(index) < block.timestamp) {\n    //        changeState(index);\n    //    }\n    //}\n\n\n\n}","sourcePath":"contracts/AuctionFactory.sol","type":"contract","deployment":{"address":"0xfAe4bE562E72EFCdf0F88bAFAfF35d72597cDEDf","chainid":"4","blockHeight":10748476}}